:020000040800F2
:10200000601E002005210008F77300087D5F0008AE
:10201000F5730008173D0008EF910008000000006C
:10202000000000000000000000000000AD7B000880
:10203000894C00080000000021760008298700086C
:102040001F2100081F2100081F2100081F21000870
:102050001F2100081F2100081F2100081F21000860
:102060001F2100081F2100081F2100081F21000850
:10207000E5450008354700081F2100081F2100081A
:102080001F2100081F2100081F2100081F21000830
:10209000819100081F2100081F2100081F2100084E
:1020A0001F2100081F2100081F2100081F21000810
:1020B000C98700081F2100081F2100081F210008F0
:1020C000815F00081F2100081F2100081F21000850
:1020D0001F2100081F2100081F2100081F210008E0
:1020E0001F2100081F2100081F210008DFF810D061
:1020F00000F02CFB0048004749950008AFF3008032
:10210000601E00200648804706480047FEE7FEE7BD
:10211000FEE7FEE7FEE7FEE7FEE7FEE7FEE7FEE797
:1021200079870008ED20000840EA01039B0703D0EF
:1021300009E008C9121F08C0042AFAD203E011F806
:10214000013B00F8013B521EF9D27047D2B201E0C8
:1021500000F8012B491EFBD270470022F6E710B5AC
:1021600013460A4604461946FFF7F0FF204610BD05
:1021700010B5002200E0521C835C8C5CA34201D1AC
:10218000002BF8D1D8B2E1B2401A10BDF0B480EA09
:102190000102D40F4200B2EB410F02D202460846C0
:1021A00011464A0042D0C30DDDB2C1F3C752AD1A89
:1021B000202D35DAC1F3160141F4000204B1524278
:1021C000C5F1200602FA06F12A411044B3EBD05FB4
:1021D00023D0C4B1012DA0EBC35009DCF0BC4FF0FB
:1021E000004202EAC352DBB200F5000000F023BA5D
:1021F000400000F1807000EBC350A0F1807040EA15
:10220000D170490009E0490841EAC071A0EBC35010
:1022100000F50000400800EBC350F0BC00F002BA2B
:102220006142012202EB4101001BF6E7F0BC70475E
:1022300081F00041AAE780F00040A7E780EA0102B0
:1022400010B502F00043400022D04A001FD0010E1A
:1022500001EB1261C0F35600C2F3560240F40000D5
:1022600042F40002A0FB022000047F39140400D0D5
:10227000401C50EA124001D44000491EC2B20C0674
:1022800004EBD010401C4008802A02D003E000205C
:1022900010BD20F00100002900DA0020184310BD15
:1022A00030B480EA010202F0004530F0004221F033
:1022B000004013D090B1C30DD40DC2F31601C0F38A
:1022C0001600E41A41F4000140F400027D3491420A
:1022D00001D3641C00E04900002C02DA30BC00206D
:1022E00070474FF400000023914201D3891A034341
:1022F00040084FEA4101F7D151B1914202D14FF06C
:10230000004105E002D24FF0010101E06FF0010150
:1023100003EBC450284430BC00F084B92DE9FE4FD3
:1023200081EA030404F0004421F0004100944FF0DE
:10233000000B23F0004350EA01045ED052EA03048C
:102340005BD0C3F30A54C1F30A552C44A4F2F3340E
:102350000194A0FB0254C1F3130141F48011C3F3B3
:10236000130343F4801301FB024400FB034E840A71
:10237000970A44EA815447EA8357A4FB0768029509
:102380008D0A05FB07854FEA932C04FB0C542705A7
:10239000029D4FEA065847EA1637B5EB08056EEB83
:1023A000070C870E920E47EA811742EA8312A7FBB9
:1023B0000201B6EB0B0164EB00042B0D43EA0C3376
:1023C0005E1844EB1C50DA465146E7FB0201C5F3A8
:1023D00013044FEA0B3343EA14534FEA0432019CCF
:1023E00043EA0603A4F10C040294009CCDE900B476
:1023F00000F05EF903B0BDE8F08F00200146F9E778
:102400002DE9F04D81EA030404F0004B21F0004572
:1024100014464FF0000A23F0004150EA050220D094
:1024200054EA01021DD0C5F30A570246C5F313034F
:10243000C1F31300C1F30A5640F4801543F480132E
:10244000A7EB0608101BD64608F2FD3873EB050013
:1024500002D308F1010801E092185B41B8F1000FC6
:1024600003DA00200146BDE8F08D00204FF4801112
:10247000064684460EE0171B73EB050705D3121BB7
:1024800063EB050306434CEA010C49084FEA3000B0
:1024900092185B4150EA0107EDD152EA030012D0D5
:1024A00082EA040083EA0501084305D0101BAB4112
:1024B00006D20122002306E000224FF0004302E092
:1024C0006FF0010253101AEB06004CEB085110EBB1
:1024D0000A0041EB0B01BDE8F04D00F0DAB870B531
:1024E00021F0004303430CD0C1F30A550024D5EB7F
:1024F000040564EB0403D617AD1AB34102DB0020D8
:10250000014670BD201841EB025170BDC10F80EA39
:10251000E0700844CA079623002100F08CB8962387
:102520000022114600F087B80EB540F23341029107
:102530000021CDE900110A460B4600F0B9F803B0BE
:1025400000BD00F0004220F00040C10DC0F31600B5
:1025500040F400007F2901DA00207047962903DC4F
:10256000C1F19601C84001E096398840002AF4D0B4
:1025700040427047C1F30A5210B5C1F3130140F253
:10258000FF3341F480119A4201DA002010BD40F27D
:1025900033439A42A2F2334203DC524200F032F853
:1025A00010BD904010BD00F0004230F000400AD055
:1025B000C10D01F56071C0F3160042EA0151C20875
:1025C00040071143704700200146704701F0004367
:1025D00030B421F0004150EA010206D00A0DA2F504
:1025E0006072C1F31301002A02DC30BC0020704786
:1025F000440F44EAC104C100E01830BC00EBC250F3
:1026000000F010B8202A04DB203A21FA02F0002161
:10261000704721FA02F3D040C2F1200291400843F2
:10262000194670470029A8BF7047401C490008BFE1
:1026300020F00100704710B4B0FA80FC00FA0CF0F2
:1026400050EA010404BF10BC704749B1CCF120042A
:1026500021FA04F411FA0CF118BF012121430843B7
:10266000A3EB0C01CB1D4FEA00614FEA102042BFE3
:10267000002010BC704700EBC35010440029A4BFD9
:1026800010BC7047401C490008BF20F0010010BC7E
:10269000704710B5141E73F1000408DA401C41F1B4
:1026A000000192185B411A4301D120F0010010BDD6
:1026B0002DE9F04D92469B4611B1B1FA81F202E04C
:1026C000B0FA80F22032904600F052F804460F46ED
:1026D00040EA0A0041EA0B0153465A46084313D028
:1026E000114653EA010019D0C8F140025046FFF7E5
:1026F00089FF05460E4650465946424600F038F8D6
:10270000084305D0012004E020463946BDE8F08D9D
:102710000020054346EAE0762C4337430A986305D8
:10272000E40AA0EB08000022FD0A44EA47540A30FC
:1027300002D500200146E9E7010510196941DDE9EC
:10274000084500196941BDE8F04DA2E7064C074D68
:1027500006E0E06840F0010394E807009847103471
:10276000AC42F6D3FFF7C6FC409A0008609A000816
:10277000202A04DB203A00FA02F100207047914041
:10278000C2F1200320FA03F319439040704742003E
:1027900005D0C0F3C7525242914201DC002070477D
:1027A00000EBC150704770B58C1810F8015B15F044
:1027B000070301D110F8013B2A1106D110F8012BB3
:1027C00003E010F8016B01F8016B5B1EF9D12B07D8
:1027D00005D40023521E0DD401F8013BFAE710F88E
:1027E000013BCB1A921C03E013F8015B01F8015B7B
:1027F000521EF9D5A142D8D3002070BD00298168AE
:1028000002D041F0010101E021F001018160704737
:102810002DE9F05F2D490878002854D000202C4C79
:10282000024600BF24F81020401CC0B20828F9D38B
:10283000DFF8A080264E0025DFF898B0DFF898A0DA
:10284000894608F108081036CBF8146099F8001092
:102850004746404602F089F80121384601F0C2FFA0
:10286000012157465046FFF7C9FF0121384600F0C5
:10287000B0F8022002F034F80028FAD0022001F06B
:1028800099FF00213846FFF7B9FF0021404601F0CB
:10289000A9FF002034F8101036F81020114424F855
:1028A0001010401CC0B20828F4D36D1CEDB2082DE6
:1028B000CAD3002034F81010C90824F81010401CA6
:1028C000C0B20828F6D3BDE8F09F00002001002028
:1028D000240A0020000002400024014000298168F1
:1028E00002D041F4807101E021F480718160704771
:1028F000014600208968490700D50120704701463C
:1029000000208968090700D50120704710B542688A
:102910000E4B0C791A400B6842EA042213434360C1
:1029200083680B4A1340D1E9024222434C7943EABF
:1029300044031A438260C26A097C22F47002491E71
:10294000C9B242EA0151C16210BD0000FFFEF0FFB2
:10295000FDF7F1FF70B5072409290AD9C568A1F16F
:102960000A0606EB4606B440A543B3401D43C560C6
:1029700007E0056901EB4106B440A543B3401D43A0
:1029800005611F23072A09D2446B521E02EB820203
:1029900093409C4391400C43446370BD0D2A09D27F
:1029A000046BD21F02EB820293409C4391400C4384
:1029B000046370BDC46A0D3A02EB820293409C43EB
:1029C00091400C43C46270BD816841F00801816090
:1029D00070470029816802D041F4A00101E021F490
:1029E000A00181607047816841F0040181607047F7
:1029F00000EB4100B0F80B0040BA00B270471CB5C4
:102A00000446C3208DF80400E3208DF80500A07A69
:102A1000022301AA012103F0A9FC00218DF8041072
:102A20008DF80510002806D10091A07A022301AA92
:102A3000012103F095FB1CBD7CB5044600200D462A
:102A40000090A07A022301AA002103F089FB18B1AB
:102A50006168491C61607CBD04EB4501BDF8042040
:102A6000A1F80B202168491C21607CBD38B50C46BB
:102A70000546C32040EA04108DF80000E3208DF8DD
:102A80000100A87A02236A46012103F06FFC85F851
:102A9000254038BD70B506460D460024012002F0E1
:102AA000FDF8E87A297B41EA00208204920C32800A
:102AB0004FF0FF3100D10C4680EA102080EA101060
:102AC00080EA900080EA5000012800D10C462046A0
:102AD00070BD000038B5002180F82310012180F876
:102AE00024103F218DF80010FF218DF801100E49B0
:102AF0000A880B8803F001030B8022F003020A808E
:102B000090F90810094A52F83130DC6802EBC10133
:102B100089888C43DC6000F10B01012302226846A6
:102B200004F0CAFE38BD0000003001403000002033
:102B300010B5044600210D4801F054FE14F9080FA9
:102B40000B4951F83020D36801EBC0008088034363
:102B5000D3600120E076207706F090FBBDE81040BE
:102B60004FF48041034804F091BE00001C00024075
:102B70003000002000300140B0F80D0040BA00B233
:102B8000704770471CB5044601200090A07A0423CA
:102B900001AA0C2103F0E4FA18B16168491C6160D4
:102BA0001CBD0199C4F80B102168491C21601CBD93
:102BB00070B514460B00054604D010220A49184689
:102BC000FFF7B2FA002C0DD0074910221031204631
:102BD000FFF7AAFA2846BDE87040034910222031C9
:102BE000FFF7A2BA70BD0000440A002002490A881B
:102BF00002808978817070477C02002030B53649A8
:102C000000220A704A708A7090F84823E2B30022CA
:102C10005FF00104C2EB021300EB430393F844306E
:102C2000DB0704D00B7804FA02F52B430B70521C1F
:102C3000D2B2082AEED3002303EB4302141894F80F
:102C40002F2102F01F02072A1FD0052A1DD0082AB3
:102C50001BD0062A19D00C2A1BD00A2A19D00D2AFB
:102C600017D00B2A15D0112A17D00F2A15D0122AE7
:102C700013D0102A11D0152A13D0132A11D0162AD6
:102C80000FD0142A0DD010E01FE08A7842F0010224
:102C90000AE08A7842F0020206E08A7842F00402F2
:102CA00002E08A7842F008028A7094F83021920794
:102CB00006D494F92E21002A02DB4A78521C4A706D
:102CC0005B1CDBB2802BB7D330BDFF2008708020A7
:102CD00048700F20887030BD7C0200202DE9F04F35
:102CE0000446012197B0084604F0E2FC01214FF4AC
:102CF000047004F0F5FC0020FF4D431E4FF0010A64
:102D000000EB800105EBC101401C01F8083FD046F3
:102D100081F81BA081F81CA00828F1DB0026DFF851
:102D2000DC93B346A01990F92000052812D00A2898
:102D300031D00C2848D00D285BD00E286DD00F283C
:102D40007AD0102879D0192878D094F83300172831
:102D500075D019E199F8011000204A46C0EB001324
:102D600004EB430393F95230B3420FD108290DD23B
:102D700001EB810305EBC303491C83F809B01E7204
:102D800051701078401C89F80000FDE0401CC0B272
:102D90000828E3D3F8E099F801100020C0EB0013F5
:102DA00004EB430393F95230B34208D1082906D209
:102DB00001EB810005EBC00080F8098096E0401C23
:102DC000C0B20828EAD3DFE099F80110002000BF64
:102DD000C0EB001304EB430393F95230B34203D129
:102DE000082901D202237CE0401CC0B20828EFD39E
:102DF000CAE099F801200020C0EB001104EB41016A
:102E000091F95210B14203D1082A01D203212AE0DC
:102E1000401CC0B20828EFD3B6E099F8011000209A
:102E2000C0EB001304EB430393F95230B34207D1D4
:102E3000082905D2042354E007E023E042E05FE0E4
:102E4000401CC0B20828EBD39EE099F80120002076
:102E5000C0EB001104EB410191F95210B1420CD1C9
:102E6000082A0AD2052102EB820005EBC000521CA1
:102E70004172067289F8012086E0401CC0B2082821
:102E8000E6D381E099F8011000204F46C0EB001214
:102E900004EB420292F95220B2420ED108290CD220
:102EA00001EB810005EBC00006224272067204F0BD
:102EB000CFF87878401C787066E0401CC0B20828D3
:102EC000E4D361E099F80110002000BFC0EB0013CB
:102ED00004EB430393F95230B3420CD108290AD2D0
:102EE0000A2301EB810005EBC00043720672491C06
:102EF00089F8011048E0401CC0B20828E6D343E03E
:102F000094F8340018283FD148270020C0EB001166
:102F100004EB410191F95220921C1CD191F85810F8
:102F2000B94218D1C0EB001004EB400090F85810E3
:102F300099F8010000EB800005EBC00081720821C8
:102F40004172FE210172FFF75AFD99F80100401C01
:102F500089F8010003E0401CC0B20828D6D37F1CCA
:102F6000FFB24B2FD1D90020C0EB001104EB410779
:102F700097F95210891C03D197F85810362913D0AD
:102F8000401CC0B20828EFD3761C1E2EFFF6CAAE36
:102F900099F80080B8F1000F7DD0002299F80170F7
:102FA0001046002319464AE0C0EB001004EB400035
:102FB00047F6FF7290F8581099F80100002300EBD3
:102FC000800005EBC000817209214172FE2101726F
:102FD00040F6FF700090B7F93E00514206F00EFB3C
:102FE00080B2029040F6FF70009047F6FF72B7F98A
:102FF00042000023514206F001FB82B299F8010021
:10300000029900EB800005EBC000FFF7BAFD99F8CC
:103010000100401C89F80100B6E700BF01EB810602
:1030200005EBC60696F809C0BCF1000F06D196F96B
:1030300008C0844502D186F825200123491CB942E5
:10304000ECDB0BB1521CD2B2401CC0B20828A8D392
:103050004FF460208DF84880CDE9100BDFF8A08098
:103060008DF83CA05E46CDF838B08DF83DA00EA995
:1030700045464046FFF74AFC01212846FFF72EFC53
:103080000127DFF880A00025601990F820000528AE
:1030900018D1002000E056E0C0EB001104EB410124
:1030A00091F95210A94209D13A467F1CFFB21AF891
:1030B000351007234046FFF74DFC03E0401CC0B22B
:1030C0000828E7D36D1C082DDEDB0F4C204601F0ED
:1030D00095FB0B484C3003900C48CDE9040699F859
:1030E0000000CDE90606802008904000099080008D
:1030F000CDE90A06C0000BE0E40800202001002012
:10310000002401403C02002008000240240A002064
:10311000CDE90C0603A9204601F00AFC0121444632
:103120004046FFF76BFB2046FFF74EFC2046FFF7BB
:10313000E6FB0028FAD12046FFF755FC2046FFF7B2
:10314000D7FB0028FAD117B0BDE8F08F2DE9F04F7A
:1031500097B0044600250DF1100B00BFC5EB05101C
:1031600004EB400696F8501096F95200090996F8BB
:10317000583000287EDB221892F92020052A0ED034
:103180000A2A43D00C2A76D00D2A75D00E2A73D085
:103190000F2A71D0102A70D0192A6FD0AFE1FF4AE0
:1031A000002100BF01EB810302EBC30393F9083058
:1031B000834203D0491CC9B20829F3D396F85300BF
:1031C000C30810D001EB810102EBC10191F8252069
:1031D000F34931F8121084E000F6FF70AEE000BF52
:1031E000A0F6FF70AAE001EB810002EBC00090F8AE
:1031F0002510EB4830F8111085E000BF47F6FF704E
:10320000E84B00905BF825001A0D44E10021E34AE9
:10321000CDF83C1001EB810302EBC30393F90830B6
:10322000834203D0491CC9B20829F3D301EB8108BA
:1032300002EBC80791460FA9384605F077FD002834
:103240007DD159F83800401C49F8380096F85300F1
:10325000C1081BD0C008C0EB0010FFF760F90F9940
:10326000FEF7E9FFD0490F90884208D9CF49FEF711
:103270008DFF0AE0CDE017E048E064E0A2E0CC4931
:10328000884203DDC949FEF7D3FF0F90C9490F9863
:10329000FEF7D4FF0F90FFF754F96421484340F242
:1032A000252190FBF1F0A5E1BC4A002101EB81034F
:1032B00002EBC30393F90830834203D0491CC9B21F
:1032C0000829F3D396F85300C00801EB810002EB04
:1032D000C0004FF0000113D003F020FE014696F825
:1032E00053006FF05402C008504311EB40004BF8FC
:1032F00025003FF571AFB0F5805FFFF67FAF6FE758
:1033000003F00CFE01464BF8251077E7A34B002293
:1033100002EB820703EBC70797F90870874203D0D7
:10332000521CD2B2082AF3D396F85300C00802EB1D
:10333000820003EBC000CFD103F0F0FD00E05DE0C0
:103340004BF825005AE70022944FADF80C2000BF3F
:1033500002EB820307EBC30393F90830834203D0E7
:10336000521CD2B2082AF3D302EB8208B94607EB0B
:10337000C8070A46394603A803F03CFE3CE000BFFC
:1033800059F83810491C49F8381096F85300C1080C
:103390003CD0C008A0EBC00000EB4000BDF80C1012
:1033A00000EB801001EB40007D4900B2303110F598
:1033B000004F21F8150025DC4FF6FF72104471E034
:1033C000401C6FE00022754BADF80C2002EB820729
:1033D00003EBC70797F90870874203D0521CD2B29B
:1033E000082AF3D302EB820803EBC8070A46994682
:1033F000394603A8FFF74EFB0028C1D07868401C6F
:1034000078607CE0B0F5004FDADA78E0BDF80C00C7
:10341000F0E0821C02D0C01C7DD070E05F4A00202A
:1034200000EB800702EBC707BF7A9F4203D0401C26
:10343000C0B20828F4D300EB800002EBC000427A4F
:10344000082A02D0092A30D059E096F85320D20831
:1034500025D0FFF7CDFA96F85310C908A1EBC101AA
:1034600001EB410101EB811110EB41004BF825000C
:1034700003D547F6FF72104405E0B0F5004F04DBBA
:10348000A0F5FE40FF384BF8250047F6FF7200928A
:103490005BF825005342002106F0B0F8AAE0FFF7E0
:1034A000A7FAF0E721F8150029E096F85310C908AB
:1034B0004DD0FFF761FB96F853106FF05402C90826
:1034C000514310EB41014BF8251002D501F6FF7175
:1034D00004E0B1F5805F03DBA1F6FF714BF8251026
:1034E00047F6FF702F4B00905BF825001A0D002166
:1034F00006F084F801462A48303020F8151096F876
:10350000440005EB850142092548503000EBC1011C
:10351000A0F1200700E01EE037F9150002F020FAC4
:103520004BF8250096F851100A0667D401F07F0287
:1035300047F6FF770023794203928DE88A00B6F9B7
:103540004230B6F94020B6F93E105F46FCE0FFF786
:1035500013FB0146C2E7184B01EB410003EB80026D
:103560004FF400415068884201DB481E03E010F52B
:10357000004F01DC0B48506096F85300C2082DD074
:1035800096F85020C008120902EB420203EB8202B7
:1035900053686FF05402504310E00000E40800202C
:1035A000240A00200180FFFF000034C30000B44360
:1035B0000000344300007A44B415002013EB4000AF
:1035C0004BF8250002D5510C084404E088420FDB7B
:1035D000A0F5FE40FF384BF8250009E096F85000B2
:1035E000000900EB400003EB800041684BF8251018
:1035F0003BF82500FD4955E740421AE037F9151020
:10360000401A05F09DFF96F8511001F07F0202EB81
:10361000C201884248D2F6485F4600EB05113BF8EC
:10362000250000B203F0F8F8F0B3F048103830F994
:10363000150047F8250000BF96F85A1064295ED09F
:1036400096F95400002805DB96F8592002F007028D
:10365000012A15D096F95520002A05DB96F8592045
:10366000C2F3C102012A09D096F95620002A3EDB96
:1036700096F859300122B2EB531F38D100280EDBE7
:10368000DB4805EB4502803000EBC2000079C00644
:1036900005D596F8590000F00700012827D096F9C3
:1036A0005500002810DB00E03DE0D14805EB450265
:1036B000803000EBC200007BC00605D596F85900AB
:1036C000C0F3C100012812D096F95600002816DB7D
:1036D000C74805EB4502803000EBC200007DC00604
:1036E0000DD596F859200120B0EB521F07D15BF899
:1036F00025204A43642192FBF1F14BF8251002F09A
:1037000071FB86464FF000090D9196F954004A4628
:10371000CA464946002834DB96F8593003F00703BF
:10372000052B2CD02DE047F6FF714A420020009275
:10373000CDE901010390B6F94230B6F94020B6F95F
:103740003E105F465BF8250005F06AFF47F825004C
:1037500001B206F13E000B2204F03AFC47F82500C6
:1037600096F8501001F00F01491C04F045FB47F892
:10377000250096F8441089073FF53EAF5CE74FF00F
:10378000010996F95630002B07DB96F859C005273A
:10379000B7EB5C1F01D149F00409002806DB96F85D
:1037A000597007F00707032F00D1012296F95570D1
:1037B000002F08DB96F859C0CCF3C10CBCF1030F05
:1037C00001D142F00202002B08DB96F859C04FF0FD
:1037D0000308B8EB5C1F01D142F00402002808DBAB
:1037E00096F859C00CF0070CBCF1040F01D14FF052
:1037F000010A002B08DB96F859C04FF00408B8EB1B
:103800005C1F01D14AF0040A002806DB96F8590033
:1038100000F00700022800D10121002F07DB96F8F5
:103820005900C0F3C100022801D141F00201002B70
:1038300007DB96F859000223B3EB501F01D141F08A
:1038400004016B4805EB4503803000EBC300139384
:1038500003791F0967F3410303711593077B3B0944
:1038600063F341070773037D4FEA131C6CF34103B5
:10387000037596F954C0BCF1000F0DDBDFF87481BD
:1038800008EBCC0C9CF804C04FEA1C18DDF854C0BF
:1038900068F3041C80F804C096F95580B8F1000F55
:1038A0000ADBDFF850C10CEBC80C9CF804C04FEAEF
:1038B0001C1C6CF30417077396F95670002F08DB75
:1038C000DFF830C10CEBC7073F793F0967F30413FA
:1038D000037549EA020757EA0A077DD05FEAC97310
:1038E0003DD00379DFF80881C3F30017C3F3400C20
:1038F00008F18008674515D9DDF84CC04FF4FA7718
:103900001EEB070348F83C3096F857704FF6FF73EC
:10391000B3FBF7FC08F1C00757F82530634447F8BC
:1039200025304AE09B071AD5314BDDF84CC0803377
:1039300053F83C80DDF834C0BEEB08076CF1000C96
:103940004FF032080023B8EB070773EB0C0306DADD
:10395000274FDDF84CC0803747F83CE021E05FEAB4
:1039600049732AD5037DC3F30017C3F3400C6745A1
:1039700005D94FF4FA771EEB0703036111E09B07AB
:103980001BD5D0F810800D9BBEEB080863F1000337
:103990004FF0320C0027BCEB080C9F410DDAC0F849
:1039A00010E096F857704FF6FF73B3FBF7F7124B22
:1039B00053F825C0674443F825705FEACA733FD0C7
:1039C0000379DFF82C80C3F30017C3F3400C08F130
:1039D0008008674512D900E061E04FF4FA771EEBEA
:1039E0000703139F48F837301FE00000540A0020F7
:1039F000B40B002094110020F40C00209B071FD56D
:103A0000DDF84CC00D9FC14658F83CC04FF032085D
:103A1000BEEB0C0C67F100070023B8EB0C0CBB41AC
:103A20000EDADDF84CC049F83CE096F857604FF6E6
:103A3000FF73B3FBF6F69B4B53F82570BE1B19E0E2
:103A40005FEA4A7318D5037DC3F30017C3F3400C34
:103A5000674543D94FF4FA771EEB0703036196F8E5
:103A600057604FF6FF73B3FBF6F78E4B53F82560A4
:103A7000A6EB070643F82560D30702D00379DB06DF
:103A800009D4930702D5037BDB0604D4520706D57D
:103A9000027DD20603D5834B002243F82520A1B135
:103AA000CA0702D00279D20609D48A0702D5027B5E
:103AB000D20604D4490708D5007DC00605D55BF8B9
:103AC00025007849404241F82500764850F82510F5
:103AD000B1F5803F17DB4FF6FF7118E09B07CBD5A0
:103AE000D0F810C00D9FBEEB0C0367F100074FF03C
:103AF00032084FF0000CB8EB03037CEB070CBBDA89
:103B0000C0F810E091E711F5803F02DC664940F80B
:103B100025105BF8251050F825004FF4004C0844A0
:103B20005A464BF82500604502DB47F6FF7003E07C
:103B300010F5004F02DC5D4842F825006D1CEDB227
:103B4000082DFFF40BABDFF85C910021A9F1C0094F
:103B5000A9F5F87BA9F5E8780D464FF0805A4FF0AB
:103B6000E02300BF01EB410009EBC0000679F60637
:103B700007D5C1EB011604EB460696F859607607A7
:103B800023D0067BF60608D5C1EB011604EB4606EA
:103B900096F8596016F0180F17D0007DC00607D5AB
:103BA000C1EB011004EB400090F8590040090CD023
:103BB000C1EB011004EB400090F85900460751D0CA
:103BC00010F0180F4ED040094CD0C1EB011004EB9F
:103BD000400090F8446016F0180F43D0C6F3C107B8
:103BE000012F06D0022F13D0032F2ED052F8210020
:103BF00026E090F85300760700F0070052F82160A5
:103C000052F8200002D4064447F6FF70304415E015
:103C100090F85300760700F0070052F8216052F840
:103C2000200007D506EBD676761000EBD070A6EB19
:103C3000600003E0301AA0F5FE40FF3842F8210092
:103C4000604509DB47F6FF700AE090F8530000F08A
:103C5000070052F82000F1E710F5004F02DC13488E
:103C600042F821005046C3F880A132F82160C1EB30
:103C7000011736B204EB47072BF8116097F8447030
:103C8000FF0702D028F8116001E028F81150C3F8AE
:103C90000001491CC9B20829FFF464AF17B0BDE8A0
:103CA000F08F0000F40C00200100FFFF0180FFFFF7
:103CB0002DE9FF5F17468846834600226946104675
:103CC000FEF776FF5FF00004C4EB041101EB080679
:103CD00096F8C402C8B10025EA4606F2B62910E0FB
:103CE0003878802811D24A463AF91400294601F062
:103CF000DFFF3A780BF802003878401C6D1C3870F2
:103D0000EDB296F8C302A842EAD8641CE4B2082CCB
:103D1000DAD3BDE8FF9FFEE72DE9F047814602F0C8
:103D200061F82649DFF8988000224E788F7808F1F4
:103D3000800ABE4206D0B24204D9BA4202D8B9F8CB
:103D4000B45201E0B9F81C500AEBC20494F804C064
:103D500061466CF3410118F802C06CF30001217157
:103D60005FEA017C0AD401F00105C1F3400C65450E
:103D70001DD04AF8320041F0080117E001F00103BC
:103D8000C1F3400C63450AD15AF83230C31AAB4232
:103D900005D921F0080363F38203237107E05AF881
:103DA0003230C31AAB4202D921F008012171521CF2
:103DB000D2B2802ABDD3BDE8F08700007F02002088
:103DC000140D002070B515460C4618B18022074925
:103DD000FEF7AAF9002C07D0102205492046FEF76D
:103DE000A3F904480078287070BD0000140D00206D
:103DF000941500207F0200202DE9FC5FDFF830A33E
:103E00000025DFF8308306460AF58069AB4696F94F
:103E10003E03002700280FDA96F93F0300280BDA4B
:103E200096F94003002807DA96F94103002803DADF
:103E300096F9420300284EDB5FF0000404EB4400D7
:103E4000811991F92E01A84234D191F82F0142092C
:103E500030D047097A1E0120904098F80020104287
:103E600018D009EBC40C23469CF80400024660F30A
:103E700041028CF8042091F92E1160460AEBC10131
:103E80000979890861F30002AA498CF804203246B6
:103E9000C91D0DE009EBC4000279D3060AD522F052
:103EA0007D020271A34949F834B023463246C91D48
:103EB00002F0CAFD641CE4B2802CBFD35FB10024C1
:103EC00004EB4400304490F92E11A9422BD198F80C
:103ED000002022B327E0002404EB4400821992F969
:103EE0002E01A84216D109EBC407234639790846AA
:103EF00061F34100387192F92E210AEBC20132467A
:103F00000979890861F300008A4938713846C91D6A
:103F100002F09AFD641CE4B2802CDDD36DE090F8D1
:103F20002F21520932D0A94207D198F80020D20798
:103F300003D090F82F2152093AD0A94207D198F81E
:103F40000020920703D590F82F21520930D0A942C2
:103F500007D198F80020520703D590F82F21520975
:103F600026D0A94207D198F80020120703D590F86F
:103F70002F2152092BD0A9423AD198F80010C90636
:103F800036D590F82F01400912D031E009EBC40773
:103F900039790A4661F341023A7190F92E010AEB30
:103FA000C0000079800860F300023A71384609E0E9
:103FB00009EBC4000279D3061AD522F07D02027102
:103FC00049F834B05B4923463246C91D0EE009EB7F
:103FD000C4073979CA060BD521F07D0139715549DD
:103FE00049F834B023463246C91D384602F02CFD4C
:103FF000641CE4B2802CFFF463AF6D1CEDB2802D25
:10400000FFF405AF5A46434688F800B00020311847
:1040100091F93E13002908DB09EBC1011C780979ED
:10402000C1F30011814021431970401CC0B2052822
:10403000EDD34FF0E0254FF0805C00214FF0010AF6
:104040009346C5F880C1DFF8F0E0084600EB400277
:10405000324492F830319B074AD492F92E31002B2A
:1040600046DB0EEBD10400940194237801F007089D
:104070000AFA08F4A343019C0127237092F8302127
:10408000D20709EBC002127934D042F30012521C5D
:1040900002FA08F21A43009B83F8002096F848239E
:1040A00002B10FB1491CC9B2401C8028CEDB534677
:1040B0005C46C5F800C11F4E0020F61D06270725E7
:1040C000311F4FF004094FF0050A4FF0020B4FF07B
:1040D000030EFF2216F800C0BCF10D0F21D2DFE85D
:1040E0000CF0200C0E11142017201A1C20201E008A
:1040F0000027D3E7C2F30012CAE70F5412E001F819
:1041000000900FE001F800A00CE001F800B009E019
:1041100001F800E006E00C5404E00D5402E00B54FA
:1041200000E00A54401C0428D4DBBDE8FC9F0000DA
:10413000940D00207F02002094150020F8B504465D
:104140000E4600208DF800006A462146304603F0F6
:1041500013F96A462146304604F062F8094D9DF88D
:1041600000006A46687021463046FFF7A1FD9DF8C1
:104170000000A8706A462146304604F0E5F89DF834
:104180000000F8BD7F020020C1B2000A40EA012011
:10419000704700002DE9F84F0020ADF80000DFF86F
:1041A00034A14BF6BF7648F280074A4D4A4C40F6A0
:1041B0008F7848F60F7BDFF824910AF1440A31E04A
:1041C0000888474A10F00F00107034D0454901EBC1
:1041D0008001D1F8002CADF80020BDF800201204B9
:1041E0000BD5D1F8002C02EA0802C1F8002C3E4998
:1041F00001EB800050F8040C8047BDF80000000679
:1042000010D537483749007801EB8001D1F8002CF0
:1042100002EA0B02C1F8002C344901EB800050F88F
:10422000040C8047DAF800004946A9F800000004B1
:10423000C6D4BDE8F88F28682080208800F03000C0
:104240006080208800F4405020802868304080F44E
:10425000005080F02000384328600888C006286895
:1042600015D400EA0B00286002F08CFA26E02188C1
:10427000890401D580F400506188C90626D461887C
:10428000890601D580F0200038432860D1E7ADF8D9
:104290000000BDF80000000506D5286800EA080007
:1042A000286003F061FE09E0BDF800000004B9D504
:1042B000286800EA0800286003F074F9286821885B
:1042C0003040C904D3D580F48050D0E780F010008E
:1042D000D5E70000005C00404605002026040020D1
:1042E00034050020005000404C0400203004002021
:1042F00070B506460D461046002404E0315D641C8E
:10430000E4B203F02AF89C42F8D3C043C0B2A842FA
:1043100001D1012070BD002070BD0000810008485F
:104320000844D0F8001C490409D5D0F8001C48F610
:104330008F7211404CF280021143C0F8001C70478C
:1043400000500040810008480844D0F8001C49068D
:1043500009D5D0F8001C48F68F72114048F2C0020F
:104360001143C0F8001C704700500040810006480F
:104370000144D1F8000C48F68F62104048F28002E8
:104380001043C1F8000C704700500040174910B5A9
:104390000A68918841BB062804D1117801F07F0199
:1043A000012905D0117801F07F0121290AD01BE0F5
:1043B0009078222802D0212802D015E00C490CE088
:1043C0000C490AE0032802D009280DD101E00A496E
:1043D00003E00B4B09490920187029B100209161B5
:1043E00050828847002010BD022010BD38050020F3
:1043F000454400081D44000829440008954500086C
:1044000068040020014904F04FB80000780400203F
:10441000014904F049B8000070040020014904F08B
:1044200043B800008804002008B1044870470449DC
:104430000120096808820020704700006C040020F9
:1044400038050020014904F02FB800008004002046
:1044500005490968C978042901D300207047034A37
:1044600002EBC10104F020B838050020C004002090
:1044700009B9002800D002207047000006490968E9
:10448000097801F07F01212901D10B2801D00220F8
:10449000704700F073B8000038050020284810B5B8
:1044A000006800218172C1722649C97941720020D9
:1044B00003F0C0FB4FF40071002003F089FC1021D1
:1044C000002003F05BFC1821002003F0DFFB5821E3
:1044D000002003F035FC0020FFF748FF1A4890F851
:1044E0002C10002003F0E2FB002003F017FC4FF437
:1044F000C061012003F06CFC4FF48071012003F0D7
:104500001FFC4FF48271012003F0C0FB0021012049
:1045100003F026FC4021012003F0C8FB4FF440517A
:10452000012003F0E3FB2021012003F027FC002001
:1045300003F088FB0549012008600549087010BD9B
:1045400038050020CF02002090040020080500203C
:10455000BC02002004480068807A002802D0034989
:10456000052008607047000038050020080500207D
:1045700001490420086070470805002003480449E9
:104580000068C078486000207047000038050020AF
:104590006804002008B104487047044902200968F3
:1045A00008820020704700006904002038050020C0
:1045B0007047704710B501F0B1FC01F019FC01F033
:1045C000C7FC01F031FC054800240068847203F048
:1045D00057F804F0D7FD0248046010BD38050020EC
:1045E0000805002070B5202000F08AF900281CD0B2
:1045F000202000F0EBF800214B4800F0F3F84B4886
:1046000001890906FCD44A4E002400BF04EB840053
:1046100006EBC00595F90800002802DB95F8230099
:1046200020B1641CE4B2082CF0D370BD082CFCD27D
:1046300004EB840006EBC000407A01280CD002286D
:1046400010D0032814D004281AD0052822D0062818
:104650002DD00A2831D037E0641C2846E4B204F09B
:10466000B5FB2FE0641C2846E4B202F0A9FC29E067
:10467000284602F0A5FC95F82500A8B9012107E01D
:10468000284602F09DFC95F82500032809D30BE08D
:10469000284641E0284602F093FC95F825000728BB
:1046A00002D2401CC1B2F3E7641CE4B20AE0641C0D
:1046B0002846E4B202F014FE04E0641C2846E4B28A
:1046C000FEF736FA082CB0D204EB840006EBC000EB
:1046D00090F908100029E7DB90F823100029E3D0B7
:1046E00090F824100029DFD0417A01290FD0022947
:1046F00011D003290FD004290DD005290BD006298C
:104700000ED00A29D0D1BDE87040FEF7E3B9BDE86C
:10471000704004F03DBB0021BDE8704002F010BCC9
:10472000BDE8704002F0B6BD1C0002400030014000
:10473000E408002010B54FF40074204600F0E0F8C3
:1047400000281CD0204600F041F80021164800F057
:1047500049F81648018901890906FCD4144A002148
:1047600001EB810002EBC00090F90830002B02DB66
:1047700090F8243023B1491CC9B20829F0D310BDE8
:1047800001EB810102EBC101012381F824300021FA
:1047900080F82310417A0129F1D100220521BDE8DA
:1047A00010400C3003F0FAB83000024000300140F5
:1047B000E4080020C10002D50249086070470249A0
:1047C000486070470404024000000240C10002D566
:1047D000024908607047024948607047040402407B
:1047E000000002400029016802D041F0010102E00E
:1047F0004FF6FE72114001607047000001684FF6ED
:10480000FE72114001600021016041608160C16061
:104810003149314A0839904203D1486840F00F00CD
:1048200006E02D4A1432904204D1486840F0F0006E
:1048300048607047284A2832904203D1486840F4C3
:104840007060F5E7244A3C32904203D1486840F456
:104850007040EDE7204A5032904203D1486840F45E
:104860007020E5E71C4A6432904203D1486840F466
:104870007000DDE7184A7832904203D1486840F072
:104880007060D5E7154A111F904203D1086840F0C7
:104890000F0006E0114A1432904204D1086840F03B
:1048A000F000086070470D4A2832904203D1086832
:1048B00040F47060F5E7094A3C32904203D1086841
:1048C00040F47040EDE7054A50329042EAD1086862
:1048D00040F47020E5E700000800024008040240B0
:1048E00001460020CA0001D5034A00E0034A1268CD
:1048F0000A4200D00120704700040240000002403C
:1049000001460020CA0001D5034A00E0034A1268AC
:104910000A4200D00120704700040240000002401B
:10492000002A026801D00A4300E08A43026070470F
:1049300030B5036847F6F07293430C6A8A682243E5
:10494000D1E904452C4322438C692243CC6922439C
:104950004C6A22438C6A22431A430260CA6842604E
:104960000A6882604968C16030BD416070470000DC
:104970002DE9F047DFF89480254F4FF03009D8F843
:10498000001001F11005088A0E7A08B9042E04D02F
:10499000AC88A04215D8042614E01E4801780129ED
:1049A00003D00726102038802BE01B4A0021126814
:1049B0001A4B120403EBD2325160A7F80090017039
:1049C0001FE00226844200D90446A9682046884791
:1049D0008246002001F05EF901462246504604F06E
:1049E00007FC2146002003F0BBF92888001B288023
:1049F000688820446880A7F8009009494FF4405027
:104A00000880D8F800000672BDE8F087380500205D
:104A1000480500202C050020505C0040006000404C
:104A2000460500202DE9F0472A4EDFF8AC802B4FD9
:104A300035684FF0300935F8100FA968A9B100B3F7
:104A4000AC88844200D9044620468847824628889C
:104A5000001B2880688820446880002001F0FAF854
:104A600001462246504602F0C1FD288848B14FF465
:104A70004051A8F800100021084603F071F9A7F88A
:104A800000902888A988884201D3032001E020B142
:104A9000052031680872BDE8F08731680620087289
:104AA0000F480068806880473068007A08280AD07C
:104AB0000C49002009680C4A090402EBD131486016
:104AC00048463880E7E74FF48051A8F800101020DE
:104AD000F7E70000380500204605002048050020C3
:104AE0003C050020505C004000600040F8B55D4C83
:104AF0005D4D09262068002729684278062A05D0DE
:104B0000AAB1082A4DD00A2A50D06BE0027852068A
:104B100068D18078012804D0022804D0032804D06A
:104B200060E0C96956E0096A54E0496A52E0428887
:104B3000B2BBC288022A55D102798ABB02785306D9
:104B400001D1838833B102F07F02012A04D0022A06
:104B50000CD047E045493DE08A6940790021904703
:104B6000F0B92068807A0028F4D13BE0417901F067
:104B70000F0001F070020B063D4901EB8001D1F8F6
:104B8000001C03D5C1F30111090102E0C1F3013199
:104B90000903384B1B78834224D90AB90029D9D19B
:104BA00020E0007840061DD1334913E0027802F07E
:104BB0007F02012A16D1827AA2B1428892B9027983
:104BC00082B9C288012A0DD18A69407900219047B3
:104BD00040B92A4931B12068478281610020884765
:104BE000002006E029682068096940788847032882
:104BF00013D021680A8AA2F57F43FF3B0BD002281D
:104C00000ED06AB10878000626D5C8880090824286
:104C10000AD9088218E00E72F8BD20680672F8BD45
:104C20004FF008000872F8BD0ED22868144B90F8B7
:104C30002C00824201D21F7006E0B2FBF0F400FBB0
:104C4000142008B901201870286890F82C00888278
:104C5000BDE8F840FFF78CBE032008720949000345
:104C60000880F8BD380500203C050020ED840008D0
:104C700000500040E004002081840008C584000842
:104C80002C050020460500207047000002490860FE
:104C900008680028FCD170472000002000EB80004D
:104CA00000E0401E0028FCDC704701004FF00000CF
:104CB00000D101207047000010B5002808D0054A37
:104CC00000214FF4657354584450091D9942FAD39A
:104CD00010BD000000FC00082DE9F0410546FFF77B
:104CE000E4FF002813D10B4E00F01CFE304600F00C
:104CF000B7FD00244FF465772959301900F0EAFD1B
:104D0000241DBC42F8D3BDE8F04100F0DBBDBDE896
:104D1000F081000000FC000810B501440A4A91F837
:104D2000203002EBC00152F830008988022B04D0F9
:104D300000F03CFF28B1002010BDBDE8104000F09D
:104D400035BF012010BD00003000002001490120C6
:104D500008707047BC0200202DE9F04FB7B0022464
:104D600001F040F84FF4FA614018FA4908606946CA
:104D70004FF0010004F016FAF7489DF8002000F10A
:104D800020012491D23135911E3134911E3133915D
:104D90003C3132913C3131913C3130913C312F9159
:104DA0003C312E913C312D9120312C910F312B91A2
:104DB0000F3120910F312A910F3129911E31279106
:104DC0000F31269100F5207700F2013B00F5407A83
:104DD000343100F2833023912590022A07D04FF01E
:104DE00001096946032A7CD0042A7BD1A3E29DF8FD
:104DF0000190B9F1000F75D0B9F1100F72D80224EB
:104E0000D548FFF759FF402110A8FDF7A6F9022069
:104E10008DF840008DF841900DF140080DF15105DD
:104E200018AEB9F1110F5DD2DFE809F05C091B3350
:104E300049626C747C848E9398A9BEF9F700C64CC5
:104E40001A22A11C2088ADF8420008F10400FDF7E9
:104E50006BF9E069CDF85E000DF162001E22249925
:104E6000F0E0BD4E002500BFC5EB051006EB40018C
:104E70006D1CEDB208EB04001E223E31FDF754F923
:104E80001E34E4B2C4F140001E28EDD8402110A821
:104E9000F2E1B14E022500BFC5EB051006EB400163
:104EA0006D1CEDB208EB04001E223E31FDF73CF90B
:104EB0001E34E4B2C4F140001E28EDD8E6E7A64E49
:104EC000042500BFC5EB051006EB40016D1CEDB2DB
:104ED00008EB04001E223E31FDF726F91E34E4B231
:104EE00001E0B2E016E2C4F140001E28EAD8CDE7A6
:104EF00008F102001E223599FDF716F930461E22F0
:104F000034999FE008F102003C223399FDF70CF937
:104F1000F88D16E008F102003C223299FDF704F901
:104F2000388E0EE008F102003C223199FDF7FCF8C2
:104F3000788E06E008F102003C223099FDF7F4F883
:104F4000B88EADF87E00A1E708F102003C222F994F
:104F500078E008F102003C222E9973E008F102008B
:104F600018222D99FDF7E0F80DF15A000F222C9927
:104F7000FDF7DAF80DF169000F222B9962E008F1D4
:104F800002000F222099FDF7CFF828460F222A9918
:104F9000FDF7CAF830460F222999FDF7C5F80DF143
:104FA0006F000F2259464DE00F2208F102002799A9
:104FB000FDF7BAF828460F222699FDF7B5F820200C
:104FC000654A002102EB810408EB0003001D491C27
:104FD000D4F82E43C9B21C60C0B20429F2D3002118
:104FE0005418491C94F83E4308F80040401CC9B2CC
:104FF000C0B20529F4D308EB00025146801C31F8F9
:10500000443F1380C0B208EB00024B88801C138021
:10501000C0B2097908F8001038E70FE0FFE7504602
:10502000302250F8491FCDF842104168CDF84610A3
:105030000089ADF84A0013A8239903E008F10200A3
:1050400010222599FDF770F820E79DF801004FF038
:10505000030801F1200601F1110511282FD2DFE824
:1050600000F0FB091A2F455B666F7D868F9296AB29
:10507000BFFDFC00384CBDF802001A222080A01CA5
:10508000091DFDF751F8DDF81E00E0611E220DF14B
:105090002201249848E0304F00250E46C5EB05104C
:1050A00007EB40006D1CEDB231191E223E30FDF7BA
:1050B0003BF81E34E4B2C4F140001E28EED8CBE029
:1050C000254F02250E4600BFC5EB051007EB40003B
:1050D0006D1CEDB231191E223E30FDF725F81E344D
:1050E000E4B2C4F140001E28EED8B5E01A4F042502
:1050F0000E4600BFC5EB051007EB40006D1CEDB27E
:1051000031191E223E30FDF70FF81E34E4B2C4F10F
:1051100040001E28EED89FE01E22891C3598FDF71E
:1051200003F831461E223498FCF7FEFF9BE03C2238
:10513000891C3398FCF7F8FFBDF83E00F88592E033
:105140003C22891C3298FCF7EFFFBDF83E00388600
:1051500089E000000C0000208C1600203C22891CF5
:105160003198FCF7E1FFBDF83E0078867BE03C22F9
:10517000891C3098FCF7D8FFBDF83E00B88672E075
:105180003C222F9801E02E983C22891CCCE7182263
:10519000891C2D98FCF7C8FF0F220DF11A012C98DD
:1051A000FCF7C2FF0F220DF129012B98FCF7BCFF81
:1051B0000F220EA92098B7E70F22891C2098FCF730
:1051C000B3FF29460F222A98FCF7AEFF31460F2283
:1051D0002998FCF7A9FF0F2258460DF12F01A3E7EC
:1051E0000C460F22891C2798FCF79EFF29460F22A8
:1051F0002698FCF799FF20215B4A0020651802EBF6
:105200008003091D401C2D68C0B2C3F82E53C9B2DB
:105210000428F3D3625C5046491CC9B200F83E2F03
:10522000625C491CC9B24270625C491CC9B282709E
:10523000625C491CC9B2C270625C491C0271C9B28D
:105240006218891C1288C280C9B26218891C12882F
:10525000C9B20281615C817201E01FE00FE09DF83C
:10526000010010281FD29DF801008DF88080401C9D
:105270008DF88100022120A803F074FE68E05046FA
:10528000DDF8021040F8491FDDF806104160BDF856
:105290000A100181302203A9239845E71022891CB6
:1052A0002598FCF741FF30484FF4B1720188B2EB0A
:1052B000111F30D08DF88880FE208DF889000221E2
:1052C00022A803F04FFE10208DF883008DF8829005
:1052D0004002264DADF8800020A9284600F0E8FBEA
:1052E000A814ADF8800020A9214800F0E1FB204E71
:1052F0000024204F0C36306880F480503060E8681D
:1053000080F40050E8603846FFF7C8FC641CE4B243
:10531000062CF0D31CE041F2246101801248FFF713
:10532000DBFC15480168154A01F4E0611143016096
:10533000BFF34F8FFEE712A420AD1DCC85E81D0002
:1053400020A8491CFCF714FF10B9114981F80090FE
:1053500040216846FCF701FF4FF44051012002F064
:10536000C5FC37B0BDE8F08F8C160020001001405E
:10537000000C0140400D03000CED00E00400FA05B4
:10538000626F6F746C6F616465722072756E00007D
:10539000000000202DE9F34FCD4E83B00C4696F966
:1053A0000900002807DB96F90A00002803DBC9483A
:1053B000B0F900007060012000EB400106EB8101B4
:1053C00091F90920002A08DB91F90A10002904DB71
:1053D0000125DFF804A3AB4605E0401C1028EBDBF9
:1053E00005B0BDE8F08F00F0FDFC05EB450106EBD4
:1053F000810292F90930002B7EDB92F90A70002FAE
:10540000FADB92F808C04FEA8C6C4FEA1C6C82F809
:1054100008C0E14603EB430CA444CDF804C09CF95A
:105420002E811AF808C0BCF1000F03D049F0010C1E
:1054300082F808C007EB470CA444CDF800C09CF9E3
:105440002E811AF808C0BCF1000F05D092F808C0F0
:105450004CF0020C82F808C092F808C0E1460CF04B
:105460000308CCF3810CE0457ED004EB050C9CF8DE
:1054700083C3BCF1010F07D0BCF1020F09F00F0C80
:1054800011D0DFF8588205E0DFF8508209F00F0CE8
:1054900008F1100818F90CE0BEF1000F72D007DD1A
:1054A0004FF0010806E0DFF8348208F12008F1E748
:1054B0004FF0FF3892F90BC068F3030C82F80BC071
:1054C00056F82180A0EB0808B8F1320F04D84CF34D
:1054D0000308B8EB2C1F56D1BEF1000F20DD019F51
:1054E00097F82F715FEA571C0ED04FF0FF3C0CEB82
:1054F000571C0BFA0CF700E0CFE0DFF8E4C19CF892
:1055000000C017EA0C0F06D0039F07EBC3031F79F7
:1055100047F010071F71D37A23F0F00310331CE01B
:10552000009B93F82F315FEA531C0CD04FF0FF3CE7
:105530000CEB531C0BFA0CF3DFF8A4C19CF800C071
:1055400013EA0C0F06D0039B03EBC7031F7947F048
:1055500010071F71D37A43F0F003D37246F821008D
:10556000576807EB0E0300E09CE05360B3F5004F73
:1055700002DB47F6FF7303E013F5004F45DC594BA0
:10558000536042E049E046F82100D2F8048008EB7D
:105590002C18C2F804804FEA89084FEA2C1C82F8C4
:1055A0000880BCF1000F16DD019F97F82F715FEAAC
:1055B000571C0CD04FF0FF3C0CEB571C0BFA0CF7B0
:1055C000DFF81CC19CF800C017EA0C0F25D0039F20
:1055D00007EBC30315E0009B93F82F315FEA531CE0
:1055E0000CD04FF0FF3C0CEB531C0BFA0CF3DFF824
:1055F000F0C09CF800C013EA0C0F0ED0039B03EB25
:10560000C7031F7947F010071F7192F90930002B6B
:1056100043DB92F90A30002B3FDB92F9093003EBB0
:105620004303234493F830315B09012B3ED0022B16
:105630003FD0032B40D0642784F81E7092F90A30C3
:1056400003EB4303234493F830315B09012B36D03D
:10565000022B37D0032B38D06423A37756F821C010
:10566000A0EB0C0CBC450AD992F909C0039F07EBCB
:10567000CC0797F804C02CF0100C87F804C056F83B
:105680002110401A984208D992F90A10039800EBA9
:10569000C100017921F0100101716D1C102DFFF680
:1056A0009BAE9DE64FEA99031372B6E7B4F8AE726B
:1056B000C4E7B4F8B072C1E7B4F8B272BEE7B4F8A8
:1056C000AE32CBE7B4F8B032C8E7B4F8B232C5E7CF
:1056D000B4150020242C0140140D00208A02002063
:1056E0007F0200200180FFFF2DE9F04707464FF0C1
:1056F000FF3080460021434D88B04FF001094446F9
:105700000E4600BF01EB410305EB8302491C5072BA
:105710009072167245F823601029F3DB97F8280081
:10572000062833D197F8290006282FD1082169725D
:105730000921A97203A801F0DFFF0121C80201F0CD
:10574000CFFF4FF6FF70ADF80400ADF800601020F9
:10575000DFF8B4A0ADF80200ADF806606946504627
:1057600003F08CFA97F883034FF0020302281A46DD
:1057700001D0012100E00321504603F08CF92248BA
:10578000243006800121504603F07BF95FF00001D0
:1057900001EB4100384490F82F0100F01F0017285A
:1057A00029D1414527DD002000EB40023A4492F820
:1057B0002F2102F01F02182A1AD1A04218DDB9F1D8
:1057C000100F15D209EB490205EB82024BB253725E
:1057D00044B29472D07A984620F00F00401C20F01A
:1057E000F0001030D07209F1010000F0FF0902E072
:1057F000401C8028D8DB491C8029C9DB08B0BDE8E3
:10580000F0870000B4150020002C01400F48C1694A
:1058100041F0C051C1610E490A6842F480720A60C9
:105820000C4B44F24C221A800A6822F480720A60FF
:10583000C16921F0C051C16107480168074A01F4FC
:10584000E06111430160BFF34F8FFEE7001002409B
:1058500000700040106C00400CED00E00400FA0500
:1058600070B505464FF43026304600F067F804283E
:1058700011D1094C206940F0020020616561206966
:1058800040F040002061304600F058F8216941F6B0
:10589000FD721140216170BD0020024008490420C2
:1058A000CA68D20701D001207047CA68520701D5E3
:1058B00002207047C968C906FBD503207047000065
:1058C000002002400248016941F0800101617047F7
:1058D000002002402DE9F841064600204FF4005711
:1058E00000900D46384600F029F8042816D10C4CDB
:1058F000206940F0010020613580B846384600F04C
:105900001DF8BF1E042806D1B61C280C0096308056
:10591000404600F013F8216939402161BDE8F88163
:10592000002002400348024941600349416070473A
:105930002301674500200240AB89EFCD00B5034647
:10594000FFF7ACFF03E000BFFFF7A8FF5B1E0128D5
:1059500003D0002B00D1052000BD002BF4D1FAE7C5
:1059600030B5082A71D2DFE802F0A004182E445A9C
:1059700071864E4BB3F900204243132001EB4004E3
:1059800034F9024C21F8104033F91050401E04FB4A
:10599000052210F0FF00F1D182E0444B2833B3F927
:1059A000002042435FF0130001EB400434F9024C45
:1059B00021F8104033F91050401E04FB052210F06E
:1059C000FF00F1D16CE0394B5033B3F90020424372
:1059D0005FF0130001EB400434F9024C21F8104051
:1059E00033F91050401E04FB052210F0FF00F1D1E6
:1059F00056E02E4B7833B3F9002042435FF013009A
:105A000001EB400434F9024C21F8104033F91050F6
:105A1000401E04FB052210F0FF00F1D140E0234BB3
:105A2000A033B3F9002042435FF0130001EB4004C0
:105A300034F9024C21F8104033F91050401E04FB99
:105A4000052210F0FF00F1D12AE02EE0174BC833F9
:105A5000B3F900204243132001EB400434F9024C17
:105A600021F8104033F91050401E04FB052210F0BD
:105A7000FF00F1D114E00D4BF033B3F900204243A5
:105A80005FF0130001EB400434F9024C21F81040A0
:105A900033F91050401E04FB052210F0FF00F1D135
:105AA000642092FBF0F000B2088030BD220100209B
:105AB000F0B5CA78002502F00F03D20601D58A7826
:105AC00013430A784FF00F0E12F0FF0F4FF0010250
:105AD0001CD004680F8802FA05F63740B74211D18E
:105AE0004FEA850C0EFA0CF724EA070703FA0CF4C8
:105AF0003C43CF78282F02D0482F02D002E04661E5
:105B000000E006616D1C082DE4D304600C88FF2CB6
:105B10001ED944685FF0000606F1080702FA07F58F
:105B20000F882F40AF420FD14FEA860C0EFA0CF7C8
:105B3000BC4303FA0CF73C43CF78282F00D14561D2
:105B4000CF78482F00D10561761C082EE4D344603D
:105B5000F0BD0000F0B5144C002801DAE36900E064
:105B60006368420D120185B2C0F301579540C0F33E
:105B70000346032F05D0C2020AD50322B240934345
:105B800007E023F07062636823F07063636002E0F3
:105B9000AB4343F0706201B12A43002801DAE261AD
:105BA000F0BD6260F0BD0000000001400246002030
:105BB00092680A4200D0012070470AB10161704723
:105BC0004161704730B589B00121042001F07CFDAE
:105BD0000121082001F084FD11200024ADF81400FB
:105BE0001A4DADF81040ADF81640ADF8124004A9BA
:105BF000284603F043F86020ADF800000120ADF81E
:105C000002000920ADF80600ADF8084069462846B4
:105C100002F06EFF0821284602F0AAFF0121284663
:105C200002F022FF4020ADF81C0018208DF81F0064
:105C300003208DF81E0007A90548FFF739FF012151
:105C4000284602F01EFF09B030BD000000080040E9
:105C5000000C01400549096889B201EBC000044904
:105C600001EB4000008980B270470000505C0040AA
:105C7000006000400549096889B201EBC000044991
:105C800001EB40008089C0F309007047505C004080
:105C9000006000400449096889B201EBC000034973
:105CA00031F8100080B27047505C00400060004046
:105CB00030B5034647F6FF74234414780020C4EB44
:105CC00004455478C3EB0323C4EB04449D4203D83A
:105CD0009C4201D300297DD09C4206D29478C4EB2B
:105CE00004449C4201D3012979D09478C4EB044444
:105CF0009C4206D2D478C4EB04449C4201D30229CE
:105D00006DD0D478C4EB04449C4206D21479C4EB21
:105D100004449C4201D3032961D01479C4EB0444A8
:105D20009C4206D25479C4EB04449C4201D304291A
:105D300055D05479C4EB04449C4206D29479C4EB08
:105D400004449C4201D3052949D09479C4EB04440E
:105D50009C4206D2D479C4EB04449C4201D3062968
:105D60003DD0D479C4EB04449C4206D2147AC4EBEF
:105D700004449C4201D3072931D0147AC4EB044473
:105D80009C4206D2547AC4EB04449C4201D30829B5
:105D900025D0547AC4EB04449C4206D2947AC4EBD6
:105DA00004449C4201D3092919D0947AC4EB0444D9
:105DB0009C4206D2D47AC4EB04449C4201D30A2903
:105DC0000DD0D47AC4EB04449C4209D2127BC2EBBE
:105DD000024200E003E09A4202D30B2900D10120E5
:105DE00030BD000001498868C96870472000002064
:105DF00030B5ADF5657D6846FEF75EFF1A230949AB
:105E0000002004460DF10202155C01F8105001EB70
:105E10004005401CC0B26C709842F5D30DF5657D0D
:105E200030BD0000D603002008B56846FCF7DEFE52
:105E30009DF801003849002801D0024601E04FF0EA
:105E4000010281F868200CD0A0F101004FEAE07255
:105E500000EB52704FEAE0004FEAC00000F108008A
:105E600001E04FF0000081F870009DF80000C207CB
:105E700001D0302200E0042281F82920820701D5D8
:105E8000312200E0042281F82B20420701D5322282
:105E900000E0042281F82D20020701D5332200E022
:105EA000042281F82F20C20601D5342200E004220A
:105EB00081F83120820601D5352200E0042281F8E4
:105EC0003320420601D5362200E0042281F8352035
:105ED000000601D5362000E0042081F837009DF847
:105EE0000200C20700D0392281F84520820701D57F
:105EF000392200E0002281F85820420701D53922DA
:105F000000E0002281F85C20000701D5392000E084
:105F1000002081F8600008BDF80200200A4810B592
:105F20000168001D0468001D006808180BD00822D5
:105F3000064900F055FC054920460422BDE8104002
:105F4000103100F04DBC10BDE8F7FF1F0A0400201F
:105F500000B5ADF5657D6846FEF7AEFE0648BDF8B6
:105F600044130172090A4172BDF846138172090A8D
:105F7000C1720DF5657D00BDBD020020FEE7000089
:105F8000184882B0002102880092520504D5028888
:105F900022F4806202800091009A920504D5028862
:105FA00022F4806202800091009AD20504D5028812
:105FB00022F4807202800091009A120504D50288B2
:105FC00022F400620280009106481438018841F4EE
:105FD00000410180018821F40041018002B000F0FD
:105FE0008BB90000145400400029018802D041F40C
:105FF000806101E021F48061018070470246002049
:10600000938A128B43EA024323F07F42914300D1EB
:10601000012070470029018802D041F0010101E010
:1060200021F00101018070470029018802D041F46C
:10603000807101E021F4807101807047002901889E
:1060400002D041F4007101E021F400710180704739
:106050000CB50246002000920A0F21F07F41019208
:1060600002D0009A143202E0009A090C1832009211
:1060700012680A4200D001200CBD002A828801D09B
:106080000A4300E08A4382807047000070B50446EE
:10609000808886B00D4620F03F06684601F02CFB54
:1060A00027490298B0FBF1F189B20E43A6802288FD
:1060B00022F001022280234B2A689A421CD8520007
:1060C000B0FBF2F080B2042800D20420491C2184E5
:1060D000A083208840F00100208021884FF6F53011
:1060E0000140A8886A89104308432080A88929892B
:1060F0000843208106B070BDEB88A3F53F46FF3E04
:106100000BD002EBC20303EB0212B0FBF2F080B241
:1061100040F48040020506D007E002EB4202B0FBEB
:10612000F2F080B2F6E740F001004FF4967251436E
:106130004FF47A72B1FBF2F140F40040C6E7000080
:1061400040420F00A0860100B1F5006F018803D026
:1061500021F400610180704741F40061FAE700001A
:106160002DE9FF5F5C4F8B4681464FF47A741E46E3
:10617000254601213846FFF737FF01213846FFF752
:1061800053FFDFF85881BA46474641465046FFF76D
:1061900035FFA0B3002D31D04FEA4909254609F05B
:1061A000FF010022D046504600F09CF8DFF830A1F5
:1061B00040465146FFF722FF28B3002D1ED025464A
:1061C0005946404600F096F8DFF814A10AF1020A99
:1061D00051464046FFF712FFC0B1002D78D025464A
:1061E00001214046FFF72AFFC2464FF400384146DE
:1061F0005046FFF72DFF60B16D1EF8D168E0FFE754
:106200006D1EC1D164E06D1ED2D161E06D1EDFD183
:106210005EE03DB3254601215046FFF705FF3946B4
:106220005046FFF7EBFED8B1E5B1274609F0FF0174
:1062300001225546504600F055F8DFF8A09009F1CC
:10624000010949462846FFF7D9FE60B157B1DFF88A
:106250008C90002709F13F09A346A6F1020A20E02D
:106260006D1EDCD134E07F1EEBD131E0494628467B
:10627000FFF7C4FE20B314B317485C461030008803
:106280000299C8550E9850B1574508D100212846AB
:10629000FFF7AAFE4FF2FF712846FFF755FF7F1C5C
:1062A000FFB2B742E2D301212846FFF7C7FE4646B8
:1062B00031462846FFF7CCFE28B1641EF8D107E02E
:1062C000641ED3D104E01CB1002004B0BDE8F09FEF
:1062D0004FF0FF30F9E700000054004001000300D8
:1062E0008200070012B141F0010101E001F0FE015E
:1062F00001827047018270471FB50121480501F0F6
:10630000E3F90121084601F0D3F94FF48060ADF8BC
:106310000A000001ADF80C00114800904BF6FF7028
:10632000ADF806000020ADF8040007200D4CADF8D4
:10633000080069462046FFF7A9FE01212046FFF725
:1063400069FE012211022046FFF797FE064901204F
:10635000C1F80001044930201C3181F800041FBD40
:10636000801A06000054004004E000E02DE9FF5FC1
:10637000324D07464FF47A749846924626460121DC
:106380002846FFF731FE01212846FFF74DFEDFF8D2
:10639000B09028464946FFF731FE08B9761EF8D17D
:1063A0007806010E264600222846FFF79BFF254F60
:1063B0004FF0FF3B39462846FFF720FE80B196B3E9
:1063C000264628460199FFF795FF1E4FBF1C394608
:1063D0002846FFF713FE30B12EB30026A14613E086
:1063E000761EE7D128E0761EF1D125E01AF80610D6
:1063F0002846FFF77FFF39462846FFF7FFFD98B193
:106400008CB1761C4C46B6B24645EFD301212846E6
:10641000FFF714FE4FF4003631462846FFF718FE0A
:1064200028B1641EF8D107E0641EE4D104E01CB179
:10643000002004B0BDE8F09F5846FAE70054004041
:1064400001000300820007002DE9FC5F07460121DF
:10645000042001F045F90121082001F041F9012152
:10646000102001F03DF90121084601F039F9012120
:10647000BD48FFF76FFB0121BC48FFF76BFB012113
:106480000220FFF767FB0121B948FFF763FB4FF4D8
:106490008050ADF800004FF01009B64D8DF8039014
:1064A00001268DF8026069462846FFF701FB681453
:1064B000B14CADF8000069462046FFF7F9FAAD4A45
:1064C0004FF496780C324FF4B1730AE0106880F400
:1064D00080501060E06880F40050E0604046FEF7B5
:1064E000D5FB3888B3EB101FF0D1A4494FF04430EE
:1064F0000860091D0860A14B4FF0000A0C33C3F877
:1065000000A0AB4628609B4B1B1D1860C2F800A082
:1065100020606060C4F80CA0994D54464FF04808C4
:10652000381990F9200001283FD0022830D00428E3
:106530003BD003283CD005283ED007283FD009286F
:1065400051D0082862D0172878D0182874D00A288B
:1065500073D00C2871D00D286FD00E286DD00F2865
:106560006BD0102869D0192867D00B2879D0112852
:1065700063D0122876D0132875D0142874D015282B
:1065800073D0162872D0062871D0002870D025E06C
:1065900028200EE08DF8026005EBC4006946808873
:1065A000ADF8000055F8340016E08DF80380F1E7EF
:1065B00014208DF80300EDE78DF803A0EAE703202F
:1065C0008DF8020005EBC40069468088ADF8000034
:1065D00018208DF803005846FFF76AFA641C1E2C39
:1065E0009EDBBDE8FC9F0F2CF8D103208DF8020044
:1065F00063486946B0F87C00ADF8000004208DF8CF
:1066000003005846FFF754FA102489E7102CE5D10F
:1066100003208DF802005A486946B0F88400ADF8AE
:10662000000018208DF803005846FFF741FA01F0EA
:1066300081FA112474E701E01BE035E0132CCDD181
:1066400003208DF802004E486946B0F89C00ADF872
:1066500000001C208DF803005846FFF729FA142487
:106660005EE71BE038E039E03DE03FE055E06DE0FB
:1066700073E0142CB2D103208DF802004048694623
:10668000B0F8A400ADF800001C208DF803005846B7
:10669000FFF70EFAFFF730FE152441E7112C9DD1CC
:1066A000FFF790FA12243BE78DF8039003208DF852
:1066B000020005EBC40001908088ADF8000055F899
:1066C00034006946FFF7F4F901980122818855F8F2
:1066D0003400FFF772FA81E7042000E018208DF8FB
:1066E000030003203DE08DF80390FAE78DF8039056
:1066F000032005EBC4018DF8020001918888ADF8F4
:10670000000055F834006946FFF7D2F955F8340017
:10671000C268019989888A4316E014208DF8030025
:10672000032005EBC4018DF8020001918888ADF8C3
:10673000000055F834006946FFF7BAF955F83400FF
:10674000C268019989880A43C26047E7082C01D0D2
:10675000092CC0D18DF80380C3E728208DF80300F1
:1067600002208DF8020017E700013000000230001F
:1067700000081A00000C0140001001400008014010
:106780003000002010B5134C2068017A022904D093
:10679000042902D0062905D015E0FEF7E9F82068A3
:1067A000007A11E04178052909D10178490606D11E
:1067B000C07801F047FA08480068006A8047074837
:1067C000006880688047082021680872BDE8104092
:1067D00000F028BF38050020400500203C050020BF
:1067E000F0B500230A24302537261F4611E000BFEC
:1067F000B4EB107F02D905EB107C01E006EB107CB6
:1068000001F813C001EB430C00015B1C8CF8017014
:10681000DBB29342ECD3F0BDF0B505460120002376
:1068200002EB42061C461A4631F91270521CD2B2D3
:106830003C44082AF8D3E21704EB5272D410002229
:1068400031F91270521C3F1B07FB0733D2B2082AE2
:10685000F6D3DA1703EB5272D2107643964200DA7F
:106860000020072201EB420333F8023C21F81230EA
:10687000521E12F0FF02F5D10D80F0BD2DE9F04758
:106880004FF0FF363E4C354600200B1893F8203071
:10689000152B21D154F83030DD6804EBC007BF88D8
:1068A000BD43DD6045B20023CF1897F82070162F46
:1068B0000ED154F83370D7F80CC004EBC308B8F805
:1068C00004804CEA080CC7F80CC017787F1C1770BE
:1068D0005B1CDBB21E2BE7D3401CC0B21E28D4D3F6
:1068E000284F002097F9003001EB000C9CF820C0E5
:1068F000BCF1150F3FD1984201DCA8423BD154F8BE
:106900003030D3F80CC004EBC008B8F804804CEA6F
:10691000080CC3F80CC0DFF870800023A246CC1826
:1069200094F82040162C15D17C7818F804C0641C0B
:106930007C70BCF1000F5AF833C0DCF80C900AEB05
:10694000C304A48802D029EA040901E049EA040941
:10695000CCF80C905B1CDBB21E2BE0D311787A785C
:10696000914201D800217970A84202D13E70BDE861
:10697000F0873870FBE7401CC0B21E28B4D3F6E79E
:1069800030000020BA02002074160020F0B50F4D30
:106990000F4B00200C1894F82040142C10D11478C0
:1069A0002C5D002C53F83040E66803EBC007BF882D
:1069B00001D03E4300E0BE43E6601478641C1470CE
:1069C000401CC0B21E28E5D3F0BD000074160020A4
:1069D0003000002030B50F4B0F4C002100EB41057B
:1069E00095F95323002A0FDB95F8545303EBC202A9
:1069F00005F007051279012D02D0C2F3001202E062
:106A000042F30012521C6254491CC9B21829E5D342
:106A100030BD0000941100207416002018B5044603
:106A200000208DF800002046FFF7D4FF6A4621467B
:106A30000448FFF723FF6A4621460248FFF7A6FFF6
:106A400018BD0000741600202DE9F047994617463E
:106A50000E4604460025FFF7C5F9804601464B4621
:106A60003A46204600F012FA09EB4900C21992F8A2
:106A70002F0100F01F01FE481F2941D2DFE801F07D
:106A800010264459677A7A7A7A1079797979107769
:106A9000777777757575754040F2F2F2F2F1F00094
:106AA0002079C0F3411101292AD002292AD000F00F
:106AB0000101C0F34002914238D920F0600000F19A
:106AC000200161F38201C4F8008045E12079C0F320
:106AD0004111012914D0022914D000F00101C0F3A2
:106AE000400291420CD920F0600020300111491C75
:106AF00061F38200810861F3C300C4F80080207153
:106B0000BDE8F087810811E02079C0F34111012927
:106B1000F6D00229F6D000F00101C0F34002914204
:106B200003D000BF20F06000CEE0C10861F3041084
:106B3000E5E72079C0F341110129E1D00229E1D034
:106B400000F00101C0F340029142EED9EAE720795A
:106B5000C0F341110129D3D00229D3D000F00101A3
:106B6000C0F340029142E0D2DCE7032502E00225B7
:106B700000E001252179C1F34113012B19D0022B2B
:106B800013D001F00103C1F3400C63450ED921F08D
:106B9000600101F1200363F382039910491C61F342
:106BA000C303C4F80080237103E08B0863F304116E
:106BB000217192F82F1101F01F01052932D00A2905
:106BC00030D00F292ED013292CD0062934D00B29F0
:106BD00032D0102930D014292ED0072936D00C29D4
:106BE00034D0112932D0152930D0715D21F0010146
:106BF00071552279C2F300121143715511F0FF0F44
:106C000086D000227DB3012D7FF47AAF5FF00001C2
:106C100001EB41033B4493F82F3103F01F030E2B8C
:106C20003AD041E0715D21F0080171552279C2F33B
:106C3000001241EAC201E0E7715D21F004017155E3
:106C40002279C2F3001241EA8201D6E7715D21F098
:106C5000020171552279C2F3001241EA4201CCE7E8
:106C6000B4E058E025E0FFE75FF0000101EB4103ED
:106C70003B4493F82F3103F01F03092B07D100EB9E
:106C8000C1031C7924F07D041C7140F83120491C9B
:106C9000C9B28029EAD333E700EBC1031C7924F0A1
:106CA0007D041C7140F83120491CC9B28029AFD342
:106CB00026E72179C1F34113012BECD0022B09D037
:106CC000C807E8D021F06000203040F00400C4F88C
:106CD0000080AEE08B0863F3041121715FF00001C6
:106CE00001EB41033B4492F82F4193F82F3104F01C
:106CF0001F0403F01F03A34208D1494506D000EB4F
:106D0000C1042379DD0865F304132371491CC9B25A
:106D10008029E5D3F4E62179C1F34113012BBAD0E0
:106D2000022B17D001F00103C1F340018B42B2D90D
:106D30000023194601EB41043C4492F92E6194F979
:106D40002E51B54218D194F82F4104F01F041D2C88
:106D500004D011E0880895E02171D1E600EBC10470
:106D600025796E0702D515F0600F01D0F3BB03E063
:106D700025F01C0323710123491CC9B28029D9D3F2
:106D8000002B88D092F92E21002100BF01EB410396
:106D90003B4493F92E41944205D193F82F3103F0EF
:106DA0001F031D2B04D0491CC9B28029EED3A7E6CE
:106DB00000EBC1031A7940F8318022F060022032E2
:106DC00022F0080040F00400187199E62179C1F31F
:106DD0004113012B9ED0022BBCD001F00103C1F363
:106DE0004005AB424BD90023194600E017E001EB08
:106DF00041043C4492F92E6194F92E51B5421FD1C1
:106E000094F82F4104F01F041E2C19D100EBC1048B
:106E100025796E0702D515F0600F0DD083B100EB18
:106E2000C102127940F8318022F06002203242F033
:106E3000040020F0080062E625F00C032371012312
:106E4000491CC9B28029D0D3002B86D092F92E21BB
:106E5000002100BF01EB41033B4493F92E419442D2
:106E600005D193F82F3103F01F031E2BA0D001E0B2
:106E700094110020491CC9B28029EBD340E6C80711
:106E800095D1C80860F3041166E70000F0B503EB84
:106E90004303134493F830416309012B04D0022BC0
:106EA00005D0032B19D105E0B2F8AE3204E0B2F8F8
:106EB000B03201E0B2F8B2327BB100BFC4F3820459
:106EC000012C0CD0022C0DD0032C0ED00022047902
:106ED000C4F34115012D0BD015E06423EEE7B2F8A1
:106EE000AE22F4E7B2F8B022F1E7B2F8B222EEE750
:106EF00006688E1B964206D99F18BE4203D224F024
:106F00006001403108E0022D07D105681A44491B91
:106F1000914202D924F060010171F0BD427A01EB87
:106F200041010844022A017B407B04D001F00F019B
:106F300040EA01207047C906090D41EA5000704738
:106F4000F0B4002280F82320012480F8244080F847
:106F5000251090F90850194B53F83520D66803EBEB
:106F6000C5039B889E43D660437A022B10D001EB69
:106F70004102024402F10B00032B0FD0042B01D07D
:106F8000052B18D1C1F380039B1DD372890109E041
:106F90000023022200F10C010B3007E0D47201291A
:106FA00007D0A0211173002303220146F0BC00F09A
:106FB00083BCE021F6E7F0BC704700003000002001
:106FC00010B5044600210948FDF70CFC14F9080F20
:106FD000074951F83020D36801EBC0008088034393
:106FE000D3600120E076207710BD00001C00024035
:106FF0003000002010B503460C7B0020E40601D5CC
:10700000401E10BD01EB4201B1F80D1049BA1980C4
:1070100010BD1CB550228DF8002080008DF80100B5
:1070200000208DF802008DF803008DF80400032382
:107030000522684600F040FC1CBD08B5F0218DF823
:107040000010014603230122684600F035FC08BD0C
:107050007CB590F908108E4C054654F83100C26892
:1070600004EBC10189888A43C2606946802000F030
:1070700051F93220FDF712FE95F9081054F831004D
:10708000C26804EBC10189880A43C2601420FDF77D
:10709000FDFD95F9080054F83010CA6804EBC000F3
:1070A00080888243CA606846FFF7C7FF3220FDF739
:1070B000F5FD95F9080054F83010CA6804EBC000DB
:1070C00080880243CA603220FDF7E0FD95F9081080
:1070D00054F83100C26804EBC10189888A43C26058
:1070E00069460020FFF795FF4620FDF7D7FD95F98B
:1070F000081054F83100C26804EBC10189880A43C2
:10710000C2600A20FDF7CAFD95F90820BDF803000A
:1071100054F8321040BA6FF30800CB6804EBC20297
:1071200092889343CB606A46002100F0FFF8462026
:10713000FDF7B4FD95F9080054F83010CA6804EB67
:10714000C00080880243CA601420FDF79FFD95F9B6
:10715000080054F83010CA6804EBC00080888243ED
:10716000CA6069460120FFF754FF4620FDF796FDEF
:1071700095F9081054F83100C26804EBC101898800
:107180000A43C2601420FDF789FD95F908104FF4F9
:10719000874354F83100C26804EBC10189888A43EF
:1071A000C2606A460121184600F0C0F84620FDF78B
:1071B00075FD95F9081054F83100C26804EBC1015F
:1071C00089880A43C2601420FDF760FD95F9080024
:1071D00054F83010CA6804EBC00080888243CA604B
:1071E00069460220FFF715FF4620FDF757FD95F988
:1071F000081054F83100C26804EBC10189880A43C1
:10720000C2601420FDF74AFD95F90810BDF803008F
:1072100054F8312040BA6FF30C00D36840F4287062
:1072200004EBC10189888B43D3606A46022100F0D8
:107230007DF84620FDF732FD95F9080054F830102E
:10724000CA6804EBC00080880243CA601420FDF7BE
:107250001DFD95F9080054F83010CA6804EBC00011
:1072600080888243CA6069461E2000F053F83220AD
:10727000FDF714FD95F9080054F83010CA6804EBC6
:10728000C00080880243CA601420FDF7FFFC7CBD6B
:10729000300000201CB5002180F82310012280F866
:1072A00024204E228DF800208DF801108DF8021058
:1072B0008DF80310019190F90820084B53F8321013
:1072C000CC6803EBC20292889443CC6000F10B01BE
:1072D00003230822684600F0EFFA1CBD30000020AE
:1072E00010B5044600210948FDF77CFA14F9080F8F
:1072F000074951F83020D36801EBC0008088034370
:10730000D3600120E076207710BD00001C00024011
:107310003000002008B503238DF8000000208DF810
:1073200001000222684600F0C7FA08BD1CB51446E9
:1073300060228DF80020020A8DF801208DF80200ED
:1073400088008DF8030000208DF804000323052237
:107350002146684600F0B0FA1CBD484000210206F4
:107360004FEA40604FEA106001D580F01D00491CD3
:10737000C9B20829F3D370472DE9F047DFF87080D0
:1073800016460F4682460024381990F8200003283C
:1073900028D13078802825D208EBC40958F8340069
:1073A000B9F804100022FEF708FC0025781990F8BF
:1073B000200004280CD13078802809D2E8B2394660
:1073C000FDF7AAFC32780AF802003078401C3070D1
:1073D0006D1C1E2DEADBB9F8041058F834000122A8
:1073E000FEF7EBFB641C1E2CCEDBBDE8F087000033
:1073F00030000020FEE77047704700F01F020121B7
:1074000091404009800000F1E020C0F80011704771
:1074100070B50F23C47801780122F4B1144C2468AC
:10742000457804F4E064C4F5E064240AC4F1040679
:10743000E3408478B5401C402C4301F1E021230156
:1074400081F80034007800F01F018A404009800074
:1074500000F1E020C0F8002170BD01F01F00824063
:107460004809800000F1E020C0F8802170BD0000D4
:107470000CED00E002490843024908607047000033
:107480000000FA050CED00E00907090E002806DAF5
:1074900000F00F0000F1E02080F8141D704700F1AB
:1074A000E02080F8001470470907090E002806DA6A
:1074B00000F00F0000F1E02080F8141D704700F18B
:1074C000E02080F80014704770B5304D4FF0000692
:1074D0002868017844784A0606D001F07F00012828
:1074E0002AD002282DD037E0092C06D0052C07D051
:1074F000032C0ED0012C14D02EE001F041F82AE02C
:10750000C1787F2930D8817871BB818861BB807A4E
:1075100029E0C17801291FD18088E8B901F04CF831
:1075200019E0C178012917D18188A9B9407A80066C
:1075300012D51748466009E00B2C0DD101F092F8E6
:1075400009E0012C02D0032C03D005E000F01AFF63
:1075500001E001F043F858B10E4920460968496935
:107560008847032802D018B108200CE009200AE05F
:10757000094906200968094A090402EBD131084A81
:107580004E60302111802968087270BD38050020D6
:107590002C0500203C050020505C004000600040AD
:1075A0004805002010B50F4C2068007A022811D041
:1075B00004280FD0032804D0052802D0072805D0BE
:1075C00008E0FDF72FFA2068007A04E0064800681A
:1075D000C0688047082021680872BDE8104000F0AC
:1075E00021B80000380500203C050020064B521C45
:1075F000520803EB410105D031F8043B20F8023B6F
:10760000521EF9D17047000000600040002803D0EE
:107610000249D1F803100160704700007F0200208A
:10762000704700000C4810B590F82C10002000F0B6
:107630003DFB0A480068007A082802D0092809D0D2
:1076400006E007494FF48050088006491020088062
:10765000002010BD012010BD90040020380500203E
:107660004605002048050020044801210160002152
:10767000021D11600321016000207047405C004042
:1076800070B5094C01202060084D00202880206042
:10769000201D0068002000F0A9FB4FF4E050288076
:1076A0002060002070BD0000405C004044050020C8
:1076B000044A0029516901D0014300E0814351612E
:1076C0007047000000100240044A0029D16901D02F
:1076D000014300E08143D161704700000010024087
:1076E000044A0029916901D0014300E0814391617E
:1076F000704700000010024030B51F494A6812F080
:107700000C031E4A03D0042B01D0082B21D00260A9
:107710004A680F231A4C03EA1212A35C0268DA408B
:1077200042604B68072505EA1323E35C22FA03F362
:1077300083604B6805EAD323E35CDA40C2604968A2
:10774000032303EA9131231F595CB2FBF1F101617C
:1077500030BD4A684B6802F470124FF0020413F413
:10776000803F04EB924202D04B689B0301D5054B4E
:1077700000E0024B5A43CAE70010024000127A00B0
:107780001C05002000093D000149C1F8D8007047E0
:107790000000424210B50022002102F1190300BF8F
:1077A00001EB4104044494F82F4104F01F049C426F
:1077B0000CD10B4B03EBC103197921F0080141F007
:1077C00004018C0864F30411197103E0491CC9B267
:1077D0008029E5D3521CD2B2042ADDD310BD0000AB
:1077E00094110020F0B5214A072800D010701678B7
:1077F0001E4B0625052104241D48062E0AD2DFE86B
:1078000006F0030B10151D26586808B11170F0BD65
:1078100000F030F81570F0BD00F02CF81470012065
:1078200022E00220507003201070F0BD5078401EFE
:10783000507050780028F8D11470F0BD03689BB2E6
:1078400043F01003036011700A205070F0BD5178AE
:10785000491E517051780029F8D1016889B221F090
:1078600010010160157000205860F0BD1005002067
:10787000405C00400448016889B221F004010160C5
:107880004FF43F4101607047405C0040B1F5804FCC
:10789000018803D021F480410180704741F4804188
:1078A000FAE70029018802D041F0400101E021F00F
:1078B00040010180704700002DE9F04F8DB08246F5
:1078C00003208DF82E000820ADF82C0018200C465F
:1078D0008DF82F009B4615460BA92D48FEF7E8F8BA
:1078E0002C4ECDE900640024CDE902450A9480279E
:1078F0000794CDE905744FF480580494DFF898900C
:10790000CDE9084869464846FDF712F801220221F0
:107910004846FDF705F802210C20FFF7C5FD0C20B5
:10792000FFF76BFD0A9400960794CDE90574CDE945
:107930000354CDE908481020174CCDE901A01434B8
:1079400069462046FCF7F4FF012202212046FCF79D
:10795000E7FF02210D20FFF7A7FD0D20FFF74DFDEA
:107960000C480C38018843F6FC3241F040011140CC
:107970000BF003020A43028001214846FCF732FF64
:1079800001212046FCF72EFF0DB0BDE8F08F00006E
:10799000000C01400C3001401C00024070B58CB05E
:1079A000204E01901E4800900020CDE902010A906F
:1079B00080210790CDE905100490089048010990B6
:1079C000154669463046FCF7B3FF012202213046D6
:1079D000FCF7A6FF02210C20FFF766FD0C20FFF745
:1079E0000CFD0F4C0C3C208805F0030120F0030037
:1079F00040F04000014341F4004020804BF6FF710D
:107A00002046FFF743FF204600F075F8402120464E
:107A100000F06AF801213046FCF7E4FE0CB070BDBE
:107A20000C3001401C00024070B58CB006460320AB
:107A30008DF82E000820ADF82C0018200C468DF88B
:107A40002F0015460BA92148FEF732F82048CDE952
:107A500000061020CDE9020400200A908021079042
:107A6000CDE905100490089048011A4E0990694626
:107A70003046FCF75DFF012202213046FCF750FF43
:107A800002210D20FFF710FD0D20FFF7B6FC104C72
:107A90000C3C208805F0030120F0030040F040007A
:107AA000014341F4004020804FF480412046FFF71D
:107AB000EDFE204600F01FF84021204600F014F8AB
:107AC00001213046FCF78EFE0CB070BD000C014069
:107AD0000C30014030000240002A828801D00A4365
