:020000040800F2
:10000000682B002001010008AD400008793F00087E
:10001000A9400008AD0A000861580008000000006F
:10002000000000000000000000000000ED4000089B
:10003000C518000800000000E9400008F140000871
:100040001B0100081B0100081B0100081B01000820
:100050001B0100081B0100081B0100081B01000810
:100060001B0100081B0100081B0100081B01000800
:100070001B0100081B0100081B0100081B010008F0
:100080001B0100081B0100081B0100081B010008E0
:10009000395700081B0100081B0100081B0100085C
:1000A0001B0100081B0100081B0100081B010008C0
:1000B0001B0100081B0100081B0100081B010008B0
:1000C0001B0100081B0100081B0100081B010008A0
:1000D0001B0100081B0100081B0100081B01000890
:1000E0001B0100081B0100081B010008DFF80CD0F1
:1000F00000F03CF80048004769580008682B0020D1
:100100000648804706480047FEE7FEE7FEE7FEE7B1
:10011000FEE7FEE7FEE7FEE7FEE7FEE7BD4100087B
:10012000ED00000840EA01039B0703D009E008C97D
:10013000121F08C0042AFAD203E011F8013B00F8AC
:10014000013B521EF9D27047D2B201E000F8012BF8
:10015000491EFBD270470022F6E710B513460A4647
:1001600004461946FFF7F0FF204610BD064C074D28
:1001700006E0E06840F0010394E807009847103477
:10018000AC42F6D3FFF7B6FF6C5E00088C5E000849
:1001900070B58C1810F8015B15F0070301D110F849
:1001A000013B2A1106D110F8012B03E010F8016B76
:1001B00001F8016B5B1EF9D12B0705D40023521EF9
:1001C0000DD401F8013BFAE710F8013BCB1A921C61
:1001D00003E013F8015B01F8015B521EF9D5A1425F
:1001E000D8D3002070BD00000146406A826A12F038
:1001F000500F03D0006A026B084610470168826AFC
:1002000042F400728262896801F46021B1F5602FC6
:1002100018BF02F07BB8C16809B102F077B8816AF3
:1002200021F480718162816AC9045EBF816A41F0F4
:100230000101816202F06AB8406A816A41F04001BE
:100240008162C16A41F00401C16202F063B800003A
:10025000406A02F05DB800002DE9F04F85B0044619
:1002600041F2140042F28C2500274FF480724FF4C3
:10027000806320264FF4805CC4F20200C2F20005C5
:10028000016841F001010160016801F00101029182
:100290000299416841F4007141608021406800F496
:1002A0000070029002980820C4F20200C5E900071D
:1002B00005F11000C5E9027180E84C10284602F0F3
:1002C000ADF930B145F65960B121C0F6000005F036
:1002D000C9FA40F27436C2F2000606F1300B3565F9
:1002E000C5F824B0E17FA07F94F8202094F8213055
:1002F00005390538022938BF01270228A2F1050077
:1003000038BF01370228A3F1050038BF01370228A2
:1003100038BF013794F822000538022838BF01376A
:1003200094F823000538022838BF013794F82400D8
:100330000538022838BF013794F82500053802280F
:1003400038BF013794F826000538022838BF013736
:1003500094F827000538022838BF013794F82800A0
:100360000538022838BF013794F8290005380228DB
:1003700038BF013794F82A000538022838BF013702
:1003800094F82B000538022838BF013794F82C0068
:100390000538022838BF013794F82D0005380228A7
:1003A00038BF013794F82E000538022838BF0137CE
:1003B00094F82F000538022838BF013794F8300030
:1003C0000538022838BF013794F831000538022873
:1003D00038BF013794F832000538022838BF01379A
:1003E00094F833000538022838BF013794F83400F8
:1003F0000538022838BF013794F83500053802283F
:1004000038BF013794F836000538022838BF013765
:1004100094F837000538022838BF013794F83800BF
:100420000538022838BF013794F83900053802280A
:1004300038BF013794F83A000538022838BF013731
:1004400094F83B000538022838BF0137FDB2092D6A
:1004500007D345F65960C021C0F6000005F002FA46
:1004600001E038061CD042F2004130460122002350
:100470004FF46027C4F2010140F8301F4FF480713F
:10048000C761C0E90131C0E90325436101F044FFC0
:1004900030B145F65960CF21C0F6000005F0E2F911
:1004A00040F2A818019504F11E0701264FF0070934
:1004B00002AD4FF0000AC2F2000800BF17F80A00B0
:1004C0000538012823D858F83A00CDF8109029466D
:1004D0000290F0B20390584601F06CFE013630B144
:1004E00045F65960DD21C0F6000005F0BBF908EBC8
:1004F000CA000079C0EB001004EB400090F84210F5
:1005000029B140F6FF7181870021A0F840100AF15F
:10051000010ABAF11E0FD1D140F27431019A584646
:10052000C2F2000101F0ACFF30B145F65960EA219A
:10053000C0F6000005F096F905B0BDE8F08F0000A8
:1005400080B180B540F27432C2F20002D2E904CE2A
:10055000D2E90632C2608360C0F804E0C0F800C08F
:10056000BDE88040002908BF704740F27430C2F2F5
:100570000000D0E908C3D0E90A20C8608A604B6057
:10058000C1F800C0704700002DE9F04F81B041F67E
:10059000287540F27434804600264FF0000A00228D
:1005A000C2F20005C2F2000409E000BF1E36283581
:1005B0000AF1010AF02E04BF01B0BDE8F08F08EB8C
:1005C0000A00807F05380128F0D808EB060B5FFA97
:1005D00082F900929BF8420058B134F81900BBF838
:1005E0004010884208D9ABF840005F4637F83C2FEE
:1005F00010E00BF13C0716E0CAEB0A1208EB4202CE
:1006000002F13C07BBF83C2090423CBFABF83C00F9
:1006100002460846BBF83E101044B1EB500F1CBF19
:100620004008ABF83E0034F819009BF844202946F6
:1006300001F022FB3A889042114615D3BBF84010D6
:10064000884211D8BBF83E30984206D2801A991AD7
:10065000C0EBC020B0FBF1F106E0C01AC91AC0021D
:10066000B0FBF1F000F2FF7188B240F22111C2F24A
:100670001201A0FB0112811A02EB510109220B0A9F
:10068000B2EB112F40F2C71108BF082303FB01F79B
:10069000BAB2904211462FD307F2C71189B28142F4
:1006A0002AD34344A44648F21F54801A891A33447B
:1006B000C5F2EB1493F9467093F94530A646C7EBA3
:1006C0000737C3EB033387FB0474A71107EBD47719
:1006D00083FB0E34A31107F2FF7B4FF6010703EBF8
:1006E000D473CFF6FF7703F2FF74FB1A5B445843D1
:1006F000B0FBF1F00119644604EB4A00009A018254
:1007000034F819100132018450E700002DE9F04F50
:1007100089B0834642F250700D4600211446C2F261
:100720000000FFF70DFF02F039FA0026049005954E
:10073000A819807F062840F0AE8100BFC6EBC60036
:1007400005EB400090F8B811002900F0A48100F5F5
:10075000DA7194F8009000F5DC7A0027039608918E
:1007600000F5D87100F5D670079106904FF6FF712D
:10077000BAF8002042F2507028EA0101C2F20000EB
:1007800001EB0208079930F816000B6806990A6811
:1007900008990968CDE90018F9B201F04DFC5FFA3B
:1007A00089F101EB41010BF831002078291891F80B
:1007B0002C11052900F26481DFE801F00D032760A8
:1007C000819300EB40001BF83010B1FA81F1490928
:1007D0000BF83010207800EB40000BEBC0011BF849
:1007E000302008468D7810F8043F002B00F0B280CE
:1007F000D1E902630021AA4240F0C980049A921B09
:10080000059E61EB0303F58AE8E000EB40000BEB8B
:10081000C0011BF83020084610F8043F002B00F000
:10082000E580002A00F00981CA688968049B0026D7
:10083000591AEB8A66EB0202591A76EB0201039E03
:1008400080F01E81002101700121207800EB400022
:100850000BEBC0008170207800EB40000BEBC00078
:10086000C178B1FA81F14909C170207800EB4000EC
:100870000BEBC000017C0131017401E100EB400091
:100880001BF830200BEBC0000146837811F8046F91
:10089000002E00F0B4809A4200F0B380D0E9022329
:1008A000049E4FF0000CB21AEE8A6CEB0303B21AEE
:1008B0007CEB030280F0A5800020087032E000EBA2
:1008C00040010BEBC1021BF831001346114613F82F
:1008D000045F11F8026F002D40D0059DB04210D882
:1008E0003FE000EB40010BEBC1021BF83100134667
:1008F000114613F8045F11F8026F7DB3059DB042F5
:100900002FD2D2E9026C049D4FF0000EAE1B059D64
:100910006EEB0C0CED8AAE1B059D7EEB0C0620D217
:10092000002018702078012100EB40000BEBC00084
:10093000C170207800EB40000BEBC0011BF83000C9
:100940008870207800EB40000BEBC000017C013187
:10095000017493E0AA42059D4BD191E0059DB04200
:1009600065D1D3689268049E4FF0000CB21A2E8BAA
:100970006CEB0303B21A039E7CEB030280F08080D1
:100980000870207800EB40000BEBC00046E0049AB2
:10099000921B059E61EB0303F58AAE1A71EB030609
:1009A0001CD20021059D039E0170207800EB4000C1
:1009B0000BEBC0011BF83000C870207800EB400042
:1009C0000BEBC000C1788170207800EB40000BEB8E
:1009D000C000C178027C1144017451E0AA1A039E40
:1009E000059D99413CBF0021017049E08B789A42F6
:1009F00022D9049A0020C1E90220012110E09A4284
:100A000031D1D0E90212049B0026591A2B8B66EBD8
:100A10000202591A76EB0201039E31D20021C17005
:100A2000207800EB40000BEBC000017128E0049936
:100A30000020C2E902101AE012BBCA688968049B50
:100A40000026591AEB8A66EB0202591A76EB02016C
:100A5000039E15D200210170207800EB40000BEBC3
:100A6000C00081700CE0049A0021C0E902212078C6
:100A7000012100EB40000BEBC0000171039E00BFA1
:100A80002078013700F1010984F800909AF80000FD
:100A90008742FFF46BAE0136082E04BF09B0BDE8F3
:100AA000F08FA819807F0628F5D147E6FEE7000001
:100AB0002DE9F04381B040F25436054640F6B007C8
:100AC0000C46C2F20006C2F20007307800EB40008C
:100AD00007EBC00117F830004870716851F8350015
:100AE00001EBC501898802F049F8B0FA80F14A09A2
:100AF000317801EB410107F831206219927F022A17
:100B000005D1002807EBC10118BF0120087002F0D1
:100B100045F83378E11891F82C21152A00F2E0808D
:100B200001F59679DFE812F00C01110133015B0148
:100B30008201A30116001600160016004E004E009A
:100B40004E004E008300830083008300B800B8008D
:100B5000B800B80003EB430217F8328007EBC2027B
:100B60001546174615F8041F17F8023F002900F034
:100B7000B580984500F09F80D2E90213E48A4FF0D7
:100B8000000EB0EB010C6EEB0300B4EB0C017EEB3E
:100B9000000180F0998085F800E082F8038087F8F2
:100BA0000080107C4044107499F80000072800F081
:100BB0001482062840F017824FEAC800307201B054
:100BC000BDE8F08303EB430107EBC10217F8318066
:100BD0001546174615F8041F17F8023F00297DD067
:100BE000984568D0D2E90213E48A4FF0000EB0EBCA
:100BF000010C6EEB0300B4EB0C017EEB000163D241
:100C000085F800E082F8038087F80080107C40447B
:100C1000107499F800000B2800F0F4810A2840F0C5
:100C2000F7814FEAC800707201B0BDE8F08303EBB2
:100C3000430107EBC10217F831801546174615F836
:100C4000041F17F8023F002948D0984533D0D2E955
:100C50000213E48A4FF0000EB0EB010C6EEB0300C0
:100C6000B4EB0C017EEB00012ED285F800E082F897
:100C7000038087F80080107C4044107499F80000CD
:100C80000F2800F0D4810E2840F0D7814FEAC80029
:100C9000B07201B0BDE8F08303EB430107EBC10282
:100CA00017F831801546174615F8041F17F8023F4C
:100CB000A1B198451FD1D2E902124FF0000EE48A8B
:100CC000B0EB010C6EEB0200B4EB0C017EEB00000C
:100CD00006D20020287001B0BDE8F083984502D10B
:100CE00001B0BDE8F0830021C2E9020101202870B3
:100CF00001B0BDE8F083D2E90213E48A4FF0000EA0
:100D0000B0EB010C6EEB0300B4EB0C017EEB0001C9
:100D1000DAD285F800E082F8038087F80080107C42
:100D20004044107499F80000132800F095811228AF
:100D300040F098814FEAC800F07201B0BDE8F0833E
:100D400003EB430117F8312008E003EB430117F8E8
:100D50003120B2FA82F2520907F8312003EB430145
:100D600007EBC1010E4616F8045F3746002D17F851
:100D7000023D00F0A8809A4240F0B080CA688968BD
:100D80000023E58AB0EB010C63EB0200BCE003EB4F
:100D9000430117F8313007EBC1010A4612F8047F0E
:100DA000002F00F0BC80002B00F0BF80D1E902765C
:100DB0000023C01B63EB0607E68A301A73EB0700BB
:100DC0008ED2012013708870C8780A7CB0FA80F047
:100DD000013240090A74C87001B0BDE8F08303EB2A
:100DE000430117F8313007EBC1010A460F4612F8EC
:100DF000045F17F8026F002D00F0A880B34200F0E6
:100E0000A780D1E902564FF0000CB0EB050EE58A41
:100E10006CEB0606B5EB0E057CEB060680F09880C1
:100E2000012082F800C0C8703B7046E003EB43012C
:100E300017F8318007EBC1010B460F4613F8045F2A
:100E400017F8026F002D00F09480B04540F29380B7
:100E5000D1E902564FF0000CB0EB050EE58A6CEBC1
:100E60000606B5EB0E057CEB060620D383E003EB0C
:100E7000430117F8318007EBC1010B460F4613F809
:100E8000045F17F8026F002D00F08280B04580F0FB
:100E90008180D1E902564FF0000CB0EB050EE58AD7
:100EA0006CEB0606B5EB0E057CEB060672D2012054
:100EB00083F800C0C87087F80080087C013008748F
:100EC00001B0BDE8F0839A423FF40AAF0022C1E9C5
:100ED00002020120307001B0BDE8F083D1E9025E6A
:100EE0000023B0EB050CE58A63EB0E00B5EB0C04B8
:100EF00073EB000408D23370CA703A70087C104457
:100F0000087401B0BDE8F083B5EB0C0173EB000091
:100F1000BFF4E6AE0020307001B0BDE8F0838F78FA
:100F2000BB424AD8002B7FF4DBAED1E90276002326
:100F3000C01B63EB0607E68A301A73EB0700BFF4A9
:100F4000CFAE13708B7001B0BDE8F083B34234D1E3
:100F5000D1E902760023C01B63EB0607268B301A0B
:100F600073EB0700BFF4BCAECB70137001B0BDE8EB
:100F7000F083B04529D1D1E902520026401B258BD0
:100F800066EB0202281A76EB0200BFF4A9AE0DE070
:100F9000B0451AD1D1E902520026401B258B66EBE1
:100FA0000202281A76EB0200BFF49AAE87F800809E
:100FB000CE701E7001B0BDE8F0830023C1E90203CA
:100FC0000120107001B0BDE8F0830022C1E90202E7
:100FD0000120187001B0BDE8F0834FEA880030723C
:100FE00001B0BDE8F0830021082831721EBF86F8E9
:100FF000088001B0BDE8F0834FEA4800307201B0CC
:10100000BDE8F0834FEA8800707201B0BDE8F0835C
:1010100000210C2871721EBF86F8098001B0BDE85E
:10102000F0834FEA4800707201B0BDE8F0834FEAE8
:101030008800B07201B0BDE8F08300211028B172C1
:101040001EBF86F80A8001B0BDE8F0834FEA480071
:10105000B07201B0BDE8F0834FEA8800F07201B0D1
:10106000BDE8F08300211428F17205D14FEA480051
:10107000F07201B0BDE8F08386F80B8001B0BDE8E6
:10108000F08300002DE9F04381B040F25438064669
:101090000024C2F20008404600F8044B00F0C6FFEE
:1010A0003019807F0138012808D8E0B23146FFF7B7
:1010B000FFFC98F80000013088F8000001341E2C75
:1010C000EED10027BDA500BFF019807F042836D1DE
:1010D000D8F804100022002451F8370001EBC701B2
:1010E000898801F055FD00BF98F80000812807D2DB
:1010F0003019807F03280CD001341E2CF4D114E069
:1011000028464FF4C67104F0ADFB3019807F0328E8
:10111000F2D1E0B23146FFF7CBFC98F80000013085
:1011200088F8000001341E2CDED1D8F8041001220A
:1011300051F8370001EBC701898801F029FD01371B
:101140001E2FC1D140F6B00931464246C2F2000915
:101150004846FFF7DBFA4846314600F0B5FB98F801
:101160000010002900F08E804A1E01F0030C032AB3
:1011700004D20021BCF1000F41D183E0A1EB0C02AD
:1011800009F1330300210127C1F3C40501F004066E
:10119000454407FA06F4287CA04313F8304C04FABF
:1011A00006F630434E1C06F00506287407FA06F4CE
:1011B000A04313F8184C04FA06F630438E1C06F0D0
:1011C0000606287407FA06F4A0431C7804FA06F60B
:1011D0003043CE1C043106F0070628748A4207FA11
:1011E00006F420EA04001C7E03F1600304FA06F60C
:1011F00040EA06002874C7D1BCF1000F42D0C1F309
:10120000C40601F007030122BCF1010F464402FAB3
:1012100003F7347C24EA070701EB410409EBC4041B
:10122000E47804FA03F343EA070333742AD0481C32
:10123000BCF1020FC0F3C40700F0070300EB40004D
:1012400009EBC000474402FA03F2C0783E7C26EA6C
:10125000020200FA03F040EA0200387412D0881C3F
:101260000122C0F3C40300F0070100EB400009EBCA
:10127000C00043448A40C0781F7C27EA02028840AD
:101280001043187498F80800411E0B290ED8062048
:10129000DFE801F01506080A0C0E0C10120C0C14F5
:1012A00004200CE005200AE0022008E0FF2006E010
:1012B000032004E0002002E0072000E0012088F87D
:1012C0000C0098F80900411E0B2910D80120DFE816
:1012D00001F006080A0C0E100E12140E0E15062050
:1012E0000CE004200AE0052008E0022006E0FF20D0
:1012F00004E0032002E0002000E0072088F80D0051
:1013000098F80A00411E0B2910D80120DFE801F0EF
:1013100006080A0C0E100E12140E0E1506200CE014
:1013200004200AE0052008E0022006E0FF2004E097
:10133000032002E0002000E0072088F80E0098F863
:101340000B00411E0B2920D80120DFE801F0060C1C
:1013500012181E241E2A301E1E07062088F80F00B1
:1013600001B0BDE8F083042088F80F0001B0BDE8AB
:10137000F083052088F80F0001B0BDE8F08302205B
:1013800088F80F0001B0BDE8F083FF2088F80F0057
:1013900001B0BDE8F083032088F80F0001B0BDE87C
:1013A000F083002088F80F0001B0BDE8F08307202B
:1013B00088F80F0001B0BDE8F08300BF2E2E2F5338
:1013C00072632F627574746F6E732E630000000079
:1013D000002808BF704740F25431C2F20001D1E941
:1013E00004C3D1E90621C16082604360C0F800C037
:1013F0007047000000207047002070472DE9F0473B
:1014000086B042F26800C2F20000D0F8184220789C
:1014100004280ED0032844D0022840F0BB8040F2BC
:10142000D9216078C2F200010870002006B0BDE842
:10143000F087002001906078A17841EA0026002E14
:1014400053D040F2D438C2F20008B8F80070002F30
:1014500000F0A08046F20049C6EB0610C0F6000975
:101460004FEA800A09EB800501F064FABA456DD2B3
:10147000002700BFE019E91900238288012001F04C
:10148000FBF9B81CC7B23C2FF4D301F0EBF940F2E2
:10149000DC21701CC2F200010880002006B0BDE80B
:1014A000F0876078411E082900F23981DFE811F0E9
:1014B00009007600830090009D00AF00B600C100D7
:1014C000FE0040F2D835211D1422C2F20005A81CEE
:1014D000FEF728FEA069E169C5F81A10C5F81600E4
:1014E00005F11E0004F121018DE0A08840F2D43105
:1014F000C2F20001B0F5C84F08804BD846F2004652
:1015000018200025C0F6000605900295049601F00B
:1015100011FA02A801A901F023F900BF601945EAF8
:10152000060100238288012001F0A6F9A81CC5B29B
:101530003C2DF3D301F096F940F2DC200121C2F2F8
:1015400000000180002006B0BDE8F087002600BF43
:10155000A019A91900238288012001F08DF9B01C7F
:10156000C6B23C2EF4D301F07DF9B8F8001099F81A
:10157000024099F8035009F13C0000F037F948B1F6
:1015800044EA0521814205D140F2D8200121C2F26E
:1015900000000170002006B0BDE8F08740F2D835A9
:1015A000A11C1E22C2F2000505F13C00FEF7BAFDA7
:1015B00005F15A0025E040F2D835A11C1E22C2F2E6
:1015C000000505F17800FEF7ADFD05F1960018E085
:1015D00040F2D835A11C1E22C2F2000505F1B4006C
:1015E000FEF7A0FD05F1D2000BE040F2D835A11CBA
:1015F0001E22C2F2000505F1F000FEF793FD05F58D
:10160000877004F120011E22FEF78CFD86E040F277
:10161000D830C2F2000000F5967005E040F2D830F4
:10162000C2F2000000F5B570A11C3E22FEF77AFD63
:1016300074E040F2D830D4F80210C2F20000C0F8D2
:10164000A81100F5D67C618AA0F8B811D4F806106C
:10165000D4F80A20D4F80E308CE80E00218CA0F8C3
:10166000C6116169A269E369C0F8C231C0F8BE2140
:10167000C0F8BA11D4F82620D4F82210D4F82A30B1
:10168000C0F8CC21E28DC0F8D031C0F8C811A0F864
:10169000D421216B626BA36BC0F8D611C0F8DA219C
:1016A000C0F8DE31A18FA0F8E21137E040F2D83067
:1016B000E189C2F20000A0F8F01100F5F27CD4F844
:1016C0000210D4F80620D4F80A308CE80E00A18B62
:1016D000A0F8FE1121696269A369C0F8FA31C0F867
:1016E000F621C0F8F211D4F82220D4F81E10D4F854
:1016F0002630C0F80422628DC0F80832C0F800120B
:10170000A0F80C22E16A226B636BC0F80E12C0F8DD
:101710001222C0F81632218FA0F81A126078092818
:1017200009D840F2DA210130C2F20001087000202D
:1017300006B0BDE8F08741F2B040C2F20000018877
:1017400040F2D830C2F20000018000F025F801F02C
:101750000BFB002006B0BDE8F0870000002808BFA2
:1017600070474FF2E0714FF60442C1F6FF71C0F2CC
:10177000FF72098802EB8121002200BF51F8043C6E
:1017800000EB020C835008320B680831B2F51E7F63
:10179000CCF80430F2D3704770B586B0002500282D
:1017A000019521D004464FF2E0700121C1F6FF708F
:1017B000008805914FF600410295C0F2FF7101EBE0
:1017C0008026049601F0B6F802A801A900F0C8FF2F
:1017D000625971190220002301F04EF80435B5F565
:1017E0001E7FF5D301F03EF806B070BDF0B581B0B4
:1017F0000D46044602F0E2FB55B1691E05F0030CEC
:10180000032909D200210022BCF1000F33D155E099
:10181000002290B201B0F0BDA5EB0C0E41F228758C
:1018200000210022C2F20005605C631804315E787A
:101830009F78DB788E4580EA0200C0B235F8100050
:1018400080EA122282EA0602D2B235F8122082EA37
:10185000102080EA0700C0B235F8100080EA12229A
:1018600082EA0302D2B235F8122082EA1022DBD1DA
:10187000BCF1000F22D0635CBCF1010F83EA0203CC
:1018800092B2DDB241F22873C2F2000333F8155070
:1018900085EA122212D02144D2B2BCF1020F48785C
:1018A00080EA020033F8104084EA152206D08878D6
:1018B000D1B2484033F8100080EA142290B201B04F
:1018C000F0BD0000704700002DE9F04F81B041F6F7
:1018D00028198A4605464FF0000B4FF001080027F3
:1018E000C2F2000907E000BF1837B7F5C06F04BFA8
:1018F00001B0BDE8F08F09EB070401F04FF994F94E
:101900001210002936DB94F91320002A32DB02EB97
:10191000420215F832E0BEF1000F13D005EBC2060B
:1019200076787EB901EB410C15F83C6056B109F8A8
:101930000780C4E9020B268A0136268205EBCC0615
:1019400086F8038001EB410615F8363093B105EBBC
:10195000C6035B7873B9BEF1000F0BD084F8018029
:10196000C4E9020B05EBC202238A013B238282F801
:10197000038000BFD4E90223801A6BEB0302BAF89C
:101980001A30181A7BEB0200AED201EB410029F8A5
:1019900007B005EBC00080F803B094F9130000EB2A
:1019A000400005EBC00080F803B09DE741F6281C1D
:1019B00000214FF6FF72C2F2000C00BF0CEB0103D6
:1019C00001F5C071B1F5C06F5A825A85A3F8422063
:1019D000A3F85A20A3F87220A3F88A20A3F8A22023
:1019E000A3F8BA20A3F8D220A3F8EA20A3F8022192
:1019F000A3F81A21A3F83221A3F84A21A3F86221FF
:101A0000A3F87A21DAD1F0B50022FF21FF234FF0AD
:101A1000000E5CB2A24206DC0132802A08BFF0BD93
:101A20005CB2A242F8DD841894F82C41162CF3D154
:101A30004DB200240619AC4203DD96F82C71172F25
:101A400074D0AC4203DB96F82D71172F70D0A71C11
:101A5000AF4203DD96F82E71172F6CD0E71CAF4212
:101A600003DD96F82F71172F68D0271DAF4203DDD5
:101A700096F83071172F64D0671DAF4203DD96F8DA
:101A80003171172F60D0A71DAF4203DD96F8327178
:101A9000172F5CD0E71DAF4203DD96F83371172F87
:101AA00058D004F10807AF4203DD96F83471172FC0
:101AB00053D004F10907AF4203DD96F83571172FB3
:101AC0004ED004F10A07AF4203DD96F83671172FA6
:101AD00049D004F10B07AF4203DD96F83771172F99
:101AE00044D004F10C07AF4203DD96F83871172F8C
:101AF0003FD004F10D07AF4203DD96F83971172F7F
:101B00003AD004F10E07AF4203DD96F83A71172F71
:101B100035D004F10F07AF4203DD96F83B61172E75
:101B200030D01034802CFFF485AF75E721462BE0D0
:101B300044F0010128E044F0020125E044F00301F3
:101B400022E044F004011FE044F005011CE044F0F1
:101B5000060119E044F0070116E044F0080113E023
:101B600044F0090110E044F00A010DE044F00B01DB
:101B70000AE044F00C0107E044F00D0104E044F0F9
:101B80000E0101E0394600BF5FFA8EF30EF1010E3F
:101B900003EB43030CEBC303D9749A7413463BE77E
:101BA00070B5044600F0FAFF42F20C060546C4F296
:101BB00002063068C00719D0002C5AD0601C0DD125
:101BC0003068C00712D03068C0071CBF30685FEAB9
:101BD000C0700BD03068C007F2D107E000F0DEFF24
:101BE000401BA04245D83068C007F7D13068800656
:101BF00044BF202030603068C00607D43069C00779
:101C000004D1306840075CBF002070BD3068C0065A
:101C100004D40020316849070CD415E042F230703A
:101C2000C2F20000C16941F00201C16110203168B7
:101C3000490709D542F2307140F00400C2F20001B8
:101C4000CA6942F00102CA613169C90702D1306034
:101C5000012070BD42F23071C2F20001CA6942F047
:101C60000402CA61316921F0010131613060012053
:101C700070BD032070BD00002DE9F04F9EB0032A17
:101C800022D0022A00F0CD80012A40F0248140F2C7
:101C90000002CE88C2F2000292F800C00E818C8849
:101CA00092F804E00CFB00F0CC800EFB06004D889F
:101CB00092F803808D8008FB040097780B8801322E
:101CC0004B8007FB0500FBE040F20002C2F200027D
:101CD000D37B1D938B8CDDF874B0CB841C9392F86E
:101CE00022300BFB00F01B934B8C8B841A9392F8E1
:101CF000213019930B8C4B84189392F82030179352
:101D0000CB8B0B841693D37F15938B8BCB83149340
:101D1000937F13934B8B8B831293537F11930B8B76
:101D20004B831093137F0F93CB8A0B830E93D37E39
:101D30000D938B8ACB820C93937E0B934B8A8B8271
:101D40000A93537E09930B8A4B820893B1F80EA035
:101D5000137EA1F810A00793B1F80C90D37DA1F8E1
:101D60000E900693B1F80A80937DA1F80C8005933C
:101D70000D89537D4D810493CC88137D0C81039391
:101D8000B1F804E0D37CA1F806E00293B1F802C0F8
:101D9000937CA1F804C00193537C103200930B880C
:101DA0004B80DDE91B6706FB0700DDE9197607FBC1
:101DB0000600DDE9177607FB0600DDE9157607FB6F
:101DC0000600DDE9137607FB0600DDE9117607FB67
:101DD0000600DDE90F7607FB0600DDE90D7607FB5F
:101DE0000600DDE90B7607FB0600DDE9097607FB57
:101DF0000600DDE9077607FB0600069E009F06FB4E
:101E00000A00059E06FB0900049E06FB0800039ECF
:101E100006FB0500029D05FB0400019C04FB0E006F
:101E20004CE040F20002B1F810B0C2F20002537967
:101E3000A1F812B0B1F80E901D93937BA1F8109009
:101E4000DDF874A0B1F80C801C93537B1C9D0AFB39
:101E500000F0A1F80E801B934F89137B05FB0B004C
:101E60001B9D8F811A9305FB09000E89D37A1A9D59
:101E70004E81199305FB0800CC88937A199D0C813B
:101E8000189305FB0700B1F804E0537A189DA1F8F8
:101E900006E0179305FB0600B1F802C0137A179D00
:101EA000A1F804C0169305FB0400D379169C0632F2
:101EB00015930B8804FB0E00159F4B8007FB0C004D
:101EC000127802FB030048F21F52C5F2EB12A0FB8E
:101ED00002025009088080B21EB0BDE8F08F0000F9
:101EE0002DE9F04F85B0044641F2180040F6004558
:101EF0004FF001080DF104094FF0000B0226C4F267
:101F00000200C4F20105016841F01001016001689E
:101F100001F0100101910199016841F02001016077
:101F2000016801F0200101910199016841F004016B
:101F30000160016801F0040101910199016841F01B
:101F4000080101604946006800F00800019001980E
:101F5000CDF808804FF4805001902846CDF80CB0A1
:101F6000049600F0FFFC4FF40050CDF8088049467D
:101F70000190CDE903B605F58066304600F0F2FC2D
:101F80002088022811D000BF28464FF4805100F06D
:101F9000FBFD30464FF4005100F0F6FD4FF4967013
:101FA00000F0CAFB20880228EED140F2E81704F1C5
:101FB0001E05032601AC4FF011094FF0000AC2F2D2
:101FC000000715F80A00013805280CD90AF1010AA2
:101FD000BAF11E0F04BF05B0BDE8F08F15F80A0076
:101FE00001380528F2D8DFE800F0070D07130303D6
:101FF0000496029610E000BF0496CDF808B0CDF824
:102000000C8009E002200496CDF808B0039003E0AC
:102010000496CDE9029B00BF07EBCA0021468088E9
:10202000019057F83A0000F09DFCCFE740F2E8112C
:10203000C2F200010160704770B554B248F21F5CF3
:10204000C4EB0434C5F2EB1CA4FB0C4642F307249A
:10205000B0EB561FC4EB0434A4FB0C454FEA551EED
:1020600005D321B9AEF10F04844280F09F80140C97
:10207000864564B2C4EB0434A4FB0C454FEA551406
:1020800006D2012904D1A4F10F06864280F08E8089
:10209000161684424FEA0636A6EB2262A2FB0C26F5
:1020A0004FEA561205D2022903D1A2F10F06864249
:1020B0007CD25EB28242C6EB0636A6FB0C654FEAC6
:1020C000551405D2032903D1A4F10F0282426DD227
:1020D0001A0A844252B2C2EB0232A2FB0C264FEA29
:1020E000561205D2042903D1A2F10F0686425DD211
:1020F0001E0C824276B2C6EB0636A6FB0C654FEA92
:10210000551405D2052903D1A4F10F0282424DD204
:102110001A1684424FEA0232A2EB2362A2FB0C237E
:102120004FEA531305D2062903D1A3F10F028242CD
:102130003CD2049A834256B2C6EB0636A6FB0C6527
:102140004FEA551405D2072903D1A4F10F038342A6
:102150002CD2130A84425BB2C3EB0333A3FB0C36CD
:102160004FEA561305D2082903D1A3F10F06864280
:102170001CD2160C834276B2C6EB0636A6FB0C6563
:102180004FEA551405D2092903D1A4F10F03834264
:102190000CD284420CD20A290AD111160903A1EBF0
:1021A0002261A1FB0C125109814201D3012070BDB3
:1021B000002070BD70B581B00022009290F82420FC
:1021C000012A03D10221084601B070BD012280F826
:1021D0002420D0F800C04B686246062B05D852F880
:1021E000344F03EB83035D1F0EE00C2B06D852F82F
:1021F000304F03EB8303A3F1230505E003EB8303D7
:1022000052F82C4FA3F141050B681F2603FA05FE77
:1022100006FA05F5092B24EA05044EEA04061660C1
:102220001FD903EB4306DCF80C20896807251E3E06
:10223000B14005FA06F6B2431143CCF80C1023F076
:10224000010110291CD142F20841C4F20101A1F19F
:10225000080294451BD0816A41F02001816201216E
:102260000FE003EB43020723DCF81060896893401A
:1022700026EA030391401943CCF81010002100E036
:102280000021002280F82420084601B070BD0A68B1
:1022900012022ED40A68102B42F400020A602AD1DE
:1022A00040F2E8014DF68362C2F20001C4F21B3233
:1022B0000968A1FB0212910C01EB81014900009118
:1022C0000099D1B10099013900910099B9B10099F3
:1022D000013900910099A1B100990139009100994B
:1022E00089B10099013900910021009A002AE9D1B1
:1022F000C7E70021C5E70021C3E70021C1E70021AE
:10230000BFE70021BDE70021BBE7000070470000E8
:102310007047000070470000002804BF012070478C
:1023200070B50646044656F8280F20B1206881682B
:10233000C9070BD12AE0002084F82400E06220467F
:1023400000F09CF820688168C9071FD0816821F0DF
:102350000101816000F022FC054600BF2068816811
:10236000C90713D000F01AFC401B0328F6D3A06A5B
:1023700040F01000A062E06A40F00100E062A06A54
:10238000A16A41F010010120316070BD32683168EE
:10239000D20623D441F20212251D91430231A162DB
:1023A00026CDE369D4F814C01943531EB2F5807FDB
:1023B000B3FA83F341EA450E4FEA5311134618BFAF
:1023C0000B02BCF1010F18D16DB1A16A41F02001DF
:1023D000A162E16A41F00101E1620EE041F0100109
:1023E0000120316070BD4EF20005A169CFF6FF7586
:1023F00005EB4131194341F400634168B2F5807F38
:1024000021F4694141EA03014FF2FD734160CFF6C7
:10241000E173816801EA030141EA0E01816001D0A4
:10242000012A06D100222169CFF6F07202EB015297
:1024300000E00022C16A21F470011143C16240F63C
:10244000FE618068CFF61F710840704507D10020FB
:102450000122E062A16A62F30101316070BDA06AED
:1024600040F0100020F00200A06254F82C0F40F061
:10247000010101202646316070BD00007047000058
:10248000F0B581B00E460446016842F600001546DC
:10249000C4F20100814205D042F20040C4F20100C2
:1024A00081420AD142F20440C4F20100006810F4F3
:1024B000702F02D0012001B0F0BD94F82400012853
:1024C00002BF022001B0F0BD012084F824000020EA
:1024D00000908868C00742D1886840F00100886099
:1024E00040F2E8004DF68361C2F20000C4F21B31F5
:1024F0000068A0FB0101880C0090009828B914E046
:10250000009801380090009878B100980138009048
:10251000009850B1009801380090009828B10098B8
:102520000138009000980028EAD100F037FB0746F8
:1025300021688868C00712D100F030FBC01B022858
:10254000F6D9A06A40F01000A062E06A40F00100F5
:10255000E062002084F82400012001B0F0BDA06AF0
:1025600040F60172904300F58070A06242F2044090
:10257000C4F2010000F57F72914242D0A06A20F4BB
:102580008010A0624868400504D5A06A012262F369
:102590000D30A062A06A002240F2E91340F2392710
:1025A000C0F60003C0F60007C00444BFE26A22F090
:1025B0000602002084F82400E26240F25122206AE0
:1025C000C0F60002C0E90A326FF0020207632B4630
:1025D0000A608A6842F480728A604C31324600F0A8
:1025E0005BF820688268816802F46022B2F5602F8F
:1025F0000CBF41F4A00141F480118160002001B0C2
:10260000F0BD026812F4702FB8D0A26A42F48012B2
:10261000A26200684005BDD5B7E70000C8B310B599
:102620004FF6F87302684CF6CD4140F2000CCBF641
:10263000FD73CCF6CC41C4F2020C1344A3FB01138E
:102640006FF0030101EA930143F6F073C0E90FC193
:10265000116821EA030CD0E90131D0E903E443EA2F
:102660000C031943436941EA0E012143194383696D
:102670001943C3691943116000214FF48072C0E906
:102680000A11C0E90C1181630284BDE810400846BC
:102690007047012108467047B0B590F820C0BCF1E2
:1026A000010F34D04FF0010E80F820E090F821C0E7
:1026B000BCF1010F28D14FF0000CC0F838C04FF02A
:1026C000020C80F821C0D0F800C0DCF8004024F0F3
:1026D0000104CCF80040D0E90F450EFA05F565601D
:1026E000CCF804304368102B0B4608BF1346CCF8D7
:1026F000083008BF0A46CCF80C20C16ADCF800009C
:1027000039B140F00E000CE0002180F820100220CA
:10271000B0BD20F00400CCF80000DCF8000040F070
:102720000A00CCF80000DCF8000040F00100CCF812
:1027300000000020B0BD0000B0B5044600F02EFA45
:10274000054640F22400611CC2F20000007818BF68
:10275000044400BF00F022FA401BA042FAD3B0BDEF
:102760002DE9F04381B042F230760546C2F2000610
:10277000307E012802BF022001B0BDE8F0830120B5
:10278000884630764CF250302C68FFF709FA022C5C
:1027900006D160B101200021317601B0BDE8F0839F
:1027A00000B301200021317601B0BDE8F08342F290
:1027B00010040020F061C4F20204206840F004001C
:1027C0002060206840F0400020604CF25030FFF75D
:1027D000E7F9216821F0040121600021317601B080
:1027E000BDE8F0834FF0FF30C8F80000D5E9027073
:1027F00007EB8020874228D242F210044FF00009F4
:10280000C4F20204C6F81C90206840F00200206068
:102810006760206840F0400020604CF25030FFF7C5
:10282000BFF92168002821F00201216013D1D5E908
:10283000020107F5806700EB81208742E2D3002088
:102840000021317601B0BDE8F0830120002131760E
:1028500001B0BDE8F083C8F800700021317601B006
:10286000BDE8F08342F21000C4F20200016841F0BA
:1028700080010160002070472DE9F04F81B042F2E5
:1028800030788146C2F2000898F81800012802BF8B
:10289000022001B0BDE8F08F01201C4692460E4692
:1028A00088F818004CF25030FFF77AF9D8BBB9F12C
:1028B000020F4F4642F210054FF000004FF0000BA0
:1028C00018BF0427B9F1010FC4F2020508BF4F4633
:1028D0006FF01F0900210201C8F81C102AFA02F249
:1028E000296841F0010129602021A1EB001104FABF
:1028F00001F1114309EB0012002AA8BF24FA02F1EA
:1029000026F810104CF25030FFF74AF929680028D9
:1029100021F00101296006D10BF1010B5FFA8BF068
:102920008742D7D80020002188F8181001B0BDE8F0
:10293000F08F000042F20400C4F20200C1680906F0
:102940005CBF0020704740F22311C4F26751016060
:1029500048F6AB11CCF6EF510160C068C0F3C0106F
:10296000704700002DE9F04F82B041F2004204238D
:1029700040F2004C4FF6FF7B4FF0010E0F274FF057
:10298000000A4FF00009C4F20102C4F2010CC1F2C6
:10299000100B904208BF0323009300230A680EFA2D
:1029A0000AF812EA080F0ED10AF1010A0433BAF14B
:1029B000100F04BF02B0BDE8F08F0A680EFA0AF8E3
:1029C00012EA080FF0D04C685C4515DD4FF6FF7237
:1029D000C1F22102944221DD0022C1F2220294427E
:1029E0002CD00022C1F23102944227D00022C1F241
:1029F0003202944222D03DE0122C3BD8DFE804F0B2
:102A00001E0A2C303A3A3A3A3A3A3A3A3A3A3A3A8A
:102A10003A333700D1F80C902CE000BF0022C1F20D
:102A2000110294420AD00022C1F21202944205D04F
:102A30000022C1F2210294421CD100BF8A6842B137
:102A4000012A4FF0080914BFC0F81480C0F81080A4
:102A500010E04FF004090DE0CA6802F1080909E02E
:102A60004FF0000906E0CA6802F1040902E0CA68F2
:102A700002F10C09BAF1080F1A46054628BF203AA0
:102A800028BF04352E6807FA02F409FA02F226EA92
:102A9000040422432A60CA79D2067FF585AF41F249
:102AA000180203F00C06C4F202021446126842F047
:102AB00001022260226802F00102019207FA06F286
:102AC000ACF57E77019C4FEA9A0457F82450954361
:102AD00040F60002C4F2010290420ED040F60042DD
:102AE000C4F2010290420AD041F20002C4F2010293
:102AF0009042009A08BF022202E0002200E0012278
:102B0000B2402A4347F824204FF6FF77D1F804B0AB
:102B1000C1F210075FEACB32DCF8002054BF22EA92
:102B2000080242EA0802CCF800205FEA8B32DCF8A7
:102B3000042054BF22EA080242EA0802CCF804202A
:102B40005FEACB22DCF8082054BF22EA080242EAFE
:102B50000802CCF808205FEA8B22BB464FF00F0733
:102B600040F20C42C4F201021446126854BF22EA39
:102B7000080242EA0802226016E700008068084066
:102B800018BF012070470000C2685140C160704703
:102B9000002A08BF090401617047000042F260701A
:102BA000C2F200000068704740F2240042F26071F7
:102BB000C2F20000C2F2000100780A681044086006
:102BC0007047000080B542F20000C4F202000168C4
:102BD00041F010010160032000F0B6F8002000F081
:102BE00005F800F025F8002080BD000070B540F227
:102BF000240604464FF47A71C2F200063078B1FB25
:102C0000F0F040F2E801C2F200010968B1FBF0F017
:102C100001F09AF901250F2C08D838B94FF0FF3090
:102C200021460022002500F061F87460284670BD3E
:102C300080B582B041F21800C4F20200016841F090
:102C400001010160016801F00101019101994168F0
:102C500041F080514160406800F080500090009841
:102C6000032000F071F86FF00B000021002200F04B
:102C70003DF86FF00A000021002200F037F86FF0F5
:102C800009000021002200F031F86FF0040000215B
:102C9000002200F02BF86FF003000021002200F06A
:102CA00025F86FF001000021002200F01FF84FF01E
:102CB000FF300021002200F019F804200222C4F2A3
:102CC0000100016862F31A61016002B080BD00007A
:102CD00000F01F010122400902FA01F14EF2001238
:102CE000CEF2000242F820107047000080B500F1DB
:102CF00060434EF60C5E002803F5644C00F00F03B1
:102D0000CEF2000EA3F104037344B8BF03F10C0C20
:102D1000DEF800004FF0FF3EC0F30220C31E80F03B
:102D2000070038BF0023042828BF04200EFA00F053
:102D300021EA00000EFA03F1984022EA010108435B
:102D400000018CF8000080BD4EF60C514FF6FF03D9
:102D5000CEF200010A681A4060F30A2242F0806055
:102D600040F0FD700860704701F0A2F980B501F0F5
:102D70007F0E00EB411C090600EB4E1000F128000D
:102D800058BF0CF50A7032B10121C3808172190C51
:102D90000181002080BD002183808172002080BDE0
:102DA0007047000000EB4112D0F85C04D26B01F0D8
:102DB000ABBC000000EB4112D0F85C04D2F83C221E
:102DC00001F0FABC10B501F07F0C0A46044600EB96
:102DD0004C13100603F128014FEAD21058BF03F537
:102DE0000A71487081F800C094F82804012804BFD3
:102DF000022010BD012084F82804206802F03EFA69
:102E0000002084F8280410BDB0B5044601F07F030B
:102E10000A4600EB411004EB4311150601F12801AD
:102E20004FF0000558BF00F50A71D0090B708D7086
:102E3000487094F82804012802BF02252846B0BD36
:102E4000012084F82804206802F0BCFA284684F89F
:102E50002854B0BDF0B581B0074601F07F000C46A4
:102E600007EB4015260605F128014FEAD41658BF96
:102E700005F50A714E7008700A61CB7097F8280446
:102E8000012802BF022001B0F0BD012087F828040C
:102E9000386802F0DDF8002087F8280401B0F0BDA2
:102EA00080B501F07F0C4FF0000E00EB4C1101F5E6
:102EB0000F7787E80C4081F829E281F828C201F5F4
:102EC0000A71006802F0E6FA002080BDB0B5044641
:102ED00001F07F050A4600EB411004EB4511130693
:102EE0004FEAD21201F1280158BF00F50A71012002
:102EF0000D7088704A7094F82824012A04BF0220BB
:102F0000B0BD84F82804206802F098FA1DB10020B2
:102F100084F82804B0BD206804F22C4102F050FA75
:102F2000002084F82804B0BD80B501F07F0C00EBD0
:102F30004C1101F828CF4FF0000C01F1140E8EE86F
:102F40000C1001224A70006802F0A4FA002080BD33
:102F50002DE9F04F83B00446006802F0F3FB000453
:102F600006D4206802F0EEFB400500F1EB8103E29D
:102F70004FF00009ADF80A90ADF808902068B0F95C
:102F80004410B1F1FF3FADF80A1000F3D78104F20D
:102F90002C4148F60F7A0191BDF80A1011F00F0884
:102FA00010D030F828104FEA480BADF80810BDF9E2
:102FB0000810B1F1FF3F35DDBDF80800000600F153
:102FC0002981B3E1BDF80A200188D20650D401EA74
:102FD0000A010180B0F8501094F8282001EBC201DA
:102FE00000EB4100D0F804046FF39F206064E16BB4
:102FF00008440021E0632046FFF7D4FE94F8240043
:10300000002800F09381206C002840F08F81206818
:1030100094F8241041F08001C9B2A0F84C1084F853
:10302000249083E130F81B1040F68F7204EB4819AE
:1030300009F50A7A114020F81B1099F8321200297C
:103040007BD09AF8001030F82120B0F8503003EB14
:10305000C101520400EB410100F18680D1F80C64FB
:103060006FF39F26002E00F08C80B9F8302282E0AA
:10307000ADF80810BDF80810090541D4BDF90810D5
:10308000B1F1FF3F00F35281018840F68F72114089
:103090000180B0F8501094F8282201EBC20100EB37
:1030A0004101D1F80C346FF39F23002BC4F8443254
:1030B0000CD0B4F82C22D4F83C1202F047FBD4F820
:1030C0003C02D4F844120844C4F83C0220460021D3
:1030D000FFF770FE2068B0F85010D4F8383200F2D4
:1030E0000C423F2BC0F00F815F0140F2FF36DB0640
:1030F00027EA060708BF07F5F84747F4004307E14A
:10310000B0F8501094F8282201EBC20100EB410105
:10311000D1F80C3401996FF39F23C4F84432B4F80A
:103120002C2202F013FB206840F68F7201881140B8
:103130000180204600F08CFBF8E0B0F850109AF8BF
:10314000002001EBC20100EB4101D1F80C646FF3E8
:103150009F26002E00F0D580B9F82C22D9F83C1219
:10316000334602F0F3FA1AE0D1F804646FF39F26B5
:103170003EB1B9F82E22D9F83C12334602F0E6FAF5
:1031800000E000269AF80000216840F60F7331F83D
:1031900020201A4048F2C0031A4321F82020D9E920
:1031A0008F10D9F84422324431440028C9F844220F
:1031B000C9F83C1203D0D9F83822B2420DD99AF896
:1031C00000102046FFF7F6FD4FF0000948F60F7A91
:1031D000BDF8080000061DD4A8E09AF800204FF0C2
:1031E000000902F07F0204EB4213C3E98F10C3F819
:1031F000449283F8299283F8282203F50A71206803
:1032000002F048F948F60F7ABDF80800000640F1D0
:103210008D8000BF206804EB481606F1280730F8BF
:103220001B1001EA0A0120F81B1096F83210A1B118
:10323000397830F82120B0F8503003EBC101520644
:1032400000EB41011FD4D1F80C3435466FF39F23B6
:1032500045F8443F1BB3328E1EE0B0F85020397859
:10326000354602EBC10200EB4202D2F804346FF3A0
:103270009F2345F8443F03B3B28DF16B02F0B0FADF
:103280002068397819E0D1F8043435466FF39F236C
:1032900045F8443F1BB1F28DF16B02F0A1FA397889
:1032A000206840F60F7330F821201A4048F2C0031E
:1032B00003F57F531A4320F82120B0F8502002EB89
:1032C000C10200EB4202D2F804346FF39F232B605B
:1032D000D6E90F723B44002AF3630ED001F07F075A
:1032E00004EB471101F8287FC1E905320122C1F83A
:1032F0001C904A7002F0CEF818E02046FFF752FD0D
:1033000014E000264BE703F0010707EB53039B0291
:103310009BB242F8113043F60F720188114048F217
:10332000C00202F53F525140018000BF2068B0F951
:1033300044100029ADF80A10FFF62EAE02F002FA92
:10334000400519D52068B0F8441021F48061A0F838
:103350004410204600F052FA94F8280401280BD0BB
:1033600000250120002184F8245084F828042068D6
:1033700002F02EFA84F82854206802F0E3F901469E
:103380002068490442BFB0F8441021F48041A0F8FD
:10339000441002F0D7F901462068890442BFB0F812
:1033A000441021F40051A0F8441002F0CBF901467A
:1033B0002068C90415D5B0F8401021F00401A0F828
:1033C0004010B0F8401021F00801A0F8401020464D
:1033D00000F022FA2068B0F8441021F48051A0F8DF
:1033E000441002F0AFF9000519D52068B0F840107C
:1033F00041F00801A0F84010B0F8441021F4006139
:10340000A0F84410B0F8401041F00401A0F84010BA
:1034100002F098F9C00402D4204600F03BFA20687C
:1034200002F090F9800507D4206802F08BF9C005FE
:1034300011D403B0BDE8F08F2068B0F8441021F437
:103440000071A0F84410204600F0EAF9206802F06C
:1034500079F9C005EDD52068B0F8441021F48071E9
:10346000A0F8441003B0BDE8F08F00002DE9F04F44
:1034700085B0002800F09B81044690F8290428B903
:10348000002084F82804204600F096F903204FF02D
:10349000030884F82904206801F088FF94E88F006D
:1034A000D4E90565D4E907CECDE9007602AE86E819
:1034B000205001F0E1FE20680021002502F086F98D
:1034C0004FF480704FF004094FF0050A4FF0060BDF
:1034D000082709264FF00A0E4FF00B0C0C230D2283
:1034E0000E21208540F20110A58684F82B50C4E9F6
:1034F0000E552564A4F848000120A4F854004FF4A8
:10350000817084F84B50C4E916552566A4F868000C
:103510000220A4F8740040F2031084F86B50C4E950
:103520001E55C4F88050A4F888004FF48270A4F8A7
:10353000948084F88B50C4E92655C4F8A0504FF00D
:103540000708A4F8A80040F20510A4F8B49084F885
:10355000AB50C4E92E55C4F8C050A4F8C8004FF4CD
:103560008370A4F8D4A084F8CB50C4E93655C4F8CD
:10357000E050A4F8E80040F20710A4F8F4B084F892
:10358000EB50C4E93E55C4F80051A4F808014FF4CB
:103590008470A4F8148184F80B51C4E94655C4F82A
:1035A0002051A4F8280140F20910A4F8347184F8DD
:1035B0002B51C4E94E55C4F84051A4F848014FF4CA
:1035C0008570A4F8546184F84B51C4E95655C4F889
:1035D0006051A4F8680140F20B10A4F874E184F87B
:1035E0006B51C4E95E55C4F88051A4F888014FF4CA
:1035F0008670A4F894C184F88B51C4E96655C4F868
:10360000A051A4F8A80140F20D10A4F8B43184F838
:10361000AB51C4E96E55C4F8C051A4F8C8014FF4C9
:103620008770A4F8D42184F8CB51C4E97655C4F846
:10363000E051A4F8E8010120A4F8F41184F8EB515A
:10364000C4E97E55C4F80052A4F82852A58684F82F
:103650002B52C4E98E55C4F84052A4F84802A4F88D
:103660005400022084F84B52C4E99655C4F86052C5
:10367000A4F86802A4F87400032084F86B52C4E92B
:103680009E55C4F88052A4F88802A4F8940084F8E7
:103690008B52C4E9A655C4F8A052A4F8A892A4F885
:1036A000B49084F8AB52C4E9AE55C4F8C052A4F843
:1036B000C8A2A4F8D4A084F8CB52C4E9B655C4F883
:1036C000E052A4F8E8B2A4F8F4B084F8EB52C4E9EC
:1036D000BE55C4F80053A4F80883A4F8148184F8F4
:1036E0000B53C4E9C655C4F82053A4F82873A4F8B2
:1036F000347184F82B53C4E9CE55C4F84053A4F870
:103700004863A4F8546184F84B53C4E9D655C4F80F
:103710006053A4F868E3A4F874E184F86B53C4E937
:10372000DE55C4F88053A4F888C3A4F894C184F883
:103730008B53C4E9E655C4F8A053A4F8A833A4F801
:10374000B43184F8AB53C4E9EE55C4F8C053A4F8BF
:10375000C823A4F8D42184F8CB53C4E9F655C4F89F
:10376000E053A4F8E813A4F8F41184F8EB53C4E987
:10377000FE55C4F8005404F1140E94E88F009EE83E
:103780004050D4F82080CDE90076CDE902CECDF8C6
:10379000108001F0F9FD012084F8245084F82904F8
:1037A000206801F0EFFD284605B0BDE8F08F012547
:1037B000284605B0BDE8F08F45F600410068C4F228
:1037C0000001884218BF704780B582B041F21C00EA
:1037D0000022C4F20200016841F4000101600021EE
:1037E000006800F40000019001981420FFF77EFAB1
:1037F000142002B0BDE88040FFF76ABA10B5044655
:10380000D0F85C04012101F0C1F8D4F85C04BDE8F3
:10381000104001F087B80000D0F85C0401F0A2B8B5
:10382000D0F85C0401F0A4B810B5044690F8280460
:10383000012804BF022010BD012084F8241084F860
:103840002804206801F0C4FF002084F8280410BD7B
:10385000D0F85C2400F22C41104601F0ADB8000015
:1038600010B5044690F82804012804BF022010BDBA
:103870000120012184F828042046FFF791FA2068EE
:1038800001F07EFD206801F04FFF002084F828043D
:1038900010BD000010B50446D0F85C0401F0DEF85D
:1038A000A069002808BF10BD4EF61050CEF20000EF
:1038B000016841F00601016010BD00002DE9F041F2
:1038C00082B00446007841F21C06C4F20206C0072A
:1038D00060D03068C0000BD430684FF0010840F071
:1038E00080503060306800F080500190019801E015
:1038F0004FF0000847F20007C4F200073868C0051F
:1039000012D4386840F480703860FFF747F90546F4
:103910003868C00508D4FFF741F9401B6428F7D97F
:10392000032002B0BDE8F081706810F4407023D02D
:10393000616801F4407188421ED040F240417068D5
:103940000122C4F242210A6000220A6020F4407180
:10395000C007716010D0FFF721F9054641F28837A2
:103960007068800708D4FFF719F9411B0320B9429A
:10397000F6D902B0BDE8F08170686168B8F1000F57
:1039800020F4407040EA010070601EBF306820F0F3
:10399000805030602068810707D556F8181CA2684F
:1039A00021F44041114346F8181CC0065EBF0020B8
:1039B00002B0BDE8F08156F8180CE16820F48000F0
:1039C000084346F8180C002002B0BDE8F081000062
:1039D0002DE9F04381B042F2000804460D46C4F2DE
:1039E0000208D8F8000000F0070088420CD2D8F88E
:1039F000000020F007002843C8F80000D8F80000B5
:103A000000F00700A84258D1206841F20407C4F230
:103A10000207810705D53968A26821F0F00111433A
:103A20003960C0073DD1D8F8000000F00700A84277
:103A30000CD9D8F8000020F007002843C8F800008F
:103A4000D8F8000000F00700A84246D120684107DE
:103A500005D53968E26821F4E06111433960000757
:103A600006D53868216920F4605040EAC10038600A
:103A7000396841F20020C0F27A0001F00C02082AF5
:103A800040F0808045F6BE33C1F38342C903C0F6DF
:103A900000039A5C6BD440F60010C0F23D00504326
:103AA00070E0606801280DD157F8041C890320D408
:103AB0000124204601B0BDE8F0830124204601B076
:103AC000BDE8F08357F8041C02280BD1890110D4FB
:103AD0000124204601B0BDE8F0830124204601B056
:103AE000BDE8F083890704D40124204601B0BDE875
:103AF000F083396821F0030108433860FFF74EF87E
:103B00000646606841F28839012811D002281FD189
:103B1000386800F00C0008283FF485AFFFF73EF846
:103B2000801B4845F4D90324204601B0BDE8F0834A
:103B3000386800F00C0004283FF475AFFFF72EF84A
:103B4000801B4845F4D90324204601B0BDE8F0832A
:103B5000386810F00C0F3FF466AFFFF71FF8801BBA
:103B60004845F5D90324204601B0BDE8F083396803
:103B7000504345F6AC32C0F60002C1F34041515CFF
:103B8000B0FBF1F0396845F6AE320024C0F6000211
:103B9000C1F30311515CC84040F2E801C2F20001D8
:103BA00008600020FFF722F8204601B0BDE8F0834E
:103BB00040F2E800C2F20000006870472DE9F041D1
:103BC00082B00446007841F20006C4F20206C00743
:103BD0004BD0706800F00C00042817D0706800F01B
:103BE0000C00082802D17068C0030FD4606898B137
:103BF000B0F5803F06D03168B0F5A02F21D141F457
:103C000080203060306840F4803020E030688003ED
:103C10002BD5606848BB3AE1306820F480303060D2
:103C2000306820F480203060FEF7B8FF054600BF02
:103C30003068800319D5FEF7B1FF401B6428F7D91F
:103C400012E121F480303060306820F48020306050
:103C5000FEF7A4FF054600BF3068800305D4FEF7D9
:103C60009DFF401B6428F7D9FEE0207880072FD500
:103C7000706810F00C0F07D0706800F00C00082876
:103C80000AD17068C00307D43068800719D520694D
:103C9000012840F0FC8014E021690020C4F2422099
:103CA000002900F0A58001210160FEF777FF05469D
:103CB0003068800705D4FEF771FF401B0228F7D952
:103CC000D2E03068616920F0F80040EAC10030605D
:103CD0002078000712D42078400740F1D080F069A6
:103CE000C00020D4F0694FF0010840F08050F0612E
:103CF000F06900F080500090009816E0A069D8B3F9
:103D000000200121C4F24220C0F88014FEF746FFD3
:103D1000054600BF706A800741D4FEF73FFF401B95
:103D20000228F7D9A0E04FF0000847F20007C4F2DC
:103D300000073868C00510D4386840F480703860D7
:103D4000FEF72CFF054600BF3868C00505D4FEF716
:103D500025FF401B6428F7D986E0E068002857D08B
:103D6000012805D0316A052869D141F0040030628C
:103D7000306A40F0010068E000200021C4F24220D7
:103D8000C0F88014FEF70AFF054600BF706A80077E
:103D9000A1D5FEF703FF401B0228F7D964E040F2EB
:103DA000E80044F6D351C2F20000C1F2620100689B
:103DB000A0FB0101480A019000BF0198411E0028A4
:103DC00001913FF488AF00BF0198411E0028019186
:103DD0003FF481AF00BF0198411E002801913FF4DC
:103DE0007AAF00BF0198411E00280191E4D172E72B
:103DF00000210160FEF7D2FE054600BF3068800753
:103E00007FF566AFFEF7CAFE401B0228F6D92BE00D
:103E1000306A20F001003062306A20F00400306225
:103E2000FEF7BCFE054641F2883700BF306A8007C6
:103E30001ED5FEF7B3FE401BB842F7D914E021F0BF
:103E400001003062306A20F004003062FEF7A6FE06
:103E5000054641F2883700BF306A800708D4FEF774
:103E60009DFE401BB842F7D9032002B0BDE8F081A7
:103E7000B8F1000F1EBFF06920F08050F061E769D3
:103E8000002F4DD0706800F00C00082803D10120ED
:103E900002B0BDE8F08140F200080020C4F24228E0
:103EA000C8F86000FEF77AFE0546022F0AD100BF6F
:103EB0003068800110D5FEF771FE411B03200229F6
:103EC000F6D92AE0306880012AD5FEF767FE411B4B
:103ED00003200329F6D320E0206AB0F5803F05D106
:103EE0007168A26821F40031114371607168626ADF
:103EF000104321F47411084370600120C8F8600079
:103F0000FEF74CFE044600BF3068800108D4FEF77F
:103F100045FE011B03200229F6D902B0BDE8F0815D
:103F2000002002B0BDE8F0814EF210010428CEF26C
:103F300000010A6822F0040308BF42F004030B608A
:103F40007047000070470000411E0020B0EB116F69
:103F50001CBF012070474EF21002F023CEF2000287
:103F600051604EF62351CEF200010B700721906094
:103F700011607047FFF7E6BFFEE7000010B542F2A0
:103F8000680440F2CC010022C2F20004C2F2000137
:103F9000204600F07DFB40F2EC012046C2F2000119
:103FA00000F084FD40F26C112046C2F2000100F0E6
:103FB000A7F92046BDE8104000F08EBD10B541F2D3
:103FC000287C00204AF2010EC2F2000C830381B269
:103FD0001BB20EEAD33383EA91044EEA5302E4079C
:103FE00008BF5A0882EAD1048EEA5203E40708BFE8
:103FF000530883EA11148EEA5302E40708BF5A08F3
:1040000082EA51148EEA5203E40708BF530883EA98
:1040100091148EEA5302E40708BF5A0882EAD111CC
:104020008EEA5203C90700F1010108BF53088A074D
:104030002CF8103089B24FF4A04258BF0EF5A042C0
:10404000C2F34E0382EA9102D20718BF83EA0E033D
:1040500083EAD1048EEA5302E40708BF5A0882EAD1
:1040600011148EEA5203E40708BF530883EA51147F
:104070008EEA5302E40708BF5A0882EA91148EEAD6
:104080005203E40708BF530883EAD1118EEA5302B2
:10409000C9070CEB400100F1020008BF5A08B0F557
:1040A000807F4A8092D110BDFEE70000704700007B
:1040B0004EF60C50BFF34F8F0422CEF20000C0F238
:1040C000FA52016801F4E06111430160BFF34F8FC0
:1040D00000BFFDE7002808BF704740F25431C2F22C
:1040E0000001C96801607047704700007047000018
:1040F00010B541F2B044C2F200042046FCF7C2FF02
:104100002046FCF741FAFEF74FFDBDE81040FFF7EF
:1041100031BF0000B0B594B04FF4803001210024CD
:1041200002250B900A910C940E91CDE911504FF499
:10413000E01013900AA8FFF741FD30B145F6466044
:104140004921C0F6000001F08DFB0F2002210590EF
:104150004FF480600794CDE9080405A80695FFF7A1
:1041600037FC30B145F646605721C0F6000001F03B
:1041700079FB002004901020019001A8FFF79EFB1E
:1041800030B145F646605E21C0F6000001F06AFBE2
:10419000FFF70EFD44F6D351C1F26201A0FB01010D
:1041A0008809FFF7D1FE0420FFF7BEFE4FF0FF3075
:1041B00000210022FEF79AFD14B0B0BD41F20000CC
:1041C0000022C4F20200CFF6FF02016841F00101B3
:1041D0000160416811404FF6FF724160CFF6F66210
:1041E000016811400160016821F48021016041688B
:1041F00021F4FE0141604FF41F0181604EF608502A
:104200004FF00061CEF2000001607047D0F8180254
:10421000002180F85010002070470000B0B5D0E9B0
:104220008652044628786978D26890472046012152
:104230002A46402300F064FB0020B0BD10B5812168
:10424000044600F04FFA2046012100F04BFAD4F862
:10425000180250B1D4F81C0280688047D4F81802C4
:1042600000F0EEFE0020C4F81802002010BD00008F
:1042700010B5D0F81842E16C012908D1D0F81C0221
:1042800022786178C368104698470020E0640020D7
:1042900010BD00002921018040F22810C2F2000068
:1042A000704700000A21018040F26010C2F2000055
:1042B0007047000070B5812103224023044600F0BE
:1042C00009FB2046012103224023012500F002FBC7
:1042D000542000F0B7FE0028C4F818020DD00025C5
:1042E000064680F85050D4F81C02406880472046AB
:1042F00001213246402300F003FB284670BD000038
:1043000000290EBF0220C0F81C12002070470000D8
:1043100094460A4690F8FC11032904D1D0F81812EB
:1043200091F850300BB10020704780B5012381F81F
:1043300050308121634600F09BFBBDE880400020A7
:104340007047000080B50A78D0F818C212F06002F9
:1043500013D0202A2BD14A78023A092A37D8DFE82D
:1043600002F0052F36363636363A43480CF1440112
:10437000012200F093F8002080BD4A780B2A13D068
:104380000A2A16D0062A12D1CA78212A36D0222A21
:1043900040D1CA88A02A28BFA022D0F81C120968E0
:1043A00000F07CF8002080BD8878CCF84800002020
:1043B00080BD0CF14801012200F070F8002080BDA2
:1043C0000CF14001012200F069F8002080BD00F0EE
:1043D0003FF8022080BD0122CCF84C208A7961464A
:1043E00000F042F8002080BDC878CCF844000020DE
:1043F00080BD8878CCF84000002080BDCA8840F29B
:104400005411C2F20001092A28BF092200F046F81F
:10441000002080BD0022002100F040F8002080BD77
:1044200080B5D0F8142252689047002080BD00006B
:1044300080B513460A46002100F062FA002080BDD4
:1044400080B513460A46002100F012FB002080BD13
:1044500010B58021044600F0DDFA20460021BDE8B9
:10446000104000F0D7BA000080B513460A46032179
:10447000C0F8F4110021C0E9423300F041FA0020F5
:1044800080BD000080B5052100220023C0F8F41192
:10449000002100F035FA002080BD000080B51346F1
:1044A0000A460221C0F8F4110021C0E9063300F0E9
:1044B000DFFA002080BD000080B504210022002327
:1044C000C0F8F411002100F0D3FA002080BD0000F4
:1044D00010B540F254640A4603A0C2F2000421461B
:1044E00000F06EF8204610BD437573746F6D204860
:1044F000494420436F6E66696700000012200880FF
:1045000040F27C10C2F200007047000010B540F28B
:1045100054640A4603A0C2F20004214600F050F899
:10452000204610BD437573746F6D2048494420497F
:104530006E74657266616365000000000420088087
:1045400040F29010C2F200007047000010B540F237
:1045500054640A4603A0C2F20004214600F030F879
:10456000204610BD53544D6963726F656C6563746A
:10457000726F6E696373000010B540F2546440F2CC
:1045800094100A46C2F20004C2F20000214600F074
:1045900017F8204610BD000010B540F254640A46DA
:1045A00003A0C2F20004214600F00AF8204610BD24
:1045B00030303030303030303030314100000000A9
:1045C00010B5002863D00378BBB100F1020E4FF0A4
:1045D000000C00BF1EF8013C8BB19EF800308BB17F
:1045E0009EF801308BB19EF802400EF104030CF1ED
:1045F000040C9E46002CEDD109E002230CE04CF0A7
:10460000010C04E04CF0020C01E04CF0030C5FFAEA
:104610008CFC022303EB4C03138003224A700B70C3
:1046200090F800E0BEF1000F31D0841C02204FF062
:10463000000C00BFC2B201F802E042F0010201F832
:1046400002C014F8012C12B3831CDBB2CA5443F02D
:10465000010201F802C02278CAB1031DDBB2CA54BC
:1046600043F0010201F802C06278002A08BF10BDC1
:10467000831D0830DBB2CA5443F0010201F802C0C6
:10468000221D94F802E01446BEF1000FD2D110BDF5
:10469000002804BF02207047D0F81432002B1CBF42
:1046A0000023C0F81432002918BFC0F8101280B5DA
:1046B0000121027080F8FC1100F0B4F8002080BDE8
:1046C00080B5D0F82002FEF79FFB032884BF0220AC
:1046D00080BD40F20021C000C0F2012121FA00F0AB
:1046E000C0B280BD80B5D0F82002FEF76BFB032876
:1046F00084BF022080BD40F20021C000C0F2012131
:1047000021FA00F0C0B280BDB0B5044661B1D4F862
:1047100014024269002A4CD094F8FC01032848D1C5
:10472000204690470020B0BDD4F8F401022826D1DD
:10473000D4E90710814208D9081A114683B2E06112
:1047400020461A46FFF77CFE13E0A16981421FD381
:10475000B1FBF0F202FB1010D0B9D4F8F80181429D
:1047600016D22046002100220025FFF769FEC4F87A
:10477000F851204600210022002300F0C1F894F8EF
:104780000002012815D1002084F800020020B0BDED
:10479000D4F81402C16829B194F8FC01032801D1AE
:1047A000204688472046FFF76DFE94F80002012856
:1047B000E9D00020B0BD000010B5044651B1D4F8D6
:1047C00014028269E2B194F8FC01032818D1204652
:1047D000904715E0D4F8F401032811D1D4E943102F
:1047E00081420FD9091A8142C4F80C1138BF08461A
:1047F000114683B220461A46FFF71AFE002010BD6C
:10480000002010BDD4F81402016929B194F8FC010C
:10481000032801D1204688472046FFF74DFE00209F
:1048200010BD000010B545F60042044642F2D0200B
:104830004FF0080C02230321C2F20000C4F2000270
:10484000C0F85C44C4F82002C0E9002CC0E9023181
:104850000021C0E906110162FEF708FE20B111A097
:104860004FF4977100F0FEFFD4F8200200210022DF
:104870001823FEF77BFAD4F8200280210022582367
:10488000FEF774FAD4F82002812100229823FEF763
:104890006DFAD4F8200201210022D823FEF766FA2F
:1048A000002010BD2E2E2F5372632F757362645F2C
:1048B000636F6E662E630000D0F8200201F07F0265
:1048C000090600EB421000F12A0258BF00F22A222A
:1048D0001078704780B59446D0F820021A46634697
:1048E000FEF7B8FA032884BF022080BD40F2002101
:1048F000C000C0F2012121FA00F0C0B280BD00006A
:1049000080B5D0F82002FEF7CBFA032884BF02203E
:1049100080BD40F20021C000C0F2012121FA00F068
:10492000C0B280BDB0B5002100224023044640251E
:10493000FFF7D0FF2046802100224023C4F8105109
:10494000FFF7C8FF0120256284F8FC01D4F81802A3
:1049500028B1D4F8140221794268204690470020FB
:10496000B0BD000090F8FD1180F8FC1100207047E8
:1049700090F8FC11032907D1D0F81412C96919B1B4
:1049800080B58847BDE88040002070470174002052
:104990007047000080B5D0F82002FEF745FF0328DD
:1049A00084BF022080BD40F20021C000C0F201217E
:1049B00021FA00F0C0B280BDB0B500F50275044622
:1049C000284600F067F8B4F80E120120C4E97D0112
:1049D00094F8080200F01F01022908D001290CD028
:1049E00089B92046294600F07DF80020B0BD204658
:1049F000294600F06BFA0020B0BD2046294600F0A1
:104A0000F1FA0020B0BD00F08001204600F002F86D
:104A10000020B0BD80B5D0F82002FEF757FA032879
:104A200084BF022080BD40F20021C000C0F20121FD
:104A300021FA00F0C0B280BD80B5D0F82002FEF7A8
:104A40000FFF032884BF022080BD40F20021C00078
:104A5000C0F2012121FA00F0C0B280BD90F8FC1133
:104A600080F8FD11042180F8FC110020704700003F
:104A700080B5D0F82002FEF757FA032884BF022041
:104A800080BD40F20021C000C0F2012121FA00F0F7
:104A9000C0B280BD0A7802704A7842704A8842806B
:104AA0008A888280C988C1807047000000290EBFB3
:104AB0000220C0F81412002070470000D0F8142221
:104AC000002A04BF0220704780B512689047002872
:104AD00018BF022080BD000080B5FFF7ADFF0020A9
:104AE00080BD0000B0B582B004464878092838D8A7
:104AF0000D46DFE800F0051C364136548F36657BE5
:104B000094F8FC0100F0FE00022840F09F80D4F8E9
:104B10000402032102220028204608BF0121E1608F
:104B200004F10C01FFF7BAFC002002B0B0BD94F80C
:104B3000FC0100F0FE00022840F093806888012804
:104B400040F0A28100202946C4F80402D4F81402DF
:104B50008268204690472046FFF7AEFC002002B056
:104B6000B0BD20468021FFF755FF20460021FFF70A
:104B700051FF002002B0B0BD6888012840F0848158
:104B800001202946C4F80402D4F8140282682046A1
:104B900090472046FFF790FC002002B0B0BDA888E7
:104BA00018B9E888002800F0F98020468021FFF736
:104BB00031FF20460021FFF72DFF002002B0B0BDDD
:104BC000E888012858D194F8FC01032800F07E8081
:104BD000022840F0838000202146012241F8080F7E
:104BE0002046FFF75BFC002002B0B0BD688840F2B1
:104BF0005065C2F20005C1B22870022947D3204691
:104C00008021FFF707FF20460021FFF703FF002068
:104C100002B0B0BD68884FF0FF3101EB10210629CA
:104C200000F2A680DFE801F0047F65A4A492A10051
:104C3000D4F81012207C0A680DF106019047014655
:104C4000BDF80600002840F015811DE120468021B6
:104C5000FFF7E0FE20460021FFF7DCFE002002B057
:104C6000B0BD20468021FFF7D5FE20460021FFF78A
:104C7000D1FE002002B0B0BD20468021FFF7CAFE61
:104C800020460021FFF7C6FE002002B0B0BD94F818
:104C9000FC21032A3BD0022A40F07580000600F078
:104CA000A180032084F8FC0120466160FFF706FF25
:104CB000022840F0B88020468021FFF7ABFE204656
:104CC0000021FFF7A7FE002002B0B0BD211D204645
:104CD0000122FFF7E3FB002002B0B0BD2046802197
:104CE000FFF798FE20460021FFF794FE002002B057
:104CF000B0BDC1B2052900F2B280DFE801F003C8FF
:104D0000CDD2D7DCD4F81012207C4A6894E7002971
:104D10006ED06068884240F08C802046FFF7CCFB64
:104D2000002002B0B0BD217CD4F8140200290CBFD1
:104D3000816AC16A0DF10600884701460220487069
:104D4000BDF80600002840F095809DE0207C78B9F1
:104D5000D4F81402416B0DF1060088470146BDF8F6
:104D60000600002840F086808EE0207C00284DD090
:104D700020468021FFF74EFE20460021FFF74AFE25
:104D8000002002B0B0BD20468021FFF743FE204640
:104D90000021FFF73FFE002002B0B0BD94F8FC01F7
:104DA00003280AD120468021FFF734FE2046002147
:104DB000FFF730FE002002B0B0BDA87800F07F05FC
:104DC0002046294684F8FE51FFF7E4FD2046FFF710
:104DD00073FB002D0CBF0120022084F8FC01002091
:104DE00002B0B0BD2046FFF767FB002002B0B0BDA7
:104DF00000206060022084F8FC012046FFF710FBD1
:104E00002046FFF759FB002002B0B0BDD4F81402D1
:104E1000016B0DF106008847014607204870BDF878
:104E2000060038BB30E02046FFF746FB002002B00A
:104E3000B0BDC1B22046FFF7F3FA29782046616081
:104E4000FFF73CFE02283BD120468021FFF7E2FD20
:104E500020460021FFF7DEFD002002B0B0BDD4F8EF
:104E600014020DF10602836B204698470146BDF8F7
:104E7000060048B1EA883AB1904238BF024620465F
:104E8000ADF80620FFF70AFB002002B0B0BDD4F851
:104E90001012207C8A68CFE6D4F81012207CCA68F1
:104EA000CAE6D4F81012207C0A69C5E6D4F81012BC
:104EB000207C4A69C0E6D4F81012207C8A69BBE6DF
:104EC0002046FFF7F9FA002002B0B0BDB0B50446A5
:104ED00008780D4600F06000202807D1D4F81402AD
:104EE00029468268204690470020B0BD6978A8888E
:104EF000E9B1012924D0032972D194F8FC110329C6
:104F000022D1698841B940F08001C9B2802903D01B
:104F1000C1B22046FFF77EFDD4F81402294682680C
:104F2000204690472046FFF7C7FA0020B0BD94F80E
:104F3000FC11032932D002294AD141060BD14FE09E
:104F400094F8FC11032916D002290AD140F08001FF
:104F5000C9B2802944D0C1B22046FFF75BFD0020D2
:104F6000B0BD20468021FFF755FD20460021FFF708
:104F700051FD0020B0BD698891BB4106D2D0C1B2BD
:104F80002046FFF79DFBD4F814022946826820468C
:104F900090472046FFF790FA0020B0BD00F07F0157
:104FA000020604EB011101F1140558BF01F58275E9
:104FB000C1B22046FFF780FC002829464FF00202CC
:104FC00018BF012028602046FFF768FA0020B0BD16
:104FD00020468021FFF71EFD20460021FFF71AFD25
:104FE0000020B0BDB0B5044690F8FC0103280ED1F6
:104FF00088880D4610F0FE0F13D020468021FFF761
:1050000009FD20460021FFF705FD0020B0BD204628
:105010008021FFF7FFFC20460021FFF7FBFC00206A
:10502000B0BDD4F814022946826820469047E8882B
:105030000028F4D12046FFF73FFA0020B0BD000061
:105040007047000040F65400C2F2000070470000B4
:1050500070B5CA78032A0CD8DFE802F0020D161DDD
:105060000B7848F68F1430F82320224002F50072A6
:1050700019E00B7819E00B7848F68F1430F82320EC
:10508000224002F580620EE00B7848F68F1430F86B
:105090002320224007E00B7848F68F1430F82320B5
:1050A000224002F5C06220F8232030F8232040F689
:1050B0000F7448F2800C22401A4342EA0C0220F896
:1050C000232000EB83028C7A002C4FD0168840F608
:1050D0000F652E400CF580752E431680CE88B0F8F3
:1050E000505005EBC30526F0010600EB4505C5F859
:1050F00000640E89B0F8505005EBC30300EB430089
:1051000026F00103C0F808344978108800F4804084
:10511000002950D038B1108840F60F7108400CF5C6
:105120008041084310801088400607D5108840F65B
:105130000F7108400CF1400108431080108840F6C0
:105140000F7108400CF58041084340F63F71108014
:105150001088084043F60F7140EA0C001080108858
:10516000084040EA0C001080002070BD8C884E780A
:10517000B0F8505005EBC30524F00104002E00EBFD
:10518000450505F5806E43D0CEF8004010884006F6
:1051900007D5108840F60F7108400CF14001084314
:1051A0001080108840F63F7108400CF12001484003
:1051B0001080002070BD38B1108840F60F71084093
:1051C0000CF58041084310801088400607D51088F0
:1051D00040F60F7108400CF1400108431080108820
:1051E00040F60F7108400CF14001084343F60F717F
:1051F0001080108808400CF54051484040F63F713F
:1052000010801088084040EA0C001080002070BD1B
:10521000CEF80840DB00B0F85060096900F20C409D
:1052200033443F290BD34E0140F2FF35C90626EA2D
:10523000050608BF06F5F84646F4004104E001F013
:10524000010606EB5101890289B240F8131010885B
:10525000400407D5108840F60F7108400CF58041D6
:1052600008431080108843F60F7108400CF5405138
:1052700048401080002070BD0020704780B50A783B
:105280004B78897A48F2C00C30F822E000EB8200BB
:1052900041B30EF4804263B33AB1018840F60F7215
:1052A00011400CF57F52114301800188490606D553
:1052B000018840F60F72114041EA0C01018001881B
:1052C00040F60F7211400CF57F52114340F63F72C9
:1052D000018001881140ACF14002114343F60F7286
:1052E000018045E053B35FEA4E612DD440F63F7232
:1052F0003EE03AB1018840F60F7211400CF57F5242
:10530000114301800188490606D5018840F60F72D5
:10531000114041EA0C010180018840F60F721140F2
:1053200043F60F7241EA0C01018001881140ACF193
:105330004002114340F63F72018019E05FEA4E419E
:105340000CD443F60F7213E0018840F60F7211403F
:1053500040F63F7241EA0C01018009E0018840F605
:105360000F7211400CF57F52114343F60F7201800A
:1053700001881140ACF1400211430180002080BD42
:1053800000207047002070470121A0F84010002144
:10539000A0F84010A0F84410A0F85010B0F8401049
:1053A00041F43F41A0F8401000207047B0F8401091
:1053B00044F2FF221140A0F8401000207047000086
:1053C0000020704780B50B78497830F823205B00C7
:1053D00031B1510648F2B00E09D440F63F7123E0D6
:1053E00051044BF2800E11D443F60F711CE030F8DB
:1053F00013C040F60F710CEA010C0EF1100141EAE6
:105400000C0120F8131040F63F710DE030F813C086
:1054100040F60F710CEA010C0EF5805141EA0C01C7
:1054200020F8131043F60F7130F81320114081EA71
:105430000E0120F81310002080BD00000A787AB118
:10544000497830F82230520048F2900CB9B140F659
:105450003F71194081EA0C0120F8121000207047BA
:10546000018843F63F73194048F29003CFF6FF736B
:1054700003F58053594020F822100020704743F66E
:105480000F7119400CF57F63594020F8121000206D
:10549000704700002DE9F0410A69D1F818C0944521
:1054A000134688BF6346A3EB02038B6188BF944613
:1054B0004A788B7A012A56D1002B5AD00A780027D5
:1054C00030F82240B0F8503003EBC20300EB430346
:1054D000C3F804C400EB82031FFA8CF20132B7EB6D
:1054E000520F2FD067064FEA52024FF00807A2F181
:1054F000010C58BF062712F00304CF5B496900EB8B
:10550000470000F580600BD00E460546012C36F8AA
:10551000027B25F8047B40F0A7802846624631468E
:10552000BCF1030F0ED300BF0F88043A07804F88E9
:1055300087808F880781CF8801F10801878100F17A
:105540001000F1D1188840F60F7108404BF280012D
:10555000CFF6FF7101F58051084348F2B001188081
:1055600040F63F70B7E0002B45D0002A5AD00978AA
:10557000ABE01FFA8CF200230132B3EB520F2AD0BA
:105580004FEA520E8A884B691EF00305AEF10108FE
:1055900000EB420202F580620BD01E461746012D39
:1055A00036F8024B27F8044B40F09C803A46C6463A
:1055B0003346B8F1030F0ED31C88BEF1040E1480DD
:1055C0005C8894809C881481DC8803F108039481B2
:1055D00002F11002F0D1B0F85020097802EBC102BC
:1055E00000EB810348F2B00100EB420240F63F704D
:1055F000C2F804C46FE0B0F85020097800F20C4300
:10560000BCF13F0F02EBC10225D34FEA4C1740F229
:10561000FF36B7435FEACC6608BF07F5F84747F4A3
:1056200000471DE0B0F85020097800F20444BCF1B6
:105630003F0F02EBC1024FEAC10321D34FEA4C17DF
:1056400040F2FF36B7435FEACC6608BF07F5F8477C
:1056500047F4004719E00CF0010707EB5C07BF02B5
:10566000BFB243F8127030E04F88022C878046D1D9
:10567000023A04310830BCF1030FBFF455AF61E7C3
:105680000CF0010707EB5C07BF02BEB2BCF13F0F95
:1056900044F81260B0F850201A4400F20C430CD3C6
:1056A0004FEA4C1740F2FF36B7435FEACC6608BFBB
:1056B00007F5F84747F4004704E00CF0010707EB53
:1056C0005C07BF02BEB243F8126000EB810343F6F1
:1056D0000F704BF280011A8810404840188000205B
:1056E000BDE8F0815C88022D948012D1AEF1020EEB
:1056F00004330832B8F1030FBFF45EAF6BE78F8855
:10570000033A063107810C30BCF1030FBFF40CAF34
:1057100018E79C88AEF1030E063314810C32B8F101
:10572000030FBFF449AF56E7B0F8401041F43F41D2
:10573000A0F840100020704742F2D020C2F20000D2
:10574000FDF706BCB0F8440070470000B0B5013367
:105750000024B4EB530F37D05B0800EB420000F598
:10576000806013F0030EA3F1010C1AD002460C4620
:10577000BEF1010F52F8045B24F8025B03D110461E
:10578000634621460DE04268BEF1020F4A8003D114
:10579000023B0431083004E08268033B0C308A800D
:1057A0000631BCF1030F38BFB0BD00BF0268043B37
:1057B0000A8042684A8082688A80C26800F11000CC
:1057C000CA8001F10801F1D1B0BD0000002070478E
:1057D000002904BF8021A0F84C1000207047000071
:1057E000B0B501330024B4EB530F37D05B0800EBA6
:1057F000420000F5806013F0030EA3F1010C1AD0F3
:105800000A460446BEF1010F32F8025B24F8045B3D
:1058100003D12046634611460DE04A88BEF1020FCF
:10582000828003D1023B0431083004E08A88033BC4
:10583000063102810C30BCF1030F38BFB0BD00BF90
:105840000A88043B02804A8882808A880281CA884A
:1058500001F10801828100F11000F1D1B0BD00001A
:10586000FEE70000FEE7000088B0FDF7ABF9FEF7A9
:1058700051FC41F2B044C2F200042046FBF76EFF37
:1058800020884FF6FF7188420BD145F6CE30C0F626
:105890000000FBF781FF41F2B040C2F20000FBF7CD
:1058A0005DFF40F29410A11C1422C2F2000004918A
:1058B000FAF738FCFEF762FB2046FCF711FB2046A6
:1058C000FAF7CAFC2046FCF771F840F2D8294DF2ED
:1058D000000842F268054FF0000B4FF0000AC2F2D8
:1058E0000009C0F60008C2F2000509F13C0009F108
:1058F0003E06059009F14000039009F15D00029019
:1059000004F11E0001900DE009F10800FBF760FDB5
:1059100009F1180009F12C01FAF712FE09F128002B
:10592000FEF7D8FBFDF73AF999F80110074699F808
:105930000100002900F0DB800A2800F2D880304600
:105940003E21FAF708FC022089F83C0099F8010092
:1059500089F83D0099F801000138082800F2BE805E
:10596000DFE800F00516212C3746495086002088D4
:105970001422A9F83E00DDE90301FAF7D3FBD4F8BD
:105980001600D4F81A10C9E91501DDE901102BE061
:1059900004F13C0130461E22FAF7C4FB09F15C0019
:1059A00004F15A0120E004F1780130461E22FAF792
:1059B000B9FB09F15C0004F1960115E004F1B401B2
:1059C00030461E22FAF7AEFB09F15C0004F1D20169
:1059D0000AE004F1F00130461E22FAF7A3FB09F1B8
:1059E0005C0004F5877100BF1E22FAF79BFB75E08F
:1059F00004F5967101E004F5B57130463E22FAF7E0
:105A000091FB6BE004F5D4730FCBC9F83E00B4F8FA
:105A1000B801C9F84210C9F84620D4F8BE11D4F82C
:105A2000C221C9F84A3009F15003A9F84E00D4F850
:105A3000BA0107C304F5E47209F16C03B4F8C601B6
:105A4000A9F85C00B4F8D401A9F86A0007CAC9F83B
:105A50005E00B4F8E201C9F86620C9F86210D4F813
:105A6000DA11D4F8DE21A9F87800D4F8D60133E0B1
:105A7000B4F8F00104F5F272A9F84A0007CAD4F8A4
:105A8000F231C9F83E00D4F8F601C9F84620C9F849
:105A90004210D4F8FA1104F50072C9E91330C9F8BC
:105AA000541009F16803B4F8FE01A9F8580007CAB8
:105AB000C9F85A00B4F80C02C9F85E10C9F862209F
:105AC000D4F81212D4F81622A9F86600B4F81A0213
:105AD000A9F87400D4F80E0207C300BF0599284640
