:020000040800F2
:10000000E81E0020010100080D380008CF37000865
:100010000938000811060008915900080000000086
:10002000000000000000000000000000B93C0008D3
:1000300035190008000000008D3C0008BD3C000898
:100040001B0100081B0100081B0100081B01000820
:100050001B0100081B0100081B0100081B01000810
:100060001B0100081B0100081B0100081B01000800
:100070001B0100081B0100081B0100081B010008F0
:100080001B0100081B0100081B0100081B010008E0
:10009000F95800081B0100081B0100081B0100089B
:1000A0001B0100081B0100081B0100081B010008C0
:1000B0001B0100081B0100081B0100081B010008B0
:1000C0001B0100081B0100081B0100081B010008A0
:1000D0001B0100081B0100081B0100081B01000890
:1000E0001B0100081B0100081B010008DFF80CD0F1
:1000F00000F04CF800480047B9590008E81E0020FD
:100100000648804706480047FEE7FEE7FEE7FEE7B1
:10011000FEE7FEE7FEE7FEE7FEE7FEE7853D0008B7
:10012000ED000008202A04DB203A21FA02F0002129
:10013000704721FA02F3D040C2F1200291400843F7
:100140001946704740EA01039B0703D009E008C93C
:10015000121F08C0042AFAD203E011F8013B00F88C
:10016000013B521EF9D27047D2B201E000F8012BD8
:10017000491EFBD270470022F6E710B513460A4627
:1001800004461946FFF7F0FF204610BD064C074D08
:1001900006E0E06840F0010394E807009847103457
:1001A000AC42F6D3FFF7A6FF805E0008A05E000811
:1001B00070B58C1810F8015B15F0070301D110F829
:1001C000013B2A1106D110F8012B03E010F8016B56
:1001D00001F8016B5B1EF9D12B0705D40023521ED9
:1001E0000DD401F8013BFAE710F8013BCB1A921C41
:1001F00003E013F8015B01F8015B521EF9D5A1423F
:10020000D8D3002070BD70B50446002520688068F2
:1002100000F00100F0B12068806820F00100216842
:10022000886002F08DFA05460EE002F089FA401B64
:10023000022809D9A06A40F01000A062E06A40F0EC
:100240000100E062012070BD2068806800F00100BC
:100250000028EAD10020F6E770B505466C6AA06A6E
:1002600000F05000E0B9A06A40F40070A06220687D
:10027000806800F46020B0F5602F0DD1E06858B9B7
:10028000A06A20F48070A062A06A00F4805018B9BF
:10029000A06A40F00100A062204601F0DDFD03E00D
:1002A000206A016B2846884770BD70B505466C6AA8
:1002B000A06A40F04000A062E06A40F00400E06202
:1002C000204601F0CBFD70BD70B50446656A284636
:1002D00001F0C3FD70BD000038B5044600250020C4
:1002E00000902068806800F0010080BB2068806872
:1002F00040F0010021688860164800681649B0FB8C
:10030000F1F0009002E00098401E00900098002854
:10031000F9D102F015FA054613E002F011FA401B7C
:1003200002280ED9A06A40F01000A062E06A40F0F6
:100330000100E06200BF002084F8240000BF01201B
:1003400038BD2068806800F001000028E5D000205A
:10035000F6E700000402002040420F007FB505468A
:10036000002600BF5748406940F0010055494861E8
:100370000846406900F00100009000BF00BF00BFC8
:100380000846806940F4007088610846806900F47E
:100390000070009000BF00BF4B484C49086000202F
:1003A00048600021494881608021C16049000161A5
:1003B0008900416120218161C901C16101F0B4FE60
:1003C00018B14E2142A005F0E5FA00BF3F4844496C
:1003D000086208463D49486200BF00200CE005F174
:1003E0001401095C052904D005F11401095C0529F3
:1003F00001D1711CCEB2401C1E28F0DB082E03DD9B
:100400005D2133A005F0C6FA002E18DD35483449C9
:1004100008608115324881600121C160002141617D
:100420004FF46021C16100202D49486008460661F3
:1004300001F016FD18B16C2125A005F0ABFA0024DF
:1004400032E005F11400005D052804D005F1140028
:10045000005D052827D1244850F834000190224837
:1004600000EBC4000079401C02900020039001A919
:100470001B4801F041FC18B17A2115A005F08AFA59
:10048000194800EBC4000079C0EB001105F13200FF
:1004900000EB4100807930B1134800EBC4000179D2
:1004A000284600F0A3F8641C1E2CCADB32460F4914
:1004B0000B4801F079FD18B1872105A005F06AFA13
:1004C0007FBD00000010024008000240201A0020FA
:1004D0002E2E5C5372635C616E616C6F672E6300DD
:1004E000F019002000240140B8010020A41A0020C7
:1004F000FEB50546002472E03A4830F81460C4EBBB
:10050000041105F1320000EB41008079F0B3C4EB37
:10051000041105F1320000EB41008088B04207DA97
:10052000C4EB041105F1320000EB410086800DE0C0
:10053000C4EB041105F1320030F81100B04205DDC2
:10054000C4EB041105F1320020F81160C4EB041271
:1005500005F1320101EB42018A88C4EB041305F175
:10056000320131F81310501800EBD071C1F34F066F
:10057000C4EB041105F1320000EB41004088B042A9
:1005800008D0C4EB041105F1320000E002E000EBFA
:100590004100468040F6FF7041100022C4EB041C6D
:1005A00005F1320707EB4C07CDE900210290BB882B
:1005B000C4EB041C05F1320707EB4C077A88C4EB47
:1005C000041C05F1320737F81C10064F37F81400E9
:1005D00005F0F8FA86B2044820F81460641C082C70
:1005E0008ADBFEBDA41A0020B41A002010B5002337
:1005F000C1EB011400F1320202EB4402938040F699
:10060000FF73C1EB011400F1320222F8143010BD67
:1006100000BFFEE72DE9F04107460D46FE4A12688D
:1006200002EBC7029188FC4A126852F8370002F0C8
:1006300075F808B9012000E00020064605F1140015
:10064000C05D022804D10EB9012000E0002006465A
:1006500002F076F8044605F59170F0490978405C9F
:1006600018287CD2DFE810F01E001800F400BE014C
:100670008B025503260427042804290429052A058A
:100680002B052C05310632063306340631073207B6
:1006900033073407370838080EB9012000E000207E
:1006A000064600BFDD48007800EB4000DC4901EB66
:1006B000C0008078D0B9D948007800EB400011F82C
:1006C0003000B04212D00020D449097801EB41013A
:1006D000D34A02EBC101C1E902400120CF490978A8
:1006E00001EB410102EBC1018870B0E0CB4800781A
:1006F00000EB4000CA4901EBC000807800287DD0A3
:10070000C648007800EB400011F83000B0427BD0C2
:10071000A8890022C149097801EB4101C04B03EBD4
:10072000C101D1E9023CE31A62EB0C01C01A8A4113
:100730006AD20020B949097801EB4101B84A02EBBD
:10074000C1018870B548007800EB4000114601EB0C
:10075000C0004670B148007800EB400000E0FDE3C7
:1007600001EBC0004078AD49097801EB410102F886
:100770003100AA48007800EB4000114601EBC000B0
:10078000007CA649097801EB410102EBC1014978DF
:100790000844A249097801EB410102EBC101087448
:1007A000A0489E49097800EBD10000789B49097860
:1007B00001F007020121914009B9012100E0002167
:1007C00008409849954A127801EBD2010870934885
:1007D000007800EB4000924901EBC00040788F495F
:1007E000097801F0070188408E498C4A127801EBA4
:1007F000D201097808438B49884A00E004E0127866
:1008000001EBD201087022E08448007800EB400040
:10081000834901EBC0008078C8B1A88900227F49D4
:10082000097801EB41017E4B03EBC101D1E9023CA8
:10083000E31A62EB0C01C01A8A4108D20020774902
:10084000097801EB4101764A02EBC101887030E37F
:100850007248007800EB4000714901EBC0008078DD
:10086000D0B96E48007800EB400011F83000B0427B
:1008700012DA00206949097801EB4101684A02EB6C
:10088000C101C1E9024001206449097801EB41013D
:1008900002EBC1018870A4E06048007800EB4000E2
:1008A0005F4901EBC0008078002879D0002E77D016
:1008B000A88900225949097801EB4101584B03EB03
:1008C000C101D1E9023CE31A62EB0C01C01A8A4172
:1008D00066D200205149097801EB4101504A02EBF0
:1008E000C101887001204D49097801EB410102F8EE
:1008F00031004A48007800EB4000114601EBC0008F
:10090000407808B9012000E000204449097801EB53
:100910004101434A02EBC10148704048007800EBB6
:100920004000114601EBC000007C401C3B490978A7
:1009300001EB410102EBC10108743A4837490978DB
:1009400000EBD10000783549097801F00702012158
:10095000914009B9012100E00021084031492F4AA6
:10096000127801EBD20108702C48007800EB4000AF
:100970002B4901EBC00040782849097801F00701B4
:1009800088402849254A127801EBD20109780843AA
:100990002449224A127801EBD201087021E0FFE7D6
:1009A000FEB9A88900221D49097801EB41011C4BC1
:1009B00003EBC101D1E9023CE31A62EB0C01C01A5E
:1009C0008A410ED200201549097801EB4101144AF1
:1009D00002EBC10188701149097801EB410102F86D
:1009E000310034E70D48007800EB40000C4901EB82
:1009F000C000807818BB0948007800EB400011F86F
:100A00003000B0421BD000200449097801EB4101BD
:100A1000034A02EBC10107E0B4010020B00100204D
:100A2000E00D0020E0190020C1E902400120F84952
:100A3000097801EB410102EBC10188709EE0F448A6
:100A4000007800EB4000F34901EBC00080780028FB
:100A500073D0EF48007800EB400011F83000B0424E
:100A60006BD0A8890022EA49097801EB4101E94BE2
:100A700003EBC101D1E9023CE31A62EB0C01C01A9D
:100A80008A415AD20020E249097801EB4101E14A4A
:100A900002EBC10188700120DD49097801EB4101B9
:100AA00002EBC1014870DA48007800EB40001146C3
:100AB00001F83060D648007800EB400001EBC00040
:100AC000007C401CD249097801EB410102EBC101D5
:100AD0000874D148CE49097800EBD1000078CC49A0
:100AE000097801F007020121914009B9012100E0D4
:100AF00000210840C849C64A127801EBD2010870AB
:100B0000C348007800EB4000C24901EBC0004078C8
:100B1000BF49097801F007018840BF49BC4A1278F3
:100B200001EBD20109780843C1B2BB48B84A127838
:100B300000EBD200017021E0FFE7E8890022B44910
:100B4000097801EB4101B34B03EBC101D1E9023C50
:100B5000E31A62EB0C01C01A8A410FD20020AC49A3
:100B6000097801EB4101AB4A02EBC1014870A84989
:100B7000097801EB410102EBC101887067E6A448E6
:100B8000007800EB4000A34901EBC0008078D0B9A9
:100B90009F48007800EB400011F83000B04212D0BE
:100BA00000209B49097801EB41019A4A02EBC101FF
:100BB000C1E9024001209649097801EB410102EBAD
:100BC000C1018870A4E09248007800EB4000914990
:100BD00001EBC0008078E8B38D48007800EB40005E
:100BE00011F83000B0426BDAA889002288490978F0
:100BF00001EB4101874B03EBC101D1E9023CE31A50
:100C000062EB0C01C01A8A415AD20020804909784F
:100C100001EB41017F4A02EBC101887001207C4950
:100C2000097801EB410102EBC10148707848007876
:100C300000EB4000114601F830607548007800EB89
:100C4000400001EBC000007C401C7149097801EBB9
:100C5000410100E034E002EBC10108746E486C49C8
:100C6000097800EBD10000786949097801F00702A2
:100C70000121914009B9012100E0002108406649A5
:100C8000634A127801EBD20108706148007800EBEA
:100C90004000604901EBC00040785D49097801F0EF
:100CA000070188405C495A4A127801EBD201097861
:100CB00008435949564A127801EBD201087027E0DF
:100CC000E88900225249097801EB4101514B03EBBD
:100CD000C101D1E9023CE31A62EB0C01C01A8A415E
:100CE00016D24B48007800EB40004A4901F83060CA
:100CF00000204749097801EB4101464A02EBC10156
:100D000048704349097801EB410102EBC101887049
:100D10009DE53F48007800EB40003E4901EBC000F4
:100D20008078D0B93A48007800EB400011F83000E4
:100D3000B04212D000203649097801EB4101354A12
:100D400002EBC101C1E9024001203149097801EB00
:100D5000410102EBC1018870ABE02D48007800EB47
:100D600040002C4901EBC0008078E0B328480078AF
:100D700000EB400011F83000B04272DDA88900227B
:100D80002349097801EB4101224B03EBC101D1E971
:100D900002C8B4EB0C0362EB0801C01A8A4160D2AE
:100DA00000201B49097801EB41011A4A02EBC101FD
:100DB000887001201649097801EB410102EBC1015D
:100DC00048701348007800EB4000114601F830608D
:100DD0000F48007800EB400001EBC000007C401C95
:100DE0000B49097800E03CE001EB410102EBC10155
:100DF000087409480649097800EBD10000780449D5
:100E0000097801F007020121914039B9012106E07A
:100E1000B0010020E00D0020E01900200021084072
:100E2000FC49FD4A127801EBD2010870FA480078BB
:100E300000EB4000F94901EBC0004078F649097821
:100E400001F007018840F349F34A127801EBD2011F
:100E500009780843EF49F04A127801EBD201087093
:100E600027E0E8890022EC49097801EB4101EB4BCE
:100E700003EBC101D1E9023CE31A62EB0C01C01A99
:100E80008A4116D2E448007800EB4000E34901F8BB
:100E900030600020E049097801EB4101DF4A02EBB4
:100EA000C1014870DC49097801EB410102EBC10145
:100EB000887009E200BF00BF00BFD748007800EB90
:100EC0004000D64901EBC0008078D0B9D248007804
:100ED00000EB400011F83000B04212D00020CE49A3
:100EE000097801EB4101CD4A02EBC101C1E90240A1
:100EF0000120C949097801EB410102EBC101887069
:100F0000DAE0C548007800EB4000C44901EBC000BE
:100F1000807800287ED0C048007800EB400011F8AF
:100F20003000B04276D0A8890022BB49097801EB95
:100F30004101BA4B03EBC101D1E9023CE31A62EB78
:100F40000C01C01A8A4165D20020B349097801EB2F
:100F50004101B24A02EBC101887000E0BDE3AE4836
:100F6000007800EB4000114601EBC0004670AA4833
:100F7000007800EB400001EBC0004078A6490978FA
:100F800001EB410102F83100A348007800EB40007A
:100F9000114601EBC000007C9F49097801EB41013B
:100FA00002EBC101497808449B49097801EB4101F2
:100FB00002EBC101087405F5917097490978405C0E
:100FC000062810D1002096490870084600789249FA
:100FD000097801EB410102EBC101497840EAC10007
:100FE0008F49087068E005F591708B490978405C7D
:100FF000072813D100208A490870084600788649DE
:10100000097801EB4101854A02EBC101497840EAC8
:10101000810000E02CE0824908704DE005F59170F8
:101020007D490978405C082811D100207C4908706E
:10103000084600787849097801EB4101774A02EBCC
:10104000C101497840EA41007549087034E0002048
:1010500073490870084600786F49097801EB41012F
:101060006E4A02EBC101497808436D49087023E0DC
:101070006948007800EB4000684901EBC0008078C7
:10108000D0B1A88900226449097801EB4101634B82
:1010900003EBC101D1E902C8B4EB0C0362EB080118
:1010A000C01A8A4108D200205B49097801EB41014E
:1010B0005A4A02EBC101887010E300BF00BF00BFB5
:1010C0005548007800EB4000544901EBC00080789F
:1010D000D0B95148007800EB400011F83000B04220
:1010E00012D000204C49097801EB41014B4A02EB38
:1010F000C101C1E9024001204749097801EB4101E2
:1011000002EBC1018870DFE04348007800EB40004B
:10111000424901EBC000807800287AD03E48007830
:1011200000EB400011F83000B04272D0A8890022D4
:101130003949097801EB4101384B03EBC101D1E991
:10114000023CE31A62EB0C01C01A8A4161D2002012
:101150003149097801EB4101304A02EBC101887045
:101160002D48007800EB4000114601EBC0004670AE
:101170002948007800EB400001EBC0004078264988
:10118000097801EB410102F831002348007800EBB7
:101190004000114601EBC000007C1F49097801EBBB
:1011A000410102EBC101497808441B49097801EB70
:1011B000410102EBC101087405F5917016490978E7
:1011C000405C0A2810D10020154948700846407834
:1011D0001149097801EB410102EBC101497840EA6C
:1011E000C1000F4948706FE005F591700A49097810
:1011F000405C0B281BD10020094948700846407804
:101200000549097801EB4101044A02EBC101497823
:1012100008E036E0E0190020B0010020E00D0020D9
:10122000AC01002040EA8100FE4948704CE005F521
:101230009170FD490978405C0C2811D10020F949D2
:10124000487008464078F849097801EB4101F74AAF
:1012500002EBC101497840EA4100F249487033E0AD
:101260000020F049487008464078EF49097801EBC2
:101270004101EE4A02EBC10149780843E94948704F
:1012800022E0E948007800EB4000E84901EBC000AB
:101290008078C8B1A8890022E349097801EB4101AF
:1012A000E24B03EBC101D1E9023CE31A62EB0C0112
:1012B000C01A8A4108D20020DB49097801EB4101BC
:1012C000DA4A02EBC101887008E200BF00BF00BF2C
:1012D000D548007800EB4000D44901EBC00080788D
:1012E000D0B9D148007800EB400011F83000B0428E
:1012F00012D00020CC49097801EB4101CB4A02EB26
:10130000C101C1E902400120C749097801EB41014F
:1013100002EBC1018870D7E0C348007800EB4000C1
:10132000C24901EBC0008078E8B3BF48007800EB09
:10133000400011F83000B04235D0A8890022BA49E7
:10134000097801EB4101B94B03EBC101D1E902C8B6
:10135000B4EB0C0362EB0801C01A8A4123D20020CF
:10136000B149097801EB4101B04A02EBC101887033
:10137000AD48007800EB4000114601EBC00046701C
:10138000A948007800EB400001EBC0004078A64976
:10139000097801EB410102F83100A348007800EB25
:1013A0004000114600E06CE001EBC000007C9E496B
:1013B000097801EB410102EBC101497808449A49DF
:1013C000097801EB410102EBC101087405F5917048
:1013D00095490978405C0E2810D100209149887009
:1013E000084680789049097801EB410102EBC10180
:1013F000497840EAC1008B49887065E005F5917035
:1014000089490978405C0F2811D1002085498870EE
:10141000084680788449097801EB4101834A02EB50
:10142000C101497840EA81007E4988704CE005F5A9
:1014300091707D490978405C102811D100207949CC
:101440008870084680787849097801EB4101774A2D
:1014500002EBC101497840EA41007249887033E0EB
:10146000002070498870084680786F49097801EB40
:1014700041016E4A02EBC10149780843694988700D
:1014800022E06948007800EB4000684901EBC000A9
:101490008078C8B1A88900226349097801EB41012D
:1014A000624B03EBC101D1E9023CE31A62EB0C0190
:1014B000C01A8A4108D200205B49097801EB41013A
:1014C0005A4A02EBC101887008E100BF00BF00BFAB
:1014D0005548007800EB4000544901EBC00080788B
:1014E000D0B95148007800EB400011F83000B0420C
:1014F00012D000204C49097801EB41014B4A02EB24
:10150000C101C1E9024001204749097801EB4101CD
:1015100002EBC1018870DDE04348007800EB400039
:10152000424901EBC0008078F0B33F48007800EBFF
:10153000400011F83000B04236D0A88900223A4964
:10154000097801EB4101394B03EBC101D1E9023CC0
:10155000E31A62EB0C01C01A8A4125D200203249FD
:10156000097801EB4101314A02EBC10188702E4834
:10157000007800EB4000114601EBC00046702A489D
:10158000007800EB400001EBC00040782649097864
:1015900001EB410102F831002348007800EB4000E4
:1015A000114601EBC00000E071E0007C1E490978A3
:1015B00001EB410102EBC101497808441A4909785D
:1015C00001EB410102EBC101087405F59170164968
:1015D0000978405C122810D100201249C8700846D2
:1015E000C0781149097801EB410102EBC10149784A
:1015F00040EAC1000B49C8706CE005F591700A49DA
:101600000978405C132818D100200649C8700846A4
:10161000C0780549097801EB4101044A02EBC10198
:10162000497805E0AC010020B0010020E00D002069
:1016300040EA81002B49C8704CE005F591702A49B9
:101640000978405C142811D100202649C87008464A
:10165000C0782549097801EB4101244A02EBC10118
:10166000497840EA41001F49C87033E000201D4915
:10167000C8700846C0781C49097801EB41011B4A33
:1016800002EBC101497808431649C87022E01648A8
:10169000007800EB4000154901EBC0008078C8B12C
:1016A000A88900221049097801EB41010F4B03EB97
:1016B000C101D1E9023CE31A62EB0C01C01A8A4174
:1016C00008D200200849097801EB4101074A02EBE2
:1016D000C101887002E001E000E000BF00BFBDE88A
:1016E000F0810000AC010020B0010020E00D0020DE
:1016F00070B50546002049490870494800F0F6FADF
:10170000002413E005F11400005D012804D005F168
:101710001400005D022808D1E0B22946FEF77AFFE6
:101720003E480078401C3D490870641C1E2CE9DBD3
:10173000002439E005F11400005D042833D1384A53
:10174000126802EBC4029188354A126852F83400DC
:10175000002200F0EFFF002617E0304800788028D4
:1017600004DD4FF4D4712FA004F014F905F1140036
:10177000805D032808D1F0B22946FEF74BFF2748C9
:101780000078401C25490870761C1E2EE5DB244A93
:10179000126802EBC4029188214A126852F83400A0
:1017A000012200F0C7FF641C1E2CC3DB002032E0C6
:1017B0002149095C0D2928D2DFE801F027070B0F2A
:1017C000132717271B1F2727230006211B4A115405
:1017D0001FE00421194A11541BE00521174A115436
:1017E00017E00221154A115413E00321134A115442
:1017F0000FE00021114A11540BE007210F4A115448
:1018000007E001210D4A115403E0FF210B4A115456
:1018100000BF00BF401C0428CADB70BDB00100201F
:10182000B40100202E2E5C5372635C627574746F79
:101830006E732E6300000000AC010020A8010020A0
:10184000002070470020704730B503460C4607481B
:10185000D0F818120A78022A03D14878044D28706B
:1018600000E000BF00BF002030BD000000050020E8
:101870000000002010B501460B4601B910BD094813
:101880000088401E4FF0006404EB8022002002E03C
:1018900014581C50001D40F24E24A042F8D300BF43
:1018A000ECE70000E0F7FF1FF0B585B0054600202B
:1018B00000902F460DB905B0F0BD12480088401EBB
:1018C0004FF0006101EB8026002001900120049080
:1018D000039600F07DFD694601A800F0BFFC0024DE
:1018E00008E057F804C0311962460023022000F0D6
:1018F00017FD241D40F24E208442F2D300F006FD75
:1019000000BFD8E7E0F7FF1F30B590F84050012442
:10191000AC40C56B6C60046863604468102C04D1F3
:101920000468A2600468E16003E00468A1600468E0
:10193000E26030BD704700000021074AD1610749CD
:10194000096941F00401054A11611146096941F034
:101950004001116170470000C81A002000200240B9
:101960000021074AD1610749096941F00201054A8E
:10197000116111464861096941F0400111617047E8
:10198000C81A0020002002400022054BDA61054AF7
:10199000126942F00102034B1A6101807047000096
:1019A000C81A00200020024000201E49C96801F02A
:1019B000100139B11C49C96941F002011A4AD161CB
:1019C00040F010001749C96801F0040139B1164907
:1019D000C96941F00101144AD16140F00400114984
:1019E000C96901F0010169B10F49C96941F00401F8
:1019F0000D4AD16100BF0B49C96921F00101094AB3
:101A0000D16100BF00BF40F20111884206D10549F3
:101A1000C96921F00101034AD16101E00149C860AF
:101A200000BF704700200240C81A002070B504466D
:101A300000F086FE054609E0601C38B124B100F0D4
:101A40007FFE401BA04201D9032070BD1248C06830
:101A500000F001000028EFD10F48C06800F020001E
:101A600020B100BF20200C49C86000BF0A48C068F0
:101A700000F0100048B90848C06900F0010020B922
:101A80000548C06800F0040018B1FFF78DFF012081
:101A9000DBE70020D9E700000020024030B585B028
:101AA000054600BF8D48806940F010008B49886171
:101AB0000846806900F01000009000BF00BF00BF22
:101AC0000846806940F0200088610846806900F07F
:101AD0002000009000BF00BF00BF0846806940F0B2
:101AE000040088610846806900F00400009000BF8F
:101AF00000BF00BF0846806940F0080088610846C2
:101B0000806900F00800009000BF00BF88140190B9
:101B100001200290002003900220049001A9704847
:101B200000F06EFC4FF40050019001200290002064
:101B300003900220049001A96A4800F061FC0DE0C6
:101B40004FF48051664800F0F1FD4FF400516548B4
:101B500000F0ECFD4FF4967000F06CFB2888012833
:101B6000EED10024A8E005F11400005D012811D198
:101B700000200290022004905B4800EBC4008088A3
:101B8000019001200390584951F8340001A900F058
:101B900037FC90E005F11400005D022811D100200F
:101BA000029002200490504800EBC400808801900D
:101BB000022003904C4951F8340001A900F020FCA8
:101BC00079E005F11400005D032811D10020029096
:101BD00002200490444800EBC4008088019001205A
:101BE0000390414951F8340001A900F009FC62E07A
:101BF00005F11400005D042811D13B4800EBC4003E
:101C0000808801900220049011200290002003900F
:101C1000354951F8340001A900F0F2FB4BE005F121
:101C20001400005D072804D005F11400005D0828A9
:101C300011D100200290022004902B4800EBC40038
:101C40008088019001200390274951F8340001A9B0
:101C500000F0D6FB2FE005F11400005D092811D13A
:101C6000214800EBC40080880190022004901120DC
:101C70000290002003901C4951F8340001A900F0A3
:101C8000BFFB18E005F11400005D052804D005F144
:101C90001400005D06280ED1134800EBC4008088B4
:101CA000019002200490032002900F4951F8340063
:101CB00001A900F0A5FB641C1E2CFFF654AF4FF4E5
:101CC0008050019002200490012002900020039097
:101CD00001A9034800F094FB05B030BD001002409C
:101CE000000C014000100140B800002001490160D3
:101CF00070470000B800002038B5024600230020DD
:101D0000009000BF92F82400012801D1022038BDC4
:101D1000012082F8240000BF4868072812D210680A
:101D2000406B0C79641E04EB84051F24AC40A04377
:101D30000D796D1E05EB85050C68AC4020431468D9
:101D4000606327E048680D2812D21068006B0C7998
:101D5000E41F04EB84051F24AC40A0430D79ED1F64
:101D600005EB85050C68AC4020431468206311E046
:101D70001068C06A0C790D3C04EB84051F24AC404C
:101D8000A0430D790D3D05EB85050C68AC40204363
:101D90001468E06208680A2812D31068C0680C78DA
:101DA0000A3C04EB44050724AC40A0430D780A3DEF
:101DB00005EB45058C68AC4020431468E0600FE0FB
:101DC000106800690C7804EB44050724AC40A0437C
:101DD0000D7805EB45058C68AC4020431468206104
:101DE0000868102802D00868112827D1174C1068FD
:101DF000A0421ED11068806800F40000F0B910689D
:101E0000806840F400001468A0600868102815D1AC
:101E10000F4800680F4CB0FBF4F000EB800040006E
:101E2000009002E00098401E009000980028F9D130
:101E300004E0906A40F020009062012300BF00207F
:101E400082F8240000BF184661E70000002401402A
:101E50000402002040420F007047704770470000A6
:101E60002DE9F0410446002700250026A84614B9B4
:101E70000120BDE8F081A06810B1606900B100BF29
:101E8000A06A30B90020E06284F82400204600F007
:101E900089F82046FEF7B7F90746A06A00F010005F
:101EA000002873D1002F71D1A06A20F4885040F02F
:101EB0000200A062E16960680843E16840EA41000D
:101EC0000643A068B0F5807F02D0A068012802D147
:101ED0004FF4807000E0002005436069012811D1B3
:101EE000E06838B9A069401E4FF4006141EA403013
:101EF000054307E0A06A40F02000A062E06A40F0DD
:101F00000100E0622068406820F4694028432168AD
:101F10004860206880682149084030432168886013
:101F2000A068B0F5807F02D0A068012802D14FF4EC
:101F3000807000E00020B0F5807F03D1208A401E31
:101F40004FEA00582068C06A20F4700040EA080098
:101F50002168C8622068806811490840B04208D1F1
:101F60000020E062A06A20F0020040F00100A062C0
:101F700011E0A06A20F0020040F01000A062E06AC8
:101F800040F00100E062012705E0FFE7A06A40F0B1
:101F90001000A062012738466BE70000FDF7E1FF63
:101FA000FE0E1FFF704700002DE9F04104460D466C
:101FB0001646002757492068884203D056492068B2
:101FC000884205D15348001D006800F4702000E0ED
:101FD000002000287ED100BF94F82400012802D1FF
:101FE0000220BDE8F081012084F8240000BF2046D3
:101FF000FEF772F90746002F6DD1A06A40F6016125
:10200000884340F48070A06243492068884209D127
:102010004048001D006800F4702008B9012002E06B
:10202000002000E0012078B1A06A20F48010A062B6
:102030002068406800F4806000B3A06A20F400507B
:1020400040F48050A06219E0A06A40F48010A062C1
:1020500030492068884203D02F492068884205D142
:102060002C48001D006800F4806000E0002028B1CA
:10207000A06A20F4005040F48050A062A06A00F4EE
:10208000805020B1E06A20F00600E06201E000200C
:10209000E06200BF002084F8240000BF1F48216ACE
:1020A00088621F48216AC8621E48216A08636FF06F
:1020B0000200216808602068806840F48070216810
:1020C0008860226802F14C0133462A46206A00F0FB
:1020D00063F801E01AE014E02068806800F46020F2
:1020E000B0F5602F06D12068806840F4A000216818
:1020F00088600CE02068806840F480102168886067
:1021000005E000BF002084F8240000E001273846E5
:1021100067E7000000240140002801405902000840
:10212000C9020008AB0200080146002209B90120DB
:102130007047184B0868C01A1423B0FBF3F08000F6
:10214000086414480838C863022081F82100086830
:10215000026843F6F0708243D1E901031843CB686B
:1021600018430B6918434B6918438B691843CB69B3
:10217000184302430868026000208862C86208634E
:1021800048638863012081F82100002081F8200045
:1021900000BFCDE7080002402DE9F04104460D469E
:1021A00016461F464FF0000800BF94F82000012893
:1021B00002D10220BDE8F081012084F8200000BF98
:1021C00094F8210001282CD1022084F8210000205D
:1021D000A0632068006820F00100216808603B4689
:1021E000324629462046FFF78FFBE06A30B120686F
:1021F000006840F00E00216808600BE0206800686D
:1022000020F00400216808602068006840F00A009F
:10221000216808602068006840F0010021680860BB
:1022200006E000BF002084F8200000BF4FF0020845
:102230004046BFE770B5044600F082FA06462546E0
:10224000681C10B104480078054400BF00F078FA1B
:10225000801BA842FAD370BD000200202DE9F04196
:1022600004460E460127002500BF2648007E0128AF
:1022700002D10220BDE8F08101202249087600BF8A
:102280002068022813D14CF25030FFF7CFFB90BBEF
:102290000120FFF751FB4CF25030FFF7C7FB074618
:1022A0001948006920F004001749086123E04CF246
:1022B0005030FFF7BBFBF0B94FF0FF303060A5683E
:1022C00012E02846FFF74CFB4CF25030FFF7AEFB14
:1022D00007460D48006920F002000B4908610FB164
:1022E000356007E005F58065D4E9021001EB802038
:1022F000A842E6D800BF00BF00200249087600BF10
:102300003846B7E7C81A0020002002400348006999
:1023100040F0800001490861002070470020024021
:102320002DE9FE4F05468B461746984601260024A8
:102330000020029000BF2448007E012802D1022024
:10234000BDE8FE8F01202049087600BF4CF25030D6
:10235000FFF76CFB064686BB012D02D101200290DF
:1023600006E0022D02D10220029001E0042002903A
:1023700000241EE02201B946C24648465146FDF7F8
:10238000D1FE80B20190022000FB04B000900199C0
:10239000FFF7FAFA4CF25030FFF748FB06460B48BD
:1023A000006920F001000949086106B104E0601CE1
:1023B000C4B202988442DDDB00BF00BF00200249A6
:1023C000087600BF3046BBE7C81A00200020024054
:1023D00000200849096901F0800151B10649054A08
:1023E0005160064951601146096901F0800101B14F
:1023F000012070470020024023016745AB89EFCDE3
:102400002DE9F847034600240020002584460027D4
:1024100000226EE14FF0010808FA02F4D1F80080C2
:1024200008EA0400A0427DD1DFF8D0A2D1F80480F0
:10243000A8EB0A09D0453AD014DCB8F1030F50D00C
:1024400009DCB8F1000F31D0B8F1010F1CD0B8F1A0
:10245000020F49D120E0B8F1110F18D0B8F1120FD6
:1024600042D11EE0B9F5881F25D006DCB9F5803FC2
:1024700020D0B9F5801F37D11AE0B9F5001F18D068
:10248000B9F5041F30D117E0D1F80CC02DE0D1F818
:102490000C8008F1040C28E0D1F80C8008F1080C3D
:1024A00023E0D1F80C8008F10C0C1EE000BF00BF47
:1024B00000BF00BF00BF00BFD1F80880B8F1000F17
:1024C00002D14FF0040C0BE0D1F80880B8F1010FF5
:1024D00003D14FF0080C1C6102E04FF0080C5C6166
:1024E00003E04FF0000C00E000BF00BFFF2801D860
:1024F000984601E003F104084646FF2802D84FEA57
:10250000820803E0A2F108084FEA88084746D6F897
:1025100000804FF00F0909FA07F928EA09080CFAB8
:1025200007F900E088E048EA0908C6F80080D1F819
:10253000048008F08058B8F1805F7DD100BFDFF8DB
:10254000C081D8F8188048F00108DFF8B491C9F8C4
:102550001880C846D8F8188008F00108CDF8008027
:1025600000BF00BF4FEAB9384FEA920958F8295026
:102570004FEA82784FEA18794FF00F0808FA09F805
:1025800025EA0805DFF87C81434502D14FF00008B9
:1025900016E0DFF87481434502D14FF001080FE0E7
:1025A000DFF86881434502D14FF0020808E0DFF808
:1025B0006081434502D14FF0030801E04FF0040869
:1025C0004FEA82794FEA197908FA09F848EA0505CD
:1025D000DFF840814FEA920948F82950D1F8048089
:1025E00008F48038B8F5803F0AD1DFF82C81D8F89C
:1025F000008048EA0008DFF82091C9F8008009E06F
:10260000DFF81481D8F8008028EA0008DFF8089184
:10261000C9F80080D1F8048008F40038B8F5003F0C
:1026200010D1DFF8F48008F10408D8F8008048EAF7
:102630000008DFF8E49000E05AE009F10409C9F865
:1026400000800DE0DFF8D08008F10408D8F80080A1
:1026500028EA0008DFF8C09009F10409C9F80080F1
:10266000D1F8048008F48018B8F5801F0ED1DFF887
:10267000A88008F10808D8F8008048EA0008DFF8C8
:10268000989009F10809C9F800800DE0DFF888800A
:1026900008F10808D8F8008028EA0008DFF87890E8
:1026A00009F10809C9F80080D1F8048008F400187D
:1026B000B8F5001F0ED1DFF8608008F10C08D8F8DB
:1026C000008048EA0008DFF8509009F10C09C9F8C9
:1026D00000800DE0DFF8408008F10C08D8F8008099
:1026E00028EA0008DFF8309009F10C09C9F80080E9
:1026F000521C102AFFF48EAEBDE8F88700001110BE
:102700000010024000080140000C01400010014090
:102710000014014008000140000401400246936893
:102720000B400BB1012000E000207047C2684A4016
:10273000C26070470AB1016101E00B040361704798
:102740000148006870470000F80100200348006855
:10275000034909780844014908607047F8010020DE
:102760000002002010B50848006840F0100006493B
:102770000860032000F0D0F8002000F007F800F017
:102780002BF8002010BD00000020024070B5044668
:102790000E4800784FF47A71B1FBF0F00C490968EB
:1027A000B1FBF0F5284600F0F4FF08B1012070BD40
:1027B000102C07D200222146501E00F06EF805486A
:1027C000046001E00120F2E70020F0E700020020B1
:1027D00004020020FC01002008B500BF26488069E3
:1027E00040F00100244988610846806900F001003A
:1027F000009000BF00BF00BF0846C06940F0805095
:10280000C8610846C06900F08050009000BF00BF5A
:10281000032000F081F8002211466FF00B0000F059
:102820003CF8002211466FF00A0000F036F8002252
:1028300011466FF0090000F030F800221146501FD9
:1028400000F02BF800221146101F00F026F800229D
:102850001146901E00F021F800221146501E00F093
:102860001CF800BF0549486820F0E06040F00070A7
:10287000486000BF08BD0000001002400000014099
:1028800000BF00F01F02012191404209920002F1B5
:10289000E022C2F8001100BF70472DE9F05F8046CA
:1028A0000D461646002700F0B3FF074639462A4674
:1028B000334601F00700C0F1070ABAF1040F02D94C
:1028C0004FF0040A01E0C0F1070AD14600F1040A02
:1028D000BAF1070F02D24FF0000A01E0A0F1030A9B
:1028E000D4464FF0010A0AFA09FAAAF1010A0AEAE3
:1028F000020A0AFA0CFA4FF0010B0BFA0CFBABF1CF
:10290000010B0BEA030B4AEA0B042146404600F098
:1029100087FFBDE8F09F000000BF00F00702064BF4
:1029200019684FF6FF031940044B0B4343EA022199
:10293000014B196000BF70470CED00E00000FA0584
:1029400070B505460C46002104F08000802806D1B1
:1029500004F07F0605F1280000EB461103E005F5C1
:102960000A7000EB44111AB9002088728B8004E0D1
:1029700001208872CB80180C0881002070BD704740
:1029800070B504460D4604F1280101EB45114A6972
:102990002946D4F85C0401F0EDFD70BD70B5044625
:1029A0000D4604F50A7101EB45114A692946D4F830
:1029B0005C0401F04CFE70BD70B504460D46002667
:1029C00005F08000802806D105F07F0104F1280081
:1029D00000EB411605E005F07F0104F50A7000EBFD
:1029E000411605F07F00307005F08000C00970705E
:1029F00000BF94F82804012801D1022070BD0120F5
:102A000084F8280400BF3146206802F006FC00BFAD
:102A1000002084F8280400BF00BFEFE770B504462B
:102A20000D46002605F08000802806D105F07F01C4
:102A300004F1280000EB411603E004F50A7000EBF6
:102A400045160020B07005F07F003070C5F3C0104F
:102A5000707000BF94F82804012801D1022070BDD5
:102A6000012084F8280400BF3146206802F002FDEE
:102A700000BF002084F8280400BF00BFEFE72DE965
:102A8000F04704460D46174698464FF000090026C9
:102A900005F08000802806D105F07F0104F12800B0
:102AA00000EB411605E005F07F0104F50A7000EB2C
:102AB000411605F07F00307005F08000C00970708D
:102AC000376186F8038000BF94F82804012802D1FA
:102AD0000220BDE8F087012084F8280400BF3146B9
:102AE000206802F0C1F900BF002084F8280400BF6C
:102AF0004846EEE72DE9F04105460E461746984652
:102B0000002406F07F0105F50A7000EB41146761AF
:102B1000C4F818800020E061607006F07F0020702B
:102B200006F07F0020B92146286802F040FD03E04E
:102B30002146286802F03BFD0020BDE8F08170B519
:102B400004460D46002605F08000802806D105F0D9
:102B50007F0104F1280000EB411603E004F50A7040
:102B600000EB45160120B07005F07F003070C5F312
:102B7000C010707000BF94F82804012801D1022011
:102B800070BD012084F8280400BF3146206802F09F
:102B9000CBFC05F07F0020B904F22C41206802F044
:102BA00066FC00BF002084F8280400BF00BFE7E7F0
:102BB0002DE9F04105460E4617469846002406F0DA
:102BC0007F0105F1280000EB41146761C4F818800B
:102BD0000020E0610120607006F07F00207006F0A8
:102BE0007F0020B92146286802F0E1FC03E021467D
:102BF000286802F0DCFC0020BDE8F08110B5044636
:102C0000206802F081FE00F40040B0F5004F02D1D0
:102C1000204600F019FE206802F076FE00F4806085
:102C2000B0F5806F0ED12068B0F8440020F48060C9
:102C30002168A1F84400204600F044F90021204614
:102C400000F063F9206802F05FFE00F48040B0F508
:102C5000804F07D12068B0F8440020F480402168FC
:102C6000A1F84400206802F04FFE00F40050B0F5D7
:102C7000005F07D12068B0F8440020F400502168BC
:102C8000A1F84400206802F03FFE00F48050B0F547
:102C9000805F1AD12068B0F8400020F0040021685D
:102CA000A1F840002068B0F8400020F0080021683A
:102CB000A1F84000204600F01AF92068B0F844005E
:102CC00020F480502168A1F84400206802F01CFE26
:102CD00000F40060B0F5006F20D12068B0F840002B
:102CE00040F008002168A1F840002068B0F84400D6
:102CF00020F400602168A1F844002068B0F840008A
:102D000040F004002168A1F84000206802F0FCFDBA
:102D1000C0F3003010B9204600F03AF9206802F004
:102D2000F3FD00F40070B0F5007F0AD12068B0F820
:102D3000440020F400702168A1F84400204600F00F
:102D4000DDF8206802F0E0FD00F48070B0F5807FCF
:102D500007D12068B0F8440020F480702168A1F801
:102D6000440010BD30B585B00446002514B90120DB
:102D700005B030BD94F8290428B9002084F828044F
:102D8000204600F07DF8032084F82904206802F032
:102D900063FB142204F110016846FDF7D3F994E8AF
:102DA0000F0002F036FA0021206802F0C6FD00256F
:102DB00025E0012104F1280000EB4510417004F1E9
:102DC000280000EB4510057004F1280000EB4510C9
:102DD0008581002104F1280000EB4510C17004F149
:102DE000280000EB4510016104F1280000EB4510BC
:102DF000416104F1280000EB451081616D1C0F2D2D
:102E0000D7D3002524E0002104F50A7000EB45101B
:102E1000417004F50A7000EB4510057004F12800BC
:102E200000EB4510858104F50A7000EB4510C17078
:102E300004F50A7000EB4510016104F50A7000EB1F
:102E40004510416104F50A7000EB451081616D1C6D
:102E50000F2DD8D3142204F110016846FDF772F942
:102E600094E80F0002F0E9FA002084F82400012021
:102E700084F82904206802F0DDFA002078E70000D9
:102E800038B504460D492068884215D100BF0C486A
:102E9000C06940F400000A49C8610846C06900F4EE
:102EA0000000009000BF00BF002211461420FFF771
:102EB000F4FC1420FFF7E4FC38BD0000005C004087
:102EC0000010024070B504460125A068022801D117
:102ED00000BF01E0012500BF00BF2946D4F85C0413
:102EE00001F0F6FCD4F85C0401F0B8FC70BD10B53C
:102EF0000446D4F85C0401F0D3FC10BD10B50446C0
:102F0000D4F85C0401F0D3FC10BD70B504460D4646
:102F100000BF94F82804012801D1022070BD0120CF
:102F200084F8280400BF84F824502946206802F061
:102F300007FD00BF002084F8280400BF00BFEDE7B4
:102F400010B5044604F22C41D4F85C0401F0E6FC10
:102F500010BD10B5044600BF94F82804012801D123
:102F6000022010BD012084F8280400BF0121204662
:102F7000FFF705FD206802F05AFA206802F0B0FC65
:102F800000BF002084F8280400BF00BFE9E700006C
:102F900010B50446D4F85C0401F037FDA06928B1EF
:102FA0000348006840F006000149086010BD0000B9
:102FB00010ED00E0F8B5044600260025207800F06A
:102FC000010000286BD000274348C06900F0805002
:102FD00070B900BF4048C06940F080503E49C861A8
:102FE0000846C06900F08050009000BF00BF012774
:102FF0003A48006800F48070B0B93848006840F47E
:10300000807036490860FFF79BFB064606E0FFF735
:1030100097FB801B642801D90320F8BD2F48006866
:1030200000F480700028F2D02B48006A00F440754C
:103030002DB3A08800F44070A84220D02648006A32
:1030400020F44075012026490860002008602248CD
:10305000056205F0010090B1FFF772FB064608E03B
:10306000FFF76EFB801B41F28831884201D90320B3
:10307000D3E71948006A00F002000028F0D0164893
:10308000006A20F440706168084313490862012F08
:1030900004D10846C06920F08050C86100BF207884
:1030A00000F00200022807D10B48406820F440409D
:1030B000A168084308494860207800F010001028F3
:1030C00007D10548406820F48000E16808430249C0
:1030D00048600020A1E7000000100240007000409E
:1030E0004004424270B504460D460026624800681E
:1030F00000F00700A8420ED25F48006820F00700E9
:1031000028435D4908600846006800F00700A842AF
:1031100001D0012070BD207800F00200022807D104
:103120005648406820F0F000A168084353494860C1
:10313000207800F0010000285DD06068012806D1E9
:103140004E48006800F4003090B90120E2E7606862
:10315000022806D14948006800F0007040B90120FB
:10316000D8E74648006800F0020008B90120D1E71E
:103170004248406820F00300616808433F494860C6
:10318000FFF7DEFA06466068012810D108E0FFF775
:10319000D7FA801B41F28831884201D90320B9E770
:1031A0003648406800F00C000428F0D123E0606845
:1031B000022810D108E0FFF7C3FA801B41F28831E2
:1031C000884201D90320A5E72C48406800F00C0094
:1031D0000828F0D10FE008E0FFF7B2FA801B41F2B7
:1031E0008831884201D9032094E72448406800F0E0
:1031F0000C000028F0D12048006800F00700A84229
:103200000ED91D48006820F0070028431A490860BD
:103210000846006800F00700A84201D0012079E7C5
:10322000207800F00400042807D11448406820F4F6
:10323000E060E168084311494860207800F0080028
:10324000082808D10D48406820F46050216940EA00
:10325000C1000A49486000F01DF808494968C1F3F7
:103260000311074A515CC840064908600020FFF777
:103270008DFA00204EE700000020024000100240BE
:10328000685E0008040200200148006870470000E2
:1032900004020020F0B585B00FF26C0C9CE8E01041
:1032A00001A8A0E8E0101CA52D68009500210022CF
:1032B000002300240020194D696801F00C05F5B1C8
:1032C000042D02D0082D19D101E0154819E001ADF7
:1032D000C1F38346AC5D01F4803555B10F4D6D6887
:1032E000C5F340451DF805200D4D6543B5FBF2F3D0
:1032F00002E00C4D04FB05F3184602E000BF08484D
:1033000000BF00BF05B0F0BD0203040506070809B1
:103310000A0B0C0D0E0F10100102000000100240ED
:1033200000127A0000093D00F8B504460025207817
:1033300000F00100002878D0F848406800F00C0048
:1033400004280CD0F548406800F00C00082811D182
:10335000F248406800F48030B0F5803F0AD1EF4871
:10336000006800F4003000285FD0606800285CD15D
:103370000120F8BD00BF6068B0F5803F06D1E74886
:10338000006840F48030E549086028E0606858B97A
:10339000E248006820F48030E04908600846006890
:1033A00020F4802008601AE06068B0F5A02F0BD1EF
:1033B000DA48006840F48020D84908600846006870
:1033C00040F4803008600AE0D448006820F480307F
:1033D000D24908600846006820F48020086000BFD9
:1033E000606888B1FFF7ACF9054606E0FFF7A8F979
:1033F000401B642801D90320BBE7C848006800F4DB
:1034000000300028F2D010E0FFF79AF9054606E0F8
:10341000FFF796F9401B642801D90320A9E7BF48AC
:10342000006800F400300028F2D1207800F002009B
:10343000022857D1B948406800F00C0050B1B74895
:10344000406800F00C00082818D1B448406800F427
:10345000803098B9B148006800F0020020B12069BE
:10346000012801D0012084E7AC48006820F0F80072
:10347000616940EAC100A949086033E02069E8B108
:103480000120A7490860FFF75BF9054606E0FFF752
:1034900057F9401B022801D903206AE79F480068BA
:1034A00000F002000028F2D09C48006820F0F800EC
:1034B000616940EAC1009949086013E00020984919
:1034C0000860FFF73DF9054606E0FFF739F9401BB4
:1034D000022801D903204CE79048006800F0020060
:1034E0000028F2D1207800F0080008282DD1A0692A
:1034F000B8B101208B490860FFF722F9054606E0C4
:10350000FFF71EF9401B022801D9032031E7834849
:10351000406A00F002000028F2D0012000F0B8FB61
:1035200013E000207F490860FFF70AF9054606E02E
:10353000FFF706F9401B022801D9032019E7774855
:10354000406A00F002000028F2D1207800F0040068
:10355000042873D100267148C06900F0805070B90A
:1035600000BF6E48C06940F080506C49C861084691
:10357000C06900F08050009000BF00BF01266A487B
:10358000006800F48070B0B96748006840F480704B
:1035900065490860FFF7D4F8054606E0FFF7D0F864
:1035A000401B642801D90320E3E65F48006800F46B
:1035B00080700028F2D000BFE068012806D157488B
:1035C000006A40F001005549086227E0E06858B9F8
:1035D0005248006A20F00100504908620846006A1B
:1035E00020F00400086219E0E06805280BD14B4880
:1035F000006A40F00400494908620846006A40F049
:10360000010008620AE04548006A20F001004349D1
:1036100008620846006A20F00400086200BFE06803
:10362000A0B1FFF78DF8054609E0FFF789F8401BC8
:1036300041F28831884202D903209AE622E03748D5
:10364000006A00F002000028EFD012E0FFF778F8DF
:10365000054608E0FFF774F8401B41F288318842C4
:1036600001D9032085E62D48006A00F002000028F9
:10367000F0D1012E05D12948C06920F0805027499A
:10368000C86100BFE069C8B32448406800F00C007E
:10369000082860D0E069022848D100202049086647
:1036A000FFF74EF8054606E0FFF74AF8401B0228F0
:1036B00001D903205DE61948006800F00070002879
:1036C000F2D1206AB0F5803F07D11448406820F459
:1036D0000030A168084311494860D4E90801084353
:1036E0000E49496821F4741108430C4948600120CF
:1036F0000B490866FFF724F8054607E02DE0FFF7C1
:103700001FF8401B022801D9032032E60348006855
:1037100000F000700028F2D01FE00000001002400E
:1037200000004242800442420070004000200C49E8
:103730000866FFF705F8054606E0FFF701F8401BAD
:10374000022801D9032014E60648006800F0007042
:103750000028F2D101E001200BE6002009E600007C
:103760000000424200100240042808D14FF0E0213E
:10377000096941F004014FF0E022116107E04FF0C8
:10378000E021096921F004014FF0E0221161704746
:10379000704770B504462546681EB0F1807F01D39E
:1037A00001200FE0681E4FF0E02148610F214FF02B
:1037B000FF3000F035F800204FF0E021886107204D
:1037C0000861002070BD10B5FFF7E2FF10BD00BF1B
:1037D000FEE7000010B500220749084800F06DFE22
:1037E0000749064801F060F90649044800F079FBF2
:1037F000024801F021FA10BD04000020000500205D
:103800000C020020A800002000BFFEE77047000067
:1038100002480068C0F30220704700000CED00E091
:1038200010B5002807DA0A07140E054A00F00F0346
:103830001B1FD45403E00A07130E024A135410BD91
:1038400018ED00E000E400E02DE9FC41054600240D
:10385000002700260020019000900CE2BDF8040033
:1038600000F00F06002E7DD1BDF8040000F010001E
:1038700088BB2868008848F60F71084029680880CE
:1038800005F128042868B0F85010207801EBC0003A
:10389000801C296801F5806131F81000C0F309002F
:1038A000E061E16960690844606100212846FFF732
:1038B00067F895F824000028CFD0A0690028CCD163
:1038C00095F8240040F080002968A1F84C00002001
:1038D00085F82400CFE1FFE705F50A742868008821
:1038E0000090BDF8000000F4006018B32868B0F83C
:1038F0005010207801EBC000801D296801F580611F
:1039000031F81000C0F30900E061A18B8BB2A288EE
:1039100005F22C41286801F0FCFF28680088C0F3FC
:103920000E0048F68F710840296808802846FFF786
:1039300007FBA0E1BDF8000000F4004000288CD097
:1039400028680088C0F30E0048F68F710840296887
:1039500008802868B0F85010207801EBC000801D66
:10396000296800E055E001F5806131F81000C0F3EE
:103970000900E061E06960B1B4F81CC01FFA8CF383
:10398000A2886169286801F0C4FFE16960690844A0
:10399000606100212846FFF701F82A6802F580627D
:1039A0002868B0F85000801D02EB400122693E2AD1
:1039B00010D92269C2F34F10227C02F01F020AB90B
:1039C000421E90B24FF6FF7202EA802242F4004299
:1039D0000A600DE02269C2F34F00227C02F001026E
:1039E0000AB1421C90B24FF6FF7202EA80220A60CE
:1039F000296809884BF68F7201EA020080F4805032
:103A000080F4005040F4004141F080012A681180A8
:103A100031E17100286830F811000090BDF8000015
:103A200000F4004000287CD07100286830F81100B4
:103A3000C0F30E0048F68F7108407200296821F823
:103A4000120005F50A7000EB4614A07AA8B92868A0
:103A5000B0F85010207801EBC000801D296801F5F6
:103A6000806131F81000C0F30907EFB3A2886169E3
:103A70003B46286801F04DFF44E021784900286862
:103A800030F8110000F48040A8B12868B0F8501058
:103A9000207801EBC000801C296801F5806131F8B5
:103AA0001000C0F30907DFB1E28861693B4628686E
:103AB00001F02FFF14E02868B0F85010207801EBD7
:103AC000C000801D296801F5806131F81000C0F345
:103AD00009072FB1228961693B46286801F019FF67
:103AE00021784900286800E00CE030F8110048F621
:103AF0008F71084048F2C0010843227852002968BB
:103B000021F81200E0693844E0616069384460617E
:103B1000A06910B12069B84204D921782846FEF77F
:103B20003DFF05E021782846D4E90523FEF7E2FFB2
:103B3000BDF8000000F0800000287CD005F12800CE
:103B400000EB46147100286830F8110048F60F7138
:103B500008407200296821F81200A07AD0B92868BC
:103B6000B0F85010207801EBC000801C296801F5E6
:103B7000806131F81000C0F30900E061E069E8B34A
:103B8000B4F81CC01FFA8CF3A2886169286801F0A0
:103B9000DEFE4EE021784900286830F8110000F080
:103BA0004000D0B12868B0F85010207801EBC00078
:103BB000801C296801F5806131F81000C0F309000C
:103BC000E061E06928B3B4F81CC01FFA8CF3E28806
:103BD0006169286801F0BBFE1BE02868B0F850104E
:103BE000207801EBC000801D296801F5806131F863
:103BF0001000C0F30900E061E06900E019E040B1A5
:103C0000B4F81CC01FFA8CF322896169286801F09E
:103C10009EFE21784900286830F8110048F68F711F
:103C200008404CF28001084322785200296821F8AC
:103C30001200286800E01EE0B0F85010207801EB78
:103C4000C000801C296801F5806131F81000C0F3C4
:103C50000900E061E169606908446061A06920B918
:103C600021782846FEF78CFE05E021782846D4E925
:103C70000523FEF79DFF2868B0F84400019000F48A
:103C8000004000287FF4EAADBDE8FC8170470000E9
:103C900008B508490968C9084FF47A72B1FBF2F116
:103CA0004143009100BF00BF00994A1E00920029C5
:103CB000F9D108BD040200207047000010B5054886
:103CC000FDF716FD0348FCF713FCFEF73FFDFFF779
:103CD0007AFD10BD8C02002010B594B001200A902E
:103CE00000040B9000200C9001200E9002201190F7
:103CF000C10312914FF4E01113910AA8FFF714FBCE
:103D000018B149211AA001F045FE0F2005900220AC
:103D10000690002007904FF48060089000200990E2
:103D2000022105A8FFF7DEF918B1572110A001F014
:103D300031FE102001900020049001A8FFF73AF90D
:103D400018B15E210AA001F025FEFFF79DFA4FF49D
:103D50007A71B0FBF1F42046FFF71BFD0420FFF75A
:103D600003FD00221146501EFEF797FD14B010BD52
:103D70002E2E5C5372635C7065726970686572792F
:103D80002E6300001148006840F001000F490860F0
:103D9000084640680E4908400C49486008460068DB
:103DA0000C490840094908600846006820F4802052
:103DB00008600846406820F4FE0048604FF41F0089
:103DC0008860C80304490860704700000010024082
:103DD0000000FFF8FFFFF6FE08ED00E002460020BD
:103DE000D2F8183283F85000704770B504460E467A
:103DF000D4F8185269782878D4F81C32DA689047D9
:103E000040232A460121204600F0F7FC002070BD27
:103E100070B504460D468121204600F089FB012142
:103E2000204600F085FBD4F8180250B1D4F81C12DB
:103E300088688047D4F8180201F00EF80020C4F812
:103E40001802002070BD70B50546D5F81842E06C28
:103E5000012807D161782078D5F81C32DA689047BC
:103E60000020E064002070BD014629200880014840
:103E7000704700004802002001460A2008800148DF
:103E800070470000800200202DE9F04104460F46F3
:103E90000026402303228121204600F07DFC4023A0
:103EA00003220121204600F077FC542000F0D6FFC9
:103EB000C4F81802D4F8180208B901260EE0D4F8A4
:103EC0001852002085F85000D4F81C12486880472A
:103ED00040232A460121204600F08FFC3046BDE8F1
:103EE000F0810246022011B1C2F81C120020704776
:103EF0002DE9F04104460D461646D4F8187294F8A0
:103F0000FC0103280BD197F8500040B9012087F835
:103F1000500033462A468121204600F080FD0020D3
:103F2000BDE8F0812DE9F04106460C460027B84671
:103F3000D6F81852207800F0600080B3202869D1AC
:103F40006078801E0A2823D2DFE800F013082222BE
:103F50002222221A0F05A078286421E0012205F10F
:103F60004001304600F0CEF81AE060880012686424
:103F700016E0012205F14401304600F0C3F80FE0DD
:103F80000120E864A2792946304600F09AF807E05B
:103F90002146304600F089F80220BDE8F08101E0BA
:103FA00000BF37E06078062804D00A2827D00B2805
:103FB0002FD12BE060882221B1EB202F0BD1E0889C
:103FC0006F2801DD6F2000E0E0880746D6F81C026C
:103FD000D0F800800DE060882121B1EB202F08D1BE
:103FE000DFF83880E088092801DD092000E0E0885A
:103FF00007463A464146304600F084F809E001227F
:1040000005F14801304600F07DF802E0A078A86490
:1040100000BF00BF00BF0020BFE700007402002007
:1040200070B504460D46D4F814022946426820466D
:104030009047002070BD70B504460D4694F8FC0111
:10404000022802D0032811D100E000BF68880128AF
:104050000BD10020C4F80402D4F814022946826867
:1040600020469047204600F05EF804E029462046AE
:1040700000F01BF800BF00BF70BD70B506460C46CF
:1040800015462B4622460021304600F0B6FB0020A4
:1040900070BD70B506460C4615462B4622460021DB
:1040A000304600F0BCFC002070BD70B504460D46E3
:1040B0008021204600F069FC0021204600F065FCCC
:1040C00070BD70B504460E4615460320C4F8F401D1
:1040D0004FF484700551001D05512B4632460021D6
:1040E000204600F08AFB002070BD10B50446052074
:1040F000C4F8F40100231A461946204600F07DFB5F
:10410000002010BD70B504460E4615460220C4F8C6
:10411000F401A561E5612B4632460021204600F0FE
:104120007EFC002070BD10B504460420C4F8F401E4
:1041300000231A461946204600F071FC002010BDED
:1041400070B505460C462DB92246064906A000F07A
:104150008BF904E02246034903A000F085F90148E9
:1041600070BD0000DC0B0020437573746F6D204838
:10417000494420436F6E66696700000002461220C2
:1041800008800148704700002000002070B50546F7
:104190000C462DB92246064906A000F065F904E058
:1041A0002246034903A000F05FF9014870BD0000FA
:1041B000DC0B0020437573746F6D2048494420491F
:1041C0006E7465726661636500000000024604203B
:1041D00008800148704700003400002070B5054693
:1041E0000C462246024903A000F03EF9004870BD8B
:1041F000DC0B002053544D6963726F656C6563740A
:10420000726F6E696373000070B505460C462DB978
:104210002246064906A000F027F904E02246034999
:1042200003A000F021F9014870BD0000DC0B002064
:10423000467265654A6F790070B505460C462DB922
:104240002246064906A000F00FF904E02246034981
:1042500003A000F009F9014870BD0000DC0B00204C
:1042600030303030303030303030314100000000FC
:1042700070B504460D46E888012804D0294620463A
:10428000FFF713FF1BE094F8FC01022802D003287B
:104290000FD108E00020A060012204F108012046AF
:1042A000FFF730FF0AE00122211D2046FFF72AFF19
:1042B00004E029462046FFF7F8FE00BF00BF70BDAE
:1042C000F8B504460E4670880012082872D2DFE85E
:1042D00000F082040C2082826372207CD4F81012D9
:1042E0000A686946904705467AE0207C40B9D4F8D0
:1042F0001402816A6846884705460221697007E012
:10430000D4F81402C16A68468847054602216970DC
:1043100066E0B078062834D2DFE800F0030B131B08
:10432000232B207CD4F810124A6869469047054632
:1043300030E0207CD4F810128A6869469047054620
:1043400028E0207CD4F81012CA68694690470546D8
:1043500020E0207CD4F810120A696946904705468F
:1043600018E0207CD4F810124A6969469047054647
:1043700010E0207CD4F810128A69694690470546FF
:1043800008E0B178D4F814026A46836B2046984757
:10439000054600BF00BF23E0207C30B9D4F81402EA
:1043A000416B6846884705461AE031462046FFF7CC
:1043B0007CFEF8BD0FE0207C40B9D4F81402016BFC
:1043C0006846884705460721697009E0314620465E
:1043D000FFF76BFEEDE731462046FFF766FEE8E7A4
:1043E00000BFBDF8000088B1F08878B1F088BDF852
:1043F0000010884202DDBDF8000000E0F088009067
:10440000BDF8002029462046FFF77CFE00BFD0E71C
:104410000146002002E0421CD0B2491C0A78002A62
:10442000F9D1704770B504460D4694F8FC01022896
:1044300002D0032811D100E000BF0120E060D4F8D1
:10444000040218B1E06840F00200E060022204F1CA
:104450000C012046FFF756FE04E029462046FFF7F0
:1044600024FE00BF00BF70BD2DE9F04104460D469B
:1044700017460026FCB12046FFF7CAFF022101EBD8
:10448000400038803A783046711CCEB22A5403225C
:104490003046711CCEB22A540AE014F8012B304683
:1044A000711CCEB22A5400223046711CCEB22A545E
:1044B00020780028F1D1BDE8F08170B504460D46A2
:1044C00016460CB9022070BDD4F8140210B10020B9
:1044D000C4F814020DB1C4F81052012084F8FC0194
:1044E0002670204600F0F6F80020ECE72DE9F041B8
:1044F00004460D46002600272946D4F82002FEF780
:104500008DFA064636B1012E06D0022E06D0032EB5
:1045100008D105E0002707E0022705E0012703E0B6
:10452000022701E0022700BF00BF3846BDE8F08146
:104530002DE9F04104460D46002600272946D4F80F
:104540002002FEF739FA064636B1012E06D0022EB9
:1045500006D0032E08D105E0002707E0022705E07A
:10456000012703E0022701E0022700BF00BF384611
:10457000BDE8F0812DE9F04104460E461746002EB5
:1045800054D104F11405D4F8F401022843D1D5E93B
:104590000201884210D9D5E90201401AA860288991
:1045A00082B239462046FFF774FD00231A461946A9
:1045B000204600F022F92EE0E9686868B0FBF1F2CD
:1045C00001FB1200B8B9E9686868884213D36868CB
:1045D000D4F8F81188420ED2002211462046FFF787
:1045E00058FD0020C4F8F80100231A461946204659
:1045F00000F003F90FE0D4F81402C06840B194F859
:10460000FC01032804D1D4F81402C168204688476D
:104610002046FFF76AFD94F80002012814D12046D5
:1046200000F04AFA002084F800020DE0D4F81402E9
:10463000406948B194F8FC01032805D1D4F814026C
:1046400031464269204690470020BDE8F0812DE9BF
:10465000F04105460E4617465EBB05F58274D5F857
:10466000F401032833D1D4E90201884210D9D4E9F6
:104670000201401AA060D4E90201884201D2A06878
:1046800000E0E06882B239462846FFF7F6FC1EE0FB
:10469000D5F81402006940B195F8FC01032804D153
:1046A000D5F814020169284688472846FFF73BFDE4
:1046B0000DE0D5F81402806948B195F8FC01032893
:1046C00005D1D5F81402314682692846904700206A
:1046D000BDE8F08110B504461C48C0F85C44C4F83D
:1046E00020021B4819490860082048600221174829
:1046F00081600321C16000218161C1610162FEF717
:1047000031FB20B14FF4977112A001F043F9182347
:1047100000221146D4F82002FEF712F95823002295
:104720008021D4F82002FEF70BF998230022812182
:10473000D4F82002FEF704F9D82300220121D4F88E
:104740002002FEF7FDF8002010BD00002407002025
:10475000005C00402E2E2F5372632F757362645FCE
:10476000636F6E662E63000010B50246D2F82032E9
:1047700001F08000802807D101F07F0403F12800B8
:1047800000EB4410807810BD01F07F0403F50A703F
:1047900000EB44108078F6E72DE9F04704460F4619
:1047A00015461E464FF00008C1462B463246394694
:1047B000D4F82002FEF763F98046B8F1000F09D063
:1047C000B8F1010F09D0B8F1020F09D0B8F1030F09
:1047D0000CD108E04FF000090BE04FF0020908E0AF
:1047E0004FF0010905E04FF0020902E04FF0020925
:1047F00000BF00BF4846BDE8F0872DE9F0470446FA
:104800000D4616461F464FF00008C1463B4632464D
:104810002946D4F82002FEF76DF98046B8F1000F62
:1048200009D0B8F1010F09D0B8F1020F09D0B8F1E1
:10483000030F0CD108E04FF000090BE04FF0020924
:1048400008E04FF0010905E04FF0020902E04FF0E7
:10485000020900BF00BF4846BDE8F08710B5044616
:104860004023002211462046FFF796FF40214FF4D7
:10487000887001514023002280212046FFF78CFFE1
:1048800040212162012084F8FC01D4F8180228B1EB
:104890002179D4F81402426820469047002010BDC8
:1048A000014691F8FD0181F8FC010020704710B528
:1048B000044694F8FC01032808D1D4F81402C06916
:1048C00020B1D4F81402C16920468847002010BDE9
:1048D00002461174002070472DE9F04104460D4650
:1048E000002600272946D4F82002FEF70EFB0646D4
:1048F00036B1012E06D0022E06D0032E08D105E0D7
:10490000002707E0022705E0012703E0022701E076
:10491000022700BF00BF3846BDE8F08170B50446ED
:104920000D46294604F5027000F0AAF80120C4F8EB
:10493000F40140F20E20005BC4F8F80194F808027C
:1049400000F01F0020B1012808D0022812D10BE08E
:1049500004F50271204600F076F913E004F50271C7
:10496000204600F054FA0DE004F50271204600F0F4
:10497000A3F907E094F8080200F08001204600F057
:1049800004F800BF00BF002070BD2DE9F0410446CF
:104990000D46002600272946D4F82002FEF7CFF85E
:1049A000064636B1012E06D0022E06D0032E08D1BF
:1049B00005E0002707E0022705E0012703E00227C2
:1049C00001E0022700BF00BF3846BDE8F08170B5A6
:1049D000044600250026D4F82002FEF7BAFA054660
:1049E00035B1012D06D0022D06D0032D08D105E0EA
:1049F000002607E0022605E0012603E0022601E08A
:104A0000022600BF00BF304670BD014691F8FC0190
:104A100081F8FD01042081F8FC01002070472DE998
:104A2000F04704460D4616461F464FF00008C146A3
:104A30003B4632462946D4F82002FEF7B9F88046B4
:104A4000B8F1000F09D0B8F1010F09D0B8F1020F89
:104A500009D0B8F1030F0CD108E04FF000090BE0CA
:104A60004FF0020908E04FF0010905E04FF002099C
:104A700002E04FF0020900BF00BF4846BDE8F087E2
:104A80000A7802704A7842708B78CA7803EB022267
:104A900042800B794A7903EB022282808B79CA79B2
:104AA00003EB0222C28070470246002011B1C2F817
:104AB000141200E00220704701460020704770B5D4
:104AC00004460D46A888F8B9E888E8B9A87800F047
:104AD0007F0694F8FC01032804D129462046FFF7FD
:104AE000E4FA15E084F8FE6131462046FFF7F4FE53
:104AF0002046FFF718FB1EB1022084F8FC0107E0F6
:104B0000012084F8FC0103E029462046FFF7CDFA96
:104B100070BD70B504460D460226D4F8140238B1B3
:104B2000D4F81402294602682046904700B90026AE
:104B3000304670BD70B504460D46A87834490870FB
:104B400008460078012804DD29462046FFF7ADFA23
:104B50005BE094F8FC01022802D003284FD11CE04E
:104B60002B480078A8B12A4800786060032084F8B8
:104B7000FC01274801782046FFF7CBFF022804D12B
:104B800029462046FFF791FA70BD2046FFF7CBFA81
:104B900002E02046FFF7C7FA36E01D48007870B9FA
:104BA000022084F8FC011A480078606018480178F7
:104BB0002046FFF735FA2046FFF7B5FA1EE0144904
:104BC00009786068884216D021792046FFF728FAD4
:104BD0000F48007860600E4801782046FFF799FF83
:104BE000022804D129462046FFF75FFACCE7204689
:104BF000FFF799FA02E02046FFF795FA04E029460C
:104C00002046FFF752FA00BF00BF00BFBCE700001C
:104C10000802002070B504460D46688801280AD1B4
:104C2000C4F80402D4F8140229468268204690474A
:104C30002046FFF778FA70BD10B504462046FFF70E
:104C4000C6FE002010BD70B505460C4600266078F3
:104C50000A2829D2DFE800F01923281E280A05288F
:104C6000140F21462846FFF72BFB22E02146284659
:104C7000FFF725FF1DE021462846FFF75BFF18E000
:104C800021462846FFF7F4FA13E021462846FFF7AD
:104C9000C9FB0EE021462846FFF7BCFF09E021468C
:104CA0002846FFF7C8F904E021462846FFF7FDF93A
:104CB00000BF00BF304670BD2DE9F04105460E46ED
:104CC0004FF000083479307800F06000202808D1D7
:104CD000D5F8140231468268284690470020BDE886
:104CE000F0817078002855D001282AD003287AD185
:104CF00095F8FC01022802D003281BD107E02CB153
:104D0000802C03D021462846FFF73FFE17E070882D
:104D100030B92CB1802C03D021462846FFF735FE50
:104D2000D5F8140231468268284690472846FFF796
:104D3000FAF904E031462846FFF7B7F900BF00BF93
:104D400062E095F8FC01022802D003281BD107E09D
:104D50002CB1802C03D021462846FFF716FE17E021
:104D6000708878B904F07F0048B121462846FFF7E3
:104D7000BDFBD5F814023146826828469047284684
:104D8000FFF7D1F904E031462846FFF78EF900BF5E
:104D900000BF39E095F8FC01022802D003282BD18E
:104DA00007E004F07F0018B121462846FFF7EDFD2B
:104DB00027E004F08000802806D104F07F0105F18F
:104DC000140000EB011005E004F07F0105F582708E
:104DD00000EB0110074621462846FFF7C5FC18B135
:104DE0000120386002E00EE00020386002223946DF
:104DF0002846FFF787F904E031462846FFF755F9C2
:104E000000BF00BF00E000BF00BF404667E770B5CD
:104E100004460D46002694F8FC01032814D1287995
:104E200001280CDCD4F814022946826820469047F9
:104E3000E88840B93EB92046FFF775F903E02946F6
:104E40002046FFF732F904E029462046FFF72DF906
:104E500000BF00BF002070BD704700000146014840
:104E600070470000840B002010B50246C87830B1AE
:104E700001282CD0022810D0032836D119E0087858
:104E8000400032F8100048F68F13184040F40070CC
:104E90000B785B0022F8130028E00878400032F815
:104EA000100048F68F1318400B785B0022F81300AF
:104EB0001CE00878400032F8100048F68F131840C4
:104EC00040F4C0600B785B0022F813000EE0087815
:104ED000400032F8100048F68F13184040F480600C
:104EE0000B785B0022F8130000E000BF00BF0878D9
:104EF000400032F8100048F68F73184048F28003E3
:104F000018430B7818435B0022F81300887A0028B6
:104F10007DD1487898B3888840104400B2F850306A
:104F2000087803EBC00002F5806343F8104008786E
:104F3000400032F8100000F0400068B108784000EE
:104F400032F8100048F68F73184048F2C003184337
:104F50000B785B0022F813000B785B0032F81330FB
:104F600048F6BF7403EA040080F0200040F40043D8
:104F700043F080030C78640022F8143047E1FFE727
:104F8000888840104400B2F85030087803EBC00025
:104F9000001D02F5806343F81040B2F850400878D5
:104FA00004EBC000801D1C4604EB40030C693E2C42
:104FB00010D90C69C4F34F100C7C04F01F040CB919
:104FC000441EA0B24FF6FF7404EA802444F4004467
:104FD0001C600DE00C69C4F34F000C7C04F001046C
:104FE0000CB1441CA0B24FF6FF7404EA80241C608C
:104FF0000878400032F8100000F4804078B108785A
:10500000400032F8100048F68F73184000E01BE0B3
:105010004CF2800318430B785B0022F813000B78E6
:105020005B0032F813304BF68F7403EA040080F40F
:10503000805080F4005040F4004343F080030C782B
:10504000640022F81430E2E00878400032F81000E2
:1050500040F4807048F68F73184048F2800318437C
:105060000B785B0022F81300C88840104400B2F8A7
:105070005030087803EBC00002F5806343F810401D
:10508000088940104400B2F85030087803EBC000A3
:10509000001D02F5806343F810404878F0BB0878A3
:1050A000400032F8100000F4804068B108784000F9
:1050B00032F8100048F68F7318404CF28003184302
:1050C0000B785B0022F813000878400032F81000DB
:1050D00000F0400068B10878400032F8100048F64F
:1050E0008F73184048F2C00318430B785B0022F816
:1050F00013000878400032F8100048F68F7318400B
:1051000048F2C00318430B785B0022F813000B78B9
:105110005B0032F813304BF68F7400E01EE003EAB8
:10512000040080F4805080F4005040F4004343F0C9
:1051300080030C78640022F814300B785B0032F89E
:10514000133048F6BF7403EA040040F4004343F010
:1051500080030C78640022F8143058E0087840008E
:1051600032F8100000F4804068B10878400032F84E
:10517000100048F68F7318404CF2800318430B78E8
:105180005B0022F813000878400032F8100000F0AD
:10519000400068B10878400032F8100048F68F737C
:1051A000184048F2C00318430B785B0022F8130044
:1051B0000878400032F8100048F68F7318404CF21F
:1051C000800318430B785B0022F813000B785B0018
:1051D00032F8133048F6BF7403EA040040F4004389
:1051E00043F080030C78640022F814300B785B00E5
:1051F00032F813304BF68F7403EA040040F4004396
:1052000043F080030C78640022F8143000BF0020C3
:1052100010BD10B50446002010BD10B50246887AB6
:1052200000284DD1487828B30878400032F81000A3
:1052300000F0400068B10878400032F8100048F6ED
:105240008F73184048F2C00318430B785B0022F8B4
:1052500013000B785B0032F8133048F6BF7403EA92
:10526000040040F4004343F080030C78640022F80B
:105270001430DAE00878400032F8100000F4804082
:1052800068B10878400032F8100048F68F73184073
:105290004CF2800318430B785B0022F813000B7864
:1052A0005B0032F813304BF68F7403EA040040F4CD
:1052B000004343F080030C78640022F81430B4E01B
:1052C0004878002858D10878400032F8100000F4DF
:1052D000804068B10878400032F8100048F68F73BB
:1052E00018404CF2800318430B785B0022F813003F
:1052F0000878400032F8100000F0400068B10878EB
:10530000400032F8100048F68F73184048F2C0038E
:1053100018430B785B0022F813000878400032F83D
:10532000100048F68F73184048F2C00318430B78FA
:105330005B0022F813000B785B0032F813304BF659
:105340008F7403EA040040F4004343F080030C78B8
:10535000640022F814300B785B0032F8133048F602
:10536000BF7403EA040040F4004343F080030C7868
:10537000640022F8143058E00878400032F8100039
:1053800000F4804068B10878400032F8100048F618
:105390008F7318404CF2800318430B785B0022F89F
:1053A00013000878400032F8100000F0400068B1A7
:1053B0000878400032F8100048F68F73184048F221
:1053C000C00318430B785B0022F8130008784000F4
:1053D00032F8100048F68F7318404CF280031843DF
:1053E0000B785B0022F813000B785B0032F8133067
:1053F00048F6BF7403EA040040F4004343F080031E
:105400000C78640022F814300B785B0032F813300B
:105410004BF68F7403EA040040F4004343F080032A
:105420000C78640022F8143000BF002010BD014643
:105430000020704701460020704710B50446012047
:1054400024F8400F00202080A0802082403C20468D
:1054500000F046FA002010BD014600224FF43D4204
:10546000B1F840009043A1F8400000207047024688
:105470000020704710B50246487848B308784000CD
:1054800032F8100000F0400068B10878400032F8AF
:10549000100048F68F73184048F2C00318430B7889
:1054A0005B0022F813000B785B0032F8133048F6EB
:1054B000BF7403EA040080F0100080F0200040F484
:1054C000004343F080030C78640022F8143029E094
:1054D0000878400032F8100000F4804068B1087885
:1054E000400032F8100048F68F7318404CF28003E9
:1054F00018430B785B0022F813000B785B0032F83E
:1055000013304BF68F7403EA040080F4805080F46B
:10551000005040F4004343F080030C78640022F80C
:10552000143000BF002010BD10B502460878A0B9A5
:105530000B785B0032F813304BF6BF7403EA0400BB
:1055400080F4805080F0100040F4004343F080036A
:105550000C78640022F8143027E0487890B10B787A
:105560005B0032F8133048F6BF7403EA040080F0A1
:10557000100040F4004343F080030C78640022F8EC
:10558000143012E00B785B0032F813304BF68F7456
:1055900003EA040080F4805040F4004343F08003A9
:1055A0000C78640022F8143000BF002010BDF0B564
:1055B00006460C460027A569607801287CD1216940
:1055C000A069884204D92569A069401BA06102E056
:1055D000A5690020A061A07A80B9ABB2A28830464C
:1055E000616900F0B4F9B6F85010207801EBC00002
:1055F000801C06F5806141F81050A1E02078400041
:1056000036F8100000F04000C0B3607838BBB6F840
:105610005020207802EBC000801D06F5806202EB6E
:1056200040013E2D0ED9C5F34F1005F01F020AB9F7
:10563000421E90B24FF6FF7202EA802242F400420C
:105640000A600BE0C5F34F0005F001020AB1421CED
:1056500090B24FF6FF7202EA80220A600CE0607896
:10566000012809D1B6F85010207801EBC000801C49
:1056700006F5806141F81050278939E0FFE760782E
:1056800040BBB6F85020207802EBC000801C06F525
:10569000806202EB40013E2D0FD9C5F34F1005F09B
:1056A0001F020AB9421E90B24FF6FF7202EA802230
:1056B00042F400420A600CE057E0C5F34F0005F0E9
:1056C00001020AB1421C90B24FF6FF7202EA802238
:1056D0000A600CE06078012809D1B6F850102078F3
:1056E00001EBC000801C06F5806141F81050E7888E
:1056F000ABB23A463046616900F029F9607870B97A
:105700002078400036F8100048F68F71084048F2C3
:10571000C00108432178490026F8110010E06078A4
:1057200001280DD12078400036F8100048F68F711E
:1057300008404CF2800108432178490026F8110006
:105740002178490036F8111048F6BF7201EA0200CC
:1057500080F0100080F0200040F4004141F0800112
:105760002278520026F81210B8E02169A069884218
:1057700004D92569A069401BA06102E0A569002049
:10578000A061A07A38BBB6F85020207802EBC000A8
:10579000801D06F5806202EB40013E2D0ED9C5F357
:1057A0004F1005F01F020AB9421E90B24FF6FF7269
:1057B00002EA802242F400420A600BE0C5F34F0087
:1057C00005F001020AB1421C90B24FF6FF7202EAE4
:1057D00080220A606DE0607838BBB6F850202078EF
:1057E00002EBC000801C06F5806202EB40013E2DFA
:1057F0000ED9C5F34F1005F01F020AB9421E90B230
:105800004FF6FF7202EA802242F400420A600BE087
:10581000C5F34F0005F001020AB1421C90B24FF6E9
:10582000FF7202EA80220A600CE06078012809D148
:10583000B6F85010207801EBC000801C06F580619E
:1058400041F81050607838BBB6F85020207802EB51
:10585000C000801D06F5806202EB40013E2D0ED98E
:10586000C5F34F1005F01F020AB9421E90B24FF661
:10587000FF7202EA802242F400420A600BE0C5F3A4
:105880004F0005F001020AB1421C90B24FF6FF72C0
:1058900002EA80220A600CE06078012809D1B6F89B
:1058A0005010207801EBC000801C06F5806141F8A3
:1058B00010502178490036F811104BF68F7201EA2A
:1058C000020080F4805080F4005040F4004141F028
:1058D00080012278520026F8121000BF0020F0BD8F
:1058E000014600224FF43F42B1F840001043A1F8B6
:1058F000400000207047000010B50248FDF77EF917
:1059000010BD00002407002001460020B1F844002B
:105910007047F0B55F1C7E100024002500EB4207A5
:1059200007F58065344605E035F804CB21F801CB56
:10593000491C641E002CF7D1F0BD024600207047C0
:10594000024611B98020A2F84C00002070472DE9D2
:10595000F041044603F101084FEA68070025AC4610
:105960000026002004EB420808F580603D460BE06D
:1059700091F800C0491C91F800804CEA082620F8F4
:10598000026B801C491C6D1E002DF1D1BDE8F08119
:1059900000BFFEE700BFFEE702E008C8121F08C113
:1059A000002AFAD170477047002001E001C1121FA0
:1059B000002AFBD17047000090B0002600BF0027EE
:1059C000FCF7D0FEFEF788F9FDF704FF7848FBF7F7
:1059D0006BFF7848FBF74EFF7648FCF75FF8754899
:1059E000FAF7BCFCE3E0FCF7ABFE06467248007831
:1059F000002801DD012000E000206F4909780A2914
:105A000001DC012100E000210840BE4201D9012152
:105A100000E0002108400028E4D00224402168462C
:105A2000FAF7A9FB02208DF80000634800788DF892
:105A30000100614800780B2875D2DFE800F0AC0661
:105A40002C445C758D949CAAAB000DEB0400594965
:105A500009880180A01CC4B20DEB04005549891CC3
:105A60000A6802604A6842600989018104F10A00FB
:105A7000C4B20DEB04004F49CA6802600969416075
:105A800004F10800C4B21E224A4914310DF121006C
:105A9000FAF758FB80E0002510E02A466B1CDDB2C7
:105AA000C2EB0213434A323202EB43010DEB040016
:105AB0001E22FAF747FB04F11E00C4B2C4F14000F5
:105AC0001E28EAD868E0022510E02A466B1CDDB2E9
:105AD000C2EB0213374A323202EB43010DEB0400F2
