:020000040800F2
:10000000202B002001010008AF2600083726000839
:10001000AD2600088B050008713D000800000000B7
:100020000000000000000000000000004B2A000853
:10003000270E000800000000492A0008AD2A000829
:100040001B0100081B0100081B0100081B01000820
:100050001B0100081B0100081B0100081B01000810
:100060001B0100081B0100081B0100081B01000800
:100070001B0100081B0100081B0100081B010008F0
:100080001B0100081B0100081B0100081B010008E0
:10009000093D00081B0100081B0100081B010008A6
:1000A0001B0100081B0100081B0100081B010008C0
:1000B0001B0100081B0100081B0100081B010008B0
:1000C0001B0100081B0100081B0100081B010008A0
:1000D0001B0100081B0100081B0100081B01000890
:1000E0001B0100081B0100081B010008DFF80CD0F1
:1000F00000F04CF800480047953D0008202B0020F8
:100100000648804706480047FEE7FEE7FEE7FEE7B1
:10011000FEE7FEE7FEE7FEE7FEE7FEE76D2B0008E1
:10012000ED000008202A04DB203A21FA02F0002129
:10013000704721FA02F3D040C2F1200291400843F7
:100140001946704740EA01039B0703D009E008C93C
:10015000121F08C0042AFAD203E011F8013B00F88C
:10016000013B521EF9D27047D2B201E000F8012BD8
:10017000491EFBD270470022F6E710B513460A4627
:1001800004461946FFF7F0FF204610BD064C074D08
:1001900006E0E06840F0010394E807009847103457
:1001A000AC42F6D3FFF7A6FF744200089442000861
:1001B00070B58C1810F8015B15F0070301D110F829
:1001C000013B2A1106D110F8012B03E010F8016B56
:1001D00001F8016B5B1EF9D12B0705D40023521ED9
:1001E0000DD401F8013BFAE710F8013BCB1A921C41
:1001F00003E013F8015B01F8015B521EF9D5A1423F
:10020000D8D3002070BD000070B504460068816836
:10021000C943C9071CD1816821F00101816001F047
:10022000E7FB05460FE000BF01F0E2FB401B0228A0
:1002300009D9A06A40F01000A062E06A40F0010015
:10024000E062012070BD20688068C043C007EBD029
:10025000002070BD10B50146406A826A12F0500F4E
:1002600005D0006A026BBDE8104008461047816A5D
:1002700041F40071816201688968C1F34241072934
:100280000CD1C16851B9816A21F480718162816A9F
:10029000C90403D4816A41F00101816201F074F85C
:1002A00010BD10B5406A816A41F040018162C16AA7
:1002B00041F00401C16201F069F810BD10B5406A57
:1002C00001F063F810BD0000F8B500260446009662
:1002D00000688168C943C90728D0816841F00101DD
:1002E0008160134813490068B0FBF1F000E0401E44
:1002F00000900028FBD101F07BFB054611E000BF18
:1003000001F076FB401B02280BD9A06A40F01000D8
:10031000A062E06A40F00100E06284F824600120FD
:10032000F8BD20688068C043C007E9D10020F8BD4F
:100330007402002040420F002DE9F043074649486F
:1003400087B00025416941F001014161416901F037
:1003500001010091816941F4007181618069DFF8D8
:100360000C8100F4007000903F48C8E9000580202F
:10037000C8E902504FF48079C000C8E904902020F9
:10038000C8F81800C001C8F81C002E46404601F00D
:1003900015F918B1AF2136A003F0EBFC334C303C1B
:1003A0000020C4F82080C8F824403918897F052926
:1003B00001D16D1CEDB2401C1E28F6DB082D03D9BF
:1003C000BE212BA003F0D5FC9DB12D48206001205B
:1003D0006661C4E9029066604FF460202561E061C7
:1003E0002248303800F0D4FF18B1CD2120A003F00E
:1003F000C0FCDFF890900024B0463819807F0528B3
:100400001DD159F8341009EBC4060291307902A9C4
:10041000401CCDE903081548303800F037FF18B10B
:10042000DB2113A003F0A5FC3179C1EB011007EB30
:10043000400090F8420010B1384600F09BF8641C70
:100440001E2CDADB09492A464431A1F1740001F07F
:100450002FF8002803D0E82105A003F08AFC07B09C
:10046000BDE8F0830010024008000240582300203D
:100470002E2E5C5372635C616E616C6F672E63003D
:10048000002401402802002010B50C4618B11022AB
:100490000649FFF757FE002C07D0044920461022DA
:1004A000BDE810401039FFF74DBE10BDAC23002051
:1004B0002DE9F0472E4E0746002506F1200940F6AB
:1004C000FF7806F1100A00BFC5EB051107EB4104E8
:1004D00036F8150094F8421099B1B4F840108142F2
:1004E00002D2A4F8400003E0A18F814200D9A08786
:1004F000B4F84000A18F0844E18F4008814200D049
:10050000E08705EB850194F8442009EBC10136F83A
:10051000150000F0D1FDA18FB4F83EC0B4F8403012
:100520004246884216D3984201D9194612E06045E6
:1005300007D2401AC0EBC020ACEB0101B0FBF1F1D7
:1005400008E0A0EB0C00C002A3EB0C01B0FBF1F142
:1005500001F2FF7189B204F13C000A2302F076FA3D
:100560002AF815006D1C082DAEDBBDE8F0870000F1
:100570009C230020C1EB011100EB41000022A0F8F8
:10058000402040F6FF7181877047FEE72DE9F04774
:10059000F64E0746F64D30780C4600EB400015F855
:1005A000301005EBC0004170F06800EBC70150F857
:1005B0003700898801F00EFA50B100203178E21935
:1005C00001EB410105F83100927F022A02D005E0DB
:1005D0000120F3E7E8B1002005F8310001F008FA46
:1005E0003178E24F04EB01087F1D98F82C3100228E
:1005F0004FF0010C162B3DD2DFE803F0160D4A7BBD
:10060000A6C0E5E5E5E5FDFDFDFDFCFCFCFCFBFB16
:10061000FBFB0120E0E701EB410315F83360F6B185
:100620005FF0000605F8336001EB410305EBC30101
:100630000E79B6B115F833708B789F421CD0D1E992
:100640000256E38A451B62EB06065B1B72EB060350
:1006500012D20A71CF708F70087C384447E00126AF
:10066000E0E715F833308C78A34203D0C1E90202E9
:1006700081F804C0BDE8F087E38AD1E90245041B94
:1006800062EB05001B1B72EB0000F3D20A71F1E76D
:1006900001EB410305EBC30115F833300E7996B138
:1006A000B3B1E38AD1E90245001B62EB0504181AD5
:1006B00072EB0400DED20A7181F802C0C878A0B1E2
:1006C0000020C87075E08D78AB42CFD8002BD1D117
:1006D000E38AD1E90245041B62EB05001B1B72EBA8
:1006E0000000C7D20A718A70C4E70120E9E70874E4
:1006F000C0E701EB410305EBC3010E799EB115F88C
:1007000033708B789F4213D0D1E90256E38A451BA0
:1007100062EB06065B1B72EB060309D20A7181F8D5
:1007200003C08F7045E015F833308D78AB429DD112
:10073000238BD1E90245041B62EB05001B1B72EB06
:10074000000097D2CA70A1E701EB410705EBC70192
:10075000A8460B7983B318F837908D78A94519D836
:10076000D1E90256248B401B62EB0605201A72EB7E
:1007700005008CD218F837008870E3E701EB4107D9
:1007800005EBC701A8460B79B3B118F837908D78FF
:10079000A945E5D2D1E90256E38A451B62EB06067C
:1007A0005B1B72EB0603DBD20A7181F803C081F890
:1007B0000290087C401C9AE7FFE718F837308D78E4
:1007C000AB42CDD052E701EB410305EBC3010E79FB
:1007D000002E3FF446AF15F833C08B789C453FF4AC
:1007E0004BAFD1E90256E38A451B62EB06065B1B61
:1007F00002E088E054E020E072EB0603BFF43CAF77
:100800000A7181F803C081F802C0087C6044087452
:1008100098F82C01062806D0072807D0082808D009
:1008200087F800C026E742EACC0004E042EA8C00E8
:1008300001E042EA4C0038701CE701EB410305EB94
:10084000C3010E79002EC4D015F833C08B789C45B7
:10085000C5D0D1E90256E38A451B62EB06065B1B55
:1008600072EB0603CAD20A7181F803C081F802C094
:10087000087C6044087498F82C010A2806D00B28DC
:1008800007D00C2808D087F801C0F3E642EACC0074
:1008900004E042EA8C0001E042EA4C007870E9E6AC
:1008A00001EB410305EBC3010E79002E91D015F841
:1008B00033C08B789C4592D0D1E90256E38A451B20
:1008C00062EB06065B1B72EB060397D20A7181F896
:1008D00003C081F802C0087C6044087498F82C01B9
:1008E0000E2806D00F2807D0102808D087F802C09D
:1008F000C0E642EACC0004E042EA8C0001E042EAB1
:100900004C00B870B6E601EB410305EBC3010E796C
:10091000002E98D015F833C08B789C4598D0D1E93B
:100920000256E38A451B62EB06065B1B72EB06036D
:1009300098D20A7181F803C081F802C0087C604433
:10094000087498F82C01122806D0132807D0142810
:1009500008D087F803C08DE642EACC0004E042EA02
:100960008C0001E042EA4C00F87083E6F4010020BC
:10097000181700202DE9F05F524C07464FF0000891
:1009800084F8008004F10C0000F07AFC002578194E
:10099000807F012801D0022806D1E8B23946FFF74E
:1009A000F5FD2078401C20706D1C1E2DEFDB00250E
:1009B0007819807F042829D1E068002200EBC50166
:1009C00050F83500898801F00EF8002640F293199E
:1009D0002078802803D949463BA003F0CAF9B8190A
:1009E000807F032806D1F0B23946FFF7CFFD20788B
:1009F000401C2070761C1E2EEADBE068012200EB12
:100A0000C50150F83500898800F0EDFF6D1C1E2DE2
:100A1000CEDB3946314800F007FADFF8C0C00020CD
:100A200001210CF54062257811E000BFC0F3C40736
:100A300000F00706D35D01FA06F4A34300EB40047F
:100A40000CEBC404E478B4401C43D455401CA842C9
:100A5000ECDB1C4C0020641D06250726221F4FF0EE
:100A600004094FF0050A4FF0020B4FF0030E434606
:100A70005FF0FF0714F800C0BCF10D0F1CD2DFE8D7
:100A80000CF01B07090C0F1B121B15171B1B190061
:100A9000155412E002F800900FE002F800A00CE0FC
:100AA00002F800B009E002F800E006E0135404E0A8
:100AB000165402E0115400E01754401C0428D9DBFE
:100AC000BDE8F09FF40100202E2E5C5372635C623F
:100AD0007574746F6E732E63000000001817002089
:100AE000002803D010220249FFF72CBB70470000FA
:100AF0001823002000207047002070472DE9F047A0
:100B00008848022586B0D0F818422078022805D0FF
:100B10001822032805D0042874D18DE0607882491A
:100B2000FAE06078814E092877D2DFE800F0760598
:100B300016293D51656C7100211D1422B01CFFF770
:100B400001FBA069C6F81600E069C6F81A007748EC
:100B50001E2204F121011E3051E00027C7EB0710CF
:100B600006EB40007F1CFFB261191E223C30FFF7EC
:100B7000E9FA1E35EDB2C5F140001E28EED84CE072
:100B80005FF00207C7EB071006EB40007F1CFFB2C7
:100B900061191E223C30FFF7D5FA1E35EDB2C5F1C2
:100BA00040001E28EED838E05FF00407C7EB0710BE
:100BB00006EB40007F1CFFB261191E223C30FFF79C
:100BC000C1FA1E35EDB2C5F140001E28EED824E072
:100BD0005FF00607C7EB071006EB40007F1CFFB273
:100BE00061191E223C30FFF7ADFA1E35EDB2C5F19A
:100BF00040001E28EED810E0A11C3E224C48FFF712
:100C0000A1FA0AE061E04A48A11C3E223E30F6E724
:100C10004748D4F802105430816260780A2802D222
:100C20004449401C78E04448008830803F4800F048
:100C3000A3F800F0A3FF70E000210491B4F80100D4
:100C4000DFF8F89045BA3E48DFF8F880C5B1018872
:100C5000D9B3C5EB05178246B1EB870F36D900F043
:100C6000C7FD0026A01906EB8701828841440023B6
:100C7000012000F07DFDB61CF6B23C2EF2D31FE041
:100C8000A3880380B3F5C84F47D8CDE90282474611
:100C9000009100F0ADFD04A9684600F00BFDB846D8
:100CA0000026C5EB0517A01906EB87018288414491
:100CB0000023012000F05CFDB61CF6B23C2EF2D3FE
:100CC00000F04CFD6D1CA9F8005026E000F090FDEE
:100CD0000025464660190023828805EB87008119AC
:100CE000012000F045FDAD1CEDB23C2DF2D300F02B
:100CF00035FD14481349801CC91C0078097840EA66
:100D000001241048BAF800103C3000F05FF884422B
:100D100003D110B10C490120087006B00020BDE8D5
:100D2000F0870000D405002001000020B00E002054
:100D3000DC0F002002000020FC0200200400002044
:100D400000010020006400080000002010B5002809
:100D50000CD00749074A40F26223098802EB81223E
:100D6000002154584450091D9942FAD310BD000087
:100D7000E0F7FF1F00FCFF07F0B585B000210491EC
:100D800005001CD00F48104A0088009102EB802615
:100D90000120CDE9026000F02BFD04A9684600F0B7
:100DA00089FC002440F262272A59311900230220CD
:100DB00000F0DEFC241DBC42F6D300F0CFFC05B0F1
:100DC000F0BD0000E0F7FF1F00FCFF0770B50D4607
:100DD0000646002401F04CFC0022074908E0B05C04
:100DE0006040C0B2521C31F8100092B280EA142464
:100DF000AA42F4D3204670BDFC24002030B590F800
:100E000040500124AC40C56B6C600468636043686B
:100E1000102B036803D099600068C26030BD9A60EF
:100E20000068C16030BD70472DE9F0470026894653
:100E300005464FF0010A3446DFF8DC8000F0D8FDAB
:100E400006EB460C08EBCC0191F91220802A41DA1E
:100E500091F91330802B3DDA03EB430315F833701F
:100E6000DFB105EBC3035B78BBB902EB420315F8B6
:100E700033207AB308F83CA00F8A05EBC3037F1C2C
:100E80000F82C1E9020483F803A091F91220802A9D
:100E900020DA91F91320802A1CDA91F9122002EB52
:100EA000420215F83230ABB105EBC20252788AB972
:100EB00091F9132002EB420215F8323053B181F858
:100EC00001A00F8A05EBC2027F1E0F82C1E9020456
:100ED00082F803A0D1E90237B9F81A20C01A64EBEE
:100EE0000703101A74EB030010D24C7008F83C4052
:100EF00091F9120000EB400005EBC000C47091F9BD
:100F0000130000EB400005EBC000C470761C402EBF
:100F100094DBBDE8F087000018110020F0B5002731
:100F20007C1E2546174E3A46294600BF02EB420377
:100F300006EBC303521C9974D974402AF6DB0023D4
:100F4000C11891F82C11162917D1A34215DD0022E2
:100F5000811891F82C1117290CD1AA420ADD07EB50
:100F6000470106EBC1015CB28C7455B27F1CCD7495
:100F7000FFB202E0521C802AEADB5B1C802BDFDB25
:100F8000F0BD00001811002004490020087072B65E
:100F900003494868096881F3088800470000002079
:100FA00000D0000806490020C8610648016941F0E8
:100FB00004010161016941F04001016170470000D5
:100FC0000027002000200240064A0021D161064986
:100FD0000A6942F002020A614861086940F0400073
:100FE000086170470027002000200240044B0022C7
:100FF000DA61044A136943F0010313610180704709
:10100000002700200020024014480022C168CB06BF
:10101000134904D5CA6942F00202CA611022C368AA
:101020005B0705D5CB6943F00103CB6142F00402B5
:10103000C369DB0707D0CB6943F00403CB61C16907
:1010400021F00101C161A2F58071013901D0C260B6
:101050007047C16921F00101C16170470020024061
:101060000027002070B5054600F0C2FC0646114C72
:1010700009E0681C07D025B100F0BAFC801BA8422B
:1010800001D9032070BDE068C007F2D1E068800696
:1010900001D52020E060E068C00605D4E069C00703
:1010A00002D1E068400703D5FFF7AEFF012070BD15
:1010B000002070BD0020024030B5012A1BD0022A5A
:1010C0002CD0032A16D11F4B1A7842435FF013002D
:1010D00001EB400434F8024C21F810401D5C401E26
:1010E00004FB052210F0FF00F2D16420B2FBF0F007
:1010F00080B2088030BD134B0F3B1A784243042066
:1011000001EB400434F8024C21F810401D5C401EF5
:1011100004FB052210F0FF00F2D1E6E7094B0A3B81
:101120001A7842435FF0090001EB400434F8024CA6
:1011300021F810401D5C401E04FB052210F0FF004A
:10114000F2D1D2E7130200202DE9F04F05464848BE
:1011500085B0816941F010018161816901F0100160
:101160000091816941F020018161816901F02001D4
:101170000091816941F004018161816901F00401FC
:101180000091816941F00801816180694FF48058C4
:1011900000F0080001260024CDE900084FF0020A03
:1011A000DFF8D0B0CDE90264574601A9CDF810A010
:1011B000584600F031FBCDE903474FF400592E4F5C
:1011C000CDE9019601A9384600F026FB0BE0414627
:1011D000584600F004FC4946384600F000FC4FF445
:1011E000967000F055FA28880128F0D1DFF88C803D
:1011F00000274FF00309E819807F01280AD0022850
:1012000011D0032806D0042817D005281ED00628A0
:101210001CD027E008EBC701CDF810900294898814
:101220000396019119E008EBC701CDF810900294E4
:101230008988CDF80CA001910FE008EBC70102A846
:1012400089880191112180E8120206E008EBC700AD
:101250008088CDF81090CDE9010958F8370001A930
:1012600000F0DAFA7F1C1E2FC5DB05B0BDE8F08F59
:1012700000100240000C0140001001400401002059
:10128000014901607047000004010020F8B5002406
:10129000009490F824202546012A12D0012280F8DB
:1012A00024204A681F23072A0DD20668776B521E36
:1012B00002EB820293409F430B6893401F43776386
:1012C00019E00220F8BD06680D2A0AD2376BD21F3A
:1012D00002EB820293409F430B6893401F433763A6
:1012E00009E0F76A0D3A02EB820293409F430B68D4
:1012F00093401F43F7620A68072306680A2A0AD345
:10130000F7680A3A02EB420293409F438B6893408E
:101310001F43F76008E0376902EB420293409F43A6
:101320008B6893401F4337610A68102A01D0112A45
:1013300020D1124B02689A4217D193681B0219D42C
:10134000936843F4000393600968102912D10C4993
:101350000C4A0968B1FBF2F101EB8101490000E0A0
:10136000491E00910029FBD104E0816A41F020016F
:101370008162012480F824502046F8BD00240140F9
:101380007402002040420F00704770477047000011
:101390002DE9F0414FF0000704003D467ED0A06AE1
:1013A000002628B9E66284F82460204600F07EF822
:1013B0002046FEF729FFA16AC90600D420B1A06A21
:1013C00040F01000A06269E0A16A21F4885141F068
:1013D0000201A1626268E169E3680A4347EA4301E6
:1013E0000A43A1684FF48077B94209D0012907D098
:1013F0005FF00001D4F814C0BCF1010F02D00AE084
:101400003946F7E7F3B1A36A43F02003A362E36A26
:1014100043F00103E3622368D3F804C02CF4694C61
:101420004CEA010CC3F804C021688B68DFF870C077
:1014300003EA0C0313438B60A168B9420BD0012966
:1014400009D00CE0DFF85CC0A3690CEB43330B431D
:1014500043F40061DFE7218A0D05A5F580152168B9
:10146000CB6A23F470032B43CB62216889680E4B4F
:101470001940914208D1E662A16A21F0020141F0CF
:101480000101A162BDE8F081A06A20F0020040F0F5
:101490001000A062E06A40F00100E0620120F1E784
:1014A000FDF7E1FF00E0FFFFFE0E1FFF70470000A9
:1014B0002DE9F047894604463B4900683B4F0E1D25
:1014C0009046884201D0B84207D1306810F4702F9E
:1014D00003D001252846BDE8F08794F824000128B0
:1014E0000CD0012084F824002046FEF7EDFE050014
:1014F0004FF0000004D084F82400EBE70220EAE774
:10150000A16A40F60162914341F48071A1622168B1
:10151000B94218D1326812F4702F14D0A16A41F484
:101520008011A1623168490505D5A16A21F40051F5
:1015300041F48051A162A16AC9040AD5E16A21F08F
:101540000601E16206E0A26A22F48012A262496802
:10155000E9E7E06284F82400216A15488862216A7C
:101560001448C862216A1448086321686FF00200B9
:1015700008602068816841F4807181602168434679
:101580004A464C31206A00F04BF820688168C1F36C
:1015900042410729816803D041F48011816099E7B5
:1015A00041F4A001FAE700000024014000280140B6
:1015B00055020008BD020008A302000830B548B378
:1015C00008C8154914221944B1FBF2F18900C1631E
:1015D00012498163022141771A6843F6F0718A4308
:1015E000D0E900142143D0E902452C43214304698A
:1015F0002143446921438469214311431960002137
:1016000041628162C16201634163012242770177D5
:10161000084630BD012030BDF8FFFDBF000002408C
:1016200070B5044690F82000002501280CD0012058
:1016300084F8200094F821600020012E06D084F860
:1016400020000225284670BD022070BD022684F8C5
:101650002160A0632068066826F001060660204627
:10166000FFF7CCFBE06A00282068016802D041F057
:101670000E0106E021F0040101602068016841F0DC
:101680000A0101602068016841F001010160D9E7A9
:1016900070B5044600F0ACF90546601C02D0044861
:1016A0000078044400F0A4F9401BA042FAD370BDB6
:1016B000680200202DE9F047054626480F4601261E
:1016C000017E01290FD00121814601762868DFF8CB
:1016D00088804CF25034022808D0A2462046FFF7FA
:1016E000C1FCA8B131E00220BDE8F0872046FFF739
:1016F000B9FC08BB0120FFF755FC2046FFF7B2FC00
:10170000D8F81010064621F00401C8F810101CE0AB
:101710004FF0FF303860AC6811E02046FFF754FC12
:101720005046FFF79FFCD8F81010060021F0020188
:10173000C8F8101001D03C6007E004F58064D5E9DA
:10174000020100EB8120A042E7D8002189F818109F
:101750003046C9E700270020002002400348016905
:1017600041F080010161002070470000002002402C
:101770002DE9F05F07461C4888460024017E154687
:101780001E46012909D00121814601764CF2503ACA
:101790005046FFF767FC18B122E00220BDE8F09F39
:1017A000012F02D0022F00D00427D346DFF83CA03F
:1017B000220128463146FEF7B5FC81B208EB440011
:1017C000FFF714FC5846FFF74DFCDAF8102022F022
:1017D0000102CAF8102018B9641CE4B2BC42E7D375
:1017E000002289F81820D9E70027002000200240B5
:1017F000064900200A69120607D5054A4A60054ACB
:101800004A600969090600D501207047002002409E
:1018100023016745AB89EFCD2DE9F84FDFF890A1A3
:1018200000220AF1040B144601274FF00F090BF1B7
:10183000040E00BF0B6807FA04F52B40AB4274D1CD
:10184000DFF870C14E68A6EB0C0866452BD00DDCA6
:10185000032E34D005DC36B3012E19D0022E2FD141
:101860001BE0112E16D0122E2AD119E0B8F5881FD0
:1018700019D006DCB8F5803F15D0B8F5801F1FD110
:1018800011E0B8F5001F0ED0B8F5041F18D10AE01A
:10189000CA6815E0CA68121D12E0CA6808320FE073
:1018A000CA680C320CE08A682AB1012A4FF008029B
:1018B00003D0456104E0042202E0056100E000225B
:1018C000FF2B01D8064601E000F104064FEA84052B
:1018D00001D9A5F12005D6F800C009FA05F82CEACF
:1018E000080C02FA05F54CEA050CC6F800C04D6874
:1018F000ED0057D5304DAE6946F00106AE61AD69D9
:1019000024F0030605F0010500952C4D06EB050CAF
:10191000DCF80850A6074FEA167809FA08F6B5432E
:10192000274EB04202D1002610E03BE0254EB042E7
:1019300001D101260AE0244EB04201D1022605E081
:10194000224EB04201D1032600E0042606FA08F632
:101950002E43CCF808604D68DAF80060ED03554678
:1019600001D51E4300E09E432E604D68DBF8006009
:10197000AD035D4601D51E4300E09E432E604D68D9
:10198000DEF80060ED02754601D51E4300E09E437F
:101990002E604D68AD020E4D2E6801D51E4300E04D
:1019A0009E432E60641C102CFFF444AFBDE8F88FFA
:1019B000000401400000111000100240000001402E
:1019C00000080140000C01400010014000140140DB
:1019D0000C0401408068084000D001207047C268B4
:1019E0004A40C26070470AB1016170470904FBE7D1
:1019F0000148806870470000680200200248816842
:101A0000027811448160704768020020074810B5D1
:101A1000016841F010010160032000F09DF80020F2
:101A200000F006F800F024F8002010BD002002406D
:101A300070B50D4D04464FF47A712878B1FBF0F083
:101A40000A490968B1FBF0F000F0DDFD48B9102C3F
:101A500007D200222146501E00F05EF800206C6084
:101A600070BD012070BD00006802002074020020DB
:101A7000214808B5816941F001018161816901F066
:101A800001010091C16941F08051C161C06900F05C
:101A900080500090032000F05FF8002211466FF0A4
:101AA0000B0000F039F8002211466FF00A0000F038
:101AB00033F8002211466FF0090000F02DF80022E3
:101AC0001146501F00F028F800221146101F00F0A8
:101AD00023F800221146901E00F01EF80022114645
:101AE000501E00F019F80548416821F0E06141F00E
:101AF0000071416008BD000000100240000001407C
:101B000000F01F02012191404009800000F1E02017
:101B1000C0F8001170470000F0B40E4B1B680C4673
:101B2000C3F30223C3F10705042D00D90425191DB1
:101B3000072901D2002300E0DB1E012606FA05F189
:101B4000491E214099409E40761E16403143F0BC0C
:101B500000F0AEBD0CED00E0064900F00702086899
:101B60004FF6FF03184040EA0220034A1043086082
:101B7000704700000CED00E00000FA05BFF34F8F46
:101B800005480168054A01F4E06111430160BFF3B3
:101B90004F8F00BFFDE700000CED00E00400FA05E8
:101BA00010B50C0605D501F07F0100EB411028307F
:101BB00003E000EB411000F50A7099B232B1012246
:101BC0008272C180190C0181002010BD0022827236
:101BD0008180F9E7704700EB4112D0F85C04D26BCA
:101BE00001F063BA00EB4112D0F85C04D2F83C2259
:101BF00001F0B0BA10B504460A460B0601F07F00AA
:101C000004EB401101D5283101E001F50A7108709B
:101C1000D009487094F82804012809D0012084F8DC
:101C20002804206801F08CFE002084F8280410BDF0
:101C3000022010BD70B50A460446090602F07F0076
:101C400003D504EB4011283103E004EB421101F508
:101C50000A7100258D700870D009487094F8280426
:101C6000012809D0012084F82804206801F016FF1B
:101C700084F82854002070BD022070BD70B5044661
:101C80000D460E0601F07F0004EB401101D528310E
:101C900001E001F50A710870E80948700A61CB702B
:101CA00094F82804012809D0012084F82804206829
:101CB00001F016FD002084F8280470BD022070BDDC
:101CC00070B50C4601F07F0500EB4511C1E98F238B
:101CD0000022C1F8442281F8292281F8285201F516
:101CE0000A716206006801F033FF002070BD70B514
:101CF0000D460446090605F07F0003D504EB4011AC
:101D0000283103E004EB451101F50A7101228A70C4
:101D10000870E809487094F82804012807D084F86E
:101D20002824206801F0EFFE680602D006E00220B9
:101D300070BD04F22C41206801F0AEFE002084F852
:101D4000280470BD70B50C4601F07F0500EB45110D
:101D5000C1E90F2300224A64012281F8292001F8F9
:101D6000285F6206006801F0F3FE002070BD10B528
:101D70000446006801F0CEFF000402D5204600F0C2
:101D8000A7FC206801F0C6FF40050CD5206830F89C
:101D9000441F21F480610180204600F0EDF800210D
:101DA000204600F0FEF8206801F0B4FF400405D59D
:101DB000206830F8441F21F480410180206801F040
:101DC000A9FF800405D5206830F8441F21F4005194
:101DD0000180206801F09EFFC00414D5206830F80F
:101DE000401F21F004010180206830F8401F21F0DD
:101DF00008010180204600F0CCF8206830F8441F2C
:101E000021F480510180206801F084FF00051AD57B
:101E1000206830F8401F41F008010180206830F848
:101E2000441F21F400610180206830F8401F41F018
:101E300004010180206801F06DFFC043C00402D599
:101E4000204600F0E3F8206801F064FF800508D523
:101E5000206830F8441F21F400710180204600F012
:101E60009CF8206801F056FFC00505D5206830F8C1
:101E7000441F21F48071018010BD00002DE9F04164
:101E800086B004004FF0000504D094F82904002621
:101E900020B108E0012006B0BDE8F08184F8286494
:101EA000204600F04BF8032084F82904206801F054
:101EB000ECFD04F11001142288466846FEF742F951
:101EC00094E80F0001F03AFD0021206801F035FF91
:101ED0005FF0010704EB451080F8297000F8285FD7
:101EE0008581C670066146616D1C86610F2DF1D338
:101EF0005FF0000004EB401181F8296281F82802AC
:101F0000888681F82B62C1F83862C1F83C62401CB7
:101F1000C1F840620F28EDD3142241466846FEF70F
:101F200011F994E80F0001F0A1FD84F8246084F811
:101F30002974206801F098FD0020ACE708B500681E
:101F40000B49884212D10B48C16941F40001C161BB
:101F5000C069002200F40000009011461420FFF731
:101F6000DBFDBDE808401420FFF7CABD08BD000036
:101F7000005C00400010024010B504460121D0F87A
:101F80005C0401F0C7F9D4F85C04BDE8104001F02E
:101F900090B9D0F85C0401F0ABB9D0F85C0401F062
:101FA000ADB910B5044690F8280401280BD00120E3
:101FB00084F8280484F82410206801F0C0FE002072
:101FC00084F8280410BD022010BDD0F85C2400F273
:101FD0002C41104601F0B1B910B5044690F8280420
:101FE000012810D0012084F8280401462046FFF77C
:101FF000F1FD206801F036FD206801F07EFE002032
:1020000084F8280410BD022010BD000010B504465D
:10201000D0F85C0401F0DEF9A069002804D0034880
:10202000016841F00601016010BD000010ED00E004
:102030002DE9F84305460078354CC00754D0E069D7
:102040000026C00008D4E06940F08050E061E069FB
:10205000012600F0805000902E480168C90512D476
:102060000168804641F480710160FFF7C1FC0746BA
:1020700005E000BFFFF7BCFCC01B642823D8D8F8DC
:102080000000C005F6D5206A10F4407021D0A98860
:1020900001F4407181421CD0206A1F49012220F4C2
:1020A00040700A6000220A602062C00711D0FFF76A
:1020B0009FFC074641F2883808E000BFFFF798FC14
:1020C000C11B414502D90320BDE8F883206A80077F
:1020D000F4D5206A696820F44070084320621EB17C
:1020E000E06920F08050E0612878800705D56068BD
:1020F000A96820F44040084360602878C00605D5F0
:102100006068E96820F48000084360600020DBE735
:102110000010024000700040400442422DE9F047A8
:10212000DFF83C8105460E46D8F8000000F00700B5
:10213000B0420CD2D8F8001021F007013143C8F8A2
:102140000010D8F8000000F00700B04263D12878F2
:10215000444C800705D56068A96820F0F00008436A
:1021600060602878C00745D06868012816D02168CB
:10217000022816D0890700294DDA616821F0030191
:1021800001436160FFF734FC6968074641F288301B
:1021900001290FD00229814619D027E0216889033F
:1021A000E9E78901E7E700BFFFF722FCC11B4945CA
:1021B00001D918E081466068C0F381000128F3D19D
:1021C00018E000BFFFF714FCC11B49450BD860683D
:1021D000C0F381000228F5D10CE000BFFFF708FC36
:1021E000C11B494502D90320BDE8F087606810F0A3
:1021F0000C0FF3D1D8F80010404601F00701B142AE
:102200000BD9016821F0070131430160006800F03B
:102210000700B04201D00120E6E72878400705D545
:102220006068E96820F4E06008436060287800078F
:1022300006D56068296920F4605040EAC1006060FA
:1022400000F01CF86168084AC1F30311515CC840F2
:10225000064908600020FFF7EBFB0020C4E7000000
:102260000020024000100240624200087402002078
:1022700001480068704700007402002012A185B078
:102280000FC98DE80F0014A0144A0068049051682B
:10229000134801F00C03042B10D0082B0ED1C1F30E
:1022A0008343C9031DF803000AD5516804AAC1F38A
:1022B0004041515C0A4A5043B0FBF1F005B0704711
:1022C00008494843FAE70000020304050607080925
:1022D0000A0B0C0D0E0F101001020000001002403E
:1022E00000127A0000093D002DE9F84F04460078FD
:1022F000B94DC00748D06868C0F38100012807D0F5
:102300006868C0F38100022809D16868C00306D557
:102310002868800338D5606800286FD034E0606892
:10232000B0F5803F0BD010B1B0F5A02F11D02868C8
:1023300020F480302860286820F4802002E028689B
:1023400040F480302860606888B1FFF751FB064692
:1023500009E0286840F480202860F0E7FFF748FB98
:10236000801B642875D828688003F7D50CE0FFF738
:102370003FFB064605E000BFFFF73AFB801B6428E1
:10238000F0D828688003F7D42078944E80074FF067
:1023900001094FF000083BD5686810F00C0F07D01A
:1023A0006868C0F38100022809D16868C00306D4B8
:1023B0002868800714D5206901281FD110E0206902
:1023C000B0B1C6F80090FFF713FB074605E000BF69
:1023D000FFF70EFBC01B0228C4D828688007F7D57A
:1023E0002868616920F0F80040EAC10028600FE029
:1023F000C6F80080FFF7FCFA074606E0E9E000BFF8
:10240000FFF7F6FAC01B022823D828688007F7D404
:10241000207800072CD57248A169D9B1C0F8009086
:10242000FFF7E6FA074604E0FFF7E2FAC01B0228CE
:102430000FD8686A8007F7D56A484FF4FA510068E8
:10244000B0FBF1F0009000BF0098411E0091FAD25D
:102450000EE080E0C0F80080FFF7CAFA074604E00B
:10246000FFF7C6FAC01B022875D8686A8007F7D440
:102470002078400760D5E8690027C00008D4E869E3
:1024800040F08050E861E869012700F0805000903A
:1024900055480168C90513D40168834641F4807129
:1024A0000160FFF7A5FA824606E000BFFFF7A0FA39
:1024B000A0EB0A0064284ED8DBF80000C005F5D573
:1024C000E06801280AD008B1052813D0286A20F056
:1024D00001002862286A20F0040002E0286A40F027
:1024E00001002862E06841F2883B98B1FFF780FA6A
:1024F00082460BE0286A40F004002862EEE700BF45
:10250000FFF776FAA0EB0A0159455AD8286A8007E6
:10251000F6D50CE0FFF76CFA824605E0FFF768FAA3
:10252000A0EB0A0159454CD8286A8007F6D41FB1A0
:10253000E86920F08050E861E06988B36968C1F318
:102540008101022945D00228C6F8608004D0FFF737
:102550004FFA044638E034E0FFF74AFA074604E051
:10256000FFF746FAC01B02282BD828688001F7D451
:10257000206AB0F5803F05D16868A16820F400307A
:1025800008436860D4E908010843696821F47411BC
:1025900008436860C6F86090FFF72AFA044606E030
:1025A00015E000BFFFF724FA001B022809D82868AD
:1025B0008001F7D50BE000BFFFF71AFA001B0228D5
:1025C00002D90320BDE8F88F28688001F4D40020E8
:1025D000F8E70120F6E70000001002400000424248
:1025E0008004424274020020007000404FF0E0215D
:1025F0000428086903D020F004000861704740F007
:102600000400FAE7704710B5401EB0F1807F01D397
:10261000012010BD4FF0E02460610F21601700F031
:1026200047F80020A06107202061002010BD10B5F0
:10263000FFF7E8FF10BDFEE710B500220849094882
:1026400000F0FEFC0849074800F0F1FE0749054884
:1026500000F026FBBDE81040024800F035BF000046
:1026600034000020D40500207C020020F00000206F
:1026700070B50D4D00204AF20104002103460A46C0
:1026800081EA0306F60702D084EA510100E0490816
:10269000521C5B08D2B2082AF2D325F81010401C55
:1026A00080B2FF28E9D970BDFC240020FEE7704706
:1026B0000907090E002806DA00F00F0000F1E020FB
:1026C00080F8141D704700F1E02080F80014704776
:1026D0002DE9FC5F4FF000080446ADF80480ADF82A
:1026E000008048F60F7B4FF002094FF4806692E1BC
:1026F000BDF8041011F00F072BD030F82710ADF8FB
:102700000010BDF80010090478D530F8272040F6F5
:102710008F710A4020F8272004EB471595F8320204
:1027200005F50A750028206869D0297830F821203D
:1027300052047DD5B0F8503009EBC101194406EBC5
:102740004101415AC1F309015FEA010A71D0EA88E7
:10275000D0E0BDF80410C9062AD4018801EA0B01B3
:102760000180206804F12805B0F850202B7809EB8F
:10277000C301114406EB4101405AC0F309006064F3
:10278000E16B0844E06300212046FFF724FA94F847
:1027900024000028ABD0A8690028A8D194F8240010
:1027A000216840F08000A1F84C0084F8248032E1D8
:1027B000018804F50A75ADF80010BDF80010090590
:1027C0001ED5B0F850302978062202EBC101194419
:1027D00006EB4101405A04F22C41C0F30903EB61BE
:1027E000AA88206801F09AFA2068018840F68F7262
:1027F000114001802046FFF7E8FB0CE1A0E055E026
:10280000BDF800100904D2D5028840F68F710A4045
:1028100002802068B0F850302978062202EBC1010E
:10282000194406EB4101405A83059B0DEB6101E021
:1028300051E063E008D0AA886969206801F06EFA67
:10284000E96968690844686100212046FFF7CAF910
:102850002068B0F85010891D06EB41010144286939
:102860003E280CD9C0F34F12C00601D1521E92B2BD
:102870004FF6FF7000EA822040F4004009E0C0F308
:102880004F02C00701D0521C92B24FF6FF7000EA0F
:1028900082200860216808884BF68F72104080F40F
:1028A000405048F2800210430880B4E0B0F8502055
:1028B0002B78062101EBC301114406EB4101415A7B
:1028C000C1F309015FEA010A24D0AA885346696965
:1028D00001F024FA1EE0B0F85020062303EBC101FA
:1028E000114406EB4101415AC1F309015FEA010AB3
:1028F00004D02A895346696901F010FA29782068C2
:1029000030F8213048F68F72134048F2C00213436A
:1029100020F82130E96901EB0A00E861696901EBFF
:102920000A026A61AB6913B12869504504D9297854
:102930002046FFF757F903E029782046FFF7C0F952
:10294000BDF80000000666D5206804EB471530F896
:10295000271001EA0B0120F8271095F832002835DE
:102960000028206812D0297830F82120B0F85030A3
:1029700052061ED509EBC101194406EB4101405A2C
:1029800083059B0DEB6124D0EA881EE0B0F850303F
:102990002A7809EBC201194406EB4101405A83052C
:1029A0009B0DEB6121D0AA886969206801F0CDF9FF
:1029B0001BE0062202EBC101194406EB4101405A1B
:1029C00083059B0DEB6104D02A896969206801F0B9
:1029D000BCF92978206830F8212048F68F731A4016
:1029E0004CF280031A4320F821202068B0F85020D0
:1029F0002B7809EBC301114406EB4101405AC0F3A7
:102A00000900E86169690A186A612978AB6920469A
:102A100063B1FFF797F92068B0F84410ADF80410DF
:102A200009043FF565AE0020BDE8FC9FFFF7D3F831
:102A3000F1E70000002803D00249D1F8011001603D
:102A400070470000F40100207047704770B55B1EAE
:102A500092FBF3F5B1FBF5F3DCB2092C00D10824AD
:102A600004FB05F3661C6E43B5B20619C82496F93B
:102A7000090096F90A60504390FBF4F0564396FB28
:102A8000F4F49BB200EB520004EB520299420AD3D9
:102A9000A94201D92B4606E0C91A121A5143EA1A73
:102AA000B1FBF2F10B1898B270BD000010B50648EA
:102AB000FDF760FF0448FDF7FBFCFEF79FFFBDE854
:102AC0001040FFF7B4BD0000FC02002030B593B009
:102AD00001210804CDE9001000240294022504918C
:102AE000CDE907504FF4E01009906846FFF7FCFB72
:102AF00018B1492118A001F03CF90F20CDE90A05D1
:102B00004FF48060CDE90C4002210AA80E94FFF733
:102B100005FB18B1572110A001F02BF910200F90E0
:102B200012940FA8FFF784FA18B15E210AA001F0F1
:102B300020F9FFF79DFB4FF47A71B0FBF1F0FFF73E
:102B400062FD0420FFF752FD00221146501EFEF7E1
:102B5000E3FF13B030BD00002E2E5C5372635C7037
:102B600065726970686572792E6300000D480168AE
:102B700041F00101016041680B4A11404160016868
:102B80000A4A11400160016821F480210160416816
:102B900021F4FE0141604FF41F0181600449C0032C
:102BA00008607047001002400000FFF8FFFFF6FECB
:102BB00008ED00E0D0F81802002180F85010084617
:102BC000704770B50546D0F81842D5F81C226178D8
:102BD000D26820789047402322460121284600F001
:102BE00058FB002070BD10B50446812100F04DFA5D
:102BF0000121204600F049FAD4F8180250B1D4F867
:102C00001C0204F5067480688047206800F062FDAD
:102C100000202060002010BD10B5D0F81842E16CF3
:102C2000012908D1D0F81C0223786178C2681846BF
:102C300090470020E064002010BD000029210180A1
:102C400000487047B80200200A2101800048704700
:102C5000F002002070B506460025402303228121A2
:102C600000F004FB402303220121304600F0FEFA6D
:102C7000542000F031FDC6F8180278B10446002057
:102C800084F85000D6F81C02406880474023224652
:102C90000121304600F0FDFA284670BD0125FBE712
:102CA00002460220002902D00020C2F81C12704700
:102CB00010B5134690F8FC41D0F81822032C09D126
:102CC00092F8504034B9012482F850400A468121DC
:102CD00000F089FB002010BD70B500220D78D0F8FF
:102CE0001832144615F0600526D0202D4CD14A78B4
:102CF000921E0A2A1CD2DFE802F010081B1B1B1BC5
:102D00001B140C05887818643EE0012203F1400191
:102D100031E04888000A586436E0012203F144019A
:102D200029E00122DA648A79194600F053F82BE091
:102D300000F045F8022070BD4D78062D04D00A2D14
:102D40001CD00B2D20D11DE04B882225B5EB132F75
:102D500007D1CA88A02A00D9A022D0F81C120C687A
:102D600008E02125B5EB132F04D1CA88074C092AA6
:102D700000D90922214600F047F805E0012203F1BD
:102D80004801F8E788789864002070BDE4020020CC
:102D900010B5D0F8142252689047002010BD134699
:102DA00010B50A46002100F074FA002010BD134649
:102DB00010B50A46002100F016FB002010BD10B52A
:102DC0000446802100F0E6FA2046BDE810400021CC
:102DD00000F0E0BA10B50323C0F80821C0F8F431C0
:102DE000C0F80C2113460A46002100F052FA0020D8
:102DF00010BD10B505210023C0F8F4111A4619467C
:102E000000F047FA002010BD10B502238261C0F81F
:102E1000F431C26113460A46002100F0E4FA0020B2
:102E200010BD10B504210023C0F8F4111A4619464C
:102E300000F0D9FA002010BD10B50A46024903A0DF
:102E400000F0DBF8004810BDB00C0020437573742F
:102E50006F6D2048494420436F6E6669670000002B
:102E600012200880004870472000002010B50A4654
:102E7000024903A000F0C1F8004810BDB00C0020CA
:102E8000437573746F6D2048494420496E746572B0
:102E900066616365000000000420088000487047F8
:102EA0000800002010B50A46024903A000F0A5F86A
:102EB000004810BDB00C002053544D6963726F651B
:102EC0006C656374726F6E696373000010B50A46B7
:102ED0000249034800F091F8004810BDB00C0020F2
:102EE0000C00002010B50A46024903A000F085F846
:102EF000004810BDB00C0020303030303030303061
:102F00003030314100000000F8B5044648880D46D5
:102F1000010A082954D2DFE801F05304091753537A
:102F20004951D4F81012207C0A6819E0207C02264E
:102F30000028D4F8140205D0C16A684688470146C3
:102F400046704AE0816AF8E7C1B2062926D2DFE876
:102F500001F0030A0F14191ED4F81012207C4A68DD
:102F60006946904718E0D4F81012207C8A68F7E789
:102F7000D4F81012207CCA68F2E7D4F81012207C32
:102F80000A69EDE7D4F81012207C4A69E8E7D4F822
:102F90001012207C8A69E3E701461EE0C1B2D4F832
:102FA00014026A46836B20469847F5E7207C38B9BF
:102FB000D4F81402416B68468847EDE7207C20B1C5
:102FC00029462046FFF7FBFEF8BDD4F81402016B3A
:102FD00068468847014607204870BDF80000002871
:102FE000F2D0EA88002AEFD0824200D90246ADF83A
:102FF00000202046FFF708FFF8BD70B50023002829
:103000001DD00446002502E06D1CEDB2641C26783C
:10301000002EF9D1022404EB45041480CC545B1C2F
:103020000322CA5400245B1C06E0CA545B1CDAB2BB
:103030008C54521CD3B2401C0278002AF5D170BDCA
:1030400010B580B1D0F8143213B10023C0F8143297
:1030500009B1C0F81012012180F8FC11027000F0D3
:10306000AFF8002010BD022010BD10B50024D0F82C
:103070002002FEF7DFFD30B1012801D0022801D087
:10308000022400E00124204610BD10B50024D0F831
:103090002002FEF7AFFD30B1012801D0022801D097
:1030A000022400E00124204610BD2DE9F04117461E
:1030B000044641B1D4F8140242698AB394F8FC0181
:1030C000032842D043E0D4F8F411002504F11400A1
:1030D000022933D1D0E902639E4207D9F31A8360F3
:1030E0009AB239462046FFF762FE12E04068B0FB14
:1030F000F3F103FB1101A1B9984212D3D4F8F811EE
:1031000088420ED2002211462046FFF750FEC4F836
:10311000F85100231A461946204600F0BAF80DE08F
:1031200012E0D4F81402C16829B194F8FC01032814
:1031300001D1204688472046FFF75BFE94F8000245
:10314000012804D184F8005201E020469047002075
:10315000BDE8F08170B51546044641B1D4F81402BB
:1031600082693AB394F8FC01032824D025E0D4F80E
:10317000F41104F5827003291FD1D0E902218A429B
:103180000BD9531A83600846834200D303469AB290
:1031900029462046FFF703FE0FE0D4F81402016928
:1031A00029B194F8FC01032801D120468847204624
:1031B000FFF737FE01E020469047002070BD000079
:1031C00010B51C490446C1F85C04C0F820121A4826
:1031D000086008204860022088600320C860002042
:1031E0008861C86108620846FEF748FE20B14FF4C6
:1031F000977112A000F0BDFD0022D4F82002182320
:10320000114604F50874FEF7CBFC582300228021F8
:103210002068FEF7C5FC9823002281212068FEF774
:10322000BFFCD823002201212068FEF7B9FC002052
:1032300010BD000050080020005C00402E2E2F53CF
:1032400072632F757362645F636F6E662E63000036
:103250000A06D0F8200201F07F0100EB411002D5F0
:1032600090F82A00704790F82A02704770B51D4602
:1032700013460024D0F820022A46FEF7FFFC30B1A6
:10328000012801D0022801D0022400E001242046B8
:1032900070BD10B50024D0F82002FEF711FD30B14A
:1032A000012801D0022801D0022400E00124204698
:1032B00010BD70B50022044640231146FFF7D6FF2B
:1032C00040252B46002280212046C4F81051FFF7EC
:1032D000CDFF0120256284F8FC01D4F8180228B142
:1032E000D4F814022179426820469047002070BD2E
:1032F00090F8FD1180F8FC110020704710B590F88F
:10330000FC11032904D1D0F81412C96901B188470E
:10331000002010BD01740020704710B50024D0F8C3
:103320002002FEF73EFE30B1012801D0022801D074
:10333000022400E00124204610BD70B5044600F5CB
:103340000270054600F05FF80120C4F8F401B4F8FB
:103350000E02C4F8F80194F8080210F01F010AD018
:1033600001290DD0022910D000F08001204600F084
:1033700011F8002070BD2946204600F0AAF8F8E7B1
:103380002946204600F08CF9F3E72946204600F054
:1033900019F9EEE710B50024D0F82002FEF7A7FCDB
:1033A00030B1012801D0022801D0022400E001241C
:1033B000204610BD10B50024D0F82002FEF70CFE08
:1033C00030B1012801D0022801D0022400E00124FC
:1033D000204610BD90F8FC1180F8FD11042180F802
:1033E000FC110020704710B50024D0F82002FEF731
:1033F000A9FC30B1012801D0022801D0022400E04C
:103400000124204610BD0A7802704A7842708A78FA
:10341000CB7802EB032242800A794B7902EB03223C
:1034200082808A79C97902EB0121C1807047024606
:10343000002011B1C2F8141270470220704710B575
:10344000D0F8142202241AB11268904700B900245F
:10345000204610BD70B50E461A4D89780446297075
:10346000012928D894F8FC01022802D0032822D18F
:1034700005E099B10320616084F8FC0109E091B195
:10348000606888420AD0C1B22046FFF781FC2978E3
:1034900061602046FFF7D3FF02280CD02046BDE82C
:1034A0007040FFF7BEBC022084F8FC01204661603A
:1034B000FFF76EFCF2E731462046BDE87040FFF7AB
:1034C0007EBC00007802002010B5FFF773FF0020DB
:1034D00010BD2DE9F04100264B78012532460A2B1C
:1034E00043D2DFE803F03C584251420805422A2704
:1034F000FFF70AFD63E004468888C8B9C888B8B9F0
:10350000887800F07F0794F8FC01032810D084F835
:10351000FE7139462046FFF700FF2046FFF781FC89
:103520001FB1022084F8FC0149E084F8FC5146E018
:1035300020461AE0FFF78EFF41E0CB88012B14D123
:1035400090F8FC31022B02D0032B0ED104E08260F4
:10355000012200F1080114E00122011D11E090F8A0
:10356000FC21022A04D0032A02D0FFF728FC26E01F
:10357000C560D0F8041209B10321C160022200F134
:103580000C01FFF741FC1AE004464888012816D1D7
:10359000C4F804520BE0044690F8FC01022801D064
:1035A0000328C5D14888012809D1C4F80422D4F8D9
:1035B00014028268204690472046FFF732FC3046CE
:1035C000BDE8F08170B50D460446287800260979DB
:1035D000C0F34110012806D06878A0B301281FD09D
:1035E00003283FD107E0D4F8140229468268204618
:1035F0009047002070BD94F8FC01022817D00328E2
:103600002CD1688828B921B1802902D02046FFF743
:10361000C1FED4F81402294682682046904713E080
:1036200094F8FC01022802D0032817D103E0C9B1A5
:1036300080291BD116E06888A0B9480604D020462E
:10364000FFF713FDE5E703E02046FFF7EAFB09E09B
:1036500094F8FC01022807D003280BD02946204605
:10366000FFF7ADFB304670BD4806FBD02046FFF7A4
:1036700091FEF7E7080601F07F0004EB001501D585
:10368000143501E005F582752046FFF7E1FD00B134
:1036900001202860022229462046FFF7B5FBE1E71A
:1036A00070B5054690F8FC010C4603280DD1207931
:1036B00001280AD8D5F81402826828469047E08885
:1036C00030B92846FFF7ADFB02E02846FFF777FB4D
:1036D000002070BD7047000000487047F8070020C8
:1036E0002DE9F047CC780A7848F68F1334B1012CD5
:1036F0006DD0022C08D0032C13D10BE030F82240FF
:103700001C4044F400730AE030F822401C4020F8CA
:10371000224006E030F822401C4044F4C06320F808
:1037200022300C7830F8245048F68F72154048F259
:1037300080031D43254320F824508D7A48F6BF7935
:1037400004274BF68F7A48F2C0044CF28006EDB3A2
:103750000D7830F825C048F280180CEA020C4CEACB
:10376000080C20F825C0CD88B0F850C025F0010520
:1037700091F800800CEBC80C00EB4C0CCCF800541A
:103780000D89B0F850C025F0010591F8008007EBD5
:10379000C807674400EB4707C7F800544D78002D71
:1037A0000D7830F825704FEA47477DD0002F05DAB5
:1037B00030F825701740374320F825700D7830F821
:1037C00025707F0608D530F8257001E024E01DE063
:1037D0001740274320F825700C7830F82450154006
:1037E000354320F824500C7830F8242002EA0902EE
:1037F0001A4320F824200A7830F8221001EA0A013E
:10380000194320F822100020BDE8F08730F822404C
:103810001C4044F4806382E74D78F5B18D88B0F8A0
:10382000506025F001050F7806EBC70600EB460651
:10383000C6F800540D7830F82560760605D530F8C6
:1038400025601640264320F825600A7830F82210BB
:1038500001EA090181F02001D2E78C88B0F85050CC
:1038600024F0010491F800C007EBCC073D4400EBC5
:103870004505C5F80044B0F850400D78062707EB21
:10388000C5052C4400EB44070C694FF6FF7C07F597
:1038900080673E2C0CD9C4F34F15E40601D16D1E90
:1038A000ADB20CEA852400E01EE044F4004407E0D9
:1038B000C4F34F05E40701D06D1CADB20CEA8524BA
:1038C0003C600C7830F824506D0405D530F8245055
:1038D0001540354320F824500A7830F8221001EAC8
:1038E0000A0181F440518BE7002F05DA30F825708A
:1038F0001740374320F825700D7830F8256076069C
:1039000005D530F825601640264320F825600E784E
:1039100030F826501540254320F826500C7830F812
:10392000242002EA0A0282F440521A4320F824209A
:103930000A7830F8221001EA090161E70020704797
:103940002DE9F04391F80A8091F801C00A7848F611
:10395000BF774BF68F7948F2800348F2C0054CF2EE
:10396000800648F68F74B8F1000F2ED0BCF1000F1E
:1039700030F822C04FEA4C4C4ED0BCF1000F07DAB1
:1039800030F822C00CEA040C4CEA060C20F822C0E5
:103990000A7830F822C05FEA4C6C07D530F822C0B4
:1039A0000CEA040C4CEA050C20F822C00A7830F826
:1039B00022502540354320F822500C7830F824203E
:1039C0003A401A4320F824201BE0BCF1000F0ED02F
:1039D00030F82260760605D530F8226026402E4366
:1039E00020F822600A7830F8221039400EE030F8D2
:1039F00022506D0405D530F822502540354320F87B
:103A000022500A7830F8221001EA0901194320F8FF
:103A100022100020BDE8F083BCF1000F07DA30F877
:103A200022C00CEA040C4CEA060C20F822C00A78EA
:103A300030F82260760605D530F8226026402E4305
:103A400020F822600E7830F8262022402A4320F801
:103A500026200C7830F8242002EA09021A4320F8C4
:103A60002420BFE7002070470020704700B50121E7
:103A7000A0F840100021A0F84010A0F84410A0F8D1
:103A8000501000F03AF9002000BD30F8401F21F43A
:103A90003D410180002070470020704730B54D78CF
:103AA0000A78002D48F68F7430F8225048F28003CF
:103AB00012D06D0607D530F82250254048F2C004D8
:103AC000254320F822500A7830F8221048F6BF74B7
:103AD000214081F0300111E06D0407D530F822500B
:103AE00025404CF28004254320F822500A7830F813
:103AF00022104BF68F74214081F44051194320F875
:103B00002210002030BD10B50A7848F2800352B16F
:103B10004978002930F8221010D048F6BF742140AF
:103B200081F010010FE001884BF6BF72114081F463
:103B3000805181F010011943018007E04BF68F742A
:103B4000214081F48051194320F82210002010BD3B
:103B50002DE9F0410D460646896995F801C000231C
:103B6000AA7A022728690C4648F28008BCF1010FA6
:103B700005D0814252D90446081AA8614FE081421B
:103B800003D90446081AA86100E0AB617AB128782D
:103B900036F820104906B6F8501007EBC00008446C
:103BA00006EB4000C0F8004412D52A8911E0A3B208
:103BB000AA883046696900F0C8F8B6F8500029783C
:103BC00007EBC101084406EB4000C0F800441CE0CC
:103BD000EA88A3B23046696900F0B7F8687848F619
:103BE0008F7110B1012807D00FE0287836F8202017
:103BF0000A4048F2C00105E0287836F820200A4043
:103C00004CF280010A4326F82020297836F821005A
:103C100048F6BF72104080F0300067E0AB610623C9
:103C20004FF6FF701AB1BCF1000F1BD056E0B6F88A
:103C300050102A783E2C03EBC202114406EB4102DD
:103C400002F5806239D9C4F34F11E30632D000BFC8
:103C500000EA812040F4004002E000BF00EA812039
:103C600010603BE0B6F850102A783E2C07EBC202F9
:103C7000114406EB410202F580620BD9C4F34F11E7
:103C80005FEAC46C01D1491E89B200EA812141F486
:103C9000004108E0C4F34F015FEAC47C01D0491C35
:103CA00089B200EA8121116069780029BFD0012919
:103CB0000AD013E0491E89B2CAE7C4F34F01E307F3
:103CC000CCD0491C89B2C9E7B6F85000297807EB77
:103CD000C101084406EB4000C0F80044297836F8DA
:103CE00021004BF68F72104080F4405040EA0800EB
:103CF00026F821000020BDE8F08130F8401F41F493
:103D00003F410180002070470148FEF730B80000B5
:103D100050080020B0F84400704700005B1C00EB26
:103D200042005B0800F5806006D000BF30F8042B2D
:103D300021F8022B5B1EF9D170470020704711B9A2
:103D40008021A0F84C100020704710B55B1C00EBE0
:103D500042005B0800F5806009D011F8012B5B1E62
:103D600011F8014B42EA042220F8042BF5D110BDD2
:103D7000FEE7FEE702E008C8121F08C1002AFAD1D8
:103D800070477047002001E001C1121F002AFBD1DB
:103D90007047000008B50024FDF738FEFEF796FED8
:103DA0009048FCF7D3FF8F4D2888A0F57F41FF395D
:103DB00005D18D48FCF7E0FF2846FCF7C7FF142229
:103DC000A91C8A48FCF7BEF9FEF736FC8548FDF7CA
:103DD000BBF98448FCF7B0FA8248FDF79FF8DFF89A
:103DE0001092AA46834D4FF00008A9F1360B00BF90
:103DF000FDF7FEFD0646687800B1012069780A29C2
:103E000001D8012100E0002108427AD0022440219B
:103E10007748FCF7B0F9022189F800106978484624
:103E200089F80110697809297FD2DFE801F07E0561
:103E30001A2E42566B7278006D49BAF8002054462B
:103E40004A801422A11C001DFCF77CF9684854F834
:103E5000161F1E2281616168C161A0F27A212130A2
:103E600054E00027C7EB07110AEB41017F1CFFB2AA
:103E700009EB04001E223C31FCF764F91E34E4B265
:103E8000C4F140001E28EDD84FE00227C7EB071110
:103E90000AEB41017F1CFFB209EB04001E223C31FA
:103EA000FCF750F91E34E4B2C4F140001E28EDD8EE
:103EB0003BE00427C7EB07110AEB41017F1CFFB26F
:103EC00009EB04001E223C31FCF73CF91E34E4B23D
:103ED000C4F140001E28EDD827E00627C7EB0711E4
:103EE0000AEB41017F1CFFB209EB04001E223C31AA
:103EF000FCF728F91E34E4B2C4F140001E28EDD8C6
:103F000013E01BE009F102003E223B49FCF71AF9DD
:103F10000BE039493E2209F102003E31F6E7344810
:103F2000A0F58C71896AC0F80210402230493348EC
:103F3000FEF7BEFE85F8018006F57A74A8780128A0
:103F400001D9012000E00020A9780A2901D8012127
:103F500000E0002108420ED003208DF80000A87870
:103F60008DF80100022269462448FEF7A1FE85F87B
:103F7000028006F57A74A88890B104208DF80000BC
:103F8000A888000A8DF80100A8888DF80200032295
:103F900069461A48FEF78CFEA5F8048006F57A7487
:103FA000BAF81C00311B814209DD01208BF80100A9
:103FB000344635220BF101011048FEF779FE2878CE
:103FC00008B1FCF7E1FF0BF10200FCF789FD08499D
:103FD0001039A1F11400FCF757FA05481438FEF720
:103FE00029FD05E7FC020020004000080C0000202D
:103FF000940500200000002028040020D4050020A3
:104000000100467265654A6F792076312E300000D6
:104010000000000000001E00C8001E000A00050588
:104020000505050505050101010101010101040462
:104030000403030300000000000000000000FF076D
:10404000FF0F0000009CB3C9DFF50B21374D640062
:10405000000000000000000000000000FF07FF0F4C
:104060000000009CB3C9DFF50B21374D6400000050
:1040700000000000000000000000FF07FF0F00002C
:10408000009CB3C9DFF50B21374D64000000000030
:104090000000000000000000FF07FF0F0000009C70
:1040A000B3C9DFF50B21374D6400000000000000AC
:1040B000000000000000FF07FF0F0000009CB3C9D4
:1040C000DFF50B21374D6400000000000000000008
:1040D00000000000FF07FF0F0000009CB3C9DFF5E0
:1040E0000B21374D640000000000000000000000BC
:1040F0000000FF07FF0F0000009CB3C9DFF50B2194
:10410000374D6400000000000000000000000000C7
:10411000FF07FF0F0000009CB3C9DFF50B21374DEF
:10412000640000000000000000000000000000002B
:10413000000000000000000000000000000000007F
:10414000000000000000000000000000000000006F
:10415000000000000000000000000000000000005F
:10416000000000000000000000000000000000004F
:10417000000000000000000000000000000000003F
:10418000000000000000000000000000000000002F
:10419000000000000000000000000000000000001F
:1041A000000000000000000000000000000000000F
:1041B00000000000000000000000000000000000FF
:1041C00000000000000000000000000000000000EF
:1041D00000000000000000000000000000000000DF
:1041E00000000000000000000000000000000000CF
:1041F00000000000000000000000000000000000BF
:1042000000000000000000000000000000000000AE
:10421000000000000000000000000000000000009E
:10422000000000000000000000000000000000008E
:10423000000000000000000000000000000000007E
:10424000000000000000000000000000000000006E
:10425000000000000000000000000000000000005E
:104260000000000000000000000001020304060737
:10427000080900009442000800000020FC02000031
:10428000B00100086C440008FC0200202428000053
:10429000843D000881D00C04030904467265654A18
:1042A0006F79131201320216408304192626020187
:1042B00002030113612E1B0899041AA5041ACD04E8
:1042C0001AE5041A39041A6D04101005010905A134
:1042D00001850105091901298015180925017501B4
:1042E00095808102181011300931093209330934DF
:1042F00009350936093615180C26FF0F7510950873
:104300008102093929130735280A463B01651275D0
:1043100008950113890412062CFF09012F11392F6A
:10432000114D850209020F1508953F812B090333B2
:1043300012911A85C3393D112B09051A19121C0453
:1043400009060A1A02124A071223C0501420F90A59
:104350001B08F5041AFD04511C080140D739081246
:1043600002190A19082A04F7190812083A03081250
:10437000103A040812203A050812403A0608128042
:104380003A0708111A014B29084B0209084B040A85
:104390000823800F5A0C6019083960190839581918
:1043A0000839581908395819083958190839581945
:1043B000083958290829582908295829084B080B71
:1043C000084B100C084B200D084B400E0829785A5A
:1043D00010182908291829082918F118152D1E0F59
:1043E00005051E140A0A0A0606040202190F0A0A23
:1043F00005015A02011A010191290A29045A0204ED
:1044000019C6390419C6390419C6390419C639043C
:1044100019C63904293482102BA24A2B1113552CAA
:104420001408E72B1B08D908411A19081AB5101AE5
:10443000C304C11A3D1869045A492C1409022919E8
:10444000971CC032094B2A0282150921110114015F
:1044500022A01607058103401D01070501072974E5
:0C446000791A313B0A06B72A4090000090
:04000005080000ED02
:00000001FF
