:020000040800F2
:10000000C82A0020010100081F290008A7280008AD
:100010001D2900085B050008A94200080000000037
:10002000000000000000000000000000ED2C0008AF
:10003000C90F000800000000C52C0008F12C0008C2
:100040001B0100081B0100081B0100081B01000820
:100050001B0100081B0100081B0100081B01000810
:100060001B0100081B0100081B0100081B01000800
:100070001B0100081B0100081B0100081B010008F0
:100080001B0100081B0100081B0100081B010008E0
:100090003D4200081B0100081B0100081B0100086D
:1000A0001B0100081B0100081B0100081B010008C0
:1000B0001B0100081B0100081B0100081B010008B0
:1000C0001B0100081B0100081B0100081B010008A0
:1000D0001B0100081B0100081B0100081B01000890
:1000E0001B0100081B0100081B010008DFF80CD0F1
:1000F00000F04CF80048004755430008C82A00208B
:100100000648804706480047FEE7FEE7FEE7FEE7B1
:10011000FEE7FEE7FEE7FEE7FEE7FEE7B12D00089B
:10012000ED000008202A04DB203A21FA02F0002129
:10013000704721FA02F3D040C2F1200291400843F7
:100140001946704740EA01039B0703D009E008C93C
:10015000121F08C0042AFAD203E011F8013B00F88C
:10016000013B521EF9D27047D2B201E000F8012BD8
:10017000491EFBD270470022F6E710B513460A4627
:1001800004461946FFF7F0FF204610BD064C074D08
:1001900006E0E06840F0010394E807009847103457
:1001A000AC42F6D3FFF7A6FF84480008A448000835
:1001B00070B58C1810F8015B15F0070301D110F829
:1001C000013B2A1106D110F8012B03E010F8016B56
:1001D00001F8016B5B1EF9D12B0705D40023521ED9
:1001E0000DD401F8013BFAE710F8013BCB1A921C41
:1001F00003E013F8015B01F8015B521EF9D5A1423F
:10020000D8D3002070BD70B5044620688168C9430A
:10021000C9071BD1816821F00101816001F0D4FC84
:1002200005460EE001F0D0FC401B022809D9A06A67
:1002300040F01000A062E06A40F00100E06201209E
:1002400070BD20688068C043C007EBD0002070BD3F
:1002500010B50146486A826A12F0500F05D0006A54
:10026000026BBDE8104008461047816A41F40071F6
:10027000816201688968C1F3424107290CD1C168D4
:1002800051B9816A21F480718162816AC90403D401
:10029000816A41F00101816201F032F910BD10B5AF
:1002A000406A816A41F040018162C16A41F0040103
:1002B000C16201F027F910BD10B5406A01F021F9C3
:1002C00010BD0000F8B5044600260096206881683D
:1002D000C943C9072AD0816841F0010181601448EF
:1002E00014490068B0FBF1F0009002E00098401E55
:1002F000009000980028F9D101F066FC054610E056
:1003000001F062FC401B02280BD9A06A40F01000EB
:10031000A062E06A40F00100E06284F824600120FD
:10032000F8BD20688068C043C007E9D10020F8BD4F
:100330006002002040420F002DE9FF4706460025DD
:100340004848416941F001014161416901F0010101
:100350000091816941F400718161806900F400704D
:100360000090424C404820604FF00008C4F80480E0
:10037000C4F808808020E0604FF48079C4F81090C1
:10038000C00060612020A061C001E061204601F052
:10039000D9F918B1822136A003F087FF334F303FDF
:1003A0003C62676200217018807F052801D16D1CB6
:1003B000EDB2491C1E29F6DB082D03D991212CA092
:1003C00003F073FFB5B12E483860C7F808900120DC
:1003D000F860C7F814804FF46020F861C7F8048013
:1003E0003D612248303801F08FF818B1A02120A0DB
:1003F00003F05BFF0024DFF88C903019807F052824
:100400001ED159F83400019009EBC4073879401C1B
:100410000290CDF80C80154801A9303800F0ECFFAF
:1004200018B1AE2112A003F040FF3979C1EB0110E1
:1004300006EB400090F8420010B1304600F082F820
:10044000641C1E2CD9DB09492A464431A1F17400F1
:1004500001F0E8F8002803D0BB2105A003F025FF38
:10046000BDE8FF8700100240080002400023002082
:100470002E2E5C5372635C616E616C6F672E63003D
:10048000002401401402002010B50C46002803D0BF
:1004900010220749FFF756FE002C07D004492046DA
:1004A0001022BDE810401039FFF74CBE10BD00000F
:1004B000542300202DE9FE4F06460025204FA84674
:1004C00007F1200940F6FF7A40F2FF7B37F815006C
:1004D000C5EB051106EB410494F8421099B1B4F84C
:1004E0004010814202D2A4F8400003E0A18F814273
:1004F00000D9A087B4F84000A18F08444008E18FDC
:10050000814200D0E0873C3405EB850009EBC00157
:10051000227A37F8150003F0D9FECDE901BACDF8FB
:100520000080A3886288218804F054F804491031BF
:1005300021F815006D1C082DC8DBBDE8FE8F0000FA
:1005400044230020C1EB011100EB41000022A0F880
:10055000402040F6FF7181877047FEE72DE9F047A4
:1005600006460C46FB4FFC4D387800EB400015F872
:10057000301005EBC0004170F86800EBC60150F880
:100580003600898801F00EFB50B10021387800EB6D
:10059000400005F83010A219927F022A02D005E02F
:1005A0000121F3E7E1B1002105F8301001F00CFB67
:1005B0003978E84E6718012397F82CC1761D002280
:1005C000BCF1160F28D2DFE80CF0150D4E8BC1F0F0
:1005D000EFEFEFEFEEEEEEEEEDEDEDEDECECECEC43
:1005E0000121E1E701EB410615F836704FB1002714
:1005F00005F8367001EB410705EBC7010E7916B11E
:100600000CE00127F4E715F837C091F80280C445E3
:1006100004D0C1E902020B71BDE8F087AEB115F854
:1006200037308D78AB4210D0D1E9027CE58AC71B08
:1006300062EB0C0CED1B72EB0C0506D20A71CB7051
:100640008B70087C18440874E6E7002EE4D0D1E9EA
:100650000235E48AC01A62EB0503201A72EB03002C
:10066000DAD20A71D8E701EB410605EBC6010F7932
:100670004FB915F836C091F80280C44503D9C1E9D5
:1006800002020B71C8E7D7B115F83670BFB1D1E9D6
:1006900002C8E78AB0EB0C0C62EB0808B7EB0C075A
:1006A00072EB08070BD20A718B70C87828B1002052
:1006B000C870087C401C0874AEE70120F8E715F804
:1006C0003630002BA8D1E38AD1E90245041B62EB46
:1006D00005001B1B72EB00009ED20A718A709BE71B
:1006E00001EB410605EBC6010F794FB915F836C08D
:1006F00091F80280C44503D0C1E902020B718BE777
:10070000BFB115F836508E78B54212D0D1E9027CCF
:10071000E68AB0EB070862EB0C07B6EB080672EB53
:10072000070606D20A71CB708D70087C401C0874D5
:1007300072E7238BD1E90245001B62EB0504181A0E
:1007400072EB04008ED2CA700A7165E701EB4106B4
:1007500005EBC6010F794FB915F836C091F8028044
:10076000C44503D0C1E902020B7155E7F7B115F892
:10077000367091F802C0674518D9B4F816C0D1E9AF
:100780000289B0EB080862EB0909BCEB080C72EBBC
:10079000090C0BD20A71CB708F70087C401C087456
:1007A0003AE748E1F5E09EE04BE00FE0238BD1E92A
:1007B0000247041B62EB07001B1B72EB00008ED28A
:1007C00015F836008870CA700A7125E701EB4106FA
:1007D00005EBC6010F794FB915F836C091F80280C4
:1007E000C44503D0C1E902020B7115E7CFB115F87A
:1007F000367091F802C0674513D2B4F816C0D1E93B
:100800000289B0EB080862EB0909BCEB080C72EB3B
:10081000090C06D20A71CB708F70087C401C0874DA
:10082000FAE6238BD1E90247041B62EB07001B1B8E
:1008300072EB000089D215F836008870CA700A7110
:10084000EAE601EB410805EBC80191F804C0BCF1F0
:10085000000F09D115F8389091F802A0D14503D0C6
:10086000C1E902020B71D7E6BCF1000F2CD015F8DC
:1008700038308D78AB4227D0E58AD1E90289B0EBD8
:10088000080862EB0909B5EB080572EB09051BD2F4
:100890000A71CB708B70087C1844087497F82C018F
:1008A000062805D0072807D0082809D03370B3E6FA
:1008B00042EAC3003070AFE642EA83003070ABE634
:1008C00042EA43003070A7E6BCF1000F8DD0E38A06
:1008D000D1E90254451B62EB04005B1B72EB000084
:1008E0009ED20A7198E601EB410805EBC80191F828
:1008F00004C0BCF1000F09D115F8389091F802A09E
:10090000D14503D0C1E902020B7185E6BCF1000FAD
:1009100030D015F838308D78AB422BD0E58AD1E94C
:100920000289B0EB080862EB0909B5EB080572EB28
:1009300009051FD20A71CB708B70087C18440874AB
:1009400097F82C010A2809D00B280BD00C280DD0C1
:10095000737061E6E0010020C016002042EAC30087
:10096000707059E642EA8300707055E642EA43002F
:10097000707051E6BCF1000F99D0E38AD1E90254BE
:10098000451B62EB04005B1B72EB00008FD20A7107
:1009900042E601EB410805EBC80191F804C0BCF147
:1009A000000F09D115F8389091F802A0D14503D075
:1009B000C1E902020B712FE6BCF1000F2CD015F833
:1009C00038308D78AB4227D0E58AD1E90289B0EB87
:1009D000080862EB0909B5EB080572EB09051BD2A3
:1009E0000A71CB708B70087C1844087497F82C013E
:1009F0000E2805D00F2807D0102809D0B3700BE6B9
:100A000042EAC300B07007E642EA8300B07003E632
:100A100042EA4300B070FFE5BCF1000F99D0E38AD1
:100A2000D1E90254451B62EB04005B1B72EB000032
:100A30008FD20A71F0E501EB410805EBC80191F88E
:100A400004C0BCF1000F09D115F8389091F802A04C
:100A5000D14503D0C1E902020B71DDE5BCF1000F05
:100A60002CD015F838308D78AB4227D0E58AD1E903
:100A70000289B0EB080862EB0909B5EB080572EBD7
:100A800009051BD20A71CB708B70087C184408745E
:100A900097F82C01122805D0132807D0142809D064
:100AA000F370B9E542EAC300F070B5E542EA8300AD
:100AB000F070B1E542EA4300F070ADE5BCF1000F23
:100AC0009DD0E38AD1E90245041B62EB05001B1BA4
:100AD00072EB000093D20A719EE500002DE9F04709
:100AE0000646DFF84081002788F8007008F10C0006
:100AF00000F07CFC00243019807F012801D00228FE
:100B000008D1E0B23146FFF729FD98F80000401CFB
:100B100088F80000641C1E2CEDDB00243019807F57
:100B200004282ED1D8F80C00002200EBC40150F8A4
:100B30003400898801F041F8002540F2931998F8B3
:100B40000000802803D9494637A003F0AEFB701996
:100B5000807F032808D1E8B23146FFF7FFFC98F800
:100B60000000401C88F800006D1C1E2DE7DBD8F843
:100B70000C00012200EBC40150F83400898801F018
:100B80001CF8641C1E2CC9DB31462C4800F01EFAF0
:100B90000020DFF8A8C001250CF5406698F8008019
:100BA00010E0C0F3C40200F00701B35C05FA01F4E1
:100BB000A34300EB40040CEBC404E4788C401C43DA
:100BC000B454401C4045ECDB0020164A521D111F56
:100BD000135C0D2B1ED2DFE803F01D070A0D101D5C
:100BE000131D16181D1D1B0006230B5414E00423AF
:100BF0000B5411E005230B540EE002230B540BE0C1
:100C000003230B5408E00F5406E007230B5403E0C2
:100C10000D5401E0FF230B54401C0428D8DBBDE831
:100C2000F0870000E00100202E2E5C5372635C62AE
:100C30007574746F6E732E6300000000C016002080
:100C4000002803D010220249FFF77CBA7047000049
:100C5000C022002000207047002070472DE9F04797
:100C600086B002249748D0F818522878022805D078
:100C70001822032806D0042803D198E09249687806
:100C800008701AE16878914F092818D2DFE800F05F
:100C90007F05182E43586D737A00291D1422B81C45
:100CA000FFF750FAA869C7F81600E869C7F81A00F4
:100CB00086481E2205F121011E30FFF743FA66E047
:100CC00000260EE03146C1EB01102B19761C07EB14
:100CD0004000F6B23C301E221946FFF733FA1E34AC
:100CE000E4B2C4F140001E28ECD850E002260DE02A
:100CF0003046C0EB0010761C07EB40002919F6B215
:100D00003C301E22FFF71EFA1E34E4B2C4F140004C
:100D10001E28EDD83BE004260DE03046C0EB001065
:100D2000761C07EB40002919F6B23C301E22FFF773
:100D300009FA1E34E4B2C4F140001E28EDD826E0C2
:100D400006260DE03046C0EB0010761C07EB400095
:100D50002919F6B23C301E22FFF7F4F91E34E4B232
:100D6000C4F140001E28EDD811E0A91C3E225848CD
:100D7000FFF7E8F90BE05648A91C3E223E30FFF78A
:100D8000E1F904E05248D5F80210543081626878E5
:100D90000A2803D24F49401C08708EE04E48008854
:100DA00038804A4800F0B8F800F0D6FF85E000210E
:100DB0000191A8786B7840EA0326DFF82081DFF8FC
:100DC00020A1484F06B3BAF80000E8B3C6EB0619F5
:100DD000B0EB890F45D900F0DBFD0024281901791B
:100DE000407941EA002204EB8900C1190023012067
:100DF00000F088FDA41CE4B23C2CEFD300F078FD99
:100E0000761CA8F8006058E028796B7940EA032046
:100E1000AAF80000B0F5C84F4FD802910592049788
:100E200000F0B6FD01A902A800F00EFD0024C6EBFB
:100E3000061928190179407941EA002204EB89005A
:100E4000C1190023012000E00BE000F05BFDA41CB1
:100E5000E4B23C2CEDD300F04BFD761CA8F800600A
:100E60002BE050B300F094FD0024C6EB06162819C1
:100E70000179407941EA002204EB8600C119002380
:100E8000012000F03FFDA41CE4B23C2CEFD300F0A5
:100E90002FFD14481349801CC91C0078097840EACA
:100EA00001241048BAF800103C3000F05FF884428A
:100EB00003D110B10C490120087006B00020BDE834
:100EC000F087000080050020010000205C0E00205B
:100ED000880F002002000020E8020020040000200B
:100EE000EC000020006400080000002010B500287D
:100EF0000ED008494FF000620988491E02EB81229A
:100F0000002140F2622354584450091D9942FAD3FB
:100F100010BD0000E0F7FF1FF0B585B00021009183
:100F2000064600281ED010484FF000620088401E80
:100F300002EB8025019101200490039500F028FD2B
:100F4000694601A800F080FC002440F26227325973
:100F500029190023022000F0D5FC241DBC42F6D341
:100F600000F0C6FC05B0F0BDE0F7FF1F70B5054608
:100F70000E46002401F0B4FC0022074908E0A85CFA
:100F80006040C0B231F8100080EA1424521C92B2C2
:100F9000B242F4D3204670BDA424002030B590F8AE
:100FA00040500124AC40C56B6C60046863604368CA
:100FB000102B04D0036899600068C26030BD0368DC
:100FC0009A600068C16030BD704700002DE9F047AD
:100FD0000446894600254FF0010800263D4F00F0E9
:100FE000F3FD05EB450107EBC10292F912C0BCF11C
:100FF000800F23DA92F91330802B1FDA03EB4303BF
:1010000014F833A0BAF1000F18D004EBC3035B78D7
:10101000A3B90CEB4C0314F833C0BCF1000F0DD096
:1010200007F83180B2F810C00CF1010CA2F810C022
:10103000C2E9020604EBC30383F8038092F912307D
:10104000802B24DA92F913C0BCF1800F1FDA03EB76
:10105000430314F833A0BAF1000F18D004EBC30314
:101060005B78A3B90CEB4C0314F833C0BCF1000F50
:101070000DD082F80180B2F810C0ACF1010CA2F8DA
:1010800010C0C2E9020604EBC30383F80380D2E96F
:1010900002CAB9F81A30B0EB0C0066EB0A0C181A49
:1010A00076EB0C0010D2567007F8316092F91200FE
:1010B00000EB400004EBC000C67092F9130000EB97
:1010C000400004EBC000C6706D1C402D87DBBDE8FE
:1010D000F0870000C0100020F0B500235C1E2546FC
:1010E0000021164F264601EB410207EBC20296741F
:1010F000D674491C4029F6DB0022811891F82C1186
:10110000162917D1AA4215DD0021461896F82C6140
:10111000172E0CD1A1420ADD03EB430407EBC406F2
:1011200055B2B5744CB2F4745B1CDBB202E0491CDE
:101130008029EADB521C802ADFDBF0BDC0100020D2
:1011400004490020087072B603494868096881F3B1
:10115000088800470000002000D000080649002051
:10116000C8610648016941F004010161016941F06B
:101170004001016170470000A826002000200240C5
:10118000064A0021D16106490A6942F002020A6159
:101190004861086940F0400008617047A8260020B7
:1011A00000200240044B0022DA61044A136943F034
:1011B0000103136101807047A8260020002002402F
:1011C00000201449CA68D306134A04D5D06940F0F8
:1011D0000200D0611020CB685B0705D5D36943F0CE
:1011E0000103D36140F00400CB69DB0707D0D3696A
:1011F00043F00403D361CA6922F00102CA61A0F579
:101200008072013A01D0C8607047C86920F00100BF
:10121000C861704700200240A826002070B504462F
:1012200000F0D2FC0546114E09E0601C07D024B145
:1012300000F0CAFC401BA04201D9032070BDF06839
:10124000C007F2D1F068800601D52020F060F06878
:10125000C00605D4F069C00702D1F068400703D585
:10126000FFF7AEFF012070BD002070BD00200240DE
:101270002DE9F04F85B005465848816941F01001CD
:101280008161816901F010010091816941F02001C3
:101290008161816901F020010091816941F00401BF
:1012A0008161816901F004010091816941F00801C7
:1012B0008161806900F0080000904FF48058CDF8FB
:1012C0000480012602960024039402270497DFF885
:1012D00010A101A9504600F06FFB4FF40059CDF862
:1012E0000490029603940497DFF8F8B001A95846D9
:1012F00000F062FB0BE04146504600F05AFC4946C4
:10130000584600F056FC4FF4967000F08BFA28888F
:101310000128F0D14FF00008DFF8CC904FF0030A1D
:1013200005EB0800807F01280AD0022816D0032888
:1013300022D004282ED005283BD0062839D045E0FD
:101340000294CDF810A009EBC800808801900396A4
:1013500059F8380001A900F02FFB37E00294CDF8CE
:1013600010A009EBC80080880190039759F8380055
:1013700001A900F021FB29E00294CDF810A009EBAF
:10138000C80080880190039659F8380001A900F040
:1013900013FB1BE009EBC80080880190CDF810A07A
:1013A00011200290039459F8380001A900F004FBC1
:1013B0000CE009EBC80080880190CDF810A0CDF8B2
:1013C00008A059F8380001A900F0F6FA08F1010860
:1013D000B8F11E0FA4DB05B0BDE8F08F001002408D
:1013E000000C014000100140F000002001490160A4
:1013F00070470000F0000020F8B50023002500959C
:1014000090F82420012A12D0012280F824204A6872
:101410001F26072A0DD20468676B521E02EB820258
:101420009640B7430E689640374367631AE0022040
:10143000F8BD0D2A0BD20468276BD21F02EB820283
:101440009640B7430E689640374327630AE0046826
:10145000E76A0D3A02EB82029640B7430E68964067
:101460003743E7620A6807260A2A0BD30468E7684D
:101470000A3A02EB42029640B7438E6896403743E1
:10148000E76009E00468276902EB42029640B7432F
:101490008E689640374327610A68102A01D0112AC6
:1014A00023D1144C0268A2421AD1946824021CD49D
:1014B000946844F4000494600968102915D10E4919
:1014C0000E4A0968B1FBF2F101EB8101490000917C
:1014D00002E00099491E009100990029F9D104E029
:1014E000816A41F020018162012380F8245018466E
:1014F000F8BD0000002401406002002040420F00BF
:1015000070477047704700002DE9F04104460027FE
:101510000025002C03D0A06A002618B108E00120A5
:10152000BDE8F081E66284F82460204600F078F897
:101530002046FEF768FEA16AC90600D428B1A06A59
:1015400040F01000A0620120EAE7A16A21F488516E
:1015500041F00201A1626268E169E3680A4347EA77
:1015600043010A43A1684FF48077B94208D00129AA
:1015700006D00021D4F814C0BCF1010F02D00AE05B
:101580003946F7E7F3B1A36A43F02003A362E36AA5
:1015900043F00103E3622368D3F804C02CF4694CE0
:1015A0004CEA010CC3F804C021688B68DFF868C0FE
:1015B00003EA0C0313438B60A168B94209D00129E7
:1015C00007D009E0A3695B1E41EA433141F40061A1
:1015D000E1E7218A491E0D052168CB6A23F47003D7
:1015E0002B43CB62216889680C4B1940914207D18B
:1015F000E662A16A21F0020141F00101A1628FE7D8
:10160000A06A20F0020040F01000A062E06A40F002
:101610000100E062012083E7FDF7E1FFFE0E1FFFFE
:10162000704700002DE9F047044689469246DFF8EE
:10163000008120683F4F08F10406404501D0B842C0
:1016400007D1306810F4702F03D001252846BDE87B
:10165000F08794F8240001280BD0012084F824009E
:101660002046FEF72FFE0546002125B184F8241000
:10167000ECE70220EBE7A06A40F60162904340F4F9
:101680008070A0622068B84218D1326812F4702FBE
:1016900014D0A26A42F48012A2623068400505D5D7
:1016A000A06A20F4005040F48050A062A06AC004F8
:1016B00012D5E06A20F00600E0620EE0A26A22F491
:1016C0008012A26240684005F0D5A06A20F4005064
:1016D00040F48050A062E9E7E16284F82410216AB6
:1016E00015488862216A1548C862216A144808634F
:1016F00021686FF0020008602068816841F4807101
:101700008160216853464C314A46206A00F050F807
:1017100020688168C1F34241072904D0816841F4FF
:101720008011816092E7816841F4A00181608DE7BA
:10173000002401400028014051020008B9020008BD
:101740009F02000830B500282BD0001D164A50F823
:10175000041C14230A44B2FBF3F29200C263134A3E
:101760008263022242770A6843F6F0739A43D0E913
:1017700000342343D0E902452C4323430469234327
:10178000446923438469234313430B60002141626E
:101790008162C162016341630122427701770020C7
:1017A00030BD012030BD0000F8FFFDBF0000024049
:1017B00070B50446002594F8200001280CD00120C3
:1017C00084F8200094F821600020012E06D084F8CF
:1017D00020000225284670BD022070BD022684F834
:1017E0002160A0632068066826F001060660204696
:1017F000FFF7D4FBE06A28B12068016841F00E01D0
:10180000016009E02068016821F00401016020689E
:10181000016841F00A0101602068016841F001019E
:101820000160D7E770B5044600F0CEF90546601CAC
:1018300002D004480078044400F0C6F9401BA042DE
:10184000FAD370BD540200202DE9F04705460F463B
:101850004FF0010ADFF8908098F8180001280DD0A9
:10186000012088F818002868204E4CF250390228D0
:1018700007D04846FFF7D2FC98B12FE00220BDE820
:10188000F0874846FFF7CAFCF8B90120FFF766FC6D
:101890004846FFF7C3FC8246306920F004003061FF
:1018A0001CE04FF0FF303860AC6811E02046FFF7D5
:1018B00067FC4846FFF7B2FC8246306920F0020020
:1018C00030615FEA0A0001D03C6007E004F5806403
:1018D000D5E9020100EB8120A042E7D8002088F87A
:1018E00018005046CBE70000A82600200020024048
:1018F0000348016941F08001016100207047000048
:10190000002002402DE9F05F0746884615461E4636
:101910000024DFF8749099F81800012809D00120FC
:1019200089F818004CF2503B5846FFF777FC18B185
:1019300026E00220BDE8F09F012F05D0022F05D040
:101940000427DFF848A019E00127FAE70227F8E7A3
:10195000220128463146FEF7E5FB81B208EB440040
:10196000FFF720FC5846FFF759FCDAF8101021F079
:101970000101CAF8101018B9641CE4B2BC42E7D3E4
:10198000002189F81810D5E7A82600200020024081
:10199000002006490A69120607D5054A4A60054A29
:1019A0004A600969090600D50120704700200240FD
:1019B00023016745AB89EFCD2DE9F84F00230024C3
:1019C000DFF8C0914FF00F0809F1040A0AF1040B87
:1019D0000BF1040E0127A7400A683A40BA4275D1BC
:1019E000DFF8A4C14D68A5EB0C0665452BD00DDCD6
:1019F000032D34D005DC35B3012D19D0022D2FD1A4
:101A00001BE0112D16D0122D2AD119E0B6F5881F32
:101A100019D006DCB6F5803F15D0B6F5801F1FD172
:101A200011E0B6F5001F0ED0B6F5041F18D10AE07C
:101A3000CB6815E0CB681B1D12E0CB6808330FE0C4
:101A4000CB680C330CE08B6823B1012B04D0082346
:101A5000476105E0042303E00823076100E0002359
:101A6000FF2A01D8054601E000F1040502D84FEA3B
:101A7000840603E0A4F108064FEA86062F6808FAF8
:101A800006FC27EA0C0703FA06F647EA06072F606A
:101A90004D68ED0070D53D4DAE6946F00106AE6172
:101AA000AD6905F001050095394D24F0030677195D
:101AB000BE68A5072D0F08FA05FC26EA0C06DFF81C
:101AC000D4C0604503D14FF0000C17E054E0DFF8BC
:101AD000C8C0604502D14FF0010C0FE0DFF8BCC078
:101AE000604502D14FF0020C08E0DFF8B4C0604559
:101AF00002D14FF0030C01E04FF0040C0CFA05FC8E
:101B00004CEA060CC7F808C04D68ED0305D5D9F8B6
:101B100000501543C9F8005004E0D9F8005095432F
:101B2000C9F800504D68AD0305D5DAF800501543EB
:101B3000CAF8005004E0DAF800509543CAF80050A3
:101B40004D68ED0205D5DBF800501543CBF8005089
:101B500004E0DBF800509543CBF800504D68AD022F
:101B600005D5DEF800501543CEF8005004E0DEF84D
:101B700000509543CEF80050641C102CFFF42AAF9F
:101B8000BDE8F88F00040140000011100010024071
:101B90000000014000080140000C0140001001401D
:101BA000001401408068084201D0012070470020E5
:101BB0007047C2684A40C2607047002A01D0016184
:101BC0007047090401617047014880687047000050
:101BD00054020020024881680278114481607047F5
:101BE0005402002010B50748016841F0100101605F
:101BF000032000F09FF8002000F006F800F026F81F
:101C0000002010BD0020024070B504460D4D4FF479
:101C10007A712878B1FBF0F00B490968B1FBF0F05C
:101C200000F029FE08B1012070BD102C07D200225F
:101C30002146501E00F05EF86C60002070BD01204F
:101C400070BD0000540200206002002008B5214849
:101C5000816941F001018161816901F00101009117
:101C6000C16941F08051C161C06900F080500090AD
:101C7000032000F05FF8002211466FF00B0000F027
:101C800039F8002211466FF00A0000F033F8002204
:101C900011466FF0090000F02DF800221146501F88
:101CA00000F028F800221146101F00F023F800224F
:101CB0001146901E00F01EF800221146501E00F042
:101CC00019F80549486820F0E06040F0007048606D
:101CD00008BD0000001002400000014000F01F029B
:101CE000012191404009800000F1E020C0F800117E
:101CF00070470000F0B40D460D4B1B68C3F3022380
:101D0000C3F10704042C00D90424191D072901D2AA
:101D1000002300E0DB1E012606FA04F1491E2940DB
:101D200099409E40761E16403143F0BC00F0F8BD4D
:101D30000CED00E000F00701054A10684FF6FF03C4
:101D4000184040EA01200349084310607047000032
:101D50000CED00E00000FA05BFF34F8F0548016865
:101D6000054A01F4E06111430160BFF34F8F00BFEA
:101D7000FDE700000CED00E00400FA0510B50C06CC
:101D800005D501F07F0100EB4110283003E000EBA6
:101D9000411000F50A7099B232B101228272C180FD
:101DA000190C0181002010BD002282728180F9E7A8
:101DB000704700EB4112D0F85C04D26B01F041BBDC
:101DC00000EB4112D0F85C04D2F83C2201F096BB43
:101DD00010B50446084600F07F02030604EB4211EA
:101DE00001D5283101E001F50A710A70C009487077
:101DF00094F82804012809D0012084F828042068D8
:101E000001F0F0FF002084F8280410BD022010BD6E
:101E100070B504460846010600F07F0203D504EBC6
:101E20004211283103E004EB401101F50A7100254D
:101E30008D700A70C009487094F82804012809D0F0
:101E4000012084F82804206802F082F884F82854DD
:101E5000002070BD022070BD70B50446084600F039
:101E60007F05060604EB451101D5283101E001F597
:101E70000A710D70C00948700A61CB7094F828048B
:101E8000012809D0012084F82804206801F05CFEB4
:101E9000002084F8280470BD022070BD70B50D4686
:101EA00005F07F0400EB441101F50A714A618B6172
:101EB0000022CA614A700C706A0604D0006802F001
:101EC000AFF8002070BD006802F0AAF8F9E770B51D
:101ED00004460D46290605F07F0003D504EB4011AA
:101EE000283103E004EB451101F50A7101228A70E3
:101EF0000870E809487094F82804012807D084F88D
:101F00002824206802F062F8680602D006E0022069
:101F100070BD04F22C41206802F018F8002084F80B
:101F2000280470BD70B50D4605F07F0400EB441128
:101F300028314A618B610022CA6101224A700C700B
:101F40006A0604D0006802F06BF8002070BD0068DB
:101F500002F066F8F9E710B50446206802F074F95B
:101F6000000402D5204600F0EBFC206802F06CF97A
:101F700040050CD5206830F8441F21F480610180B1
:101F8000204600F0E9F80021204600F0FAF8206829
:101F900002F05AF9400405D5206830F8441F21F4B6
:101FA00080410180206802F04FF9800405D5206847
:101FB00030F8441F21F400510180206802F044F9F8
:101FC000C00414D5206830F8401F21F004010180BE
:101FD000206830F8401F21F008010180204600F001
:101FE000C8F8206830F8441F21F48051018020682F
:101FF00002F02AF900051AD5206830F8401F41F098
:1020000008010180206830F8441F21F4006101803C
:10201000206830F8401F41F004010180206802F080
:1020200013F9C043C00402D5204600F0DFF8206851
:1020300002F00AF9800508D5206830F8441F21F421
:1020400000710180204600F098F8206802F0FCF84A
:10205000C00505D5206830F8441F21F48071018047
:1020600010BD2DE9F04186B004460025002C04D0B7
:1020700094F82904002620B108E0012006B0BDE84C
:10208000F08184F82864204600F048F8032084F8A2
:102090002904206801F053FF04F11001142288463E
:1020A0006846FEF74FF894E80F0001F099FE002112
:1020B000206802F0DCF8012704EB45102830477057
:1020C00005708581C6700661466186616D1C0F2DA5
:1020D000F2D3002104EB411080F8296280F8281225
:1020E000818680F82B62C0F83862C0F83C62C0F884
:1020F0004062491C0F29EDD3142241466846FEF781
:1021000021F894E80F0001F00DFF84F8246084F8B2
:102110002974206801F004FF0020AFE708B50068CB
:102120000B49884212D10B48C16941F40001C161D9
:10213000C06900F400000090002211461420FFF74F
:10214000D9FDBDE808401420FFF7C8BD08BD000058
:10215000005C00400010024010B504460121D4F894
:102160005C0401F0B6FAD4F85C04BDE8104001F05C
:102170007EBAD0F85C0401F09ABAD0F85C0401F0A1
:102180009CBA10B5044694F8280401280BD001200D
:1021900084F8280484F82410206802F06AF80020EB
:1021A00084F8280410BD022010BDD0F85C2400F291
:1021B0002C41104601F0A6BA10B5044694F8280444
:1021C000012810D0012084F8280401212046FFF7BF
:1021D000EFFD206801F0A2FE206802F027F8002041
:1021E00084F8280410BD022010BD000010B504467C
:1021F000D4F85C0401F0DFFAA069002804D0034899
:10220000016841F00601016010BD000010ED00E022
:102210002DE9F8430446DFF8F8802078C0075FD046
:102220000027D8F81C00C0000BD4D8F81C0040F0E0
:102230008050C8F81C00D8F81C0000F080500090B6
:102240000127344D2868C00512D4286840F48070F6
:102250002860FFF7B9FC064607E0FFF7B5FC801BD6
:10226000642802D90320BDE8F8832868C005F4D5A6
:10227000D8F8200000F4407010B3A18801F4407138
:1022800081421DD0D8F8200020F44070224901225C
:102290000A6000220A60C8F82000C00710D0FFF7CB
:1022A00093FC054641F2883606E0FFF78DFC401BA3
:1022B000B04201D90320D6E7D8F820008007F4D532
:1022C000D8F82000616820F440700843C8F8200066
:1022D000012F05D1D8F81C0020F08050C8F81C0050
:1022E0002078800707D5D8F80400A16820F4404082
:1022F0000843C8F804002078C00607D5D8F80400C1
:10230000E16820F480000843C8F804000020AAE730
:102310000010024000700040400442422DE9F047A6
:1023200004460E46DFF84881D8F8000000F00700A8
:10233000B0420FD2D8F8000020F007003043C8F8B0
:102340000000D8F8000000F00700B04202D00120E1
:10235000BDE8F0872078474F800705D57868A168E9
:1023600020F0F000084378602078C00748D060680B
:10237000012806D0022809D0396889070BD401202A
:10238000E6E73968890306D40120E1E73968890165
:1023900001D40120DCE7796821F003010143796071
:1023A000FFF712FC0546606841F28839012809D020
:1023B000022814D020E0FFF707FC401B484501D954
:1023C0000320C5E77868C0F381000128F3D117E046
:1023D000FFF7FAFB401B484501D90320B8E77868AE
:1023E000C0F381000228F3D10AE0FFF7EDFB401BA8
:1023F000484501D90320ABE7786810F00C0FF4D101
:10240000D8F8000000F00700B0420ED9D8F800005C
:1024100020F007003043C8F80000D8F8000000F0B2
:102420000700B04201D0012092E72078400705D58F
:102430007868E16820F4E06008437860207800075D
:1024400006D57868216920F4605040EAC1007860C0
:1024500000F01CF87968084AC1F30311515CC840C8
:10246000064908600020FFF7CFFB002070E700005E
:102470000020024000100240724800086002002064
:1024800001480068704700006002002085B014A079
:1024900090E80E00C068CDE902230191049014A0D9
:1024A00000680090134B5968134801F00C02042A8D
:1024B00010D0082A0ED101A8C1F38342805CC90361
:1024C0000AD55968C1F340411DF801100A4A50432A
:1024D000B0FBF1F005B0704708494843FAE7000047
:1024E00002030405060708090A0B0C0D0E0F101055
:1024F000010200000010024000127A0000093D00B5
:102500002DE9F84F0446D04D2078C0075BD06868AD
:10251000C0F38100012807D06868C0F38100022859
:102520000AD16868C00307D5286880034BD5606866
:1025300078BB0120BDE8F88F6068B0F5803F11D00E
:10254000A8B1B0F5A02F1BD0286820F480302860F7
:10255000286820F480202860606830B3FFF734FBDF
:1025600006461EE0286840F480302860F4E72868BA
:1025700020F480302860286820F480202860EBE771
:10258000286840F480202860286840F48030286063
:10259000E2E718E0FFF718FB801B642801D903204D
:1025A000C8E728688003F5D50DE0FFF70DFB064668
:1025B00006E0FFF709FB801B642801D90320B9E777
:1025C00028688003F5D42078DFF8808280074FF0F8
:1025D000010A4FF0000945D5686810F00C0F07D0CC
:1025E0006868C0F38100022812D16868C0030FD464
:1025F0002868800704D52069012801D0012099E7C7
:102600002868616920F0F80040EAC100286029E0EC
:102610002069B8B1C8F800A0FFF7D6FA064606E070
:10262000FFF7D2FA801B022801D9032082E728682D
:102630008007F5D52868616920F0F80040EAC100FC
:1026400028600FE0C8F80090FFF7BEFA064606E0E3
:10265000FFF7BAFA801B022801D903206AE728682D
:102660008007F5D42078000726D57948A16999B16B
:10267000C0F800A0FFF7A8FA064606E0FFF7A4FAA4
:10268000801B022801D9032054E7686A8007F5D52A
:10269000012000F019FB0FE0C0F80090FFF794FA5A
:1026A000064606E0FFF790FA801B022801D90320B6
:1026B00040E7686A8007F5D42078400773D5002684
:1026C000E869C00008D4E86940F08050E861E86932
:1026D00000F0805000900126DFF878B1DBF80000B0
:1026E000C00514D4DBF8000040F48070CBF8000083
:1026F000FFF76AFA074606E0FFF766FAC01B642890
:1027000001D9032016E7DBF80000C005F4D5E06826
:10271000012812D0B0B105281DD0286A20F0010090
:102720002862286A20F004002862E06841F2883BB1
:1027300028B3FFF749FA07461DE0286A40F0010078
:102740002862F2E7286A20F001002862286A20F057
:1027500004002862E9E7286A40F004002862286A39
:1027600040F001002862E0E7FFF72EFAC01B584551
:1027700001D90320DEE6286A8007F5D50DE0FFF7D2
:1027800023FA074606E0FFF71FFAC01B584501D998
:102790000320CFE6286A8007F5D4012E03D1E8692B
:1027A00020F08050E861E069A0B36968C1F381015D
:1027B000022947D0022805D0C8F86090FFF704FA34
:1027C00004463AE0C8F86090FFF7FEF9064606E0D6
:1027D000FFF7FAF9801B022801D90320AAE628682E
:1027E0008001F5D4206AB0F5803F05D16868A16802
:1027F00020F4003008436860D4E9080108436968A0
:1028000021F4741108436860C8F860A0FFF7DCF990
:10281000044607E014E0FFF7D7F9001B022801D9AE
:10282000032087E628688001F5D509E0FFF7CCF999
:10283000001B022801D903207CE628688001F5D41A
:10284000002077E6012075E60010024000004242B9
:1028500080044242007000404FF0E021042804D080
:10286000086920F0040008617047086940F004001E
:1028700008617047704710B5401EB0F1807F01D3EA
:10288000012010BD4FF0E02460610F21601700F0BF
:1028900047F80020A06107202061002010BD10B57E
:1028A000FFF7E8FF10BDFEE710B500220849094810
:1028B00000F085FD0849074800F0AFFF07490548CB
:1028C00000F011FBBDE81040024801F05BB80000C9
:1028D000080000208005002068020020DC000020A5
:1028E00030B5002100200A4600234AF2010480EAA4
:1028F0000205ED0702D084EA500000E040085208CB
:102900005B1CDBB2082BF2D3034A22F81100491CEE
:1029100089B2FF29E6D930BDA4240020FEE7704724
:102920000907090E002806DA00F00F0000F1E02088
:1029300080F8141D704700F1E02080F80014704703
:102940002DE9FC5F044600200190009040F68F794D
:1029500006274FF002084FF480669AE1BDF8041094
:1029600001F00F0ABAF1000F2CD030F82A100091B4
:10297000BDF80010090479D530F82A1001EA0901E0
:1029800020F82A1004EB4A1505F50A75A87A0028E4
:102990006DD02978206830F82120520468D5B0F82D
:1029A000502008EBC101114406EB4101415AC1F32B
:1029B000090BBBF1000F04D0EA885B46696901F09E
:1029C00046FCD2E0BDF80410C9062CD4018848F6B4
:1029D0000F721140018004F128052068B0F85010F2
:1029E0002A7808EBC202114406EB4101405AC0F3B9
:1029F0000900E86169690844686100212046FFF721
:102A0000D8F994F824000028A7D0A8690028A4D1F8
:102A100094F82400216840F08000A1F84C000020C8
:102A200084F8240035E104F50A7501880091BDF8A9
:102A3000001009051DD5B0F850102A7807EBC20226
:102A4000114406EB4101405AC0F30903EB61AA8827
:102A500004F22C41206801F0FAFB2068018801EAA9
:102A6000090101802046FFF7A0FB12E19EE055E03E
:102A700069E0BDF800100904D4D5018801EA090114
:102A800001802068B0F850102A7807EBC202114488
:102A900006EB4101405AC0F30900E86148B183B236
:102AA000AA886969206801F0D2FBE969686908446D
:102AB000686100212046FFF783F92068B0F85010C4
:102AC000891D06EB4101421828693E280DD9C0F343
:102AD0004F11C00601D1491E89B24FF6FF7000EABE
:102AE000812040F4004010600AE0C0F34F01C007AD
:102AF00001D0491C89B24FF6FF7000EA81201060B6
:102B0000206801884BF68F72114081F4805181F466
:102B1000005148F2800211430180BAE02068B0F809
:102B200050102A7807EBC202114406EB4101415ACA
:102B3000C1F3090BBBF1000F23D0AA885B4669697A
:102B400001F085FB1DE0B0F8502007EBC1011144F6
:102B500006EB4101415AC1F3090BBBF1000F04D050
:102B60002A895B46696901F072FB2978206830F890
:102B7000212048F68F731A4048F2C0031A4320F808
:102B80002120E8695844E861686900EB0B026A613A
:102B9000AB6913B12869584504D929782046FFF755
:102BA0000FF903E029782046FFF778F9BDF8000017
:102BB00000066ED504EB4A152835206830F82A1037
:102BC00048F60F72114020F82A10A87AC0B129786F
:102BD000206830F82120520627D5B0F8502008EBA5
:102BE000C101114406EB4101405AC0F30900E861FC
:102BF00068B383B2EA886969206801F041FB26E086
:102C00002068B0F850102A7808EBC202114406EB95
:102C10004101405AC0F30900E86120B383B2AA8899
:102C20006969206801F02CFB1DE0B0F8502007EB2B
:102C3000C101114406EB4101405AC0F30900E861AB
:102C400028B183B22A896969206801F019FB2978C3
:102C5000206830F8212048F68F731A404CF2800328
:102C60001A4320F821202068B0F850102A7808EB89
:102C7000C202114406EB4101405AC0F30900E86169
:102C800069690A186A61AB696BB129782046FFF758
:102C900049F92068B0F84410019109043FF55EAE8F
:102CA0000020BDE8FC9F29782046FFF782F8F0E776
:102CB000002803D00249D1F80110016070470000DC
:102CC000E00100207047000008B507494FF4FA52B0
:102CD0000968B1FBF2F14143009100BF0098411E29
:102CE0000091FAD208BD0000600200207047000089
:102CF00010B50648FDF7F2FE0448FDF7DBFBFEF7D2
:102D000069FFBDE81040FFF7CABD0000E8020020DF
:102D100030B593B00121099108040A9000240B9466
:102D20000D910225109511904FF4E010129009A812
:102D3000FFF7E6FB18B1492118A001F0B6FA0F2001
:102D40000490059506944FF4806007900894022142
:102D500004A8FFF7E3FA18B1572110A001F0A5FA73
:102D60001020009003946846FFF752FA18B15E21D4
:102D70000AA001F09AFAFFF783FB4FF47A71B0FBD7
:102D8000F1F0FFF778FD0420FFF766FD0022114601
:102D9000501EFEF7AFFF13B030BD00002E2E5C5367
:102DA00072635C7065726970686572792E63000089
:102DB0000D48016841F00101016041680B4A114072
:102DC000416001680A4A11400160016821F48021D4
:102DD0000160416821F4FE0141604FF41F018160F0
:102DE0000449C00308607047001002400000FFF86B
:102DF000FFFFF6FE08ED00E0D0F81802002180F891
:102E000050100020704770B50546D5F81842D5F827
:102E10001C226178D2682078904740232246012105
:102E2000284600F00EFC002070BD10B5044681213C
:102E3000204600F0F0FA0121204600F0ECFAD4F828
:102E4000180248B104F506746068806880472068FD
:102E500000F074FE00202060002010BD10B5D0F8F6
:102E60001842E16C012908D1D0F81C02227861785F
:102E7000C368104698470020E064002010BD0000A1
:102E80002921018000487047A40200200A21018006
:102E900000487047DC02002070B50546002640233C
:102EA00003228121284600F0B3FB402303220121A5
:102EB000284600F0ADFB542000F042FEC5F8180291
:102EC00078B10446002084F85000D5F81C02406810
:102ED0008047402322460121284600F0B2FB3046BD
:102EE00070BD0126FBE702460220002902D0C2F88D
:102EF0001C120020704710B51346D0F8182290F825
:102F0000FC41032C09D192F8504034B9012482F8D5
:102F100050400A46812100F056FC002010BD000000
:102F200070B500220024D0F818320D7815F0600535
:102F30002AD0202D52D14A78921E0A2A20D2DFE8C8
:102F400002F012081F1F1F1F1F180E058878186433
:102F500044E0012203F1400100F09FF83EE0488880
:102F6000000A58643AE0012203F1440100F095F8A8
:102F700034E00122DA648A79194600F074F82DE011
:102F800000F065F8022070BD4D78062D04D00A2DA2
:102F90001CD00B2D22D11FE04B882225B5EB132F1F
:102FA00007D1CA88A02A00D9A022D0F81C120C6828
:102FB00008E02125B5EB132F04D1094CCA88092A52
:102FC00000D90922214600F068F807E0012203F148
:102FD000480100F062F801E088789864002070BD34
:102FE000D002002010B5D0F814225268904700207B
:102FF00010BD10B5044694F8FC01022806D0032841
:1030000004D02046BDE8104000F021B848880128CF
:103010000CD10020C4F80402D4F8140282682046BF
:1030200090472046BDE8104000F044B810BD10B5F0
:1030300013460A46002100F004FB002010BD10B525
:1030400013460A46002100F0BEFB002010BD10B55B
:1030500004468021204600F082FB2046BDE8104057
:10306000002100F07CBB10B50323C0F8F431C0F898
:103070000821C0F80C2113460A46002100F0E1FAAD
:10308000002010BD10B50521C0F8F41100231A4628
:10309000194600F0D6FA002010BD10B50223C0F882
:1030A000F4318261C26113460A46002100F08BFBB5
:1030B000002010BD10B50421C0F8F41100231A46F9
:1030C000194600F080FB002010BD000010B500285C
:1030D00006D00A46054906A000F053F9034810BD82
:1030E0000A46024902A000F04CF9F7E75C0C002008
:1030F000437573746F6D2048494420436F6E666951
:103100006700000012200880004870472800002057
:1031100010B5002806D00A46054906A000F031F98E
:10312000034810BD0A46024902A000F02AF9F7E759
:103130005C0C0020437573746F6D2048494420492E
:103140006E7465726661636500000000042008808B
:10315000004870472400002010B50A46024903A029
:1031600000F00FF9004810BD5C0C002053544D696D
:1031700063726F656C656374726F6E696373000070
:1031800010B5002806D00A46054906A000F0F9F857
:10319000034810BD0A46024902A000F0F2F8F7E722
:1031A0005C0C0020467265654A6F790010B50028F6
:1031B00006D00A46054906A000F0E3F8034810BD12
:1031C0000A46024902A000F0DCF8F7E75C0C002098
:1031D000303030303030303030303141000000009D
:1031E000CA88012A01D0FFF732BF90F8FC21022AD9
:1031F00003D0032A08D0FFF72ABF002181600122F3
:1032000000F10801FFF749BF0122011DFFF745BF8B
:10321000F8B504460D466888010A08296FD2DFE830
:1032200001F08D040C1F8D8D606FD4F81012207C7E
:103230000A6869469047014671E0207C022638B151
:10324000D4F81402C16A6846884701464E7066E0A9
:10325000D4F81402816A6846884701464E705EE0E1
:10326000C1B2062934D2DFE801F0030B131B232B74
:10327000D4F81012207C4A686946904701464EE017
:10328000D4F81012207C8A6869469047014646E0CF
:10329000D4F81012207CCA686946904701463EE087
:1032A000D4F81012207C0A6969469047014636E03E
:1032B000D4F81012207C4A696946904701462EE0F6
:1032C000D4F81012207C8A6969469047014626E0AE
:1032D000C1B2D4F814026A46836B2046984701466F
:1032E0001DE0207C20B129462046FFF7B0FEF8BD46
:1032F000D4F81402416B6846884701460FE01DE090
:10330000207C20B129462046FFF7A1FEF8BDD4F865
:103310001402016B68468847014607204870BDF8D3
:1033200000000028F2D0EA88002AEFD0824200D9BB
:10333000024600922046FFF7B0FEF8BD294620461F
:10334000FFF785FEF8BD002102E0491CC9B2401C10
:103350000278002AF9D10846704790F8FC21022A29
:1033600003D0032A01D0FFF772BE0121C160D0F85B
:10337000041209B10321C160022200F10C01FFF720
:103380008CBE70B504460D461646002C16D020465D
:10339000FFF7D9FF022101EB4000308028700321A4
:1033A00002206970002306E0411CC9B22A54641C43
:1033B000481CC0B26B542278002AF5D170BD10B5FC
:1033C000002810D0D0F8143213B10023C0F8143202
:1033D00009B1C0F81012012180F8FC11027000F050
:1033E000C3F8002010BD022010BD10B50024D0F895
:1033F0002002FEF70DFD30B1012806D0022806D0CC
:10340000032806D00224204610BD0224FBE7012435
:10341000F9E70224F7E710B50024D0F82002FEF700
:10342000D7FC30B1012806D0022806D0032806D0E8
:103430000224204610BD0224FBE70124F9E7022400
:10344000F7E770B504461346002908D0D4F81402F3
:103450004269BAB394F8FC0103284BD04CE004F164
:103460001400D4F8F4110025022939D1D0E9022141
:103470008A420DD9511A81608AB219462046FFF757
:10348000DEFD00231A461946204600F0DAF827E050
:103490004068B0FBF1F201FB1202A2B9884212D3DC
:1034A000D4F8F81188420ED2002211462046FFF7C8
:1034B000C6FDC4F8F85100231A461946204600F00C
:1034C000C0F80DE015E0D4F81402C16829B194F8F1
:1034D000FC01032801D1204688472046FFF7D2FD92
:1034E00094F80002012807D1204600F09FF984F8E3
:1034F000005201E020469047002070BD70B50446A0
:103500001546002908D0D4F8140282693AB394F819
:10351000FC01032824D025E004F58270D4F8F411CE
:1035200003291FD1D0E9021399420BD9C91A81602E
:10353000C068814200D301468AB229462046FFF77F
:1035400076FD0FE0D4F81402016929B194F8FC016A
:10355000032801D1204688472046FFF7ABFD01E054
:1035600020469047002070BD10B504461A48C0F8A8
:103570005C44C4F82002194901600821416002211D
:1035800081600321C16000218161C1610162FEF798
:1035900068FD20B14FF4977111A000F086FE04F58C
:1035A00008740022182311462068FEF7E7FB582311
:1035B000002280212068FEF7E1FB98230022812170
:1035C0002068FEF7DBFBD823002201212068FEF7EC
:1035D000D5FB002010BD0000FC070020005C00406F
:1035E0002E2E2F5372632F757362645F636F6E6646
:1035F0002E6300000A06D0F8200201F07F0100EBE4
:10360000411002D590F82A00704790F82A027047BE
:1036100070B515461A460024D0F820022B46FEF756
:103620001BFC30B1012806D0022806D0032806D0A2
:103630000224204670BD0224FBE70124F9E702249E
:10364000F7E710B50024D0F82002FEF727FC30B1D0
:10365000012806D0022806D0032806D002242046DE
:1036600010BD0224FBE70124F9E70224F7E770B557
:1036700004460022402311462046FFF7C9FF40259B
:10368000C4F810514023002280212046FFF7C0FFDC
:103690002562012084F8FC01D4F8180228B1D4F87E
:1036A00014022179426820469047002070BD90F8AE
:1036B000FD1180F8FC110020704710B590F8FC1146
:1036C000032904D1D0F81412C96901B18847002038
:1036D00010BD01740020704710B50024D0F82002FE
:1036E000FEF74FFD30B1012806D0022806D003288E
:1036F00006D00224204610BD0224FBE70124F9E78E
:103700000224F7E770B5044604F50270054600F0A0
:1037100070F80120C4F8F401B4F80E02C4F8F801FE
:1037200094F8082212F01F000AD001280DD00228B8
:1037300010D002F08001204600F011F8002070BD8A
:103740002946204600F023F9F8E72946204600F0F4
:10375000D3F9F3E72946204600F03EF9EEE710B52D
:103760000024D0F82002FEF7B2FB30B1012806D0C9
:10377000022806D0032806D00224204610BD0224C9
:10378000FBE70124F9E70224F7E710B50024D0F89D
:103790002002FEF711FD30B1012806D0022806D024
:1037A000032806D00224204610BD0224FBE7012492
:1037B000F9E70224F7E700F5FE7001784170042173
:1037C00001700020704710B50024D0F82002FEF7E9
:1037D000A9FB30B1012806D0022806D0032806D064
:1037E0000224204610BD0224FBE70124F9E702244D
:1037F000F7E70A7802704A7842708A78CB7802EB51
:10380000032242800A794B7902EB032282808A7973
:10381000C97902EB0121C1807047024600200029CE
:1038200002D0C2F81412704702207047002070477F
:1038300070B504468888002801D1C88820B1204688
:10384000BDE87040FFF703BC887800F07F0594F86E
:10385000FC0103280DD084F8FE5129462046FFF7CD
:103860003BFF2046FFF726FC45B1022084F8FC010F
:1038700070BD2046BDE87040FFF7E9BB012084F829
:10388000FC0170BD10B50224D0F81422002A03D028
:103890001268904700B90024204610BD70B5044658
:1038A0000D462E4EA9783170012905D929462046AA
:1038B000BDE87040FFF7CBBB94F8FC01022807D0AD
:1038C00003281FD029462046BDE87040FFF7BFBB44
:1038D00099B16160032084F8FC012046FFF7D2FF14
:1038E000022804D02046BDE87040FFF7E3BB29461C
:1038F0002046BDE87040FFF7AABB2046BDE87040F7
:10390000FFF7D8BB91B16068884221D0C1B2204690
:10391000FFF768FB317861602046FFF7B3FF0228AC
:1039200010D02046BDE87040FFF7C4BB022084F8E9
:10393000FC0161602046FFF755FB2046BDE8704062
:10394000FFF7B8BB29462046BDE87040FFF77FBBB4
:103950002046BDE87040FFF7ADBB000064020020C8
:1039600010B50446488801280BD1C4F80402D4F8E5
:1039700014028268204690472046BDE81040FFF7B9
:1039800099BB10BD10B5FFF700FF002010BD10B5AA
:1039900000244A780A2A1BD2DFE802F011171A1411
:1039A0001A08051A0E0BFFF733FC13E0FFF740FF70
:1039B00010E0FFF773FF0DE0FFF712FC0AE0FFF7DE
:1039C000CCFC07E0FFF7CCFF04E0FFF712FB01E0BF
:1039D000FFF73DFB204610BD70B504460D4600269E
:1039E00029792878C0F34110012806D0687880B37F
:1039F00001282FD003285AD107E0D4F81402294611
:103A0000826820469047002070BD94F8FC0102288F
:103A100006D003280BD029462046FFF718FB46E0C6
:103A200011B3802943D02046FFF799FE3FE0688814
:103A300028B921B1802902D02046FFF790FED4F8A2
:103A4000140229468268204690472046FFF732FB41
:103A50002DE022E094F8FC01022806D003280BD0C8
:103A600029462046FFF7F3FA21E001B380291ED052
:103A70002046FFF774FE1AE06888C0B9480608D0EF
:103A80002046FFF7B2FCD4F814022946826820468B
:103A900090472046FFF70EFB09E094F8FC0102284E
:103AA00007D003280BD029462046FFF7D0FA30462E
:103AB00070BD4806FBD02046FFF751FEF7E7080629
:103AC00005D501F07F0004EB0015143505E001F089
:103AD0007F0004EB001505F582752046FFF78AFD8F
:103AE00010B10120286001E0002028600222294650
:103AF0002046FFF7D2FADAE770B504460D4694F88F
:103B0000FC01032805D029462046FFF7A0FA002033
:103B100070BD287901280CD8D4F81402294682688F
:103B200020469047E8880028F1D12046FFF7C2FAE6
:103B3000EDE729462046FFF78AFAE8E770470000DC
:103B400000487047A40700202DE9F047CB780A7899
:103B500048F68F14002B06D0012B1AD0022B0AD066
:103B6000032B1DD10DE030F82230234043F40073C5
:103B700020F8223014E030F82230234020F82230A0
:103B80000EE030F82230234043F4C06320F82230A6
:103B900006E030F82230234043F4806320F82230DE
:103BA0000A7830F8224048F68F731C4048F28006AD
:103BB0003443144320F822408A7A48F6BF754FF008
:103BC00004094BF68F7748F2C0044CF2800CEAB33C
:103BD0000A7830F8228048F4807808EA030848EA36
:103BE000060820F82280CA88B0F8508022F001022E
:103BF00091F800A008EBCA0800EB4808C8F80024B8
:103C00000A89B0F8508022F0010291F800A009EB77
:103C1000CA09C84400EB4808C8F800244A78002ABA
:103C20007ED00A7830F822805FEA484807D530F81D
:103C3000228008EA030848EA0C0820F822800A7863
:103C400030F822805FEA486809D500E020E030F8CB
:103C5000228008EA030848EA040820F822800A784B
:103C600030F822401C4044EA0C0420F822400A7834
:103C700030F822302B40334320F82230097830F8D6
:103C800021203A40324320F821200020BDE8F0876F
:103C90004A780AB38A88B0F8507022F0010291F88D
:103CA00000C007EBCC0700EB4707C7F800240A78F1
:103CB00030F822707F0605D530F822701F40274368
:103CC00020F82270097830F821202A4082F0200262
:103CD000324320F82120D8E78A88B0F8504022F0FB
:103CE00001020D7809EBC5052C4400EB4404C4F82F
:103CF0000024B0F850200C78062505EBC4042244BB
:103D000000EB420505F580650A694FF6FF783E2A0B
:103D10000DD9C2F34F14D20601D1641EA4B200E043
:103D200026E008EA842242F400422A6008E0C2F356
:103D30004F04D20701D0641CA4B208EA84222A608E
:103D40000A7830F82240640406D530F822401C403E
:103D500044EA0C0420F82240097830F821203A4047
:103D600082F4805282F40052324320F821208CE702
:103D70000A7830F822805FEA484807D530F8228078
:103D800008EA030848EA0C0820F822800A7830F88C
:103D900022C05FEA4C6C07D530F822C00CEA030C55
:103DA0004CEA040C20F822C00A7830F822C00CEA51
:103DB000030C4CEA040C20F822C00A7830F82230B8
:103DC0003B4083F4805383F40053334320F8223084
:103DD000097830F821202A40324320F8212054E786
:103DE000002070472DE9F04391F80A904C780A784A
:103DF00048F6BF764BF68F7748F2800548F2C00C44
:103E00004CF2800848F68F73B9F1000F31D07CB3C3
:103E100030F82240640406D530F822401C4044EAC1
:103E2000080420F822400A7830F82240640606D5BB
:103E300030F822401C4044EA0C0420F822400A7862
:103E400030F822401C4044EA080420F822400A7856
:103E500030F8223033402B4320F82230097830F8F4
:103E600021203A402A4320F821200020BDE8F08399
:103E700026E094B130F82240640606D530F822409E
:103E80001C4044EA0C0420F82240097830F8212034
:103E900032402A4320F82120E7E730F8224064042A
:103EA00006D530F822401C4044EA080420F822409D
:103EB000097830F821203A402A4320F82120D4E71D
:103EC00030F82240640406D530F822401C4044EA11
:103ED000080420F822400A7830F82240640606D50B
:103EE00030F822401C4044EA0C0420F822400A78B2
:103EF00030F822401C4044EA0C0420F822400A78A2
:103F000030F822303B402B4320F82230097830F83B
:103F1000212032402A4320F82120A6E700207047C4
:103F20000020704700B5012120F8401F00210180CA
:103F300081800182403800F079F9002000BD30F81E
:103F4000401F21F43D410180002070470020704750
:103F500030B54C780A7848F68F7548F28003002C0B
:103F600019D030F82240640607D530F822402C40A2
:103F700048F2C0052C4320F82240097830F821206F
:103F800048F6BF74224082F0100282F020021A43E9
:103F900020F8212018E030F82240640407D530F8DA
:103FA00022402C404CF280052C4320F82240097816
:103FB00030F821204BF68F74224082F4805282F434
:103FC00000521A4320F82120002030BD10B50A7895
:103FD00048F28003002A0CD04978A9B130F82210A9
:103FE00048F6BF74214081F01001194320F82210D7
:103FF00014E001884BF6BF72114081F4805181F0CA
:1040000010011943018009E030F822104BF68F743B
:10401000214081F48051194320F82210002010BD66
:104020002DE9F04106460D46A9690C466B78AA7A3F
:10403000022728694FF0000C48F28008012B05D0B8
:10404000814265D90446081BA86163E0814203D917
:104050000446081BA86101E0C5F818C07AB12878A9
:1040600036F8201049061BD5B6F8501007EBC000F3
:10407000084406EB4000C0F800442A891AE0A3B2C5
:10408000AA883046696900F0FBF8B6F85000297834
:1040900007EBC101084406EB4000C0F8004428E0EB
:1040A000B6F8501007EBC000084406EB4000C0F81B
:1040B0000044EA88A3B23046696900F0E1F8687804
:1040C00048F68F7110B101280AD012E0287836F82E
:1040D00020200A4048F2C0010A4326F8202008E0C8
:1040E000287836F820200A404CF280010A4326F84E
:1040F0002020287836F8201048F6BF72114081F051
:10410000100181F0200141EA080126F820108AE020
:10411000C5F818C04FF0060C4FF6FF710AB113B383
:1041200042E0B6F850002A780CEBC202104406EBCD
:10413000400202F580623E2C0BD9C4F34F10E30617
:1041400001D1401E80B201EA802040F4004010609E
:104150005BE0C4F34F00E30701D0401C80B201EAEA
:104160008020106051E0B6F850002A7807EBC202B8
:10417000104406EB400202F580623E2C0BD9C4F3DA
:104180004F10E30601D1401E80B201EA802040F4C6
:104190000040106008E0C4F34F00E30701D0401C6A
:1041A00080B201EA80201060687810B1012822D026
:1041B0002BE0B6F850002A780CEBC202104406EB54
:1041C000400202F580623E2C0BD9C4F34F10E30687
:1041D00001D1401E80B201EA802040F4004010600E
:1041E00013E0C4F34F00E30701D0401C80B201EAA2
:1041F0008020106009E0B6F85000297807EBC10173
:10420000084406EB4000C0F80044287836F8201037
:104210004BF68F72114081F4805181F4005141EAD4
:10422000080126F820100020BDE8F08130F8401F7A
:1042300041F43F4101800020704700000148FDF734
:104240008ABE0000FC070020B0F8440070475B1CE9
:104250005B0800EB420000F58060002B06D030F8D0
:10426000042B21F8022B5B1E002BF8D17047002095
:104270007047002902D18021A0F84C10002070471F
:1042800010B55B1C5B0800EB420000F58060002B62
:1042900009D00A784C78891C42EA042220F8042BC1
:1042A0005B1E002BF5D110BDFEE7FEE702E008C85B
:1042B000121F08C1002AFAD170477047002001E0A0
:1042C00001C1121F002AFBD17047000030B5012A3E
:1042D00019D0022A29D0032A14D11D4D2A7842432D
:1042E0001320431E1C4631F8133021F81030285C8F
:1042F00003FB0022E0B20028F3D16420B2FBF0F00F
:1043000080B2088030BD124D0F3D2A784243042010
:10431000431E1C4631F8133021F81030285C03FB93
:104320000022E0B20028F3D1E7E7094D0A3D2A78E0
:1043300042430920431E1C4631F8133021F8103047
:10434000285C03FB0022E0B20028F3D1D5E700008F
:10435000FF01002090B00024FDF744FCFEF7D8FCDC
:10436000FEF7A2FA9548FCF7C1FDDFF85082B8F8D5
:104370000000A0F57F41FF3905D19148FCF7CCFD45
:104380004046FCF7B3FD8D48FCF772FF8B48FBF706
:10439000D3FF8A48FCF7A0FE6F464FF0000ADFF813
:1043A0002492DFF824B2FDF70FFC054699F80100CE
:1043B00000B1012099F801100A2901D8012100E07B
:1043C000002108426FD0022440216846FBF7D3FE4B
:1043D00002208DF8000099F801008DF8010099F88D
:1043E000010009281DD2DFE800F084051D32475C7A
:1043F00072787F00B8F80000ADF80200381D142272
:1044000008F10201FBF79EFED8F816000690D8F8D6
:104410001A00079069491E221E310DF12100FBF799
:1044200091FE66E000260DE03046C0EB001008EB80
:104430004001761CF6B23C3138191E22FBF782FE91
:104440001E34E4B2C4F140001E28EDD851E002262B
:104450000DE03046C0EB001008EB4001761CF6B2D0
:104460003C3138191E22FBF76DFE1E34E4B2C4F154
:1044700040001E28EDD83CE004260DE03046C0EB9D
:10448000001008EB4001761CF6B23C3138191E22B0
:10449000FBF758FE1E34E4B2C4F140001E28EDD8EC
:1044A00027E006260EE02DE03046C0EB001008EBBA
:1044B0004001761CF6B23C3138191E22FBF742FE51
:1044C0001E34E4B2C4F140001E28EDD811E0B81C3F
:1044D0003E223E49FBF736FE0BE03C49B81C3E222B
:1044E0003E31FBF72FFE04E038485430806ACDF8A7
:1044F0000200402269463648FEF7FDFC89F801A01B
:1045000005F57A7499F80200012801D9012000E02C
:10451000002099F802100A2901D8012100E00021A9
:1045200008420FD003208DF83C0099F802008DF866
:104530003D0002220FA92648FEF7DDFC89F802A003
:1045400005F57A74B9F80400A0B104208DF83C0098
:10455000B9F80400000A8DF83D00B9F804008DF8A0
:104560003E0003220FA91A48FEF7C5FCA9F804A0D3
:1045700005F57A74B8F81C10281B884209DD2C4612
:10458000012059468BF801003522491C1048FEF7DE
:10459000B2FC99F8000008B1FCF7D2FD0BF1020063
:1045A000FCF74EFB08492631A1F11400FBF76CFF24
:1045B00005482230FEF77CFBF5E60000E80200200B
:1045C00010460008000000204A05002014040020C6
:1045D0008005002070B5DDE90546049D884201D2C2
:1045E000084670BD984201D9184670BD904207D266
:1045F000401A631B5843511AB0FBF1F0284470BDB8
:10460000801A311B4843991AB0FBF1F0204470BD69
:104610000100467265654A6F7900000000000000E5
:104620000000000000001E00C8001E000A00050572
:10463000050505050505010101010101010104044C
:104640000403030300000000000000000000FF0757
:10465000FF0F0000009CB3C9DFF50B21374D64004C
:10466000000000000000000000000000FF07FF0F36
:104670000000009CB3C9DFF50B21374D640000003A
:1046800000000000000000000000FF07FF0F000016
:10469000009CB3C9DFF50B21374D6400000000001A
:1046A0000000000000000000FF07FF0F0000009C5A
:1046B000B3C9DFF50B21374D640000000000000096
:1046C000000000000000FF07FF0F0000009CB3C9BE
:1046D000DFF50B21374D64000000000000000000F2
:1046E00000000000FF07FF0F0000009CB3C9DFF5CA
:1046F0000B21374D640000000000000000000000A6
:104700000000FF07FF0F0000009CB3C9DFF50B217D
:10471000374D6400000000000000000000000000B1
:10472000FF07FF0F0000009CB3C9DFF50B21374DD9
:104730006400000000000000000000000000000015
:104740000000000000000000000000000000000069
:104750000000000000000000000000000000000059
:104760000000000000000000000000000000000049
:104770000000000000000000000000000000000039
:104780000000000000000000000000000000000029
:104790000000000000000000000000000000000019
:1047A0000000000000000000000000000000000009
:1047B00000000000000000000000000000000000F9
:1047C00000000000000000000000000000000000E9
:1047D00000000000000000000000000000000000D9
:1047E00000000000000000000000000000000000C9
:1047F00000000000000000000000000000000000B9
:1048000000000000000000000000000000000000A8
:104810000000000000000000000000000000000098
:104820000000000000000000000000000000000088
:104830000000000000000000000000000000000078
:104840000000000000000000000000000000000068
:104850000000000000000000000000000000000058
:104860000000000000000000000000000000000048
:104870000000000000000000000001020304060721
:1048800008090000A448000800000020E802000019
:10489000B0010008744A0008E8020020E027000088
:1048A000BC420008811305311B084D041A59041A33
:1048B00081041AAD0413CD301B0811081704030935
:1048C00004120132021640830419261E020102035B
:1048D0000134100F010905A10185010509190129FC
:1048E0008015180925017501958081021810113075
:1048F00009310932093309340935093609361518E1
:104900000C26FF0F75109508810209392913073508
:10491000280A463B016512750895011389041206A1
:104920002CFF09012F11392F114D850209020F1596
:1049300008953F812B09033312911A8593393D1154
:104940002B09051A19121C0409060A1A02124A0731
:104950001223C03C1420590C1B0855041A5D045145
:104960001C080140BB39081202190A19082A04DB85
:10497000190812083A030812103A040812203A05DE
:104980000812403A060812803A0708111A014B290A
:10499000084B0209084B040A0823800F5A0C6019BF
:1049A0000839601908395819083958190839581937
:1049B000083958190839581908395829082958291F
:1049C00008295829084B080B084B100C084B200DE0
:1049D000084B400E0829785A101829082918290868
:1049E0002918F118152D1E0F05051E140A0A0A06AE
:1049F00006040202190F0A0A05015A02011A0101EE
:104A000091290A29045A020419C6390419C639041D
:104A100019C6390419C6390419C639042934821053
:104A20002BA24A2B1113992E1B082B0413212F198B
:104A3000E5211A5D0C13F92D1B080708C11A811016
:104A400069045A8D1C1409022919971CC032094B9C
:104A50002A02821509211101140122A016070581DD
:104A600003401D01070501072974791A313B0A0625
:044A7000B72A409091
:04000005080000ED02
:00000001FF
