:020000040800F2
:20000000202B002001010008532E0008DB2D0008512E0008AF050008D94A00080000000064
:20002000000000000000000000000000113300084D0E000800000000E53200087133000846
:200040001B0100081B0100081B0100081B0100081B0100081B0100081B0100081B01000880
:200060001B0100081B0100081B0100081B0100081B0100081B0100081B0100081B01000860
:200080001B0100081B0100081B0100081B010008454A00081B0100081B0100081B010008CD
:2000A0001B0100081B0100081B0100081B0100081B0100081B0100081B0100081B01000820
:2000C0001B0100081B0100081B0100081B0100081B0100081B0100081B0100081B01000800
:2000E0001B0100081B0100081B010008DFF80CD000F04CF800480047FD4A0008202B002064
:200100000648804706480047FEE7FEE7FEE7FEE7FEE7FEE7FEE7FEE7FEE7FEE731340008D6
:20012000ED000008202A04DB203A21FA02F00021704721FA02F3D040C2F120029140084351
:200140001946704740EA01039B0703D009E008C9121F08C0042AFAD203E011F8013B00F819
:20016000013B521EF9D27047D2B201E000F8012B491EFBD270470022F6E710B513460A4670
:2001800004461946FFF7F0FF204610BD064C074D06E0E06840F0010394E8070098471034F0
:2001A000AC42F6D3FFF7A6FFE44F00080450000870B58C1810F8015B15F0070301D110F840
:2001C000013B2A1106D110F8012B03E010F8016B01F8016B5B1EF9D12B0705D40023521E00
:2001E0000DD401F8013BFAE710F8013BCB1A921C03E013F8015B01F8015B521EF9D5A14271
:20020000D8D3002070BD70B5044600252068806800F00100F0B12068806820F00100216846
:20022000886001F093FD05460EE001F08FFD401B022809D9A06A40F01000A062E06A40F072
:200240000100E062012070BD2068806800F001000028EAD10020F6E770B505466C6AA06A7C
:2002600000F05000E0B9A06A40F40070A0622068806800F46020B0F5602F0DD1E06858B9A6
:20028000A06A20F48070A062A06A00F4805018B9A06A40F00100A062204601F0E3F803E05D
:2002A000206A016B2846884770BD70B505466C6AA06A40F04000A062E06A40F00400E0625C
:2002C000204601F0D1F870BD70B50446656A284601F0C9F870BD000038B5044600250020CA
:2002E00000902068806800F0010080BB2068806840F0010021688860164800681649B0FBF0
:20030000F1F0009002E00098401E009000980028F9D101F01BFD054613E001F017FD401BD3
:2003200002280ED9A06A40F01000A062E06A40F00100E06200BF002084F8240000BF012044
:2003400038BD2068806800F001000028E5D00020F6E700007402002040420F002DE9F043FD
:200360000746494887B00025416941F001014161416901F001010091816941F40071816124
:200380008069DFF80C8100F4007000903F48C8E900058020C8E902504FF48079C000C8E98F
:2003A00004902020C8F81800C001C8F81C002E46404601F0BFF918B1AF2136A004F08DFB66
:2003C000334C303C0020C4F82080C8F824403918897F052901D16D1CEDB2401C1E28F6DB9E
:2003E000082D03D9BE212BA004F077FB9DB12D48206001206661C4E9029066604FF46020E9
:200400002561E0612248303801F030F818B1CD2120A004F062FBDFF890900024B046381900
:20042000807F05281DD159F8341009EBC4060291307902A9401CCDE903081548303800F096
:2004400061FF18B1DB2113A004F047FB3179C1EB011007EB400090F8420010B1384600F0FC
:200460009BF8641C1E2CDADB09492A464431A1F1740001F09FF8002803D0E82105A004F008
:200480002CFB07B0BDE8F0830010024008000240582300202E2E5C5372635C616E616C6FE8
:2004A000672E6300002401402802002010B50C4618B110220649FFF745FE002C07D00449AB
:2004C00020461022BDE810401039FFF73BBE10BDAC2300202DE9F0472E4E0746002506F169
:2004E000200940F6FF7806F1100A00BFC5EB051107EB410436F8150094F8421099B1B4F842
:200500004010814202D2A4F8400003E0A18F814200D9A087B4F84000A18F0844E18F400822
:20052000814200D0E08705EB850194F8442009EBC10136F8150000F0FBFDA18FB4F83EC0A0
:20054000B4F840304246884216D3984201D9194612E0604507D2401AC0EBC020ACEB010143
:20056000B0FBF1F108E0A0EB0C00C002A3EB0C01B0FBF1F101F2FF7189B204F13C000A2389
:2005800002F0C7FE2AF815006D1C082DAEDBBDE8F08700009C230020C1EB011100EB410041
:2005A0000022A0F8402040F6FF7181877047FEE72DE9F047F64E0746F64D30780C4600EBD1
:2005C000400015F8301005EBC0004170F06800EBC70150F83700898801F0A6FB50B10020DF
:2005E0003178E21901EB410105F83100927F022A02D005E00120F3E7E8B1002005F8310025
:2006000001F0A4FB3178E24F04EB01087F1D98F82C3100224FF0010C162B3DD2DFE803F077
:20062000160D4A7BA6C0E5E5E5E5FDFDFDFDFCFCFCFCFBFBFBFB0120E0E701EB410315F8E3
:200640003360F6B15FF0000605F8336001EB410305EBC3010E79B6B115F833708B789F4215
:200660001CD0D1E90256E38A451B62EB06065B1B72EB060312D20A71CF708F70087C3844DD
:2006800047E00126E0E715F833308C78A34203D0C1E9020281F804C0BDE8F087E38AD1E9EB
:2006A0000245041B62EB05001B1B72EB0000F3D20A71F1E701EB410305EBC30115F8333083
:2006C0000E7996B1B3B1E38AD1E90245001B62EB0504181A72EB0400DED20A7181F802C010
:2006E000C878A0B10020C87075E08D78AB42CFD8002BD1D1E38AD1E90245041B62EB050077
:200700001B1B72EB0000C7D20A718A70C4E70120E9E70874C0E701EB410305EBC3010E790E
:200720009EB115F833708B789F4213D0D1E90256E38A451B62EB06065B1B72EB060309D204
:200740000A7181F803C08F7045E015F833308D78AB429DD1238BD1E90245041B62EB0500CE
:200760001B1B72EB000097D2CA70A1E701EB410705EBC701A8460B7983B318F837908D784B
:20078000A94519D8D1E90256248B401B62EB0605201A72EB05008CD218F837008870E3E703
:2007A00001EB410705EBC701A8460B79B3B118F837908D78A945E5D2D1E90256E38A451B17
:2007C00062EB06065B1B72EB0603DBD20A7181F803C081F80290087C401C9AE7FFE718F81E
:2007E00037308D78AB42CDD052E701EB410305EBC3010E79002E3FF446AF15F833C08B7806
:200800009C453FF44BAFD1E90256E38A451B62EB06065B1B02E088E054E020E072EB060338
:20082000BFF43CAF0A7181F803C081F802C0087C6044087498F82C01062806D0072807D0BD
:20084000082808D087F800C026E742EACC0004E042EA8C0001E042EA4C0038701CE701EBC0
:20086000410305EBC3010E79002EC4D015F833C08B789C45C5D0D1E90256E38A451B62EB92
:2008800006065B1B72EB0603CAD20A7181F803C081F802C0087C6044087498F82C010A284F
:2008A00006D00B2807D00C2808D087F801C0F3E642EACC0004E042EA8C0001E042EA4C0046
:2008C0007870E9E601EB410305EBC3010E79002E91D015F833C08B789C4592D0D1E902560F
:2008E000E38A451B62EB06065B1B72EB060397D20A7181F803C081F802C0087C60440874F7
:2009000098F82C010E2806D00F2807D0102808D087F802C0C0E642EACC0004E042EA8C0075
:2009200001E042EA4C00B870B6E601EB410305EBC3010E79002E98D015F833C08B789C45B5
:2009400098D0D1E90256E38A451B62EB06065B1B72EB060398D20A7181F803C081F802C0BF
:20096000087C6044087498F82C01122806D0132807D0142808D087F803C08DE642EACC0033
:2009800004E042EA8C0001E042EA4C00F87083E6F4010020181700202DE9F05F524C0746DD
:2009A0004FF0000884F8008004F10C0000F0A4FC00257819807F012801D0022806D1E8B219
:2009C0003946FFF7F5FD2078401C20706D1C1E2DEFDB00257819807F042829D1E068002249
:2009E00000EBC50150F83500898801F0A9F9002640F293192078802803D949463BA004F0A7
:200A00006CF8B819807F032806D1F0B23946FFF7CFFD2078401C2070761C1E2EEADBE0684E
:200A2000012200EBC50150F83500898801F088F96D1C1E2DCEDB3946314800F009FADFF8A3
:200A4000C0C0002001210CF54062257811E000BFC0F3C40700F00706D35D01FA06F4A3435E
:200A600000EB40040CEBC404E478B4401C43D455401CA842ECDB1C4C0020641D0625072642
:200A8000221F4FF004094FF0050A4FF0020B4FF0030E43465FF0FF0714F800C0BCF10D0F6C
:200AA0001CD2DFE80CF01B07090C0F1B121B15171B1B1900155412E002F800900FE002F8AE
:200AC00000A00CE002F800B009E002F800E006E0135404E0165402E0115400E01754401C94
:200AE0000428D9DBBDE8F09FF40100202E2E5C5372635C627574746F6E732E6300000000F1
:200B000018170020002803D010220249FFF71ABB7047000018230020002070470020704783
:200B20002DE9F0478848022586B0D0F818422078022805D01822032805D0042874D18DE06A
:200B400060788249FAE06078814E092877D2DFE800F0760516293D51656C7100211D142242
:200B6000B01CFFF7EFFAA069C6F81600E069C6F81A0077481E2204F121011E3051E0002710
:200B8000C7EB071006EB40007F1CFFB261191E223C30FFF7D7FA1E35EDB2C5F140001E28F4
:200BA000EED84CE05FF00207C7EB071006EB40007F1CFFB261191E223C30FFF7C3FA1E3579
:200BC000EDB2C5F140001E28EED838E05FF00407C7EB071006EB40007F1CFFB261191E2202
:200BE0003C30FFF7AFFA1E35EDB2C5F140001E28EED824E05FF00607C7EB071006EB40009C
:200C00007F1CFFB261191E223C30FFF79BFA1E35EDB2C5F140001E28EED810E0A11C3E22D6
:200C20004C48FFF78FFA0AE061E04A48A11C3E223E30F6E74748D4F80210543081626078D0
:200C40000A2802D24449401C78E04448008830803F4800F0A3F801F079F970E0002104910E
:200C6000B4F80100DFF8F89045BA3E48DFF8F880C5B10188D9B3C5EB05178246B1EB870F43
:200C800036D900F0ABFE0026A01906EB8701828841440023012000F049FEB61CF6B23C2E66
:200CA000F2D31FE0A3880380B3F5C84F47D8CDE902824746009100F091FE04A9684600F0C2
:200CC000D3FDB8460026C5EB0517A01906EB8701828841440023012000F028FEB61CF6B2BF
:200CE0003C2EF2D300F018FE6D1CA9F8005026E000F074FE0025464660190023828805EB96
:200D000087008119012000F011FEAD1CEDB23C2DF2D300F001FE14481349801CC91C00785C
:200D2000097840EA01241048BAF800103C3000F05FF8844203D110B10C490120087006B017
:200D40000020BDE8F0870000D405002001000020B00E0020DC0F002002000020FC02002014
:200D60000400002000010020006400080000002010B500280CD00749074A40F262230988F0
:200D800002EB8122002154584450091D9942FAD310BD0000E0F7FF1F00FCFF07F0B585B0F6
:200DA0000021049105001CD00F48104A0088009102EB80260120CDE9026000F00FFE04A94C
:200DC000684600F051FD002440F262272A5931190023022000F0AAFD241DBC42F6D300F0A7
:200DE0009BFD05B0F0BD0000E0F7FF1F00FCFF0770B50D460646002402F00CF800220749B2
:200E000008E0B05C6040C0B2521C31F8100092B280EA1424AA42F4D3204670BDFC240020B9
:200E200030B590F840500124AC40C56B6C60046863604468102C04D10468A2600468E160A1
:200E400003E00468A1600468E26030BD704700002DE9F0470026894605464FF0010A34469F
:200E6000DFF8DC8000F072FF06EB460C08EBCC0191F91220802A41DA91F91330802B3DDACB
:200E800003EB430315F83370DFB105EBC3035B78BBB902EB420315F833207AB308F83CA046
:200EA0000F8A05EBC3037F1C0F82C1E9020483F803A091F91220802A20DA91F91320802A22
:200EC0001CDA91F9122002EB420215F83230ABB105EBC20252788AB991F9132002EB4202B5
:200EE00015F8323053B181F801A00F8A05EBC2027F1E0F82C1E9020482F803A0D1E902372A
:200F0000B9F81A20C01A64EB0703101A74EB030010D24C7008F83C4091F9120000EB400046
:200F200005EBC000C47091F9130000EB400005EBC000C470761C402E94DBBDE8F087000096
:200F400018110020F0B500277C1E2546174E3A46294600BF02EB420306EBC303521C997400
:200F6000D974402AF6DB0023C11891F82C11162917D1A34215DD0022811891F82C11172968
:200F80000CD1AA420ADD07EB470106EBC1015CB28C7455B27F1CCD74FFB202E0521C802A18
:200FA000EADB5B1C802BDFDBF0BD00001811002004490020087072B603494868096881F3AC
:200FC000088800470000002000D000080021074AD1610749096941F00401054A116111468E
:200FE000096941F0400111617047000000270020002002400021074AD1610749096941F0A4
:201000000201054A116111464861096941F040011161704700270020002002400022054BE4
:20102000DA61054A126942F00102034B1A61018070470000002700200020024000201E4945
:20104000C96801F0100139B11C49C96941F002011A4AD16140F010001749C96801F004014B
:2010600039B11649C96941F00101144AD16140F004001149C96901F0010169B10F49C969DB
:2010800041F004010D4AD16100BF0B49C96921F00101094AD16100BF00BF40F20111884228
:2010A00006D10549C96921F00101034AD16101E00149C86000BF70470020024000270020D5
:2010C00070B5044600F042FE054609E0601C38B124B100F03BFE401BA04201D9032070BD73
:2010E0001248C06800F001000028EFD10F48C06800F0200020B100BF20200C49C86000BFFA
:201100000A48C06800F0100048B90848C06900F0010020B90548C06800F0040018B1FFF7E9
:201120008DFF0120DBE70020D9E700000020024030B5012A1BD0022A2CD0032A16D11F4B5D
:201140001A7842435FF0130001EB400434F8024C21F810401D5C401E04FB052210F0FF0007
:20116000F2D16420B2FBF0F080B2088030BD134B0F3B1A784243042001EB400434F8024C67
:2011800021F810401D5C401E04FB052210F0FF00F2D1E6E7094B0A3B1A7842435FF0090052
:2011A00001EB400434F8024C21F810401D5C401E04FB052210F0FF00F2D1D2E7130200206F
:2011C0002DE9F04F0546484885B0816941F010018161816901F010010091816941F02001E3
:2011E0008161816901F020010091816941F004018161816901F004010091816941F00801E9
:20120000816180694FF4805800F0080001260024CDE900084FF0020ADFF8D0B0CDE9026429
:20122000574601A9CDF810A0584600F0EFFBCDE903474FF400592E4FCDE9019601A93846EC
:2012400000F0E4FB0BE04146584600F075FD4946384600F071FD4FF4967000F0F1FA28880E
:201260000028F0D1DFF88C8000274FF00309E819807F01280AD0022811D0032806D00428F5
:2012800017D005281ED006281CD027E008EBC701CDF81090029489880396019119E008EB4D
:2012A000C701CDF8109002948988CDF80CA001910FE008EBC70102A889880191112180E8C6
:2012C000120206E008EBC7008088CDF81090CDE9010958F8370001A900F098FB7F1C1E2F91
:2012E000C5DB05B0BDE8F08F00100240000C014000100140040100200149016070470000FE
:201300000401002038B5024600230020009000BF92F82400012801D1022038BD012082F886
:20132000240000BF4868072812D21068406B0C79641E04EB84051F24AC40A0430D796D1E42
:2013400005EB85050C68AC4020431468606327E048680D2812D21068006B0C79E41F04EBE7
:2013600084051F24AC40A0430D79ED1F05EB85050C68AC4020431468206311E01068C06A71
:201380000C790D3C04EB84051F24AC40A0430D790D3D05EB85050C68AC4020431468E0622A
:2013A00008680A2812D31068C0680C780A3C04EB44050724AC40A0430D780A3D05EB450504
:2013C0008C68AC4020431468E0600FE0106800690C7804EB44050724AC40A0430D7805EB13
:2013E00045058C68AC402043146820610868102802D00868112827D1174C1068A0421ED19C
:201400001068806800F40000F0B91068806840F400001468A0600868102815D10F48006872
:201420000F4CB0FBF4F000EB80004000009002E00098401E009000980028F9D104E0906AB7
:2014400040F020009062012300BF002082F8240000BF184661E70000002401407402002049
:2014600040420F0070477047704700002DE9F0410446002700250026A84614B90120BDE832
:20148000F081A06810B1606900B100BFA06A30B90020E06284F82400204600F089F82046A7
:2014A000FEF7B1FE0746A06A00F01000002873D1002F71D1A06A20F4885040F00200A0622A
:2014C000E16960680843E16840EA41000643A068B0F5807F02D0A068012802D14FF48070FD
:2014E00000E0002005436069012811D1E06838B9A069401E4FF4006141EA4030054307E0C2
:20150000A06A40F02000A062E06A40F00100E0622068406820F469402843216848602068A1
:20152000806821490840304321688860A068B0F5807F02D0A068012802D14FF4807000E098
:201540000020B0F5807F03D1208A401E4FEA00582068C06A20F4700040EA08002168C8623F
:201560002068806811490840B04208D10020E062A06A20F0020040F00100A06211E0A06AE2
:2015800020F0020040F01000A062E06A40F00100E062012705E0FFE7A06A40F01000A062FB
:2015A000012738466BE70000FDF7E1FFFE0E1FFF704700002DE9F04104460D461646002717
:2015C00057492068884203D056492068884205D15348001D006800F4702000E000200028B3
:2015E0007ED100BF94F82400012802D10220BDE8F081012084F8240000BF2046FEF76CFEB4
:201600000746002F6DD1A06A40F60161884340F48070A06243492068884209D14048001D20
:20162000006800F4702008B9012002E0002000E0012078B1A06A20F48010A06220684068D0
:2016400000F4806000B3A06A20F4005040F48050A06219E0A06A40F48010A06230492068C5
:20166000884203D02F492068884205D12C48001D006800F4806000E0002028B1A06A20F469
:20168000005040F48050A062A06A00F4805020B1E06A20F00600E06201E00020E06200BFB1
:2016A000002084F8240000BF1F48216A88621F48216AC8621E48216A08636FF0020021686D
:2016C00008602068806840F4807021688860226802F14C0133462A46206A00F063F801E034
:2016E0001AE014E02068806800F46020B0F5602F06D12068806840F4A000216888600CE06C
:201700002068806840F480102168886005E000BF002084F8240000E00127384667E70000EC
:20172000002401400028014059020008C9020008AB0200080146002209B901207047184B8A
:201740000868C01A1423B0FBF3F08000086414480838C863022081F821000868026843F6F8
:20176000F0708243D1E901031843CB6818430B6918434B6918438B691843CB69184302439C
:201780000868026000208862C862086348638863012081F82100002081F8200000BFCDE75B
:2017A000080002402DE9F04104460D4616461F464FF0000800BF94F82000012802D102206A
:2017C000BDE8F081012084F8200000BF94F8210001282CD1022084F821000020A06320683A
:2017E000006820F00100216808603B46324629462046FFF715FBE06A30B12068006840F060
:201800000E00216808600BE02068006820F00400216808602068006840F00A0021680860CE
:201820002068006840F001002168086006E000BF002084F8200000BF4FF002084046BFE701
:2018400070B5044600F082FA06462546681C10B104480078054400BF00F078FA801BA842FE
:20186000FAD370BD700200202DE9F04104460E460127002500BF2648007E012802D10220E1
:20188000BDE8F08101202249087600BF2068022813D14CF25030FFF713FC90BB0120FFF7AE
:2018A00095FB4CF25030FFF70BFC07461948006920F004001749086123E04CF25030FFF732
:2018C000FFFBF0B94FF0FF303060A56812E02846FFF790FB4CF25030FFF7F2FB07460D4836
:2018E000006920F002000B4908610FB1356007E005F58065D4E9021001EB8020A842E6D892
:2019000000BF00BF00200249087600BF3846B7E700270020002002400348006940F0800078
:201920000149086100207047002002402DE9FE4F05468B4617469846012600240020029004
:2019400000BF2448007E012802D10220BDE8FE8F01202049087600BF4CF25030FFF7B0FB68
:20196000064686BB012D02D10120029006E0022D02D10220029001E00420029000241EE0D1
:201980002201B946C24648465146FEF7CBFB80B20190022000FB04B000900199FFF73EFB50
:2019A0004CF25030FFF78CFB06460B48006920F001000949086106B104E0601CC4B20298F1
:2019C0008442DDDB00BF00BF00200249087600BF3046BBE700270020002002400020084931
:2019E000096901F0800151B10649054A5160064951601146096901F0800101B101207047ED
:201A00000020024023016745AB89EFCD2DE9F84703460024002000258446002700226EE13B
:201A20004FF0010808FA02F4D1F8008008EA0400A0427DD1DFF8D0A2D1F80480A8EB0A09BB
:201A4000D0453AD014DCB8F1030F50D009DCB8F1000F31D0B8F1010F1CD0B8F1020F49D185
:201A600020E0B8F1110F18D0B8F1120F42D11EE0B9F5881F25D006DCB9F5803F20D0B9F5A3
:201A8000801F37D11AE0B9F5001F18D0B9F5041F30D117E0D1F80CC02DE0D1F80C8008F137
:201AA000040C28E0D1F80C8008F1080C23E0D1F80C8008F10C0C1EE000BF00BF00BF00BF49
:201AC00000BF00BFD1F80880B8F1000F02D14FF0040C0BE0D1F80880B8F1010F03D14FF055
:201AE000080C1C6102E04FF0080C5C6103E04FF0000C00E000BF00BFFF2801D8984601E018
:201B000003F104084646FF2802D84FEA820803E0A2F108084FEA88084746D6F800804FF00C
:201B20000F0909FA07F928EA09080CFA07F900E088E048EA0908C6F80080D1F8048008F053
:201B40008058B8F1805F7DD100BFDFF8C081D8F8188048F00108DFF8B491C9F81880C846D4
:201B6000D8F8188008F00108CDF8008000BF00BF4FEAB9384FEA920958F829504FEA82783F
:201B80004FEA18794FF00F0808FA09F825EA0805DFF87C81434502D14FF0000816E0DFF8C3
:201BA0007481434502D14FF001080FE0DFF86881434502D14FF0020808E0DFF86081434512
:201BC00002D14FF0030801E04FF004084FEA82794FEA197908FA09F848EA0505DFF84081E6
:201BE0004FEA920948F82950D1F8048008F48038B8F5803F0AD1DFF82C81D8F8008048EA0A
:201C00000008DFF82091C9F8008009E0DFF81481D8F8008028EA0008DFF80891C9F8008083
:201C2000D1F8048008F40038B8F5003F10D1DFF8F48008F10408D8F8008048EA0008DFF8A5
:201C4000E49000E05AE009F10409C9F800800DE0DFF8D08008F10408D8F8008028EA00082B
:201C6000DFF8C09009F10409C9F80080D1F8048008F48018B8F5801F0ED1DFF8A88008F1F1
:201C80000808D8F8008048EA0008DFF8989009F10809C9F800800DE0DFF8888008F108088A
:201CA000D8F8008028EA0008DFF8789009F10809C9F80080D1F8048008F40018B8F5001F62
:201CC0000ED1DFF8608008F10C08D8F8008048EA0008DFF8509009F10C09C9F800800DE0E3
:201CE000DFF8408008F10C08D8F8008028EA0008DFF8309009F10C09C9F80080521C102A47
:201D0000FFF48EAEBDE8F887000011100010024000080140000C01400010014000140140C1
:201D20000800014000040140024693680B400BB1012000E000207047C2684A40C260704766
:201D40000AB1016101E00B04036170470148006870470000680200200348006803490978E9
:201D60000844014908607047680200207002002010B50848006840F01000064908600320FB
:201D800000F0D0F8002000F007F800F02BF8002010BD00000020024070B504460E480078DD
:201DA0004FF47A71B1FBF0F00C490968B1FBF0F5284600F0F4FF08B1012070BD102C07D2A5
:201DC00000222146501E00F06EF80548046001E00120F2E70020F0E770020020740200200B
:201DE0006C02002008B500BF2648806940F00100244988610846806900F00100009000BF84
:201E000000BF00BF0846C06940F08050C8610846C06900F08050009000BF00BF032000F04C
:201E200081F8002211466FF00B0000F03CF8002211466FF00A0000F036F8002211466FF04A
:201E4000090000F030F800221146501F00F02BF800221146101F00F026F800221146901E89
:201E600000F021F800221146501E00F01CF800BF0549486820F0E06040F00070486000BF5A
:201E800008BD0000001002400000014000BF00F01F02012191404209920002F1E022C2F89B
:201EA000001100BF70472DE9F05F80460D461646002700F0CFFF074639462A46334601F036
:201EC0000700C0F1070ABAF1040F02D94FF0040A01E0C0F1070AD14600F1040ABAF1070FD9
:201EE00002D24FF0000A01E0A0F1030AD4464FF0010A0AFA09FAAAF1010A0AEA020A0AFA31
:201F00000CFA4FF0010B0BFA0CFBABF1010B0BEA030B4AEA0B042146404600F0A3FFBDE852
:201F2000F09F000000BF00F00702064B19684FF6FF031940044B0B4343EA0221014B196036
:201F400000BF70470CED00E00000FA0500BF00BF00BF00BF00BFBFF34F8F00BF00BF00BFAB
:201F60000948006800F4E06008490843001D0649086000BF00BF00BFBFF34F8F00BF00BFB9
:201F800000BF00BF00BFFDE70CED00E00000FA0570B505460C46002104F08000802806D172
:201FA00004F07F0605F1280000EB461103E005F50A7000EB44111AB9002088728B8004E0D5
:201FC00001208872CB80180C0881002070BD704700EB4112D0F85C04D26B01F0D0BC00EBDF
:201FE0004112D0F85C04D2F83C2201F01DBD70B504460D46002605F08000802806D105F0A2
:020000040800F2
:202000007F0104F1280000EB411605E005F07F0104F50A7000EB411605F07F00307005F0C9
:202020008000C009707000BF94F82804012801D1022070BD012084F8280400BF314620682F
:2020400002F091F900BF002084F8280400BF00BFEFE770B504460D46002605F08000802824
:2020600006D105F07F0104F1280000EB411603E004F50A7000EB45160020B07005F07F0065
:202080003070C5F3C010707000BF94F82804012801D1022070BD012084F8280400BF314678
:2020A000206802F08DFA00BF002084F8280400BF00BFEFE72DE9F04704460D46174698461F
:2020C0004FF00009002605F08000802806D105F07F0104F1280000EB411605E005F07F0170
:2020E00004F50A7000EB411605F07F00307005F08000C0097070376186F8038000BF94F815
:202100002804012802D10220BDE8F087012084F8280400BF3146206801F04CFF00BF0020B7
:2021200084F8280400BF4846EEE72DE9F04105460E4617469846002406F07F0105F50A70A6
:2021400000EB41146761C4F818800020E061607006F07F00207006F07F0020B921462868A8
:2021600002F0CBFA03E02146286802F0C6FA0020BDE8F08170B504460D46002605F0800089
:20218000802806D105F07F0104F1280000EB411603E004F50A7000EB45160120B07005F01A
:2021A0007F003070C5F3C010707000BF94F82804012801D1022070BD012084F8280400BF4F
:2021C0003146206802F056FA05F07F0020B904F22C41206802F0F1F900BF002084F8280423
:2021E00000BF00BFE7E72DE9F04105460E4617469846002406F07F0105F1280000EB41147A
:202200006761C4F818800020E0610120607006F07F00207006F07F0020B92146286802F014
:202220006CFA03E02146286802F067FA0020BDE8F08110B50446206802F00AFC00F4004012
:20224000B0F5004F02D1204600F020FE206802F0FFFB00F48060B0F5806F0ED12068B0F858
:20226000440020F480602168A1F84400204600F03FF90021204600F050F9206802F0E8FB15
:2022800000F48040B0F5804F07D12068B0F8440020F480402168A1F84400206802F0D8FB43
:2022A00000F40050B0F5005F07D12068B0F8440020F400502168A1F84400206802F0C8FB83
:2022C00000F48050B0F5805F1AD12068B0F8400020F004002168A1F840002068B0F8400075
:2022E00020F008002168A1F84000204600F00DF92068B0F8440020F480502168A1F844004A
:20230000206802F0A5FB00F40060B0F5006F20D12068B0F8400040F008002168A1F8400040
:202320002068B0F8440020F400602168A1F844002068B0F8400040F004002168A1F8400049
:20234000206802F085FBC0F3003010B9204600F025F9206802F07CFB00F40070B0F5007FEA
:202360000AD12068B0F8440020F400702168A1F84400204600F0CDF8206802F069FB00F437
:202380008070B0F5807F07D12068B0F8440020F480702168A1F8440010BD30B585B00446C2
:2023A000002514B9012005B030BD94F8290428B9002084F82804204600F07CF8032084F89D
:2023C0002904206802F0EEF8142204F110016846FDF7B8FE94E80F0001F0C1FF00212068F7
:2023E00002F04FFB002525E0012104F1280000EB4510417004F1280000EB4510057004F180
:20240000280000EB45108581002104F1280000EB4510C17004F1280000EB4510016104F1EB
:20242000280000EB4510416104F1280000EB451081616D1C0F2DD7D3002524E0002104F5A1
:202440000A7000EB4510417004F50A7000EB4510057004F1280000EB4510858104F50A7013
:2024600000EB4510C17004F50A7000EB4510016104F50A7000EB4510416104F50A7000EB23
:20248000451081616D1C0F2DD8D3142204F110016846FDF757FE94E80F0002F074F8002059
:2024A00084F82400012084F82904206802F068F8002078E708B500680B49884212D10B48E0
:2024C000C16941F40001C161C069002200F40000009011461420FFF7E6FCBDE80840142027
:2024E000FFF7D4BC08BD0000005C00400010024010B504460121D0F85C0401F075FBD4F81D
:202500005C04BDE8104001F03EBBD0F85C0401F059BBD0F85C0401F05BBB70B504460D465E
:2025200000BF94F82804012801D1022070BD012084F8280400BF84F824502946206802F079
:20254000A3FA00BF002084F8280400BF00BFEDE7D0F85C2400F22C41104601F058BB10B53F
:20256000044600BF94F82804012801D1022010BD012084F8280400BF01212046FFF727FD86
:20258000206801F0FAFF206802F050FA00BF002084F8280400BF00BFE9E7000010B5044621
:2025A000D0F85C0401F080FBA069002804D00348016841F00601016010BD000010ED00E08B
:2025C000F8B5044600260025207800F0010000286BD000274348C06900F0805070B900BF4A
:2025E0004048C06940F080503E49C8610846C06900F08050009000BF00BF01273A48006823
:2026000000F48070B0B93848006840F4807036490860FFF79BFB064606E0FFF797FB801B99
:20262000642801D90320F8BD2F48006800F480700028F2D02B48006A00F440752DB3A08821
:2026400000F44070A84220D02648006A20F44075012026490860002008602248056205F015
:20266000010090B1FFF772FB064608E0FFF76EFB801B41F28831884201D90320D3E71948B9
:20268000006A00F002000028F0D01648006A20F440706168084313490862012F04D108463D
:2026A000C06920F08050C86100BF207800F00200022807D10B48406820F44040A1680843BA
:2026C00008494860207800F01000102807D10548406820F48000E168084302494860002029
:2026E000A1E7000000100240007000404004424270B504460D4600266248006800F0070097
:20270000A8420ED25F48006820F0070028435D4908600846006800F00700A84201D00120C7
:2027200070BD207800F00200022807D15648406820F0F000A168084353494860207800F07A
:20274000010000285DD06068012806D14E48006800F4003090B90120E2E76068022806D13D
:202760004948006800F0007040B90120D8E74648006800F0020008B90120D1E74248406873
:2027800020F00300616808433F494860FFF7DEFA06466068012810D108E0FFF7D7FA801BAC
:2027A00041F28831884201D90320B9E73648406800F00C000428F0D123E06068022810D1E1
:2027C00008E0FFF7C3FA801B41F28831884201D90320A5E72C48406800F00C000828F0D17B
:2027E0000FE008E0FFF7B2FA801B41F28831884201D9032094E72448406800F00C0000285F
:20280000F0D12048006800F00700A8420ED91D48006820F0070028431A490860084600688F
:2028200000F00700A84201D0012079E7207800F00400042807D11448406820F4E060E16834
:20284000084311494860207800F00800082808D10D48406820F46050216940EAC1000A4909
:20286000486000F01DF808494968C1F30311074A515CC840064908600020FFF78DFA002067
:202880004EE700000020024000100240CA4F0008740200200148006870470000740200209A
:2028A000F0B585B00FF26C0C9CE8E01001A8A0E8E0101CA52D6800950021002200230024BB
:2028C0000020194D696801F00C05F5B1042D02D0082D19D101E0154819E001ADC1F3834675
:2028E000AC5D01F4803555B10F4D6D68C5F340451DF805200D4D6543B5FBF2F302E00C4DA5
:2029000004FB05F3184602E000BF084800BF00BF05B0F0BD02030405060708090A0B0C0D37
:202920000E0F1010010200000010024000127A0000093D00F8B504460025207800F001008E
:20294000002878D0F848406800F00C0004280CD0F548406800F00C00082811D1F248406846
:2029600000F48030B0F5803F0AD1EF48006800F4003000285FD0606800285CD10120F8BD67
:2029800000BF6068B0F5803F06D1E748006840F48030E549086028E0606858B9E2480068F1
:2029A00020F48030E04908600846006820F4802008601AE06068B0F5A02F0BD1DA48006854
:2029C00040F48020D84908600846006840F4803008600AE0D448006820F48030D2490860E3
:2029E0000846006820F48020086000BF606888B1FFF7ACF9054606E0FFF7A8F9401B6428FB
:202A000001D90320BBE7C848006800F400300028F2D010E0FFF79AF9054606E0FFF796F962
:202A2000401B642801D90320A9E7BF48006800F400300028F2D1207800F00200022857D1C8
:202A4000B948406800F00C0050B1B748406800F00C00082818D1B448406800F4803098B97B
:202A6000B148006800F0020020B12069012801D0012084E7AC48006820F0F800616940EACB
:202A8000C100A949086033E02069E8B10120A7490860FFF75BF9054606E0FFF757F9401B51
:202AA000022801D903206AE79F48006800F002000028F2D09C48006820F0F800616940EA2B
:202AC000C1009949086013E0002098490860FFF73DF9054606E0FFF739F9401B022801D9AB
:202AE00003204CE79048006800F002000028F2D1207800F0080008282DD1A069B8B1012012
:202B00008B490860FFF722F9054606E0FFF71EF9401B022801D9032031E78348406A00F02B
:202B200002000028F2D0012000F0DEFB13E000207F490860FFF70AF9054606E0FFF706F95D
:202B4000401B022801D9032019E77748406A00F002000028F2D1207800F00400042873D1B1
:202B600000267148C06900F0805070B900BF6E48C06940F080506C49C8610846C06900F081
:202B80008050009000BF00BF01266A48006800F48070B0B96748006840F480706549086078
:202BA000FFF7D4F8054606E0FFF7D0F8401B642801D90320E3E65F48006800F4807000289C
:202BC000F2D000BFE068012806D15748006A40F001005549086227E0E06858B95248006A86
:202BE00020F00100504908620846006A20F00400086219E0E06805280BD14B48006A40F014
:202C00000400494908620846006A40F0010008620AE04548006A20F001004349086208462B
:202C2000006A20F00400086200BFE068A0B1FFF78DF8054609E0FFF789F8401B41F28831E7
:202C4000884202D903209AE622E03748006A00F002000028EFD012E0FFF778F8054608E0DD
:202C6000FFF774F8401B41F28831884201D9032085E62D48006A00F002000028F0D1012E90
:202C800005D12948C06920F080502749C86100BFE069C8B32448406800F00C00082860D058
:202CA000E069022848D1002020490866FFF74EF8054606E0FFF74AF8401B022801D903206A
:202CC0005DE61948006800F000700028F2D1206AB0F5803F07D11448406820F40030A16886
:202CE000084311494860D4E9080108430E49496821F4741108430C49486001200B490866A9
:202D0000FFF724F8054607E02DE0FFF71FF8401B022801D9032032E60348006800F00070A8
:202D20000028F2D01FE000000010024000004242800442420070004000200C490866FFF743
:202D400005F8054606E0FFF701F8401B022801D9032014E60648006800F000700028F2D1D9
:202D600001E001200BE6002009E600000000424200100240042808D14FF0E021096941F093
:202D800004014FF0E022116107E04FF0E021096921F004014FF0E02211617047704770B586
:202DA00004462546681EB0F1807F01D301200FE0681E4FF0E02148610F214FF0FF3000F057
:202DC00051F800204FF0E021886107200861002070BD10B5FFF7E2FF10BDFEE710B500224F
:202DE0000849094800F096FD0849074800F089FF0749054800F0BEFBBDE81040024800F021
:202E0000CDBF000034000020D40500207C020020F000002070B50D4D00204AF2010400212A
:202E200003460A4681EA0306F60702D084EA510100E04908521C5B08D2B2082AF2D325F85C
:202E40001010401C80B2FF28E9D970BDFC240020FEE7704702480068C0F302207047000094
:202E60000CED00E010B5002807DA0A07140E054A00F00F031B1FD45403E00A07130E024A64
:202E8000135410BD18ED00E000E400E02DE9FC4105460024002700260020019000900CE217
:202EA000BDF8040000F00F06002E7DD1BDF8040000F0100088BB2868008848F60F710840BE
:202EC0002968088005F128042868B0F85010207801EBC000801C296801F5806131F810009E
:202EE000C0F30900E061E16960690844606100212846FFF76DF895F824000028CFD0A0694A
:202F00000028CCD195F8240040F080002968A1F84C00002085F82400CFE1FFE705F50A7446
:202F2000286800880090BDF8000000F4006018B32868B0F85010207801EBC000801D29680B
:202F400001F5806131F81000C0F30900E061A18B8BB2A28805F22C41286801F07EFD2868E1
:202F60000088C0F30E0048F68F710840296808802846FFF7EDFAA0E1BDF8000000F40040B4
:202F800000288CD028680088C0F30E0048F68F710840296808802868B0F85010207801EB19
:202FA000C000801D296800E055E001F5806131F81000C0F30900E061E06960B1B4F81CC01F
:202FC0001FFA8CF3A2886169286801F046FDE16960690844606100212846FFF700F82A6872
:202FE00002F580622868B0F85000801D02EB400122693E2A10D92269C2F34F10227C02F09A
:203000001F020AB9421E90B24FF6FF7202EA802242F400420A600DE02269C2F34F00227CEA
:2030200002F001020AB1421C90B24FF6FF7202EA80220A60296809884BF68F7201EA020041
:2030400080F4805080F4005040F4004141F080012A68118031E17100286830F81100009042
:20306000BDF8000000F4004000287CD07100286830F81100C0F30E0048F68F710840720000
:20308000296821F8120005F50A7000EB4614A07AA8B92868B0F85010207801EBC000801DC7
:2030A000296801F5806131F81000C0F30907EFB3A28861693B46286801F0CFFC44E021788C
:2030C0004900286830F8110000F48040A8B12868B0F85010207801EBC000801C296801F5D2
:2030E000806131F81000C0F30907DFB1E28861693B46286801F0B1FC14E02868B0F85010F4
:20310000207801EBC000801D296801F5806131F81000C0F309072FB1228961693B46286804
:2031200001F09BFC21784900286800E00CE030F8110048F68F71084048F2C001084322782A
:203140005200296821F81200E0693844E061606938446061A06910B12069B84204D9217892
:203160002846FEF73CFF05E021782846D4E90523FEF7DBFFBDF8000000F0800000287CD078
:2031800005F1280000EB46147100286830F8110048F60F7108407200296821F81200A07A44
:2031A000D0B92868B0F85010207801EBC000801C296801F5806131F81000C0F30900E06170
:2031C000E069E8B3B4F81CC01FFA8CF3A2886169286801F060FC4EE021784900286830F852
:2031E000110000F04000D0B12868B0F85010207801EBC000801C296801F5806131F81000F4
:20320000C0F30900E061E06928B3B4F81CC01FFA8CF3E2886169286801F03DFC1BE02868F4
:20322000B0F85010207801EBC000801D296801F5806131F81000C0F30900E061E06900E0DE
:2032400019E040B1B4F81CC01FFA8CF322896169286801F020FC21784900286830F81100A7
:2032600048F68F7108404CF28001084322785200296821F81200286800E01EE0B0F85010A0
:20328000207801EBC000801C296801F5806131F81000C0F30900E061E16960690844606190
:2032A000A06920B921782846FEF792FE05E021782846D4E90523FEF796FF2868B0F84400C9
:2032C000019000F4004000287FF4EAADBDE8FC81002803D00249D1F801100160704700009D
:2032E000F40100207047000008B508490968C9084FF47A72B1FBF2F14143009100BF00BF61
:2033000000994A1E00920029F9D108BD74020020704770B55B1E92FBF3F5B1FBF5F3DCB2E0
:20332000092C00D1082404FB05F3661C6E43B5B20619C82496F9090096F90A60504390FB10
:20334000F4F0564396FBF4F49BB200EB520004EB520299420AD3A94201D92B4606E0C91AF3
:20336000121A5143EA1AB1FBF2F10B1898B270BD10B50648FDF710FB0448FDF7ABF8FEF776
:20338000EBFCBDE81040FFF724BD0000FC02002030B593B001210804CDE900100024029486
:2033A00002250491CDE907504FF4E01009906846FFF7C0FA18B1492118A001F08EFB0F2086
:2033C000CDE90A054FF48060CDE90C4002210AA80E94FFF78DF918B1572110A001F07DFBB6
:2033E00010200F9012940FA8FFF7EAF818B15E210AA001F072FBFFF74DFA4FF47A71B0FB63
:20340000F1F0FFF7CCFC0420FFF7B4FC00221146501EFEF748FD13B030BD00002E2E5C5367
:2034200072635C7065726970686572792E6300001148006840F001000F490860084640684A
:203440000E4908400C494860084600680C490840094908600846006820F4802008600846A3
:20346000406820F4FE0048604FF41F008860C8030449086070470000001002400000FFF820
:20348000FFFFF6FE08ED00E0D0F81802002180F850100846704770B50546D0F81842D5F826
:2034A0001C226178D26820789047402322460121284600F058FB002070BD10B504468121B0
:2034C00000F04DFA0121204600F049FAD4F8180250B1D4F81C0204F506748068804720687F
:2034E00000F062FD00202060002010BD10B5D0F81842E16C012908D1D0F81C02237861785F
:20350000C268184690470020E064002010BD00002921018000487047B80200200A210180AB
:2035200000487047F002002070B50646002540230322812100F004FB4023032201213046AB
:2035400000F0FEFA542000F031FDC6F8180278B10446002084F85000D6F81C02406880475F
:20356000402322460121304600F0FDFA284670BD0125FBE702460220002902D00020C2F81F
:203580001C12704710B5134690F8FC41D0F81822032C09D192F8504034B9012482F8504022
:2035A0000A46812100F089FB002010BD70B500220D78D0F81832144615F0600526D0202DD3
:2035C0004CD14A78921E0A2A1CD2DFE802F010081B1B1B1B1B140C05887818643EE0012200
:2035E00003F1400131E04888000A586436E0012203F1440129E00122DA648A79194600F0C1
:2036000053F82BE000F045F8022070BD4D78062D04D00A2D1CD00B2D20D11DE04B882225A9
:20362000B5EB132F07D1CA88A02A00D9A022D0F81C120C6808E02125B5EB132F04D1CA8878
:20364000074C092A00D90922214600F047F805E0012203F14801F8E788789864002070BDDD
:20366000E402002010B5D0F8142252689047002010BD134610B50A46002100F074FA0020F6
:2036800010BD134610B50A46002100F016FB002010BD10B50446802100F0E6FA2046BDE855
:2036A0001040002100F0E0BA10B50323C0F80821C0F8F431C0F80C2113460A46002100F0C7
:2036C00052FA002010BD10B505210023C0F8F4111A46194600F047FA002010BD10B502231F
:2036E0008261C0F8F431C26113460A46002100F0E4FA002010BD10B504210023C0F8F41198
:203700001A46194600F0D9FA002010BD10B50A46024903A000F0DBF8004810BDB00C002083
:20372000437573746F6D2048494420436F6E666967000000122008800048704720000020AA
:2037400010B50A46024903A000F0C1F8004810BDB00C0020437573746F6D204849442049F3
:203760006E746572666163650000000004200880004870470800002010B50A46024903A02B
:2037800000F0A5F8004810BDB00C002053544D6963726F656C656374726F6E69637300006F
:2037A00010B50A460249034800F091F8004810BDB00C00200C00002010B50A46024903A0C5
:2037C00000F085F8004810BDB00C002030303030303030303030314100000000F8B5044642
:2037E00048880D46010A082954D2DFE801F05304091753534951D4F81012207C0A6819E0E0
:20380000207C02260028D4F8140205D0C16A68468847014646704AE0816AF8E7C1B20629CA
:2038200026D2DFE801F0030A0F14191ED4F81012207C4A686946904718E0D4F81012207C2D
:203840008A68F7E7D4F81012207CCA68F2E7D4F81012207C0A69EDE7D4F81012207C4A69F5
:20386000E8E7D4F81012207C8A69E3E701461EE0C1B2D4F814026A46836B20469847F5E7D9
:20388000207C38B9D4F81402416B68468847EDE7207C20B129462046FFF7FBFEF8BDD4F80A
:2038A0001402016B68468847014607204870BDF800000028F2D0EA88002AEFD0824200D94C
:2038C0000246ADF800202046FFF708FFF8BD70B5002300281DD00446002502E06D1CEDB2ED
:2038E000641C2678002EF9D1022404EB45041480CC545B1C0322CA5400245B1C06E0CA5447
:203900005B1CDAB28C54521CD3B2401C0278002AF5D170BD10B580B1D0F8143213B10023F3
:20392000C0F8143209B1C0F81012012180F8FC11027000F0AFF8002010BD022010BD10B5A4
:203940000024D0F82002FEF784FB30B1012801D0022801D0022400E00124204610BD10B5EC
:203960000024D0F82002FEF742FB30B1012801D0022801D0022400E00124204610BD2DE9BD
:20398000F0411746044641B1D4F8140242698AB394F8FC01032842D043E0D4F8F4110025B4
:2039A00004F11400022933D1D0E902639E4207D9F31A83609AB239462046FFF762FE12E088
:2039C0004068B0FBF3F103FB1101A1B9984212D3D4F8F81188420ED2002211462046FFF733
:2039E00050FEC4F8F85100231A461946204600F0BAF80DE012E0D4F81402C16829B194F83A
:203A0000FC01032801D1204688472046FFF75BFE94F80002012804D184F8005201E0204621
:203A200090470020BDE8F08170B51546044641B1D4F8140282693AB394F8FC01032824D05B
:203A400025E0D4F8F41104F5827003291FD1D0E902218A420BD9531A83600846834200D3C7
:203A600003469AB229462046FFF703FE0FE0D4F81402016929B194F8FC01032801D12046E4
:203A800088472046FFF737FE01E020469047002070BD000010B51C490446C1F85C04C0F816
:203AA00020121A48086008204860022088600320C86000208861C86108620846FEF76DFC9D
:203AC00020B14FF4977112A001F007F80022D4F820021823114604F50874FEF759FA58234E
:203AE000002280212068FEF753FA9823002281212068FEF74DFAD823002201212068FEF73A
:203B000047FA002010BD000050080020005C00402E2E2F5372632F757362645F636F6E66CE
:203B20002E6300000A06D0F8200201F07F0100EB411002D590F82A00704790F82A027047A2
:203B400070B51D4613460024D0F820022A46FEF7B1FA30B1012801D0022801D0022400E08A
:203B60000124204670BD10B50024D0F82002FEF7DCFA30B1012801D0022801D0022400E013
:203B80000124204610BD70B50022044640231146FFF7D6FF40252B46002280212046C4F8FC
:203BA0001051FFF7CDFF0120256284F8FC01D4F8180228B1D4F8140221794268204690479F
:203BC000002070BD90F8FD1180F8FC110020704710B590F8FC11032904D1D0F81412C9692B
:203BE00001B18847002010BD01740020704710B50024D0F82002FEF790FC30B1012801D0DC
:203C0000022801D0022400E00124204610BD70B5044600F50270054600F05FF80120C4F806
:203C2000F401B4F80E02C4F8F80194F8080210F01F010AD001290DD0022910D000F080010B
:203C4000204600F011F8002070BD2946204600F0AAF8F8E72946204600F08CF9F3E72946DF
:203C6000204600F019F9EEE710B50024D0F82002FEF780FA30B1012801D0022801D00224C9
:203C800000E00124204610BD10B50024D0F82002FEF765FC30B1012801D0022801D00224C7
:203CA00000E00124204610BD90F8FC1180F8FD11042180F8FC110020704710B50024D0F87F
:203CC0002002FEF790FA30B1012801D0022801D0022400E00124204610BD0A7802704A7859
:203CE00042708A78CB7802EB032242800A794B7902EB032282808A79C97902EB0121C18009
:203D000070470246002011B1C2F8141270470220704710B5D0F8142202241AB1126890474D
:203D200000B90024204610BD70B50E461A4D897804462970012928D894F8FC01022802D000
:203D4000032822D105E099B10320616084F8FC0109E091B1606888420AD0C1B22046FFF753
:203D600081FC297861602046FFF7D3FF02280CD02046BDE87040FFF7BEBC022084F8FC016A
:203D800020466160FFF76EFCF2E731462046BDE87040FFF77EBC00007802002010B5FFF70C
:203DA00073FF002010BD2DE9F04100264B78012532460A2B43D2DFE803F03C584251420861
:203DC00005422A27FFF70AFD63E004468888C8B9C888B8B9887800F07F0794F8FC01032845
:203DE00010D084F8FE7139462046FFF700FF2046FFF781FC1FB1022084F8FC0149E084F835
:203E0000FC5146E020461AE0FFF78EFF41E0CB88012B14D190F8FC31022B02D0032B0ED106
:203E200004E08260012200F1080114E00122011D11E090F8FC21022A04D0032A02D0FFF7DF
:203E400028FC26E0C560D0F8041209B10321C160022200F10C01FFF741FC1AE004464888CD
:203E6000012816D1C4F804520BE0044690F8FC01022801D00328C5D14888012809D1C4F81B
:203E80000422D4F814028268204690472046FFF732FC3046BDE8F08170B50D46044628787B
:203EA00000260979C0F34110012806D06878A0B301281FD003283FD107E0D4F81402294699
:203EC000826820469047002070BD94F8FC01022817D003282CD1688828B921B1802902D08E
:203EE0002046FFF7C1FED4F81402294682682046904713E094F8FC01022802D0032817D1A4
:203F000003E0C9B180291BD116E06888A0B9480604D02046FFF713FDE5E703E02046FFF7D7
:203F2000EAFB09E094F8FC01022807D003280BD029462046FFF7ADFB304670BD4806FBD0F4
:203F40002046FFF791FEF7E7080601F07F0004EB001501D5143501E005F582752046FFF7C9
:203F6000E1FD00B101202860022229462046FFF7B5FBE1E770B5054690F8FC010C46032830
:203F80000DD1207901280AD8D5F81402826828469047E08830B92846FFF7ADFB02E02846E0
:203FA000FFF777FB002070BD7047000000487047F807002010B50246C87830B101282CD024
:203FC000022810D0032836D119E00878400032F8100048F68F13184040F400700B785B00F8
:203FE00022F8130028E00878400032F8100048F68F1318400B785B0022F813001CE00878D3
:020000040800F2
:20400000400032F8100048F68F13184040F4C0600B785B0022F813000EE00878400032F8B7
:20402000100048F68F13184040F480600B785B0022F8130000E000BF00BF0878400032F8D1
:20404000100048F68F73184048F2800318430B7818435B0022F81300887A00287DD1487802
:2040600098B3888840104400B2F85030087803EBC00002F5806343F810400878400032F8AA
:20408000100000F0400068B10878400032F8100048F68F73184048F2C00318430B785B00FF
:2040A00022F813000B785B0032F8133048F6BF7403EA040080F0200040F4004343F0800369
:2040C0000C78640022F8143047E1FFE7888840104400B2F85030087803EBC000001D02F57C
:2040E000806343F81040B2F85040087804EBC000801D1C4604EB40030C693E2C10D90C697B
:20410000C4F34F100C7C04F01F040CB9441EA0B24FF6FF7404EA802444F400441C600DE042
:204120000C69C4F34F000C7C04F001040CB1441CA0B24FF6FF7404EA80241C60087840008E
:2041400032F8100000F4804078B10878400032F8100048F68F73184000E01BE04CF280031A
:2041600018430B785B0022F813000B785B0032F813304BF68F7403EA040080F4805080F4A1
:20418000005040F4004343F080030C78640022F81430E2E00878400032F8100040F480707C
:2041A00048F68F73184048F2800318430B785B0022F81300C88840104400B2F850300878B6
:2041C00003EBC00002F5806343F81040088940104400B2F85030087803EBC000001D02F53B
:2041E000806343F810404878F0BB0878400032F8100000F4804068B10878400032F8100025
:2042000048F68F7318404CF2800318430B785B0022F813000878400032F8100000F04000B5
:2042200068B10878400032F8100048F68F73184048F2C00318430B785B0022F813000878F0
:20424000400032F8100048F68F73184048F2C00318430B785B0022F813000B785B0032F8E1
:2042600013304BF68F7400E01EE003EA040080F4805080F4005040F4004343F080030C782F
:20428000640022F814300B785B0032F8133048F6BF7403EA040040F4004343F080030C78FE
:2042A000640022F8143058E00878400032F8100000F4804068B10878400032F8100048F605
:2042C0008F7318404CF2800318430B785B0022F813000878400032F8100000F0400068B11A
:2042E0000878400032F8100048F68F73184048F2C00318430B785B0022F813000878400009
:2043000032F8100048F68F7318404CF2800318430B785B0022F813000B785B0032F8133059
:2043200048F6BF7403EA040040F4004343F080030C78640022F814300B785B0032F813305D
:204340004BF68F7403EA040040F4004343F080030C78640022F8143000BF002010BD10B544
:204360000446002010BD10B50246887A00284DD1487828B30878400032F8100000F04000EC
:2043800068B10878400032F8100048F68F73184048F2C00318430B785B0022F813000B788C
:2043A0005B0032F8133048F6BF7403EA040040F4004343F080030C78640022F81430DAE0A6
:2043C0000878400032F8100000F4804068B10878400032F8100048F68F7318404CF28003C3
:2043E00018430B785B0022F813000B785B0032F813304BF68F7403EA040040F4004343F02D
:2044000080030C78640022F81430B4E04878002858D10878400032F8100000F4804068B167
:204420000878400032F8100048F68F7318404CF2800318430B785B0022F813000878400003
:2044400032F8100000F0400068B10878400032F8100048F68F73184048F2C00318430B786C
:204460005B0022F813000878400032F8100048F68F73184048F2C00318430B785B0022F8D2
:2044800013000B785B0032F813304BF68F7403EA040040F4004343F080030C78640022F85A
:2044A00014300B785B0032F8133048F6BF7403EA040040F4004343F080030C78640022F8DC
:2044C000143058E00878400032F8100000F4804068B10878400032F8100048F68F73184007
:2044E0004CF2800318430B785B0022F813000878400032F8100000F0400068B10878400092
:2045000032F8100048F68F73184048F2C00318430B785B0022F813000878400032F810006C
:2045200048F68F7318404CF2800318430B785B0022F813000B785B0032F8133048F6BF7400
:2045400003EA040040F4004343F080030C78640022F814300B785B0032F813304BF68F7468
:2045600003EA040040F4004343F080030C78640022F8143000BF002010BD0146002070470D
:2045800001460020704710B50446012024F8400F00202080A0802082403C204600F046FACE
:2045A000002010BD014600224FF43D42B1F840009043A1F840000020704702460020704758
:2045C00010B50246487848B30878400032F8100000F0400068B10878400032F8100048F698
:2045E0008F73184048F2C00318430B785B0022F813000B785B0032F8133048F6BF7403EA55
:20460000040080F0100080F0200040F4004343F080030C78640022F8143029E0087840004A
:2046200032F8100000F4804068B10878400032F8100048F68F7318404CF2800318430B7842
:204640005B0022F813000B785B0032F813304BF68F7403EA040080F4805080F4005040F416
:20466000004343F080030C78640022F8143000BF002010BD10B502460878A0B90B785B008B
:2046800032F813304BF6BF7403EA040080F4805080F0100040F4004343F080030C7864006F
:2046A00022F8143027E0487890B10B785B0032F8133048F6BF7403EA040080F0100040F433
:2046C000004343F080030C78640022F8143012E00B785B0032F813304BF68F7403EA040029
:2046E00080F4805040F4004343F080030C78640022F8143000BF002010BDF0B506460C4614
:204700000027A569607801287CD12169A069884204D92569A069401BA06102E0A5690020D9
:20472000A061A07A80B9ABB2A2883046616900F0B2F9B6F85010207801EBC000801C06F5DA
:20474000806141F81050A1E02078400036F8100000F04000C0B3607838BBB6F85020207824
:2047600002EBC000801D06F5806202EB40013E2D0ED9C5F34F1005F01F020AB9421E90B200
:204780004FF6FF7202EA802242F400420A600BE0C5F34F0005F001020AB1421C90B24FF669
:2047A000FF7202EA80220A600CE06078012809D1B6F85010207801EBC000801C06F58061FF
:2047C00041F81050278939E0FFE7607840BBB6F85020207802EBC000801C06F5806202EBF5
:2047E00040013E2D0FD9C5F34F1005F01F020AB9421E90B24FF6FF7202EA802242F40042D7
:204800000A600CE057E0C5F34F0005F001020AB1421C90B24FF6FF7202EA80220A600CE017
:204820006078012809D1B6F85010207801EBC000801C06F5806141F81050E788ABB23A46EE
:204840003046616900F027F9607870B92078400036F8100048F68F71084048F2C001084325
:204860002178490026F8110010E0607801280DD12078400036F8100048F68F7108404CF27E
:20488000800108432178490026F811002178490036F8111048F6BF7201EA020080F010002E
:2048A00080F0200040F4004141F080012278520026F81210B8E02169A069884204D92569B5
:2048C000A069401BA06102E0A5690020A061A07A38BBB6F85020207802EBC000801D06F55A
:2048E000806202EB40013E2D0ED9C5F34F1005F01F020AB9421E90B24FF6FF7202EA802280
:2049000042F400420A600BE0C5F34F0005F001020AB1421C90B24FF6FF7202EA80220A60C2
:204920006DE0607838BBB6F85020207802EBC000801C06F5806202EB40013E2D0ED9C5F34B
:204940004F1005F01F020AB9421E90B24FF6FF7202EA802242F400420A600BE0C5F34F0065
:2049600005F001020AB1421C90B24FF6FF7202EA80220A600CE06078012809D1B6F8501061
:20498000207801EBC000801C06F5806141F81050607838BBB6F85020207802EBC000801DF7
:2049A00006F5806202EB40013E2D0ED9C5F34F1005F01F020AB9421E90B24FF6FF7202EA66
:2049C000802242F400420A600BE0C5F34F0005F001020AB1421C90B24FF6FF7202EA8022CA
:2049E0000A600CE06078012809D1B6F85010207801EBC000801C06F5806141F8105021788A
:204A0000490036F811104BF68F7201EA020080F4805080F4005040F4004141F08001227806
:204A2000520026F8121000BF0020F0BD014600224FF43F42B1F840001043A1F840000020F6
:204A4000704700000148FDF7F4BB00005008002001460020B1F844007047F0B55F1C7E1082
:204A60000024002500EB420707F58065344605E035F804CB21F801CB491C641E002CF7D1BD
:204A8000F0BD024600207047024611B98020A2F84C00002070472DE9F041044603F101084D
:204AA0004FEA68070025AC460026002004EB420808F580603D460BE091F800C0491C91F836
:204AC00000804CEA082620F8026B801C491C6D1E002DF1D1BDE8F081FEE7FEE702E008C860
:204AE000121F08C1002AFAD170477047002001E001C1121F002AFBD17047000008B50024D7
:204B0000FDF736F9FEF744FC9048FCF731F98F4D2888A0F57F41FF3905D18D48FCF73EF95A
:204B20002846FCF725F91422A91C8A48FBF70AFBFEF754F98548FCF743FB8448FBF70EFC2A
:204B40008248FCF7FFF9DFF81092AA46834D4FF00008A9F1360B00BFFDF7F8F80646687876
:204B600000B1012069780A2901D8012100E0002108427AD0022440217748FBF7FCFA02216E
:204B800089F800106978484689F80110697809297FD2DFE801F07E051A2E42566B727800AF
:204BA0006D49BAF8002054464A801422A11C001DFBF7C8FA684854F8161F1E228161616829
:204BC000C161A0F27A21213054E00027C7EB07110AEB41017F1CFFB209EB04001E223C31E8
:204BE000FBF7B0FA1E34E4B2C4F140001E28EDD84FE00227C7EB07110AEB41017F1CFFB28C
:204C000009EB04001E223C31FBF79CFA1E34E4B2C4F140001E28EDD83BE00427C7EB07116F
:204C20000AEB41017F1CFFB209EB04001E223C31FBF788FA1E34E4B2C4F140001E28EDD8F0
:204C400027E00627C7EB07110AEB41017F1CFFB209EB04001E223C31FBF774FA1E34E4B2E6
:204C6000C4F140001E28EDD813E01BE009F102003E223B49FBF766FA0BE039493E2209F14D
:204C800002003E31F6E73448A0F58C71896AC0F80210402230493348FEF774FC85F8018042
:204CA00006F57A74A878012801D9012000E00020A9780A2901D8012100E0002108420ED04F
:204CC00003208DF80000A8788DF80100022269462448FEF757FC85F8028006F57A74A888E7
:204CE00090B104208DF80000A888000A8DF80100A8888DF80200032269461A48FEF742FCEA
:204D0000A5F8048006F57A74BAF81C00311B814209DD01208BF80100344635220BF1010152
:204D20001048FEF72FFC287808B1FCF741F90BF10200FBF7E7FE08491039A1F11400FBF76E
:204D4000B5FB05481438FEF7C3FA05E7FC020020684D00080C00002094050020000000208C
:204D600028040020D40500200000467265654A6F792076312E3000000000000000001E00F7
:204D8000C8001E000A000505050505050505010101000000010101010100000000010101F0
:204DA000010000000000FF07FF0F0000009CB3C9DFF50B21374D64000000000000000000DE
:204DC00000000000FF07FF0F0000009CB3C9DFF50B21374D640000000000000000000000BF
:204DE0000000FF07FF0F0000009CB3C9DFF50B21374D64000000000000000000000000009F
:204E0000FF07FF0F0000009CB3C9DFF50B21374D6400000000000000000000000000FF0778
:204E2000FF0F0000009CB3C9DFF50B21374D6400000000000000000000000000FF07FF0F50
:204E40000000009CB3C9DFF50B21374D6400000000000000000000000000FF07FF0F00003E
:204E6000009CB3C9DFF50B21374D6400000000000000000000000000FF07FF0F0000009C82
:204E8000B3C9DFF50B21374D640000000000000000000000000000000000000000000000AE
:204EA0000000000000000000000000000000000000000000000000000000000000000000F2
:204EC0000000000000000000000000000000000000000000000000000000000000000000D2
:204EE0000000000000000000000000000000000000000000000000000000000000000000B2
:204F0000000000000000000000000000000000000000000000000000000000000000000091
:204F2000000000000000000000000000000000000000000000000000000000000000000071
:204F4000000000000000000000000000000000000000000000000000000000000000000051
:204F6000000000000000000000000000000000000000000000000000000000000000000031
:204F8000000000000000000000000000000000000000000000000000000000000000000011
:204FA0000000000000000000000000000000000000000000000000000000000000000000F1
:204FC0000000000000000000000000000000000000000102030406070809000000000102A6
:204FE000030400000450000800000020FC020000B0010008DC510008FC02002024280000D8
:20500000EC4A000881D00C04030904467265654A6F7913120132021640830419262602018E
:205020000203011335371B086D041A79041AA1041AB9041A0D041A4104101005010905A1CB
:20504000018501050919012980151809250175019580810218101130093109320933093437
:2050600009350936093615180C26FF0F751095088102093929130735280A463B0165127508
:2050800008950113890412062CFF09012F11392F114D850209020F1508953F812B09033302
:2050A00012911A85C3393D112B09051A19121C0409060A1A02124A071223C05014201D0B8D
:2050C0001B0819041A2104511C080140D739081202190A19082A04F7190812083A03081274
:2050E000103A040812203A050812403A060812803A0708111A014B29084B0209084B040A0D
:205100000823800F5A0C6019083960190839581908395819083958190839581908395819C2
:20512000083958290829582908295829084B080B084B100C084B200D084B400E0829785A50
:2051400010182908291829082918F118152D1E0F05051E140A0A0A0606040202190F0A0A21
:2051600005015A02011A010191290A29045A020419C6390419C6390419C6390419C63904EF
:2051800019C63904415A103C112BA24A2B111329351408BB341B08AD08411AED0C1A890459
:2051A0001A9704C11A112069045A1D2C1409022919971CC032094B2A0282150921110114B1
:2051C0000122A01607058103401D01070501072974791A313B0A06B72A408800FFFFFFFFA3
:2051E000FFFFFFFFFFFFFFFFFFFFFFFFFFFFFFFFFFFFFFFFFFFFFFFFFFFFFFFFFFFFFFFFCF
:20520000FFFFFFFFFFFFFFFFFFFFFFFFFFFFFFFFFFFFFFFFFFFFFFFFFFFFFFFFFFFFFFFFAE
:20522000FFFFFFFFFFFFFFFFFFFFFFFFFFFFFFFFFFFFFFFFFFFFFFFFFFFFFFFFFFFFFFFF8E
:20524000FFFFFFFFFFFFFFFFFFFFFFFFFFFFFFFFFFFFFFFFFFFFFFFFFFFFFFFFFFFFFFFF6E
:020000040800F2
:20D000003004002001D1000809D100080BD100080DD100080FD1000811D100080000000064
:20D0200000000000000000000000000013D1000815D100080000000017D1000819D1000834
:20D040001BD100081BD100081BD100081BD100081BD100081BD100081BD100081BD1000830
:20D060001BD100081BD100081BD100081BD100081BD100081BD100081BD100081BD1000810
:20D080001BD100081BD100081BD100081BD100081BD100081BD100081BD100081BD10008F0
:20D0A0001BD100081BD100081BD100081BD100081BD100081BD100081BD100081BD10008D0
:20D0C0001BD100081BD100081BD100081BD100081BD100081BD100081BD100081BD10008B0
:20D0E0001BD100081BD100081BD10008DFF80CD000F028F8004800473DD700083004002092
:20D100000648804706480047FEE7FEE7FEE7FEE7FEE7FEE7FEE7FEE7FEE7FEE7C5D60008D0
:20D12000EDD00008202A04DB203A21FA02F00021704721FA02F3D040C2F1200291400843B1
:20D1400019467047064C074D06E0E06840F0010394E8070098471034AC42F6D3FFF7CAFF95
:20D16000A0D70008C0D7000870B54FF00060446872B6254654F8040C80F3088800BFA84781
:20D1800070BD00000021074AD1610749096941F00401054A11611146096941F04001116158
:20D1A0007047000010000020002002400021074AD1610749096941F00201054A1161114674
:20D1C0004861096941F040011161704710000020002002400022054BDA61054A126942F05E
:20D1E0000102034B1A61018070470000100000200020024000201E49C96801F0100139B1F5
:20D200001C49C96941F002011A4AD16140F010001749C96801F0040139B11649C96941F03A
:20D220000101144AD16140F004001149C96901F0010169B10F49C96941F004010D4AD16146
:20D2400000BF0B49C96921F00101094AD16100BF00BF40F20111884206D10549C96921F0FD
:20D260000101034AD16101E00149C86000BF7047002002401000002070B5044600F006F974
:20D28000054609E0601C38B124B100F0FFF8401BA04201D9032070BD1248C06800F001005F
:20D2A0000028EFD10F48C06800F0200020B100BF20200C49C86000BF0A48C06800F0100071
:20D2C00048B90848C06900F0010020B90548C06800F0040018B1FFF78DFF0120DBE7002053
:20D2E000D9E70000002002402DE9F04104460E460127002500BF2648007E012802D1022011
:20D30000BDE8F08101202249087600BF2068022813D14CF25030FFF7AFFF90BB0120FFF7D4
:20D3200031FF4CF25030FFF7A7FF07461948006920F004001749086123E04CF25030FFF7B8
:20D340009BFFF0B94FF0FF303060A56812E02846FFF72CFF4CF25030FFF78EFF07460D481B
:20D36000006920F002000B4908610FB1356007E005F58065D4E9021001EB8020A842E6D857
:20D3800000BF00BF00200249087600BF3846B7E710000020002002400348006940F0800055
:20D3A0000149086100207047002002402DE9FE4F05468B46174698460126002400200290CA
:20D3C00000BF2448007E012802D10220BDE8FE8F01202049087600BF4CF25030FFF74CFF8E
:20D3E000064686BB012D02D10120029006E0022D02D10220029001E00420029000241EE097
:20D400002201B946C24648465146FFF78BFE80B20190022000FB04B000900199FFF7DAFEB2
:20D420004CF25030FFF728FF06460B48006920F001000949086106B104E0601CC4B2029816
:20D440008442DDDB00BF00BF00200249087600BF3046BBE71000002000200240002008490D
:20D46000096901F0800151B10649054A5160064951601146096901F0800101B101207047B2
:20D480000020024023016745AB89EFCD01480068704700000000002010B50848006840F035
:20D4A000100006490860032000F0C2F8002000F007F800F02BF8002010BD00000020024067
:20D4C00070B504460E4800784FF47A71B1FBF0F00C490968B1FBF0F5284600F0BDF808B132
:20D4E000012070BD102C07D200222146501E00F061F80548046001E00120F2E70020F0E706
:20D50000080000200C0000200400002008B500BF2648806940F00100244988610846806902
:20D5200000F00100009000BF00BF00BF0846C06940F08050C8610846C06900F080500090C6
:20D5400000BF00BF032000F073F8002211466FF00B0000F02FF8002211466FF00A0000F003
:20D5600029F8002211466FF0090000F023F800221146501F00F01EF800221146101F00F018
:20D5800019F800221146901E00F014F800221146501E00F00FF800BF0549486820F0E0606C
:20D5A00040F00070486000BF08BD000000100240000001402DE9F05F80460D46164600270B
:20D5C00000F064F8074639462A46334601F00700C0F1070ABAF1040F02D94FF0040A01E0C9
:20D5E000C0F1070AD14600F1040ABAF1070F02D24FF0000A01E0A0F1030AD4464FF0010A92
:20D600000AFA09FAAAF1010A0AEA020A0AFA0CFA4FF0010B0BFA0CFBABF1010B0BEA030B51
:20D620004AEA0B042146404600F038F8BDE8F09F00BF00F00702064B19684FF6FF0319403C
:20D64000044B0B4343EA0221014B196000BF70470CED00E00000FA0570B504462546681E6A
:20D66000B0F1807F01D301200FE0681E4FF0E02148610F214FF0FF3000F010F800204FF0C2
:20D68000E021886107200861002070BD02480068C0F30220704700000CED00E010B50028BF
:20D6A00007DA0A07140E054A00F00F031B1FD45403E00A07130E024A135410BD18ED00E029
:20D6C00000E400E01148006840F001000F490860084640680E4908400C494860084600688C
:20D6E0000C490840094908600846006820F4802008600846406820F4FE0048604FF41F00EF
:20D700008860C8030449086070470000001002400000FFF8FFFFF6FE08ED00E002E008C828
:20D72000121F08C1002AFAD170477047002001E001C1121F002AFBD17047000070B586B090
:20D7400000200190FFF7A8FE1348068800200290182005904FF000600490FFF77FFE01A9C4
:20D7600002A8FFF7C1FD00240CE00C48204404F10061D0F83C542A4600230220FFF716FE16
:20D78000201D84B2B442F0DBFFF706FEFFF7ECFC002006B070BD00000064000800600008A6
:20D7A000C0D7000800000020100000001CD70008D0D7000810000020200400002CD7000891
:20D7C00000000000100000000100000000A24A04FFFFFFFFFFFFFFFFFFFFFFFFFFFFFFFF58
:20D7E000FFFFFFFFFFFFFFFFFFFFFFFFFFFFFFFFFFFFFFFFFFFFFFFFFFFFFFFFFFFFFFFF49
:20D80000FFFFFFFFFFFFFFFFFFFFFFFFFFFFFFFFFFFFFFFFFFFFFFFFFFFFFFFFFFFFFFFF28
:20D82000FFFFFFFFFFFFFFFFFFFFFFFFFFFFFFFFFFFFFFFFFFFFFFFFFFFFFFFFFFFFFFFF08
:20D84000FFFFFFFFFFFFFFFFFFFFFFFFFFFFFFFFFFFFFFFFFFFFFFFFFFFFFFFFFFFFFFFFE8
:020000040800F2
:20FC00000000467265654A6F792076312E3000000000000000001E00C8001E000A000505F3
:20FC2000050505050505010101000000010101010100000000010101010000000000FF0794
:20FC4000FF0F0000009CB3C9DFF50B21374D6400000000000000000000000000FF07FF0F82
:20FC60000000009CB3C9DFF50B21374D6400000000000000000000000000FF07FF0F000070
:20FC8000009CB3C9DFF50B21374D6400000000000000000000000000FF07FF0F0000009CB4
:20FCA000B3C9DFF50B21374D6400000000000000000000000000FF07FF0F0000009CB3C9B4
:20FCC000DFF50B21374D6400000000000000000000000000FF07FF0F0000009CB3C9DFF53C
:20FCE0000B21374D6400000000000000000000000000FF07FF0F0000009CB3C9DFF50B21C4
:20FD0000374D6400000000000000000000000000FF07FF0F0000009CB3C9DFF50B21374D4B
:20FD200064000000000000000000000000000000000000000000000000000000000000005F
:20FD40000000000000000000000000000000000000000000000000000000000000000000A3
:20FD6000000000000000000000000000000000000000000000000000000000000000000083
:20FD8000000000000000000000000000000000000000000000000000000000000000000063
:20FDA000000000000000000000000000000000000000000000000000000000000000000043
:20FDC000000000000000000000000000000000000000000000000000000000000000000023
:20FDE000000000000000000000000000000000000000000000000000000000000000000003
:20FE00000000000000000000000000000000000000000000000000000000000000000000E2
:20FE20000000000000000000000000000000000000000000000000000000000000000000C2
:20FE40000000000000000000000000000000000000000000000000000000000000000000A2
:20FE600000000000FFFFFFFFFFFFFFFFFFFFFFFFFFFFFFFFFFFFFFFFFFFFFFFFFFFFFFFF9E
:20FE8000FFFFFFFFFFFFFFFFFFFFFFFFFFFFFFFFFFFFFFFFFFFFFFFFFFFFFFFFFFFFFFFF82
:20FEA000FFFFFFFFFFFFFFFFFFFFFFFFFFFFFFFFFFFFFFFFFFFFFFFFFFFFFFFFFFFFFFFF62
:20FEC000FFFFFFFFFFFFFFFFFFFFFFFFFFFFFFFFFFFFFFFFFFFFFFFFFFFFFFFFFFFFFFFF42
:20FEE000FFFFFFFFFFFFFFFFFFFFFFFFFFFFFFFFFFFFFFFFFFFFFFFFFFFFFFFFFFFFFFFF22
:20FF0000FFFFFFFFFFFFFFFFFFFFFFFFFFFFFFFFFFFFFFFFFFFFFFFFFFFFFFFFFFFFFFFF01
:20FF2000FFFFFFFFFFFFFFFFFFFFFFFFFFFFFFFFFFFFFFFFFFFFFFFFFFFFFFFFFFFFFFFFE1
:20FF4000FFFFFFFFFFFFFFFFFFFFFFFFFFFFFFFFFFFFFFFFFFFFFFFFFFFFFFFFFFFFFFFFC1
:20FF6000FFFFFFFFFFFFFFFFFFFFFFFFFFFFFFFFFFFFFFFFFFFFFFFFFFFFFFFFFFFFFFFFA1
:20FF8000FFFFFFFFFFFFFFFFFFFFFFFFFFFFFFFFFFFFFFFFFFFFFFFFFFFFFFFFFFFFFFFF81
:20FFA000FFFFFFFFFFFFFFFFFFFFFFFFFFFFFFFFFFFFFFFFFFFFFFFFFFFFFFFFFFFFFFFF61
:20FFC000FFFFFFFFFFFFFFFFFFFFFFFFFFFFFFFFFFFFFFFFFFFFFFFFFFFFFFFFFFFFFFFF41
:20FFE000FFFFFFFFFFFFFFFFFFFFFFFFFFFFFFFFFFFFFFFFFFFFFFFFFFFFFFFFFFFFFFFF21
:00000001FF
